{
  "_format": "hh-sol-artifact-1",
  "contractName": "TenartAuctionMock",
  "sourceName": "contracts/mock/TenartAuctionMock.sol",
  "abi": [
    {
      "inputs": [
        {
          "internalType": "address payable",
          "name": "_platformReserveAddress",
          "type": "address"
        }
      ],
      "stateMutability": "nonpayable",
      "type": "constructor"
    },
    {
      "anonymous": false,
      "inputs": [
        {
          "indexed": true,
          "internalType": "address",
          "name": "nftAddress",
          "type": "address"
        },
        {
          "indexed": true,
          "internalType": "uint256",
          "name": "tokenId",
          "type": "uint256"
        }
      ],
      "name": "AuctionCancelled",
      "type": "event"
    },
    {
      "anonymous": false,
      "inputs": [
        {
          "indexed": true,
          "internalType": "address",
          "name": "nftAddress",
          "type": "address"
        },
        {
          "indexed": true,
          "internalType": "uint256",
          "name": "tokenId",
          "type": "uint256"
        },
        {
          "indexed": false,
          "internalType": "address",
          "name": "payToken",
          "type": "address"
        }
      ],
      "name": "AuctionCreated",
      "type": "event"
    },
    {
      "anonymous": false,
      "inputs": [
        {
          "indexed": false,
          "internalType": "address",
          "name": "oldOwner",
          "type": "address"
        },
        {
          "indexed": true,
          "internalType": "address",
          "name": "nftAddress",
          "type": "address"
        },
        {
          "indexed": true,
          "internalType": "uint256",
          "name": "tokenId",
          "type": "uint256"
        },
        {
          "indexed": true,
          "internalType": "address",
          "name": "winner",
          "type": "address"
        },
        {
          "indexed": false,
          "internalType": "address",
          "name": "payToken",
          "type": "address"
        },
        {
          "indexed": false,
          "internalType": "int256",
          "name": "unitPrice",
          "type": "int256"
        },
        {
          "indexed": false,
          "internalType": "uint256",
          "name": "winningBid",
          "type": "uint256"
        }
      ],
      "name": "AuctionResulted",
      "type": "event"
    },
    {
      "anonymous": false,
      "inputs": [
        {
          "indexed": true,
          "internalType": "address",
          "name": "nftAddress",
          "type": "address"
        },
        {
          "indexed": true,
          "internalType": "uint256",
          "name": "tokenId",
          "type": "uint256"
        },
        {
          "indexed": true,
          "internalType": "address",
          "name": "bidder",
          "type": "address"
        },
        {
          "indexed": false,
          "internalType": "uint256",
          "name": "bid",
          "type": "uint256"
        }
      ],
      "name": "BidPlaced",
      "type": "event"
    },
    {
      "anonymous": false,
      "inputs": [
        {
          "indexed": true,
          "internalType": "address",
          "name": "nftAddress",
          "type": "address"
        },
        {
          "indexed": true,
          "internalType": "uint256",
          "name": "tokenId",
          "type": "uint256"
        },
        {
          "indexed": true,
          "internalType": "address",
          "name": "bidder",
          "type": "address"
        },
        {
          "indexed": false,
          "internalType": "uint256",
          "name": "bid",
          "type": "uint256"
        }
      ],
      "name": "BidRefunded",
      "type": "event"
    },
    {
      "anonymous": false,
      "inputs": [
        {
          "indexed": true,
          "internalType": "address",
          "name": "nftAddress",
          "type": "address"
        },
        {
          "indexed": true,
          "internalType": "uint256",
          "name": "tokenId",
          "type": "uint256"
        },
        {
          "indexed": true,
          "internalType": "address",
          "name": "bidder",
          "type": "address"
        },
        {
          "indexed": false,
          "internalType": "uint256",
          "name": "bid",
          "type": "uint256"
        }
      ],
      "name": "BidWithdrawn",
      "type": "event"
    },
    {
      "anonymous": false,
      "inputs": [
        {
          "indexed": true,
          "internalType": "address",
          "name": "previousOwner",
          "type": "address"
        },
        {
          "indexed": true,
          "internalType": "address",
          "name": "newOwner",
          "type": "address"
        }
      ],
      "name": "OwnershipTransferred",
      "type": "event"
    },
    {
      "anonymous": false,
      "inputs": [
        {
          "indexed": false,
          "internalType": "bool",
          "name": "isPaused",
          "type": "bool"
        }
      ],
      "name": "PauseToggled",
      "type": "event"
    },
    {
      "anonymous": false,
      "inputs": [],
      "name": "TenartAuctionContractDeployed",
      "type": "event"
    },
    {
      "anonymous": false,
      "inputs": [
        {
          "indexed": true,
          "internalType": "address",
          "name": "nftAddress",
          "type": "address"
        },
        {
          "indexed": true,
          "internalType": "uint256",
          "name": "tokenId",
          "type": "uint256"
        },
        {
          "indexed": false,
          "internalType": "uint256",
          "name": "endTime",
          "type": "uint256"
        }
      ],
      "name": "UpdateAuctionEndTime",
      "type": "event"
    },
    {
      "anonymous": false,
      "inputs": [
        {
          "indexed": true,
          "internalType": "address",
          "name": "nftAddress",
          "type": "address"
        },
        {
          "indexed": true,
          "internalType": "uint256",
          "name": "tokenId",
          "type": "uint256"
        },
        {
          "indexed": false,
          "internalType": "address",
          "name": "payToken",
          "type": "address"
        },
        {
          "indexed": false,
          "internalType": "uint256",
          "name": "reservePrice",
          "type": "uint256"
        }
      ],
      "name": "UpdateAuctionReservePrice",
      "type": "event"
    },
    {
      "anonymous": false,
      "inputs": [
        {
          "indexed": true,
          "internalType": "address",
          "name": "nftAddress",
          "type": "address"
        },
        {
          "indexed": true,
          "internalType": "uint256",
          "name": "tokenId",
          "type": "uint256"
        },
        {
          "indexed": false,
          "internalType": "uint256",
          "name": "startTime",
          "type": "uint256"
        }
      ],
      "name": "UpdateAuctionStartTime",
      "type": "event"
    },
    {
      "anonymous": false,
      "inputs": [
        {
          "indexed": false,
          "internalType": "uint256",
          "name": "bidWithdrawalLockTime",
          "type": "uint256"
        }
      ],
      "name": "UpdateBidWithdrawalLockTime",
      "type": "event"
    },
    {
      "anonymous": false,
      "inputs": [
        {
          "indexed": false,
          "internalType": "uint256",
          "name": "minBidIncrement",
          "type": "uint256"
        }
      ],
      "name": "UpdateMinBidIncrement",
      "type": "event"
    },
    {
      "anonymous": false,
      "inputs": [
        {
          "indexed": false,
          "internalType": "uint256",
          "name": "platformFee",
          "type": "uint256"
        }
      ],
      "name": "UpdatePlatformFee",
      "type": "event"
    },
    {
      "anonymous": false,
      "inputs": [
        {
          "indexed": false,
          "internalType": "address payable",
          "name": "platformFeeRecipient",
          "type": "address"
        }
      ],
      "name": "UpdatePlatformFeeRecipient",
      "type": "event"
    },
    {
      "inputs": [],
      "name": "addressRegistry",
      "outputs": [
        {
          "internalType": "contract ITenartAddressRegistry",
          "name": "",
          "type": "address"
        }
      ],
      "stateMutability": "view",
      "type": "function"
    },
    {
      "inputs": [
        {
          "internalType": "address",
          "name": "",
          "type": "address"
        },
        {
          "internalType": "uint256",
          "name": "",
          "type": "uint256"
        }
      ],
      "name": "auctions",
      "outputs": [
        {
          "internalType": "address",
          "name": "owner",
          "type": "address"
        },
        {
          "internalType": "address",
          "name": "payToken",
          "type": "address"
        },
        {
          "internalType": "uint256",
          "name": "minBid",
          "type": "uint256"
        },
        {
          "internalType": "uint256",
          "name": "reservePrice",
          "type": "uint256"
        },
        {
          "internalType": "uint256",
          "name": "startTime",
          "type": "uint256"
        },
        {
          "internalType": "uint256",
          "name": "endTime",
          "type": "uint256"
        },
        {
          "internalType": "bool",
          "name": "resulted",
          "type": "bool"
        }
      ],
      "stateMutability": "view",
      "type": "function"
    },
    {
      "inputs": [],
      "name": "bidWithdrawalLockTime",
      "outputs": [
        {
          "internalType": "uint256",
          "name": "",
          "type": "uint256"
        }
      ],
      "stateMutability": "view",
      "type": "function"
    },
    {
      "inputs": [
        {
          "internalType": "address",
          "name": "_nftAddress",
          "type": "address"
        },
        {
          "internalType": "uint256",
          "name": "_tokenId",
          "type": "uint256"
        }
      ],
      "name": "cancelAuction",
      "outputs": [],
      "stateMutability": "nonpayable",
      "type": "function"
    },
    {
      "inputs": [
        {
          "internalType": "address",
          "name": "_nftAddress",
          "type": "address"
        },
        {
          "internalType": "uint256",
          "name": "_tokenId",
          "type": "uint256"
        }
      ],
      "name": "cancelAuctionOwner",
      "outputs": [],
      "stateMutability": "nonpayable",
      "type": "function"
    },
    {
      "inputs": [
        {
          "internalType": "address",
          "name": "_nftAddress",
          "type": "address"
        },
        {
          "internalType": "uint256",
          "name": "_tokenId",
          "type": "uint256"
        },
        {
          "internalType": "address",
          "name": "_payToken",
          "type": "address"
        },
        {
          "internalType": "uint256",
          "name": "_reservePrice",
          "type": "uint256"
        },
        {
          "internalType": "uint256",
          "name": "_startTimestamp",
          "type": "uint256"
        },
        {
          "internalType": "bool",
          "name": "minBidReserve",
          "type": "bool"
        },
        {
          "internalType": "uint256",
          "name": "_endTimestamp",
          "type": "uint256"
        }
      ],
      "name": "createAuction",
      "outputs": [],
      "stateMutability": "nonpayable",
      "type": "function"
    },
    {
      "inputs": [
        {
          "internalType": "address",
          "name": "_nftAddress",
          "type": "address"
        },
        {
          "internalType": "uint256",
          "name": "_tokenId",
          "type": "uint256"
        }
      ],
      "name": "endAuction",
      "outputs": [],
      "stateMutability": "nonpayable",
      "type": "function"
    },
    {
      "inputs": [
        {
          "internalType": "address",
          "name": "_nftAddress",
          "type": "address"
        },
        {
          "internalType": "uint256",
          "name": "_tokenId",
          "type": "uint256"
        }
      ],
      "name": "getAuction",
      "outputs": [
        {
          "internalType": "address",
          "name": "_owner",
          "type": "address"
        },
        {
          "internalType": "address",
          "name": "_payToken",
          "type": "address"
        },
        {
          "internalType": "uint256",
          "name": "_reservePrice",
          "type": "uint256"
        },
        {
          "internalType": "uint256",
          "name": "_startTime",
          "type": "uint256"
        },
        {
          "internalType": "uint256",
          "name": "_endTime",
          "type": "uint256"
        },
        {
          "internalType": "bool",
          "name": "_resulted",
          "type": "bool"
        },
        {
          "internalType": "uint256",
          "name": "minBid",
          "type": "uint256"
        }
      ],
      "stateMutability": "view",
      "type": "function"
    },
    {
      "inputs": [
        {
          "internalType": "address",
          "name": "_nftAddress",
          "type": "address"
        },
        {
          "internalType": "uint256",
          "name": "_tokenId",
          "type": "uint256"
        }
      ],
      "name": "getHighestBidder",
      "outputs": [
        {
          "internalType": "address payable",
          "name": "_bidder",
          "type": "address"
        },
        {
          "internalType": "uint256",
          "name": "_bid",
          "type": "uint256"
        },
        {
          "internalType": "uint256",
          "name": "_lastBidTime",
          "type": "uint256"
        }
      ],
      "stateMutability": "view",
      "type": "function"
    },
    {
      "inputs": [
        {
          "internalType": "address",
          "name": "",
          "type": "address"
        },
        {
          "internalType": "uint256",
          "name": "",
          "type": "uint256"
        }
      ],
      "name": "highestBids",
      "outputs": [
        {
          "internalType": "address payable",
          "name": "bidder",
          "type": "address"
        },
        {
          "internalType": "uint256",
          "name": "bid",
          "type": "uint256"
        },
        {
          "internalType": "uint256",
          "name": "lastBidTime",
          "type": "uint256"
        }
      ],
      "stateMutability": "view",
      "type": "function"
    },
    {
      "inputs": [
        {
          "internalType": "address payable",
          "name": "_platformFeeRecipient",
          "type": "address"
        },
        {
          "internalType": "uint256",
          "name": "_minBidIncrement",
          "type": "uint256"
        }
      ],
      "name": "initialize",
      "outputs": [],
      "stateMutability": "nonpayable",
      "type": "function"
    },
    {
      "inputs": [],
      "name": "isPaused",
      "outputs": [
        {
          "internalType": "bool",
          "name": "",
          "type": "bool"
        }
      ],
      "stateMutability": "view",
      "type": "function"
    },
    {
      "inputs": [],
      "name": "maxAuctionLength",
      "outputs": [
        {
          "internalType": "uint256",
          "name": "",
          "type": "uint256"
        }
      ],
      "stateMutability": "view",
      "type": "function"
    },
    {
      "inputs": [],
      "name": "minBidIncrement",
      "outputs": [
        {
          "internalType": "uint256",
          "name": "",
          "type": "uint256"
        }
      ],
      "stateMutability": "view",
      "type": "function"
    },
    {
      "inputs": [],
      "name": "nowOverride",
      "outputs": [
        {
          "internalType": "uint256",
          "name": "",
          "type": "uint256"
        }
      ],
      "stateMutability": "view",
      "type": "function"
    },
    {
      "inputs": [
        {
          "internalType": "address",
          "name": "operator",
          "type": "address"
        },
        {
          "internalType": "address",
          "name": "from",
          "type": "address"
        },
        {
          "internalType": "uint256",
          "name": "tokenId",
          "type": "uint256"
        },
        {
          "internalType": "bytes",
          "name": "data",
          "type": "bytes"
        }
      ],
      "name": "onERC721Received",
      "outputs": [
        {
          "internalType": "bytes4",
          "name": "",
          "type": "bytes4"
        }
      ],
      "stateMutability": "nonpayable",
      "type": "function"
    },
    {
      "inputs": [],
      "name": "owner",
      "outputs": [
        {
          "internalType": "address",
          "name": "",
          "type": "address"
        }
      ],
      "stateMutability": "view",
      "type": "function"
    },
    {
      "inputs": [
        {
          "internalType": "address",
          "name": "_nftAddress",
          "type": "address"
        },
        {
          "internalType": "uint256",
          "name": "_tokenId",
          "type": "uint256"
        },
        {
          "internalType": "uint256",
          "name": "_bidAmount",
          "type": "uint256"
        }
      ],
      "name": "placeBid",
      "outputs": [],
      "stateMutability": "nonpayable",
      "type": "function"
    },
    {
      "inputs": [],
      "name": "platformFee",
      "outputs": [
        {
          "internalType": "uint256",
          "name": "",
          "type": "uint256"
        }
      ],
      "stateMutability": "view",
      "type": "function"
    },
    {
      "inputs": [],
      "name": "platformFeeRecipient",
      "outputs": [
        {
          "internalType": "address payable",
          "name": "",
          "type": "address"
        }
      ],
      "stateMutability": "view",
      "type": "function"
    },
    {
      "inputs": [
        {
          "internalType": "address",
          "name": "_tokenContract",
          "type": "address"
        }
      ],
      "name": "reclaimERC20",
      "outputs": [],
      "stateMutability": "nonpayable",
      "type": "function"
    },
    {
      "inputs": [],
      "name": "renounceOwnership",
      "outputs": [],
      "stateMutability": "nonpayable",
      "type": "function"
    },
    {
      "inputs": [
        {
          "internalType": "address",
          "name": "_nftAddress",
          "type": "address"
        },
        {
          "internalType": "uint256",
          "name": "_tokenId",
          "type": "uint256"
        }
      ],
      "name": "resultAuction",
      "outputs": [],
      "stateMutability": "nonpayable",
      "type": "function"
    },
    {
      "inputs": [
        {
          "internalType": "uint256",
          "name": "_now",
          "type": "uint256"
        }
      ],
      "name": "setNowOverride",
      "outputs": [],
      "stateMutability": "nonpayable",
      "type": "function"
    },
    {
      "inputs": [],
      "name": "toggleIsPaused",
      "outputs": [],
      "stateMutability": "nonpayable",
      "type": "function"
    },
    {
      "inputs": [
        {
          "internalType": "address",
          "name": "newOwner",
          "type": "address"
        }
      ],
      "name": "transferOwnership",
      "outputs": [],
      "stateMutability": "nonpayable",
      "type": "function"
    },
    {
      "inputs": [
        {
          "internalType": "address",
          "name": "_registry",
          "type": "address"
        }
      ],
      "name": "updateAddressRegistry",
      "outputs": [],
      "stateMutability": "nonpayable",
      "type": "function"
    },
    {
      "inputs": [
        {
          "internalType": "address",
          "name": "_nftAddress",
          "type": "address"
        },
        {
          "internalType": "uint256",
          "name": "_tokenId",
          "type": "uint256"
        },
        {
          "internalType": "uint256",
          "name": "_reservePrice",
          "type": "uint256"
        }
      ],
      "name": "updateAuctionReservePrice",
      "outputs": [],
      "stateMutability": "nonpayable",
      "type": "function"
    },
    {
      "inputs": [
        {
          "internalType": "address",
          "name": "_nftAddress",
          "type": "address"
        },
        {
          "internalType": "uint256",
          "name": "_tokenId",
          "type": "uint256"
        },
        {
          "internalType": "uint256",
          "name": "_startTime",
          "type": "uint256"
        }
      ],
      "name": "updateAuctionStartTime",
      "outputs": [],
      "stateMutability": "nonpayable",
      "type": "function"
    },
    {
      "inputs": [
        {
          "internalType": "uint256",
          "name": "_bidWithdrawalLockTime",
          "type": "uint256"
        }
      ],
      "name": "updateBidWithdrawalLockTime",
      "outputs": [],
      "stateMutability": "nonpayable",
      "type": "function"
    },
    {
      "inputs": [
        {
          "internalType": "uint256",
          "name": "_minBidIncrement",
          "type": "uint256"
        }
      ],
      "name": "updateMinBidIncrement",
      "outputs": [],
      "stateMutability": "nonpayable",
      "type": "function"
    },
    {
      "inputs": [
        {
          "internalType": "uint256",
          "name": "_platformFee",
          "type": "uint256"
        }
      ],
      "name": "updatePlatformFee",
      "outputs": [],
      "stateMutability": "nonpayable",
      "type": "function"
    },
    {
      "inputs": [
        {
          "internalType": "address payable",
          "name": "_platformFeeRecipient",
          "type": "address"
        }
      ],
      "name": "updatePlatformFeeRecipient",
      "outputs": [],
      "stateMutability": "nonpayable",
      "type": "function"
    },
    {
      "inputs": [
        {
          "internalType": "address",
          "name": "_nftAddress",
          "type": "address"
        },
        {
          "internalType": "uint256",
          "name": "_tokenId",
          "type": "uint256"
        }
      ],
      "name": "withdrawBid",
      "outputs": [],
      "stateMutability": "nonpayable",
      "type": "function"
    }
  ],
  "bytecode": "0x608060405234801561001057600080fd5b5060405162004c2a38038062004c2a8339818101604052602081101561003557600080fd5b5050614be380620000476000396000f3fe608060405234801561001057600080fd5b50600436106102065760003560e01c80638596da231161011a578063ab2870e2116100ad578063eb13554f1161007c578063eb13554f1461074c578063f2fde38b14610754578063f3ad65f41461077a578063f5fe7f7114610782578063f9613d7f146107a857610206565b8063ab2870e21461068a578063b1254bf4146106d8578063b187bd2614610704578063cd6dc6871461072057610206565b80638da5cb5b116100e95780638da5cb5b146105eb578063a062feb91461060f578063a670a9b414610641578063aa0b59881461066d57610206565b80638596da2314610565578063859b97fe1461056d57806388cedbc4146105995780638905fd4f146105c557610206565b80634cb8ef5b1161019d5780636a5362f61161016c5780636a5362f61461045d5780636b753f36146104655780636c58a5a4146104b9578063715018a6146104eb578063762a66a2146104f357610206565b80634cb8ef5b146103c25780635f7063ef146103ee578063623de5ad1461041a57806368e79e891461043757610206565b806326232a2e116101d957806326232a2e1461032357806330a7cc5c1461032b578063335b115e1461034857806344f91c1e1461035057610206565b806304717aca1461020b578063083759e01461023f5780630e519ef91461025c578063150b7a0214610276575b600080fd5b61023d6004803603606081101561022157600080fd5b506001600160a01b0381351690602081013590604001356107b0565b005b61023d6004803603602081101561025557600080fd5b50356109f4565b610264610a91565b60408051918252519081900360200190f35b6103066004803603608081101561028c57600080fd5b6001600160a01b038235811692602081013590911691604082013591908101906080810160608201356401000000008111156102c757600080fd5b8201836020820111156102d957600080fd5b803590602001918460018302840111640100000000831117156102fb57600080fd5b509092509050610a98565b604080516001600160e01b03199092168252519081900360200190f35b610264610aa9565b61023d6004803603602081101561034157600080fd5b5035610aaf565b610264610ab4565b61037c6004803603604081101561036657600080fd5b506001600160a01b038135169060200135610aba565b604080516001600160a01b039889168152969097166020870152858701949094526060850192909252608084015260a0830152151560c082015290519081900360e00190f35b61023d600480360360408110156103d857600080fd5b506001600160a01b038135169060200135610b11565b61023d6004803603604081101561040457600080fd5b506001600160a01b038135169060200135610d74565b61023d6004803603602081101561043057600080fd5b503561119b565b61023d6004803603602081101561044d57600080fd5b50356001600160a01b0316611238565b6102646112bc565b6104916004803603604081101561047b57600080fd5b506001600160a01b0381351690602001356112c2565b604080516001600160a01b039094168452602084019290925282820152519081900360600190f35b61023d600480360360608110156104cf57600080fd5b506001600160a01b0381351690602081013590604001356112f8565b61023d611549565b61051f6004803603604081101561050957600080fd5b506001600160a01b0381351690602001356115f5565b604080516001600160a01b0398891681529690971660208701528587019490945260608501929092526080840152151560a083015260c082015290519081900360e00190f35b610264611651565b61023d6004803603604081101561058357600080fd5b506001600160a01b038135169060200135611657565b61023d600480360360408110156105af57600080fd5b506001600160a01b03813516906020013561187e565b61023d600480360360208110156105db57600080fd5b50356001600160a01b0316611b05565b6105f3611cff565b604080516001600160a01b039092168252519081900360200190f35b61023d6004803603606081101561062557600080fd5b506001600160a01b038135169060208101359060400135611d0e565b6104916004803603604081101561065757600080fd5b506001600160a01b038135169060200135611f3a565b61023d6004803603602081101561068357600080fd5b5035611f72565b61023d600480360360e08110156106a057600080fd5b506001600160a01b0381358116916020810135916040820135169060608101359060808101359060a081013515159060c0013561200f565b61023d600480360360408110156106ee57600080fd5b506001600160a01b0381351690602001356123d7565b61070c612701565b604080519115158252519081900360200190f35b61023d6004803603604081101561073657600080fd5b506001600160a01b038135169060200135612711565b6105f361285d565b61023d6004803603602081101561076a57600080fd5b50356001600160a01b031661286c565b6105f361296f565b61023d6004803603602081101561079857600080fd5b50356001600160a01b031661297e565b61023d612a7e565b600260655414156107f6576040805162461bcd60e51b815260206004820152601f602482015260008051602061485c833981519152604482015290519081900360640190fd5b6002606555609d54600160a01b900460ff161561084c576040805162461bcd60e51b815260206004820152600f60248201526e18dbdb9d1c9858dd081c185d5cd959608a1b604482015290519081900360640190fd5b32610855612b3f565b6001600160a01b03161461086857600080fd5b6108706147c3565b506001600160a01b038084166000908152609760209081526040808320868452825291829020825160e0810184528154851681526001820154909416918401919091526002810154918301919091526003810154606083015260048101546080830152600581015460a0830181905260069091015460ff16151560c0830152610934576040805162461bcd60e51b81526020600482015260116024820152704e6f2061756374696f6e2065786973747360781b604482015290519081900360640190fd5b8060800151610941612b43565b1015801561095a57508060a00151610957612b43565b11155b6109955760405162461bcd60e51b8152600401808060200182810382526025815260200180614b896025913960400191505060405180910390fd5b60208101516001600160a01b03166109de5760405162461bcd60e51b815260040180806020018281038252602181526020018061483b6021913960400191505060405180910390fd5b6109e9848484612b49565b505060016065555050565b6109fc612b3f565b6001600160a01b0316610a0d611cff565b6001600160a01b031614610a56576040805162461bcd60e51b81526020600482018190526024820152600080516020614a59833981519152604482015290519081900360640190fd5b60998190556040805182815290517f489b0441344cbdcb036bee4857de51567f580e9747166f76b581be803ca45fcb9181900360200190a150565b62278d0081565b630a85bd0160e11b95945050505050565b609b5481565b609e55565b60995481565b609760209081526000928352604080842090915290825290208054600182015460028301546003840154600485015460058601546006909601546001600160a01b0395861696959094169492939192909160ff1687565b60026065541415610b57576040805162461bcd60e51b815260206004820152601f602482015260008051602061485c833981519152604482015290519081900360640190fd5b6002606555609d54600160a01b900460ff1615610bad576040805162461bcd60e51b815260206004820152600f60248201526e18dbdb9d1c9858dd081c185d5cd959608a1b604482015290519081900360640190fd5b6001600160a01b03821660009081526098602090815260408083208484529091529020610bd8612b3f565b81546001600160a01b03908116911614610c39576040805162461bcd60e51b815260206004820152601e60248201527f796f7520617265206e6f74207468652068696768657374206269646465720000604482015290519081900360640190fd5b6001600160a01b038316600090815260976020908152604080832085845290915290206005015480610c69612b43565b118015610c81575061a8c081610c7d612b43565b0310155b610cbc5760405162461bcd60e51b8152600401808060200182810382526036815260200180614a9d6036913960400191505060405180910390fd5b6001808301546001600160a01b0386166000908152609860209081526040808320888452909152812080546001600160a01b0319168155928301819055600290920191909155610d158585610d0f612b3f565b84612e5e565b610d1d612b3f565b6001600160a01b031684866001600160a01b03167f867b8ea96dd803063f905a19f8117cbb1866ec7a594dfede75ab4a5235f61d7c846040518082815260200191505060405180910390a450506001606555505050565b60026065541415610dba576040805162461bcd60e51b815260206004820152601f602482015260008051602061485c833981519152604482015290519081900360640190fd5b60026065556001600160a01b0380831660008181526097602090815260408083208684528252808320938352609882528083208684529091529020805460018201549293919291169081610e0c612b3f565b6001600160a01b03161480610e3a575083546001600160a01b0316610e2f612b3f565b6001600160a01b0316145b610e755760405162461bcd60e51b815260040180806020018281038252602d815260200180614924602d913960400191505060405180910390fd5b306001600160a01b0316866001600160a01b0316636352211e876040518263ffffffff1660e01b81526004018082815260200191505060206040518083038186803b158015610ec357600080fd5b505afa158015610ed7573d6000803e3d6000fd5b505050506040513d6020811015610eed57600080fd5b50516001600160a01b031614610f345760405162461bcd60e51b81526004018080602001828103825260248152602001806149b06024913960400191505060405180910390fd5b6000846005015411610f81576040805162461bcd60e51b81526020600482015260116024820152706e6f2061756374696f6e2065786973747360781b604482015290519081900360640190fd5b8360050154610f8e612b43565b11610fd4576040805162461bcd60e51b8152602060048201526011602482015270185d58dd1a5bdb881b9bdd08195b991959607a1b604482015290519081900360640190fd5b600684015460ff161561101c576040805162461bcd60e51b81526020600482015260186024820152600080516020614b3d833981519152604482015290519081900360640190fd5b6001600160a01b038216611066576040805162461bcd60e51b815260206004820152600c60248201526b6e6f206f70656e206269647360a01b604482015290519081900360640190fd5b83600301548110156110a95760405162461bcd60e51b8152600401808060200182810382526021815260200180614ad36021913960400191505060405180910390fd5b856001600160a01b031663e985e9c56110c0612b3f565b306040518363ffffffff1660e01b815260040180836001600160a01b03168152602001826001600160a01b031681526020019250505060206040518083038186803b15801561110e57600080fd5b505afa158015611122573d6000803e3d6000fd5b505050506040513d602081101561113857600080fd5b5051611182576040805162461bcd60e51b8152602060048201526014602482015273185d58dd1a5bdb881b9bdd08185c1c1c9bdd995960621b604482015290519081900360640190fd5b61118e86868484612ffa565b5050600160655550505050565b6111a3612b3f565b6001600160a01b03166111b4611cff565b6001600160a01b0316146111fd576040805162461bcd60e51b81526020600482018190526024820152600080516020614a59833981519152604482015290519081900360640190fd5b609a8190556040805182815290517ff9e4b69944d3fbdd96aedcda02032e2091346ececc3b55a485b40a6dc09bb9e09181900360200190a150565b611240612b3f565b6001600160a01b0316611251611cff565b6001600160a01b03161461129a576040805162461bcd60e51b81526020600482018190526024820152600080516020614a59833981519152604482015290519081900360640190fd5b609d80546001600160a01b0319166001600160a01b0392909216919091179055565b609a5481565b60986020908152600092835260408084209091529082529020805460018201546002909201546001600160a01b03909116919083565b6001600160a01b03808416600090815260976020908152604080832086845290915290208054909116611329612b3f565b6001600160a01b03161461137b576040805162461bcd60e51b815260206004820152601460248201527339b2b73232b91036bab9ba1031329037bbb732b960611b604482015290519081900360640190fd5b600082116113c5576040805162461bcd60e51b8152602060048201526012602482015271696e76616c69642073746172742074696d6560701b604482015290519081900360640190fd5b6113cd612b43565b8160040154603c0111611421576040805162461bcd60e51b8152602060048201526017602482015276185d58dd1a5bdb88185b1c9958591e481cdd185c9d1959604a1b604482015290519081900360640190fd5b80600501548261012c01106114675760405162461bcd60e51b8152600401808060200182810382526036815260200180614a026036913960400191505060405180910390fd5b600681015460ff16156114af576040805162461bcd60e51b81526020600482015260186024820152600080516020614b3d833981519152604482015290519081900360640190fd5b60008160050154116114fc576040805162461bcd60e51b81526020600482015260116024820152706e6f2061756374696f6e2065786973747360781b604482015290519081900360640190fd5b6004810182905560408051838152905184916001600160a01b038716917ff123182d1bfce603eb20a2f74cce94af6542f353a4c2a8d5cfadf41822b32b389181900360200190a350505050565b611551612b3f565b6001600160a01b0316611562611cff565b6001600160a01b0316146115ab576040805162461bcd60e51b81526020600482018190526024820152600080516020614a59833981519152604482015290519081900360640190fd5b6033546040516000916001600160a01b0316907f8be0079c531659141344cd1fd0a4f28419497f9722a3daafe3b4186f6b6457e0908390a3603380546001600160a01b0319169055565b6001600160a01b0391821660009081526097602090815260408083209383529290522080546001820154600383015460048401546005850154600686015460029096015494871697939096169591949093919260ff9091169190565b609e5481565b6002606554141561169d576040805162461bcd60e51b815260206004820152601f602482015260008051602061485c833981519152604482015290519081900360640190fd5b60026065556116aa6147c3565b506001600160a01b038083166000908152609760209081526040808320858452825291829020825160e081018452815485168082526001830154909516928101929092526002810154928201929092526003820154606082015260048201546080820152600582015460a082015260069091015460ff16151560c082015290611731612b3f565b6001600160a01b031614611783576040805162461bcd60e51b815260206004820152601460248201527339b2b73232b91036bab9ba1031329037bbb732b960611b604482015290519081900360640190fd5b60008160a00151116117d0576040805162461bcd60e51b81526020600482015260116024820152706e6f2061756374696f6e2065786973747360781b604482015290519081900360640190fd5b8060c0015115611815576040805162461bcd60e51b81526020600482015260186024820152600080516020614b3d833981519152604482015290519081900360640190fd5b6001600160a01b0383166000908152609860209081526040808320858452909152902060608201516001820154106109e95760405162461bcd60e51b815260040180806020018281038252602c815260200180614b5d602c913960400191505060405180910390fd5b600260655414156118c4576040805162461bcd60e51b815260206004820152601f602482015260008051602061485c833981519152604482015290519081900360640190fd5b60026065556118d1612b3f565b6001600160a01b03166118e2611cff565b6001600160a01b03161461192b576040805162461bcd60e51b81526020600482018190526024820152600080516020614a59833981519152604482015290519081900360640190fd5b6001600160a01b038083166000818152609760209081526040808320868452825280832080549484526098835281842087855290925290912080546001820154600584015493959485169492939190921691906119c3576040805162461bcd60e51b81526020600482015260116024820152706e6f2061756374696f6e2065786973747360781b604482015290519081900360640190fd5b84600501546119d0612b43565b11611a16576040805162461bcd60e51b8152602060048201526011602482015270185d58dd1a5bdb881b9bdd08195b991959607a1b604482015290519081900360640190fd5b600685015460ff1615611a5e576040805162461bcd60e51b81526020600482015260186024820152600080516020614b3d833981519152604482015290519081900360640190fd5b6001600160a01b038216611aa8576040805162461bcd60e51b815260206004820152600c60248201526b6e6f206f70656e206269647360a01b604482015290519081900360640190fd5b8460030154811015611aeb5760405162461bcd60e51b8152600401808060200182810382526021815260200180614ad36021913960400191505060405180910390fd5b611af78787848461377f565b505060016065555050505050565b611b0d612b3f565b6001600160a01b0316611b1e611cff565b6001600160a01b031614611b67576040805162461bcd60e51b81526020600482018190526024820152600080516020614a59833981519152604482015290519081900360640190fd5b6001600160a01b038116611bb4576040805162461bcd60e51b815260206004820152600f60248201526e496e76616c6964206164647265737360881b604482015290519081900360640190fd5b604080516370a0823160e01b8152306004820152905182916000916001600160a01b038416916370a08231916024808301926020929190829003018186803b158015611bff57600080fd5b505afa158015611c13573d6000803e3d6000fd5b505050506040513d6020811015611c2957600080fd5b505190506001600160a01b03821663a9059cbb611c44612b3f565b836040518363ffffffff1660e01b815260040180836001600160a01b0316815260200182815260200192505050602060405180830381600087803b158015611c8b57600080fd5b505af1158015611c9f573d6000803e3d6000fd5b505050506040513d6020811015611cb557600080fd5b5051611cfa576040805162461bcd60e51b815260206004820152600f60248201526e151c985b9cd9995c8819985a5b1959608a1b604482015290519081900360640190fd5b505050565b6033546001600160a01b031690565b6001600160a01b0383166000818152609760209081526040808320868452825291829020600381015483516331a9108f60e11b81526004810188905293519194909330939192636352211e92602480840193919291829003018186803b158015611d7757600080fd5b505afa158015611d8b573d6000803e3d6000fd5b505050506040513d6020811015611da157600080fd5b50516001600160a01b0316148015611dd2575081546001600160a01b0316611dc7612b3f565b6001600160a01b0316145b611e0d5760405162461bcd60e51b81526004018080602001828103825260338152602001806149516033913960400191505060405180910390fd5b600682015460ff1615611e55576040805162461bcd60e51b81526020600482015260186024820152600080516020614b3d833981519152604482015290519081900360640190fd5b6000826005015411611ea2576040805162461bcd60e51b81526020600482015260116024820152706e6f2061756374696f6e2065786973747360781b604482015290519081900360640190fd5b808310611ee05760405162461bcd60e51b8152600401808060200182810382526023815260200180614b1a6023913960400191505060405180910390fd5b600382018390556001820154604080516001600160a01b03928316815260208101869052815187938916927f1492815b4a41d34cc0015f8ba8013fa45717ea6d8591db6036bdca706981fe83928290030190a35050505050565b6001600160a01b0391821660009081526098602090815260408083209383529290522080546001820154600290920154921692909190565b611f7a612b3f565b6001600160a01b0316611f8b611cff565b6001600160a01b031614611fd4576040805162461bcd60e51b81526020600482018190526024820152600080516020614a59833981519152604482015290519081900360640190fd5b609b8190556040805182815290517f2644fd26359c107ff7991b6dfc36ce902b334ce4e3891bbecacc5922aa620efa9181900360200190a150565b609d54600160a01b900460ff1615612060576040805162461bcd60e51b815260206004820152600f60248201526e18dbdb9d1c9858dd081c185d5cd959608a1b604482015290519081900360640190fd5b612068612b3f565b6001600160a01b0316876001600160a01b0316636352211e886040518263ffffffff1660e01b81526004018082815260200191505060206040518083038186803b1580156120b557600080fd5b505afa1580156120c9573d6000803e3d6000fd5b505050506040513d60208110156120df57600080fd5b50516001600160a01b03161480156121845750866001600160a01b031663e985e9c5612109612b3f565b306040518363ffffffff1660e01b815260040180836001600160a01b03168152602001826001600160a01b031681526020019250505060206040518083038186803b15801561215757600080fd5b505afa15801561216b573d6000803e3d6000fd5b505050506040513d602081101561218157600080fd5b50515b6121bf5760405162461bcd60e51b8152600401808060200182810382526026815260200180614af46026913960400191505060405180910390fd5b609d5460408051639d23c4c760e01b815290516000926001600160a01b031691639d23c4c7916004808301926020929190829003018186803b15801561220457600080fd5b505afa158015612218573d6000803e3d6000fd5b505050506040513d602081101561222e57600080fd5b50516001600160a01b0316148015906123355750609d60009054906101000a90046001600160a01b03166001600160a01b0316639d23c4c76040518163ffffffff1660e01b815260040160206040518083038186803b15801561229057600080fd5b505afa1580156122a4573d6000803e3d6000fd5b505050506040513d60208110156122ba57600080fd5b5051604080516398afdfe360e01b81526001600160a01b038881166004830152915191909216916398afdfe39160248083019260209291908290030181600087803b15801561230857600080fd5b505af115801561231c573d6000803e3d6000fd5b505050506040513d602081101561233257600080fd5b50515b61237a576040805162461bcd60e51b815260206004820152601160248201527034b73b30b634b2103830bc903a37b5b2b760791b604482015290519081900360640190fd5b62278d0083018111156123be5760405162461bcd60e51b81526004018080602001828103825260238152602001806148cf6023913960400191505060405180910390fd5b6123cd87878787878787613f2a565b5050505050505050565b6002606554141561241d576040805162461bcd60e51b815260206004820152601f602482015260008051602061485c833981519152604482015290519081900360640190fd5b600260655561242a612b3f565b6001600160a01b031661243b611cff565b6001600160a01b031614612484576040805162461bcd60e51b81526020600482018190526024820152600080516020614a59833981519152604482015290519081900360640190fd5b61248c6147c3565b506001600160a01b038083166000908152609760209081526040808320858452825291829020825160e0810184528154851681526001820154909416918401919091526002810154918301919091526003810154606083015260048101546080830152600581015460a0830181905260069091015460ff16151560c0830152612550576040805162461bcd60e51b81526020600482015260116024820152706e6f2061756374696f6e2065786973747360781b604482015290519081900360640190fd5b8060c0015115612595576040805162461bcd60e51b81526020600482015260186024820152600080516020614b3d833981519152604482015290519081900360640190fd5b6001600160a01b0383166000908152609860209081526040808320858452909152902060608201516001820154106125fe5760405162461bcd60e51b815260040180806020018281038252602c815260200180614b5d602c913960400191505060405180910390fd5b80546001600160a01b031615612669578054600182015461262c91869186916001600160a01b031690612e5e565b6001600160a01b0384166000908152609860209081526040808320868452909152812080546001600160a01b031916815560018101829055600201555b6001600160a01b038416600081815260976020908152604080832087845290915280822080546001600160a01b03199081168255600182018054909116905560028101839055600381018390556004810183905560058101839055600601805460ff19169055518592917f018b64b6242d32aa550e95d78985b938d71af5b3f10827b0683f55da1639304891a3505060016065555050565b609d54600160a01b900460ff1681565b600054610100900460ff168061272a575061272a6142a6565b80612738575060005460ff16155b6127735760405162461bcd60e51b815260040180806020018281038252602e8152602001806149d4602e913960400191505060405180910390fd5b600054610100900460ff1615801561279e576000805460ff1961ff0019909116610100171660011790555b6001600160a01b0383166127e35760405162461bcd60e51b815260040180806020018281038252602d81526020018061487c602d913960400191505060405180910390fd5b609c80546001600160a01b0319166001600160a01b03851617905560998290556104b0609a556019609b556040517f3ba39df8159eb54aa73007b8e73640a2f0e7c1a2ca3b2929394da08de87add2690600090a161283f6142b7565b612847614369565b8015611cfa576000805461ff0019169055505050565b609c546001600160a01b031681565b612874612b3f565b6001600160a01b0316612885611cff565b6001600160a01b0316146128ce576040805162461bcd60e51b81526020600482018190526024820152600080516020614a59833981519152604482015290519081900360640190fd5b6001600160a01b0381166129135760405162461bcd60e51b81526004018080602001828103825260268152602001806148a96026913960400191505060405180910390fd5b6033546040516001600160a01b038084169216907f8be0079c531659141344cd1fd0a4f28419497f9722a3daafe3b4186f6b6457e090600090a3603380546001600160a01b0319166001600160a01b0392909216919091179055565b609d546001600160a01b031681565b612986612b3f565b6001600160a01b0316612997611cff565b6001600160a01b0316146129e0576040805162461bcd60e51b81526020600482018190526024820152600080516020614a59833981519152604482015290519081900360640190fd5b6001600160a01b038116612a2a576040805162461bcd60e51b815260206004820152600c60248201526b7a65726f206164647265737360a01b604482015290519081900360640190fd5b609c80546001600160a01b0383166001600160a01b0319909116811790915560408051918252517fe57e7c1f36cc83fade34e32351e6eee7eb9da532662b1b5da10c631e8222aca79181900360200190a150565b612a86612b3f565b6001600160a01b0316612a97611cff565b6001600160a01b031614612ae0576040805162461bcd60e51b81526020600482018190526024820152600080516020614a59833981519152604482015290519081900360640190fd5b609d805460ff600160a01b808304821615810260ff60a01b1990931692909217928390556040805192909304161515815290517f9077d36bc00859b5c3f320310707208543dd35092cb0a0fe117d0c6a558b148b9181900360200190a1565b3390565b609e5490565b609d54600160a01b900460ff1615612b9a576040805162461bcd60e51b815260206004820152600f60248201526e18dbdb9d1c9858dd081c185d5cd959608a1b604482015290519081900360640190fd5b6001600160a01b03831660009081526097602090815260408083208584529091529020600381015460028201541415612c10578060030154821015612c105760405162461bcd60e51b81526004018080602001828103825260268152602001806148156026913960400191505060405180910390fd5b6001600160a01b038416600090815260986020908152604080832086845290915281206099546001820154919291612c47916143fe565b905080841015612c9e576040805162461bcd60e51b815260206004820152601f60248201527f6661696c656420746f206f757462696420686967686573742062696464657200604482015290519081900360640190fd5b60018301546001600160a01b0316806323b872dd612cba612b3f565b30886040518463ffffffff1660e01b815260040180846001600160a01b03168152602001836001600160a01b031681526020018281526020019350505050602060405180830381600087803b158015612d1257600080fd5b505af1158015612d26573d6000803e3d6000fd5b505050506040513d6020811015612d3c57600080fd5b5051612d795760405162461bcd60e51b8152600401808060200182810382526024815260200180614a796024913960400191505060405180910390fd5b610258612d84612b43565b8560050154031015612d9d576005840180546102580190555b82546001600160a01b031615612dcb5782546001840154612dcb91899189916001600160a01b031690612e5e565b612dd3612b3f565b83546001600160a01b0319166001600160a01b039190911617835560018301859055612dfd612b43565b6002840155612e0a612b3f565b6001600160a01b031686886001600160a01b03167f0158f5674dc243762459b88cfc91b10d2d1ef9d40821cca978c2b680aa444682886040518082815260200191505060405180910390a450505050505050565b612e666147c3565b506001600160a01b0380851660009081526097602090815260408083208784528252808320815160e08101835281548616815260018201548616818501819052600283015482850152600383015460608301526004808401546080840152600584015460a084015260069093015460ff16151560c0830152835163a9059cbb60e01b81529689169287019290925260248601879052915191949093849363a9059cbb93604480850194929391928390030190829087803b158015612f2957600080fd5b505af1158015612f3d573d6000803e3d6000fd5b505050506040513d6020811015612f5357600080fd5b5051612fa6576040805162461bcd60e51b815260206004820181905260248201527f6661696c656420746f20726566756e642070726576696f757320626964646572604482015290519081900360640190fd5b836001600160a01b031685876001600160a01b03167f90e20d1ba82eaa07a212267355536f76bc83bf91c81fd41b74283c4082e76952866040518082815260200191505060405180910390a4505050505050565b6001600160a01b0384166000818152609760209081526040808320878452825280832060068101805460ff1916600190811790915594845260988352818420888552909252822080546001600160a01b03191681559283018290556002909201819055600382015483111561317a57600061308c6103e8613086609b548761446190919063ffffffff16565b906144ba565b6001840154609c546040805163a9059cbb60e01b81526001600160a01b039283166004820152602481018590529051939450911691829163a9059cbb9160448083019260209291908290030181600087803b1580156130ea57600080fd5b505af11580156130fe573d6000803e3d6000fd5b505050506040513d602081101561311457600080fd5b5051613167576040805162461bcd60e51b815260206004820152601b60248201527f6661696c656420746f2073656e6420706c6174666f726d206665650000000000604482015290519081900360640190fd5b6131718583614521565b9250505061317d565b50815b609d546040805163508d838960e11b815290516000926001600160a01b03169163a11b0712916004808301926020929190829003018186803b1580156131c257600080fd5b505afa1580156131d6573d6000803e3d6000fd5b505050506040513d60208110156131ec57600080fd5b5051604080516329c5eaf560e11b81526001600160a01b038a81166004830152602482018a905260448201869052825193945060009384939186169263538bd5ea926064808301939192829003018186803b15801561324a57600080fd5b505afa15801561325e573d6000803e3d6000fd5b505050506040513d604081101561327457600080fd5b50805160209091015190925090506001600160a01b0382161580159061329957508015155b156133845760018501546040805163a9059cbb60e01b81526001600160a01b0385811660048301526024820185905291519190921691829163a9059cbb916044808201926020929091908290030181600087803b1580156132f957600080fd5b505af115801561330d573d6000803e3d6000fd5b505050506040513d602081101561332357600080fd5b5051613376576040805162461bcd60e51b815260206004820152601c60248201527f6661696c656420746f2073656e642074686520726f79616c7469657300000000604482015290519081900360640190fd5b6133808583614521565b9450505b831561345057600185015485546040805163a9059cbb60e01b81526001600160a01b0392831660048201526024810188905290519190921691829163a9059cbb916044808201926020929091908290030181600087803b1580156133e757600080fd5b505af11580156133fb573d6000803e3d6000fd5b505050506040513d602081101561341157600080fd5b505161344e5760405162461bcd60e51b815260040180806020018281038252602c815260200180614984602c913960400191505060405180910390fd5b505b505060408051632142170760e11b81523060048201526001600160a01b03878116602483015260448201899052915191891693506342842e0e925060648082019260009290919082900301818387803b1580156134ac57600080fd5b505af11580156134c0573d6000803e3d6000fd5b50505050609d60009054906101000a90046001600160a01b03166001600160a01b0316639e1f5b286040518163ffffffff1660e01b815260040160206040518083038186803b15801561351257600080fd5b505afa158015613526573d6000803e3d6000fd5b505050506040513d602081101561353c57600080fd5b5051604080516309f07d3d60e21b81526001600160a01b0388811660048301526024820188905260016044830152915191909216916327c1f4f491606480830192600092919082900301818387803b15801561359757600080fd5b505af11580156135ab573d6000803e3d6000fd5b50505050826001600160a01b031684866001600160a01b03167fa717395bf4be1915f0bc8e6cf9b0f526c5ad40a0c3750b709a29a834daf0fd9b6135ed612b3f565b6001860154609d546040805163abc8c7af60e01b815290516001600160a01b03938416939092169163abc8c7af91600480820192602092909190829003018186803b15801561363b57600080fd5b505afa15801561364f573d6000803e3d6000fd5b505050506040513d602081101561366557600080fd5b50516001880154604080516341976e0960e01b81526001600160a01b039283166004820152905191909216916341976e09916024808301926020929190829003018186803b1580156136b657600080fd5b505afa1580156136ca573d6000803e3d6000fd5b505050506040513d60208110156136e057600080fd5b5051604080516001600160a01b039485168152929093166020830152818301526060810188905290519081900360800190a45050506001600160a01b03909116600090815260976020908152604080832093835292905290812080546001600160a01b0319908116825560018201805490911690556002810182905560038101829055600481018290556005810191909155600601805460ff19169055565b6001600160a01b0384166000818152609760209081526040808320878452825280832060068101805460ff1916600190811790915594845260988352818420888552909252822080546001600160a01b0319168155928301829055600290920181905560038201548311156138f957600061380b6103e8613086609b548761446190919063ffffffff16565b6001840154609c546040805163a9059cbb60e01b81526001600160a01b039283166004820152602481018590529051939450911691829163a9059cbb9160448083019260209291908290030181600087803b15801561386957600080fd5b505af115801561387d573d6000803e3d6000fd5b505050506040513d602081101561389357600080fd5b50516138e6576040805162461bcd60e51b815260206004820152601b60248201527f6661696c656420746f2073656e6420706c6174666f726d206665650000000000604482015290519081900360640190fd5b6138f08583614521565b925050506138fc565b50815b609d546040805163508d838960e11b815290516000926001600160a01b03169163a11b0712916004808301926020929190829003018186803b15801561394157600080fd5b505afa158015613955573d6000803e3d6000fd5b505050506040513d602081101561396b57600080fd5b5051604080516329c5eaf560e11b81526001600160a01b038a81166004830152602482018a905260448201869052825193945060009384939186169263538bd5ea926064808301939192829003018186803b1580156139c957600080fd5b505afa1580156139dd573d6000803e3d6000fd5b505050506040513d60408110156139f357600080fd5b50805160209091015190925090506001600160a01b03821615801590613a1857508015155b15613b035760018501546040805163a9059cbb60e01b81526001600160a01b0385811660048301526024820185905291519190921691829163a9059cbb916044808201926020929091908290030181600087803b158015613a7857600080fd5b505af1158015613a8c573d6000803e3d6000fd5b505050506040513d6020811015613aa257600080fd5b5051613af5576040805162461bcd60e51b815260206004820152601c60248201527f6661696c656420746f2073656e642074686520726f79616c7469657300000000604482015290519081900360640190fd5b613aff8583614521565b9450505b8315613bcf57600185015485546040805163a9059cbb60e01b81526001600160a01b0392831660048201526024810188905290519190921691829163a9059cbb916044808201926020929091908290030181600087803b158015613b6657600080fd5b505af1158015613b7a573d6000803e3d6000fd5b505050506040513d6020811015613b9057600080fd5b5051613bcd5760405162461bcd60e51b815260040180806020018281038252602c815260200180614984602c913960400191505060405180910390fd5b505b845460408051632142170760e11b81526001600160a01b0392831660048201528983166024820152604481018b90529051918b16916342842e0e9160648082019260009290919082900301818387803b158015613c2b57600080fd5b505af1158015613c3f573d6000803e3d6000fd5b50505050609d60009054906101000a90046001600160a01b03166001600160a01b0316639e1f5b286040518163ffffffff1660e01b815260040160206040518083038186803b158015613c9157600080fd5b505afa158015613ca5573d6000803e3d6000fd5b505050506040513d6020811015613cbb57600080fd5b5051604080516309f07d3d60e21b81526001600160a01b038c81166004830152602482018c905260016044830152915191909216916327c1f4f491606480830192600092919082900301818387803b158015613d1657600080fd5b505af1158015613d2a573d6000803e3d6000fd5b50505050866001600160a01b0316888a6001600160a01b03167fa717395bf4be1915f0bc8e6cf9b0f526c5ad40a0c3750b709a29a834daf0fd9b8860000160009054906101000a90046001600160a01b03168960010160009054906101000a90046001600160a01b0316609d60009054906101000a90046001600160a01b03166001600160a01b031663abc8c7af6040518163ffffffff1660e01b815260040160206040518083038186803b158015613de257600080fd5b505afa158015613df6573d6000803e3d6000fd5b505050506040513d6020811015613e0c57600080fd5b505160018c0154604080516341976e0960e01b81526001600160a01b039283166004820152905191909216916341976e09916024808301926020929190829003018186803b158015613e5d57600080fd5b505afa158015613e71573d6000803e3d6000fd5b505050506040513d6020811015613e8757600080fd5b5051604080516001600160a01b03948516815292909316602083015281830152606081018c905290519081900360800190a45050506001600160a01b03909516600090815260976020908152604080832096835295905293842080546001600160a01b0319908116825560018201805490911690556002810185905560038101859055600481018590556005810194909455505050600601805460ff1916905550565b6001600160a01b038716600090815260976020908152604080832089845290915281206005015415613f9d576040805162461bcd60e51b8152602060048201526017602482015276185d58dd1a5bdb88185b1c9958591e481cdd185c9d1959604a1b604482015290519081900360640190fd5b8361012c01821015613fe05760405162461bcd60e51b81526004018080602001828103825260328152602001806148f26032913960400191505060405180910390fd5b613fe8612b43565b8411614030576040805162461bcd60e51b8152602060048201526012602482015271696e76616c69642073746172742074696d6560701b604482015290519081900360640190fd5b6000831561403b5750845b886001600160a01b03166342842e0e8a6001600160a01b0316636352211e8b6040518263ffffffff1660e01b81526004018082815260200191505060206040518083038186803b15801561408e57600080fd5b505afa1580156140a2573d6000803e3d6000fd5b505050506040513d60208110156140b857600080fd5b5051604080516001600160e01b031960e085901b1681526001600160a01b039092166004830152306024830152604482018c905251606480830192600092919082900301818387803b15801561410d57600080fd5b505af1158015614121573d6000803e3d6000fd5b505050506040518060e00160405280614138612b3f565b6001600160a01b03168152602001886001600160a01b0316815260200182815260200187815260200186815260200184815260200160001515815250609760008b6001600160a01b03166001600160a01b0316815260200190815260200160002060008a815260200190815260200160002060008201518160000160006101000a8154816001600160a01b0302191690836001600160a01b0316021790555060208201518160010160006101000a8154816001600160a01b0302191690836001600160a01b0316021790555060408201518160020155606082015181600301556080820151816004015560a0820151816005015560c08201518160060160006101000a81548160ff02191690831515021790555090505087896001600160a01b03167fca437d90ed6373b827a01275bd2fdfe7e6406d7ecd400662ee0533d3546ab17a8960405180826001600160a01b0316815260200191505060405180910390a350979650505050505050565b60006142b13061457e565b15905090565b600054610100900460ff16806142d057506142d06142a6565b806142de575060005460ff16155b6143195760405162461bcd60e51b815260040180806020018281038252602e8152602001806149d4602e913960400191505060405180910390fd5b600054610100900460ff16158015614344576000805460ff1961ff0019909116610100171660011790555b61434c614584565b614354614624565b8015614366576000805461ff00191690555b50565b600054610100900460ff168061438257506143826142a6565b80614390575060005460ff16155b6143cb5760405162461bcd60e51b815260040180806020018281038252602e8152602001806149d4602e913960400191505060405180910390fd5b600054610100900460ff161580156143f6576000805460ff1961ff0019909116610100171660011790555b61435461471d565b600082820183811015614458576040805162461bcd60e51b815260206004820152601b60248201527f536166654d6174683a206164646974696f6e206f766572666c6f770000000000604482015290519081900360640190fd5b90505b92915050565b6000826144705750600061445b565b8282028284828161447d57fe5b04146144585760405162461bcd60e51b8152600401808060200182810382526021815260200180614a386021913960400191505060405180910390fd5b6000808211614510576040805162461bcd60e51b815260206004820152601a60248201527f536166654d6174683a206469766973696f6e206279207a65726f000000000000604482015290519081900360640190fd5b81838161451957fe5b049392505050565b600082821115614578576040805162461bcd60e51b815260206004820152601e60248201527f536166654d6174683a207375627472616374696f6e206f766572666c6f770000604482015290519081900360640190fd5b50900390565b3b151590565b600054610100900460ff168061459d575061459d6142a6565b806145ab575060005460ff16155b6145e65760405162461bcd60e51b815260040180806020018281038252602e8152602001806149d4602e913960400191505060405180910390fd5b600054610100900460ff16158015614354576000805460ff1961ff0019909116610100171660011790558015614366576000805461ff001916905550565b600054610100900460ff168061463d575061463d6142a6565b8061464b575060005460ff16155b6146865760405162461bcd60e51b815260040180806020018281038252602e8152602001806149d4602e913960400191505060405180910390fd5b600054610100900460ff161580156146b1576000805460ff1961ff0019909116610100171660011790555b60006146bb612b3f565b603380546001600160a01b0319166001600160a01b038316908117909155604051919250906000907f8be0079c531659141344cd1fd0a4f28419497f9722a3daafe3b4186f6b6457e0908290a3508015614366576000805461ff001916905550565b600054610100900460ff168061473657506147366142a6565b80614744575060005460ff16155b61477f5760405162461bcd60e51b815260040180806020018281038252602e8152602001806149d4602e913960400191505060405180910390fd5b600054610100900460ff161580156147aa576000805460ff1961ff0019909116610100171660011790555b60016065558015614366576000805461ff001916905550565b6040518060e0016040528060006001600160a01b0316815260200160006001600160a01b0316815260200160008152602001600081526020016000815260200160008152602001600015158152509056fe6269642063616e6e6f74206265206c6f776572207468616e20726573657276652070726963654552433230206d6574686f64207573656420666f72204554482061756374696f6e5265656e7472616e637947756172643a207265656e7472616e742063616c6c0054656e61727441756374696f6e3a20496e76616c696420506c6174666f726d2046656520526563697069656e744f776e61626c653a206e6577206f776e657220697320746865207a65726f206164647265737341756374696f6e2074696d652065786365656473206d6178696d756d206c656e677468656e642074696d65206d7573742062652067726561746572207468616e207374617274202862792035206d696e75746573295f6d736753656e6465722829206d7573742062652061756374696f6e2077696e6e6572206f722073656c6c657253656e646572206d757374206265206974656d206f776e657220616e64204e4654206d75737420626520696e20657363726f776661696c656420746f2073656e6420746865206f776e6572207468652061756374696f6e2062616c616e636561646472657373287468697329206d75737420626520746865206974656d206f776e6572496e697469616c697a61626c653a20636f6e747261637420697320616c726561647920696e697469616c697a656473746172742074696d652073686f756c64206265206c657373207468616e20656e642074696d65202862792035206d696e7574657329536166654d6174683a206d756c7469706c69636174696f6e206f766572666c6f774f776e61626c653a2063616c6c6572206973206e6f7420746865206f776e6572696e73756666696369656e742062616c616e6365206f72206e6f7420617070726f76656463616e207769746864726177206f6e6c7920616674657220313220686f757273202861667465722061756374696f6e20656e6465642968696768657374206269642069732062656c6f77207265736572766550726963656e6f74206f776e657220616e64206f7220636f6e7472616374206e6f7420617070726f766564526573657276652070726963652063616e206f6e6c792062652064656372656173656461756374696f6e20616c726561647920726573756c746564000000000000000048696768657374206269642069732063757272656e746c792061626f7665207265736572766520707269636562696464696e67206f757473696465206f66207468652061756374696f6e2077696e646f77a264697066735822122072f770a2596bfe1cd23f2c36fa42db676c91ef3bbbc1d247b19d35349af2ab5864736f6c634300060c0033",
  "linkReferences": {},
  "deployedLinkReferences": {}
}