{
  "_format": "hh-sol-artifact-1",
  "contractName": "MockTenartAuction",
  "sourceName": "contracts/mock/MockTenartAuction.sol",
  "abi": [
    {
      "anonymous": false,
      "inputs": [
        {
          "indexed": true,
          "internalType": "address",
          "name": "nftAddress",
          "type": "address"
        },
        {
          "indexed": true,
          "internalType": "uint256",
          "name": "tokenId",
          "type": "uint256"
        }
      ],
      "name": "AuctionCancelled",
      "type": "event"
    },
    {
      "anonymous": false,
      "inputs": [
        {
          "indexed": true,
          "internalType": "address",
          "name": "nftAddress",
          "type": "address"
        },
        {
          "indexed": true,
          "internalType": "uint256",
          "name": "tokenId",
          "type": "uint256"
        },
        {
          "indexed": false,
          "internalType": "address",
          "name": "payToken",
          "type": "address"
        }
      ],
      "name": "AuctionCreated",
      "type": "event"
    },
    {
      "anonymous": false,
      "inputs": [
        {
          "indexed": false,
          "internalType": "address",
          "name": "oldOwner",
          "type": "address"
        },
        {
          "indexed": true,
          "internalType": "address",
          "name": "nftAddress",
          "type": "address"
        },
        {
          "indexed": true,
          "internalType": "uint256",
          "name": "tokenId",
          "type": "uint256"
        },
        {
          "indexed": true,
          "internalType": "address",
          "name": "winner",
          "type": "address"
        },
        {
          "indexed": false,
          "internalType": "address",
          "name": "payToken",
          "type": "address"
        },
        {
          "indexed": false,
          "internalType": "int256",
          "name": "unitPrice",
          "type": "int256"
        },
        {
          "indexed": false,
          "internalType": "uint256",
          "name": "winningBid",
          "type": "uint256"
        }
      ],
      "name": "AuctionResulted",
      "type": "event"
    },
    {
      "anonymous": false,
      "inputs": [
        {
          "indexed": true,
          "internalType": "address",
          "name": "nftAddress",
          "type": "address"
        },
        {
          "indexed": true,
          "internalType": "uint256",
          "name": "tokenId",
          "type": "uint256"
        },
        {
          "indexed": true,
          "internalType": "address",
          "name": "bidder",
          "type": "address"
        },
        {
          "indexed": false,
          "internalType": "uint256",
          "name": "bid",
          "type": "uint256"
        }
      ],
      "name": "BidPlaced",
      "type": "event"
    },
    {
      "anonymous": false,
      "inputs": [
        {
          "indexed": true,
          "internalType": "address",
          "name": "nftAddress",
          "type": "address"
        },
        {
          "indexed": true,
          "internalType": "uint256",
          "name": "tokenId",
          "type": "uint256"
        },
        {
          "indexed": true,
          "internalType": "address",
          "name": "bidder",
          "type": "address"
        },
        {
          "indexed": false,
          "internalType": "uint256",
          "name": "bid",
          "type": "uint256"
        }
      ],
      "name": "BidRefunded",
      "type": "event"
    },
    {
      "anonymous": false,
      "inputs": [
        {
          "indexed": true,
          "internalType": "address",
          "name": "nftAddress",
          "type": "address"
        },
        {
          "indexed": true,
          "internalType": "uint256",
          "name": "tokenId",
          "type": "uint256"
        },
        {
          "indexed": true,
          "internalType": "address",
          "name": "bidder",
          "type": "address"
        },
        {
          "indexed": false,
          "internalType": "uint256",
          "name": "bid",
          "type": "uint256"
        }
      ],
      "name": "BidWithdrawn",
      "type": "event"
    },
    {
      "anonymous": false,
      "inputs": [
        {
          "indexed": true,
          "internalType": "address",
          "name": "previousOwner",
          "type": "address"
        },
        {
          "indexed": true,
          "internalType": "address",
          "name": "newOwner",
          "type": "address"
        }
      ],
      "name": "OwnershipTransferred",
      "type": "event"
    },
    {
      "anonymous": false,
      "inputs": [
        {
          "indexed": false,
          "internalType": "bool",
          "name": "isPaused",
          "type": "bool"
        }
      ],
      "name": "PauseToggled",
      "type": "event"
    },
    {
      "anonymous": false,
      "inputs": [],
      "name": "TenartAuctionContractDeployed",
      "type": "event"
    },
    {
      "anonymous": false,
      "inputs": [
        {
          "indexed": true,
          "internalType": "address",
          "name": "nftAddress",
          "type": "address"
        },
        {
          "indexed": true,
          "internalType": "uint256",
          "name": "tokenId",
          "type": "uint256"
        },
        {
          "indexed": false,
          "internalType": "uint256",
          "name": "endTime",
          "type": "uint256"
        }
      ],
      "name": "UpdateAuctionEndTime",
      "type": "event"
    },
    {
      "anonymous": false,
      "inputs": [
        {
          "indexed": true,
          "internalType": "address",
          "name": "nftAddress",
          "type": "address"
        },
        {
          "indexed": true,
          "internalType": "uint256",
          "name": "tokenId",
          "type": "uint256"
        },
        {
          "indexed": false,
          "internalType": "address",
          "name": "payToken",
          "type": "address"
        },
        {
          "indexed": false,
          "internalType": "uint256",
          "name": "reservePrice",
          "type": "uint256"
        }
      ],
      "name": "UpdateAuctionReservePrice",
      "type": "event"
    },
    {
      "anonymous": false,
      "inputs": [
        {
          "indexed": true,
          "internalType": "address",
          "name": "nftAddress",
          "type": "address"
        },
        {
          "indexed": true,
          "internalType": "uint256",
          "name": "tokenId",
          "type": "uint256"
        },
        {
          "indexed": false,
          "internalType": "uint256",
          "name": "startTime",
          "type": "uint256"
        }
      ],
      "name": "UpdateAuctionStartTime",
      "type": "event"
    },
    {
      "anonymous": false,
      "inputs": [
        {
          "indexed": false,
          "internalType": "uint256",
          "name": "bidWithdrawalLockTime",
          "type": "uint256"
        }
      ],
      "name": "UpdateBidWithdrawalLockTime",
      "type": "event"
    },
    {
      "anonymous": false,
      "inputs": [
        {
          "indexed": false,
          "internalType": "uint256",
          "name": "minBidIncrement",
          "type": "uint256"
        }
      ],
      "name": "UpdateMinBidIncrement",
      "type": "event"
    },
    {
      "anonymous": false,
      "inputs": [
        {
          "indexed": false,
          "internalType": "uint256",
          "name": "platformFee",
          "type": "uint256"
        }
      ],
      "name": "UpdatePlatformFee",
      "type": "event"
    },
    {
      "anonymous": false,
      "inputs": [
        {
          "indexed": false,
          "internalType": "address payable",
          "name": "platformFeeRecipient",
          "type": "address"
        }
      ],
      "name": "UpdatePlatformFeeRecipient",
      "type": "event"
    },
    {
      "inputs": [],
      "name": "addressRegistry",
      "outputs": [
        {
          "internalType": "contract ITenartAddressRegistry",
          "name": "",
          "type": "address"
        }
      ],
      "stateMutability": "view",
      "type": "function"
    },
    {
      "inputs": [
        {
          "internalType": "address",
          "name": "",
          "type": "address"
        },
        {
          "internalType": "uint256",
          "name": "",
          "type": "uint256"
        }
      ],
      "name": "auctions",
      "outputs": [
        {
          "internalType": "address",
          "name": "owner",
          "type": "address"
        },
        {
          "internalType": "address",
          "name": "payToken",
          "type": "address"
        },
        {
          "internalType": "uint256",
          "name": "minBid",
          "type": "uint256"
        },
        {
          "internalType": "uint256",
          "name": "reservePrice",
          "type": "uint256"
        },
        {
          "internalType": "uint256",
          "name": "startTime",
          "type": "uint256"
        },
        {
          "internalType": "uint256",
          "name": "endTime",
          "type": "uint256"
        },
        {
          "internalType": "bool",
          "name": "resulted",
          "type": "bool"
        }
      ],
      "stateMutability": "view",
      "type": "function"
    },
    {
      "inputs": [],
      "name": "bidWithdrawalLockTime",
      "outputs": [
        {
          "internalType": "uint256",
          "name": "",
          "type": "uint256"
        }
      ],
      "stateMutability": "view",
      "type": "function"
    },
    {
      "inputs": [
        {
          "internalType": "address",
          "name": "_nftAddress",
          "type": "address"
        },
        {
          "internalType": "uint256",
          "name": "_tokenId",
          "type": "uint256"
        }
      ],
      "name": "cancelAuction",
      "outputs": [],
      "stateMutability": "nonpayable",
      "type": "function"
    },
    {
      "inputs": [
        {
          "internalType": "address",
          "name": "_nftAddress",
          "type": "address"
        },
        {
          "internalType": "uint256",
          "name": "_tokenId",
          "type": "uint256"
        }
      ],
      "name": "cancelAuctionOwner",
      "outputs": [],
      "stateMutability": "nonpayable",
      "type": "function"
    },
    {
      "inputs": [
        {
          "internalType": "address",
          "name": "_nftAddress",
          "type": "address"
        },
        {
          "internalType": "uint256",
          "name": "_tokenId",
          "type": "uint256"
        },
        {
          "internalType": "address",
          "name": "_payToken",
          "type": "address"
        },
        {
          "internalType": "uint256",
          "name": "_reservePrice",
          "type": "uint256"
        },
        {
          "internalType": "uint256",
          "name": "_startTimestamp",
          "type": "uint256"
        },
        {
          "internalType": "bool",
          "name": "minBidReserve",
          "type": "bool"
        },
        {
          "internalType": "uint256",
          "name": "_endTimestamp",
          "type": "uint256"
        }
      ],
      "name": "createAuction",
      "outputs": [],
      "stateMutability": "nonpayable",
      "type": "function"
    },
    {
      "inputs": [
        {
          "internalType": "address",
          "name": "_nftAddress",
          "type": "address"
        },
        {
          "internalType": "uint256",
          "name": "_tokenId",
          "type": "uint256"
        }
      ],
      "name": "endAuction",
      "outputs": [],
      "stateMutability": "nonpayable",
      "type": "function"
    },
    {
      "inputs": [
        {
          "internalType": "address",
          "name": "_nftAddress",
          "type": "address"
        },
        {
          "internalType": "uint256",
          "name": "_tokenId",
          "type": "uint256"
        }
      ],
      "name": "getAuction",
      "outputs": [
        {
          "internalType": "address",
          "name": "_owner",
          "type": "address"
        },
        {
          "internalType": "address",
          "name": "_payToken",
          "type": "address"
        },
        {
          "internalType": "uint256",
          "name": "_reservePrice",
          "type": "uint256"
        },
        {
          "internalType": "uint256",
          "name": "_startTime",
          "type": "uint256"
        },
        {
          "internalType": "uint256",
          "name": "_endTime",
          "type": "uint256"
        },
        {
          "internalType": "bool",
          "name": "_resulted",
          "type": "bool"
        },
        {
          "internalType": "uint256",
          "name": "minBid",
          "type": "uint256"
        }
      ],
      "stateMutability": "view",
      "type": "function"
    },
    {
      "inputs": [
        {
          "internalType": "address",
          "name": "_nftAddress",
          "type": "address"
        },
        {
          "internalType": "uint256",
          "name": "_tokenId",
          "type": "uint256"
        }
      ],
      "name": "getHighestBidder",
      "outputs": [
        {
          "internalType": "address payable",
          "name": "_bidder",
          "type": "address"
        },
        {
          "internalType": "uint256",
          "name": "_bid",
          "type": "uint256"
        },
        {
          "internalType": "uint256",
          "name": "_lastBidTime",
          "type": "uint256"
        }
      ],
      "stateMutability": "view",
      "type": "function"
    },
    {
      "inputs": [
        {
          "internalType": "address",
          "name": "",
          "type": "address"
        },
        {
          "internalType": "uint256",
          "name": "",
          "type": "uint256"
        }
      ],
      "name": "highestBids",
      "outputs": [
        {
          "internalType": "address payable",
          "name": "bidder",
          "type": "address"
        },
        {
          "internalType": "uint256",
          "name": "bid",
          "type": "uint256"
        },
        {
          "internalType": "uint256",
          "name": "lastBidTime",
          "type": "uint256"
        }
      ],
      "stateMutability": "view",
      "type": "function"
    },
    {
      "inputs": [
        {
          "internalType": "uint256",
          "name": "t",
          "type": "uint256"
        }
      ],
      "name": "increaseTime",
      "outputs": [],
      "stateMutability": "nonpayable",
      "type": "function"
    },
    {
      "inputs": [
        {
          "internalType": "address payable",
          "name": "_platformFeeRecipient",
          "type": "address"
        },
        {
          "internalType": "uint256",
          "name": "_minBidIncrement",
          "type": "uint256"
        }
      ],
      "name": "initialize",
      "outputs": [],
      "stateMutability": "nonpayable",
      "type": "function"
    },
    {
      "inputs": [],
      "name": "isPaused",
      "outputs": [
        {
          "internalType": "bool",
          "name": "",
          "type": "bool"
        }
      ],
      "stateMutability": "view",
      "type": "function"
    },
    {
      "inputs": [],
      "name": "maxAuctionLength",
      "outputs": [
        {
          "internalType": "uint256",
          "name": "",
          "type": "uint256"
        }
      ],
      "stateMutability": "view",
      "type": "function"
    },
    {
      "inputs": [],
      "name": "minBidIncrement",
      "outputs": [
        {
          "internalType": "uint256",
          "name": "",
          "type": "uint256"
        }
      ],
      "stateMutability": "view",
      "type": "function"
    },
    {
      "inputs": [
        {
          "internalType": "address",
          "name": "operator",
          "type": "address"
        },
        {
          "internalType": "address",
          "name": "from",
          "type": "address"
        },
        {
          "internalType": "uint256",
          "name": "tokenId",
          "type": "uint256"
        },
        {
          "internalType": "bytes",
          "name": "data",
          "type": "bytes"
        }
      ],
      "name": "onERC721Received",
      "outputs": [
        {
          "internalType": "bytes4",
          "name": "",
          "type": "bytes4"
        }
      ],
      "stateMutability": "nonpayable",
      "type": "function"
    },
    {
      "inputs": [],
      "name": "owner",
      "outputs": [
        {
          "internalType": "address",
          "name": "",
          "type": "address"
        }
      ],
      "stateMutability": "view",
      "type": "function"
    },
    {
      "inputs": [
        {
          "internalType": "address",
          "name": "_nftAddress",
          "type": "address"
        },
        {
          "internalType": "uint256",
          "name": "_tokenId",
          "type": "uint256"
        },
        {
          "internalType": "uint256",
          "name": "_bidAmount",
          "type": "uint256"
        }
      ],
      "name": "placeBid",
      "outputs": [],
      "stateMutability": "nonpayable",
      "type": "function"
    },
    {
      "inputs": [],
      "name": "platformFee",
      "outputs": [
        {
          "internalType": "uint256",
          "name": "",
          "type": "uint256"
        }
      ],
      "stateMutability": "view",
      "type": "function"
    },
    {
      "inputs": [],
      "name": "platformFeeRecipient",
      "outputs": [
        {
          "internalType": "address payable",
          "name": "",
          "type": "address"
        }
      ],
      "stateMutability": "view",
      "type": "function"
    },
    {
      "inputs": [
        {
          "internalType": "address",
          "name": "_tokenContract",
          "type": "address"
        }
      ],
      "name": "reclaimERC20",
      "outputs": [],
      "stateMutability": "nonpayable",
      "type": "function"
    },
    {
      "inputs": [],
      "name": "renounceOwnership",
      "outputs": [],
      "stateMutability": "nonpayable",
      "type": "function"
    },
    {
      "inputs": [
        {
          "internalType": "address",
          "name": "_nftAddress",
          "type": "address"
        },
        {
          "internalType": "uint256",
          "name": "_tokenId",
          "type": "uint256"
        }
      ],
      "name": "resultAuction",
      "outputs": [],
      "stateMutability": "nonpayable",
      "type": "function"
    },
    {
      "inputs": [
        {
          "internalType": "uint256",
          "name": "t",
          "type": "uint256"
        }
      ],
      "name": "setTime",
      "outputs": [],
      "stateMutability": "nonpayable",
      "type": "function"
    },
    {
      "inputs": [],
      "name": "time",
      "outputs": [
        {
          "internalType": "uint256",
          "name": "",
          "type": "uint256"
        }
      ],
      "stateMutability": "view",
      "type": "function"
    },
    {
      "inputs": [],
      "name": "toggleIsPaused",
      "outputs": [],
      "stateMutability": "nonpayable",
      "type": "function"
    },
    {
      "inputs": [
        {
          "internalType": "address",
          "name": "newOwner",
          "type": "address"
        }
      ],
      "name": "transferOwnership",
      "outputs": [],
      "stateMutability": "nonpayable",
      "type": "function"
    },
    {
      "inputs": [
        {
          "internalType": "address",
          "name": "_registry",
          "type": "address"
        }
      ],
      "name": "updateAddressRegistry",
      "outputs": [],
      "stateMutability": "nonpayable",
      "type": "function"
    },
    {
      "inputs": [
        {
          "internalType": "address",
          "name": "_nftAddress",
          "type": "address"
        },
        {
          "internalType": "uint256",
          "name": "_tokenId",
          "type": "uint256"
        },
        {
          "internalType": "uint256",
          "name": "_reservePrice",
          "type": "uint256"
        }
      ],
      "name": "updateAuctionReservePrice",
      "outputs": [],
      "stateMutability": "nonpayable",
      "type": "function"
    },
    {
      "inputs": [
        {
          "internalType": "address",
          "name": "_nftAddress",
          "type": "address"
        },
        {
          "internalType": "uint256",
          "name": "_tokenId",
          "type": "uint256"
        },
        {
          "internalType": "uint256",
          "name": "_startTime",
          "type": "uint256"
        }
      ],
      "name": "updateAuctionStartTime",
      "outputs": [],
      "stateMutability": "nonpayable",
      "type": "function"
    },
    {
      "inputs": [
        {
          "internalType": "uint256",
          "name": "_bidWithdrawalLockTime",
          "type": "uint256"
        }
      ],
      "name": "updateBidWithdrawalLockTime",
      "outputs": [],
      "stateMutability": "nonpayable",
      "type": "function"
    },
    {
      "inputs": [
        {
          "internalType": "uint256",
          "name": "_minBidIncrement",
          "type": "uint256"
        }
      ],
      "name": "updateMinBidIncrement",
      "outputs": [],
      "stateMutability": "nonpayable",
      "type": "function"
    },
    {
      "inputs": [
        {
          "internalType": "uint256",
          "name": "_platformFee",
          "type": "uint256"
        }
      ],
      "name": "updatePlatformFee",
      "outputs": [],
      "stateMutability": "nonpayable",
      "type": "function"
    },
    {
      "inputs": [
        {
          "internalType": "address payable",
          "name": "_platformFeeRecipient",
          "type": "address"
        }
      ],
      "name": "updatePlatformFeeRecipient",
      "outputs": [],
      "stateMutability": "nonpayable",
      "type": "function"
    },
    {
      "inputs": [
        {
          "internalType": "address",
          "name": "_nftAddress",
          "type": "address"
        },
        {
          "internalType": "uint256",
          "name": "_tokenId",
          "type": "uint256"
        }
      ],
      "name": "withdrawBid",
      "outputs": [],
      "stateMutability": "nonpayable",
      "type": "function"
    }
  ],
  "bytecode": "0x608060405234801561001057600080fd5b50614c16806100206000396000f3fe608060405234801561001057600080fd5b50600436106102115760003560e01c8063715018a611610125578063ab2870e2116100ad578063eb13554f1161007c578063eb13554f14610774578063f2fde38b1461077c578063f3ad65f4146107a2578063f5fe7f71146107aa578063f9613d7f146107d057610211565b8063ab2870e2146106b2578063b1254bf414610700578063b187bd261461072c578063cd6dc6871461074857610211565b80638905fd4f116100f45780638905fd4f146105ed5780638da5cb5b14610613578063a062feb914610637578063a670a9b414610669578063aa0b59881461069557610211565b8063715018a61461051b578063762a66a214610523578063859b97fe1461059557806388cedbc4146105c157610211565b80633c9a2a1a116101a8578063623de5ad11610177578063623de5ad1461044a57806368e79e89146104675780636a5362f61461048d5780636b753f36146104955780636c58a5a4146104e957610211565b80633c9a2a1a1461036357806344f91c1e146103805780634cb8ef5b146103f25780635f7063ef1461041e57610211565b806316ada547116101e457806316ada5471461032e57806326232a2e14610336578063335b115e1461033e5780633beb26c41461034657610211565b806304717aca14610216578063083759e01461024a5780630e519ef914610267578063150b7a0214610281575b600080fd5b6102486004803603606081101561022c57600080fd5b506001600160a01b0381351690602081013590604001356107d8565b005b6102486004803603602081101561026057600080fd5b5035610a1c565b61026f610ab9565b60408051918252519081900360200190f35b6103116004803603608081101561029757600080fd5b6001600160a01b038235811692602081013590911691604082013591908101906080810160608201356401000000008111156102d257600080fd5b8201836020820111156102e457600080fd5b8035906020019184600183028401116401000000008311171561030657600080fd5b509092509050610ac0565b604080516001600160e01b03199092168252519081900360200190f35b61026f610ad1565b61026f610ad7565b61026f610add565b6102486004803603602081101561035c57600080fd5b5035610ae3565b6102486004803603602081101561037957600080fd5b5035610ae8565b6103ac6004803603604081101561039657600080fd5b506001600160a01b038135169060200135610af3565b604080516001600160a01b039889168152969097166020870152858701949094526060850192909252608084015260a0830152151560c082015290519081900360e00190f35b6102486004803603604081101561040857600080fd5b506001600160a01b038135169060200135610b4a565b6102486004803603604081101561043457600080fd5b506001600160a01b038135169060200135610dad565b6102486004803603602081101561046057600080fd5b50356111d4565b6102486004803603602081101561047d57600080fd5b50356001600160a01b0316611271565b61026f6112f5565b6104c1600480360360408110156104ab57600080fd5b506001600160a01b0381351690602001356112fb565b604080516001600160a01b039094168452602084019290925282820152519081900360600190f35b610248600480360360608110156104ff57600080fd5b506001600160a01b038135169060208101359060400135611331565b610248611582565b61054f6004803603604081101561053957600080fd5b506001600160a01b03813516906020013561162e565b604080516001600160a01b0398891681529690971660208701528587019490945260608501929092526080840152151560a083015260c082015290519081900360e00190f35b610248600480360360408110156105ab57600080fd5b506001600160a01b03813516906020013561168a565b610248600480360360408110156105d757600080fd5b506001600160a01b0381351690602001356118b1565b6102486004803603602081101561060357600080fd5b50356001600160a01b0316611b38565b61061b611d32565b604080516001600160a01b039092168252519081900360200190f35b6102486004803603606081101561064d57600080fd5b506001600160a01b038135169060208101359060400135611d41565b6104c16004803603604081101561067f57600080fd5b506001600160a01b038135169060200135611f6d565b610248600480360360208110156106ab57600080fd5b5035611fa5565b610248600480360360e08110156106c857600080fd5b506001600160a01b0381358116916020810135916040820135169060608101359060808101359060a081013515159060c00135612042565b6102486004803603604081101561071657600080fd5b506001600160a01b03813516906020013561240a565b610734612734565b604080519115158252519081900360200190f35b6102486004803603604081101561075e57600080fd5b506001600160a01b038135169060200135612744565b61061b612890565b6102486004803603602081101561079257600080fd5b50356001600160a01b031661289f565b61061b6129a2565b610248600480360360208110156107c057600080fd5b50356001600160a01b03166129b1565b610248612ab1565b6002606554141561081e576040805162461bcd60e51b815260206004820152601f602482015260008051602061488f833981519152604482015290519081900360640190fd5b6002606555609d54600160a01b900460ff1615610874576040805162461bcd60e51b815260206004820152600f60248201526e18dbdb9d1c9858dd081c185d5cd959608a1b604482015290519081900360640190fd5b3261087d612b72565b6001600160a01b03161461089057600080fd5b6108986147f6565b506001600160a01b038084166000908152609760209081526040808320868452825291829020825160e0810184528154851681526001820154909416918401919091526002810154918301919091526003810154606083015260048101546080830152600581015460a0830181905260069091015460ff16151560c083015261095c576040805162461bcd60e51b81526020600482015260116024820152704e6f2061756374696f6e2065786973747360781b604482015290519081900360640190fd5b8060800151610969612b76565b1015801561098257508060a0015161097f612b76565b11155b6109bd5760405162461bcd60e51b8152600401808060200182810382526025815260200180614bbc6025913960400191505060405180910390fd5b60208101516001600160a01b0316610a065760405162461bcd60e51b815260040180806020018281038252602181526020018061486e6021913960400191505060405180910390fd5b610a11848484612b7c565b505060016065555050565b610a24612b72565b6001600160a01b0316610a35611d32565b6001600160a01b031614610a7e576040805162461bcd60e51b81526020600482018190526024820152600080516020614a8c833981519152604482015290519081900360640190fd5b60998190556040805182815290517f489b0441344cbdcb036bee4857de51567f580e9747166f76b581be803ca45fcb9181900360200190a150565b62278d0081565b630a85bd0160e11b95945050505050565b609e5481565b609b5481565b60995481565b609e55565b609e80549091019055565b609760209081526000928352604080842090915290825290208054600182015460028301546003840154600485015460058601546006909601546001600160a01b0395861696959094169492939192909160ff1687565b60026065541415610b90576040805162461bcd60e51b815260206004820152601f602482015260008051602061488f833981519152604482015290519081900360640190fd5b6002606555609d54600160a01b900460ff1615610be6576040805162461bcd60e51b815260206004820152600f60248201526e18dbdb9d1c9858dd081c185d5cd959608a1b604482015290519081900360640190fd5b6001600160a01b03821660009081526098602090815260408083208484529091529020610c11612b72565b81546001600160a01b03908116911614610c72576040805162461bcd60e51b815260206004820152601e60248201527f796f7520617265206e6f74207468652068696768657374206269646465720000604482015290519081900360640190fd5b6001600160a01b038316600090815260976020908152604080832085845290915290206005015480610ca2612b76565b118015610cba575061a8c081610cb6612b76565b0310155b610cf55760405162461bcd60e51b8152600401808060200182810382526036815260200180614ad06036913960400191505060405180910390fd5b6001808301546001600160a01b0386166000908152609860209081526040808320888452909152812080546001600160a01b0319168155928301819055600290920191909155610d4e8585610d48612b72565b84612e91565b610d56612b72565b6001600160a01b031684866001600160a01b03167f867b8ea96dd803063f905a19f8117cbb1866ec7a594dfede75ab4a5235f61d7c846040518082815260200191505060405180910390a450506001606555505050565b60026065541415610df3576040805162461bcd60e51b815260206004820152601f602482015260008051602061488f833981519152604482015290519081900360640190fd5b60026065556001600160a01b0380831660008181526097602090815260408083208684528252808320938352609882528083208684529091529020805460018201549293919291169081610e45612b72565b6001600160a01b03161480610e73575083546001600160a01b0316610e68612b72565b6001600160a01b0316145b610eae5760405162461bcd60e51b815260040180806020018281038252602d815260200180614957602d913960400191505060405180910390fd5b306001600160a01b0316866001600160a01b0316636352211e876040518263ffffffff1660e01b81526004018082815260200191505060206040518083038186803b158015610efc57600080fd5b505afa158015610f10573d6000803e3d6000fd5b505050506040513d6020811015610f2657600080fd5b50516001600160a01b031614610f6d5760405162461bcd60e51b81526004018080602001828103825260248152602001806149e36024913960400191505060405180910390fd5b6000846005015411610fba576040805162461bcd60e51b81526020600482015260116024820152706e6f2061756374696f6e2065786973747360781b604482015290519081900360640190fd5b8360050154610fc7612b76565b1161100d576040805162461bcd60e51b8152602060048201526011602482015270185d58dd1a5bdb881b9bdd08195b991959607a1b604482015290519081900360640190fd5b600684015460ff1615611055576040805162461bcd60e51b81526020600482015260186024820152600080516020614b70833981519152604482015290519081900360640190fd5b6001600160a01b03821661109f576040805162461bcd60e51b815260206004820152600c60248201526b6e6f206f70656e206269647360a01b604482015290519081900360640190fd5b83600301548110156110e25760405162461bcd60e51b8152600401808060200182810382526021815260200180614b066021913960400191505060405180910390fd5b856001600160a01b031663e985e9c56110f9612b72565b306040518363ffffffff1660e01b815260040180836001600160a01b03168152602001826001600160a01b031681526020019250505060206040518083038186803b15801561114757600080fd5b505afa15801561115b573d6000803e3d6000fd5b505050506040513d602081101561117157600080fd5b50516111bb576040805162461bcd60e51b8152602060048201526014602482015273185d58dd1a5bdb881b9bdd08185c1c1c9bdd995960621b604482015290519081900360640190fd5b6111c78686848461302d565b5050600160655550505050565b6111dc612b72565b6001600160a01b03166111ed611d32565b6001600160a01b031614611236576040805162461bcd60e51b81526020600482018190526024820152600080516020614a8c833981519152604482015290519081900360640190fd5b609a8190556040805182815290517ff9e4b69944d3fbdd96aedcda02032e2091346ececc3b55a485b40a6dc09bb9e09181900360200190a150565b611279612b72565b6001600160a01b031661128a611d32565b6001600160a01b0316146112d3576040805162461bcd60e51b81526020600482018190526024820152600080516020614a8c833981519152604482015290519081900360640190fd5b609d80546001600160a01b0319166001600160a01b0392909216919091179055565b609a5481565b60986020908152600092835260408084209091529082529020805460018201546002909201546001600160a01b03909116919083565b6001600160a01b03808416600090815260976020908152604080832086845290915290208054909116611362612b72565b6001600160a01b0316146113b4576040805162461bcd60e51b815260206004820152601460248201527339b2b73232b91036bab9ba1031329037bbb732b960611b604482015290519081900360640190fd5b600082116113fe576040805162461bcd60e51b8152602060048201526012602482015271696e76616c69642073746172742074696d6560701b604482015290519081900360640190fd5b611406612b76565b8160040154603c011161145a576040805162461bcd60e51b8152602060048201526017602482015276185d58dd1a5bdb88185b1c9958591e481cdd185c9d1959604a1b604482015290519081900360640190fd5b80600501548261012c01106114a05760405162461bcd60e51b8152600401808060200182810382526036815260200180614a356036913960400191505060405180910390fd5b600681015460ff16156114e8576040805162461bcd60e51b81526020600482015260186024820152600080516020614b70833981519152604482015290519081900360640190fd5b6000816005015411611535576040805162461bcd60e51b81526020600482015260116024820152706e6f2061756374696f6e2065786973747360781b604482015290519081900360640190fd5b6004810182905560408051838152905184916001600160a01b038716917ff123182d1bfce603eb20a2f74cce94af6542f353a4c2a8d5cfadf41822b32b389181900360200190a350505050565b61158a612b72565b6001600160a01b031661159b611d32565b6001600160a01b0316146115e4576040805162461bcd60e51b81526020600482018190526024820152600080516020614a8c833981519152604482015290519081900360640190fd5b6033546040516000916001600160a01b0316907f8be0079c531659141344cd1fd0a4f28419497f9722a3daafe3b4186f6b6457e0908390a3603380546001600160a01b0319169055565b6001600160a01b0391821660009081526097602090815260408083209383529290522080546001820154600383015460048401546005850154600686015460029096015494871697939096169591949093919260ff9091169190565b600260655414156116d0576040805162461bcd60e51b815260206004820152601f602482015260008051602061488f833981519152604482015290519081900360640190fd5b60026065556116dd6147f6565b506001600160a01b038083166000908152609760209081526040808320858452825291829020825160e081018452815485168082526001830154909516928101929092526002810154928201929092526003820154606082015260048201546080820152600582015460a082015260069091015460ff16151560c082015290611764612b72565b6001600160a01b0316146117b6576040805162461bcd60e51b815260206004820152601460248201527339b2b73232b91036bab9ba1031329037bbb732b960611b604482015290519081900360640190fd5b60008160a0015111611803576040805162461bcd60e51b81526020600482015260116024820152706e6f2061756374696f6e2065786973747360781b604482015290519081900360640190fd5b8060c0015115611848576040805162461bcd60e51b81526020600482015260186024820152600080516020614b70833981519152604482015290519081900360640190fd5b6001600160a01b038316600090815260986020908152604080832085845290915290206060820151600182015410610a115760405162461bcd60e51b815260040180806020018281038252602c815260200180614b90602c913960400191505060405180910390fd5b600260655414156118f7576040805162461bcd60e51b815260206004820152601f602482015260008051602061488f833981519152604482015290519081900360640190fd5b6002606555611904612b72565b6001600160a01b0316611915611d32565b6001600160a01b03161461195e576040805162461bcd60e51b81526020600482018190526024820152600080516020614a8c833981519152604482015290519081900360640190fd5b6001600160a01b038083166000818152609760209081526040808320868452825280832080549484526098835281842087855290925290912080546001820154600584015493959485169492939190921691906119f6576040805162461bcd60e51b81526020600482015260116024820152706e6f2061756374696f6e2065786973747360781b604482015290519081900360640190fd5b8460050154611a03612b76565b11611a49576040805162461bcd60e51b8152602060048201526011602482015270185d58dd1a5bdb881b9bdd08195b991959607a1b604482015290519081900360640190fd5b600685015460ff1615611a91576040805162461bcd60e51b81526020600482015260186024820152600080516020614b70833981519152604482015290519081900360640190fd5b6001600160a01b038216611adb576040805162461bcd60e51b815260206004820152600c60248201526b6e6f206f70656e206269647360a01b604482015290519081900360640190fd5b8460030154811015611b1e5760405162461bcd60e51b8152600401808060200182810382526021815260200180614b066021913960400191505060405180910390fd5b611b2a878784846137b2565b505060016065555050505050565b611b40612b72565b6001600160a01b0316611b51611d32565b6001600160a01b031614611b9a576040805162461bcd60e51b81526020600482018190526024820152600080516020614a8c833981519152604482015290519081900360640190fd5b6001600160a01b038116611be7576040805162461bcd60e51b815260206004820152600f60248201526e496e76616c6964206164647265737360881b604482015290519081900360640190fd5b604080516370a0823160e01b8152306004820152905182916000916001600160a01b038416916370a08231916024808301926020929190829003018186803b158015611c3257600080fd5b505afa158015611c46573d6000803e3d6000fd5b505050506040513d6020811015611c5c57600080fd5b505190506001600160a01b03821663a9059cbb611c77612b72565b836040518363ffffffff1660e01b815260040180836001600160a01b0316815260200182815260200192505050602060405180830381600087803b158015611cbe57600080fd5b505af1158015611cd2573d6000803e3d6000fd5b505050506040513d6020811015611ce857600080fd5b5051611d2d576040805162461bcd60e51b815260206004820152600f60248201526e151c985b9cd9995c8819985a5b1959608a1b604482015290519081900360640190fd5b505050565b6033546001600160a01b031690565b6001600160a01b0383166000818152609760209081526040808320868452825291829020600381015483516331a9108f60e11b81526004810188905293519194909330939192636352211e92602480840193919291829003018186803b158015611daa57600080fd5b505afa158015611dbe573d6000803e3d6000fd5b505050506040513d6020811015611dd457600080fd5b50516001600160a01b0316148015611e05575081546001600160a01b0316611dfa612b72565b6001600160a01b0316145b611e405760405162461bcd60e51b81526004018080602001828103825260338152602001806149846033913960400191505060405180910390fd5b600682015460ff1615611e88576040805162461bcd60e51b81526020600482015260186024820152600080516020614b70833981519152604482015290519081900360640190fd5b6000826005015411611ed5576040805162461bcd60e51b81526020600482015260116024820152706e6f2061756374696f6e2065786973747360781b604482015290519081900360640190fd5b808310611f135760405162461bcd60e51b8152600401808060200182810382526023815260200180614b4d6023913960400191505060405180910390fd5b600382018390556001820154604080516001600160a01b03928316815260208101869052815187938916927f1492815b4a41d34cc0015f8ba8013fa45717ea6d8591db6036bdca706981fe83928290030190a35050505050565b6001600160a01b0391821660009081526098602090815260408083209383529290522080546001820154600290920154921692909190565b611fad612b72565b6001600160a01b0316611fbe611d32565b6001600160a01b031614612007576040805162461bcd60e51b81526020600482018190526024820152600080516020614a8c833981519152604482015290519081900360640190fd5b609b8190556040805182815290517f2644fd26359c107ff7991b6dfc36ce902b334ce4e3891bbecacc5922aa620efa9181900360200190a150565b609d54600160a01b900460ff1615612093576040805162461bcd60e51b815260206004820152600f60248201526e18dbdb9d1c9858dd081c185d5cd959608a1b604482015290519081900360640190fd5b61209b612b72565b6001600160a01b0316876001600160a01b0316636352211e886040518263ffffffff1660e01b81526004018082815260200191505060206040518083038186803b1580156120e857600080fd5b505afa1580156120fc573d6000803e3d6000fd5b505050506040513d602081101561211257600080fd5b50516001600160a01b03161480156121b75750866001600160a01b031663e985e9c561213c612b72565b306040518363ffffffff1660e01b815260040180836001600160a01b03168152602001826001600160a01b031681526020019250505060206040518083038186803b15801561218a57600080fd5b505afa15801561219e573d6000803e3d6000fd5b505050506040513d60208110156121b457600080fd5b50515b6121f25760405162461bcd60e51b8152600401808060200182810382526026815260200180614b276026913960400191505060405180910390fd5b609d5460408051639d23c4c760e01b815290516000926001600160a01b031691639d23c4c7916004808301926020929190829003018186803b15801561223757600080fd5b505afa15801561224b573d6000803e3d6000fd5b505050506040513d602081101561226157600080fd5b50516001600160a01b0316148015906123685750609d60009054906101000a90046001600160a01b03166001600160a01b0316639d23c4c76040518163ffffffff1660e01b815260040160206040518083038186803b1580156122c357600080fd5b505afa1580156122d7573d6000803e3d6000fd5b505050506040513d60208110156122ed57600080fd5b5051604080516398afdfe360e01b81526001600160a01b038881166004830152915191909216916398afdfe39160248083019260209291908290030181600087803b15801561233b57600080fd5b505af115801561234f573d6000803e3d6000fd5b505050506040513d602081101561236557600080fd5b50515b6123ad576040805162461bcd60e51b815260206004820152601160248201527034b73b30b634b2103830bc903a37b5b2b760791b604482015290519081900360640190fd5b62278d0083018111156123f15760405162461bcd60e51b81526004018080602001828103825260238152602001806149026023913960400191505060405180910390fd5b61240087878787878787613f5d565b5050505050505050565b60026065541415612450576040805162461bcd60e51b815260206004820152601f602482015260008051602061488f833981519152604482015290519081900360640190fd5b600260655561245d612b72565b6001600160a01b031661246e611d32565b6001600160a01b0316146124b7576040805162461bcd60e51b81526020600482018190526024820152600080516020614a8c833981519152604482015290519081900360640190fd5b6124bf6147f6565b506001600160a01b038083166000908152609760209081526040808320858452825291829020825160e0810184528154851681526001820154909416918401919091526002810154918301919091526003810154606083015260048101546080830152600581015460a0830181905260069091015460ff16151560c0830152612583576040805162461bcd60e51b81526020600482015260116024820152706e6f2061756374696f6e2065786973747360781b604482015290519081900360640190fd5b8060c00151156125c8576040805162461bcd60e51b81526020600482015260186024820152600080516020614b70833981519152604482015290519081900360640190fd5b6001600160a01b0383166000908152609860209081526040808320858452909152902060608201516001820154106126315760405162461bcd60e51b815260040180806020018281038252602c815260200180614b90602c913960400191505060405180910390fd5b80546001600160a01b03161561269c578054600182015461265f91869186916001600160a01b031690612e91565b6001600160a01b0384166000908152609860209081526040808320868452909152812080546001600160a01b031916815560018101829055600201555b6001600160a01b038416600081815260976020908152604080832087845290915280822080546001600160a01b03199081168255600182018054909116905560028101839055600381018390556004810183905560058101839055600601805460ff19169055518592917f018b64b6242d32aa550e95d78985b938d71af5b3f10827b0683f55da1639304891a3505060016065555050565b609d54600160a01b900460ff1681565b600054610100900460ff168061275d575061275d6142d9565b8061276b575060005460ff16155b6127a65760405162461bcd60e51b815260040180806020018281038252602e815260200180614a07602e913960400191505060405180910390fd5b600054610100900460ff161580156127d1576000805460ff1961ff0019909116610100171660011790555b6001600160a01b0383166128165760405162461bcd60e51b815260040180806020018281038252602d8152602001806148af602d913960400191505060405180910390fd5b609c80546001600160a01b0319166001600160a01b03851617905560998290556104b0609a556019609b556040517f3ba39df8159eb54aa73007b8e73640a2f0e7c1a2ca3b2929394da08de87add2690600090a16128726142ea565b61287a61439c565b8015611d2d576000805461ff0019169055505050565b609c546001600160a01b031681565b6128a7612b72565b6001600160a01b03166128b8611d32565b6001600160a01b031614612901576040805162461bcd60e51b81526020600482018190526024820152600080516020614a8c833981519152604482015290519081900360640190fd5b6001600160a01b0381166129465760405162461bcd60e51b81526004018080602001828103825260268152602001806148dc6026913960400191505060405180910390fd5b6033546040516001600160a01b038084169216907f8be0079c531659141344cd1fd0a4f28419497f9722a3daafe3b4186f6b6457e090600090a3603380546001600160a01b0319166001600160a01b0392909216919091179055565b609d546001600160a01b031681565b6129b9612b72565b6001600160a01b03166129ca611d32565b6001600160a01b031614612a13576040805162461bcd60e51b81526020600482018190526024820152600080516020614a8c833981519152604482015290519081900360640190fd5b6001600160a01b038116612a5d576040805162461bcd60e51b815260206004820152600c60248201526b7a65726f206164647265737360a01b604482015290519081900360640190fd5b609c80546001600160a01b0383166001600160a01b0319909116811790915560408051918252517fe57e7c1f36cc83fade34e32351e6eee7eb9da532662b1b5da10c631e8222aca79181900360200190a150565b612ab9612b72565b6001600160a01b0316612aca611d32565b6001600160a01b031614612b13576040805162461bcd60e51b81526020600482018190526024820152600080516020614a8c833981519152604482015290519081900360640190fd5b609d805460ff600160a01b808304821615810260ff60a01b1990931692909217928390556040805192909304161515815290517f9077d36bc00859b5c3f320310707208543dd35092cb0a0fe117d0c6a558b148b9181900360200190a1565b3390565b609e5490565b609d54600160a01b900460ff1615612bcd576040805162461bcd60e51b815260206004820152600f60248201526e18dbdb9d1c9858dd081c185d5cd959608a1b604482015290519081900360640190fd5b6001600160a01b03831660009081526097602090815260408083208584529091529020600381015460028201541415612c43578060030154821015612c435760405162461bcd60e51b81526004018080602001828103825260268152602001806148486026913960400191505060405180910390fd5b6001600160a01b038416600090815260986020908152604080832086845290915281206099546001820154919291612c7a91614431565b905080841015612cd1576040805162461bcd60e51b815260206004820152601f60248201527f6661696c656420746f206f757462696420686967686573742062696464657200604482015290519081900360640190fd5b60018301546001600160a01b0316806323b872dd612ced612b72565b30886040518463ffffffff1660e01b815260040180846001600160a01b03168152602001836001600160a01b031681526020018281526020019350505050602060405180830381600087803b158015612d4557600080fd5b505af1158015612d59573d6000803e3d6000fd5b505050506040513d6020811015612d6f57600080fd5b5051612dac5760405162461bcd60e51b8152600401808060200182810382526024815260200180614aac6024913960400191505060405180910390fd5b610258612db7612b76565b8560050154031015612dd0576005840180546102580190555b82546001600160a01b031615612dfe5782546001840154612dfe91899189916001600160a01b031690612e91565b612e06612b72565b83546001600160a01b0319166001600160a01b039190911617835560018301859055612e30612b76565b6002840155612e3d612b72565b6001600160a01b031686886001600160a01b03167f0158f5674dc243762459b88cfc91b10d2d1ef9d40821cca978c2b680aa444682886040518082815260200191505060405180910390a450505050505050565b612e996147f6565b506001600160a01b0380851660009081526097602090815260408083208784528252808320815160e08101835281548616815260018201548616818501819052600283015482850152600383015460608301526004808401546080840152600584015460a084015260069093015460ff16151560c0830152835163a9059cbb60e01b81529689169287019290925260248601879052915191949093849363a9059cbb93604480850194929391928390030190829087803b158015612f5c57600080fd5b505af1158015612f70573d6000803e3d6000fd5b505050506040513d6020811015612f8657600080fd5b5051612fd9576040805162461bcd60e51b815260206004820181905260248201527f6661696c656420746f20726566756e642070726576696f757320626964646572604482015290519081900360640190fd5b836001600160a01b031685876001600160a01b03167f90e20d1ba82eaa07a212267355536f76bc83bf91c81fd41b74283c4082e76952866040518082815260200191505060405180910390a4505050505050565b6001600160a01b0384166000818152609760209081526040808320878452825280832060068101805460ff1916600190811790915594845260988352818420888552909252822080546001600160a01b0319168155928301829055600290920181905560038201548311156131ad5760006130bf6103e86130b9609b548761449490919063ffffffff16565b906144ed565b6001840154609c546040805163a9059cbb60e01b81526001600160a01b039283166004820152602481018590529051939450911691829163a9059cbb9160448083019260209291908290030181600087803b15801561311d57600080fd5b505af1158015613131573d6000803e3d6000fd5b505050506040513d602081101561314757600080fd5b505161319a576040805162461bcd60e51b815260206004820152601b60248201527f6661696c656420746f2073656e6420706c6174666f726d206665650000000000604482015290519081900360640190fd5b6131a48583614554565b925050506131b0565b50815b609d546040805163508d838960e11b815290516000926001600160a01b03169163a11b0712916004808301926020929190829003018186803b1580156131f557600080fd5b505afa158015613209573d6000803e3d6000fd5b505050506040513d602081101561321f57600080fd5b5051604080516329c5eaf560e11b81526001600160a01b038a81166004830152602482018a905260448201869052825193945060009384939186169263538bd5ea926064808301939192829003018186803b15801561327d57600080fd5b505afa158015613291573d6000803e3d6000fd5b505050506040513d60408110156132a757600080fd5b50805160209091015190925090506001600160a01b038216158015906132cc57508015155b156133b75760018501546040805163a9059cbb60e01b81526001600160a01b0385811660048301526024820185905291519190921691829163a9059cbb916044808201926020929091908290030181600087803b15801561332c57600080fd5b505af1158015613340573d6000803e3d6000fd5b505050506040513d602081101561335657600080fd5b50516133a9576040805162461bcd60e51b815260206004820152601c60248201527f6661696c656420746f2073656e642074686520726f79616c7469657300000000604482015290519081900360640190fd5b6133b38583614554565b9450505b831561348357600185015485546040805163a9059cbb60e01b81526001600160a01b0392831660048201526024810188905290519190921691829163a9059cbb916044808201926020929091908290030181600087803b15801561341a57600080fd5b505af115801561342e573d6000803e3d6000fd5b505050506040513d602081101561344457600080fd5b50516134815760405162461bcd60e51b815260040180806020018281038252602c8152602001806149b7602c913960400191505060405180910390fd5b505b505060408051632142170760e11b81523060048201526001600160a01b03878116602483015260448201899052915191891693506342842e0e925060648082019260009290919082900301818387803b1580156134df57600080fd5b505af11580156134f3573d6000803e3d6000fd5b50505050609d60009054906101000a90046001600160a01b03166001600160a01b0316639e1f5b286040518163ffffffff1660e01b815260040160206040518083038186803b15801561354557600080fd5b505afa158015613559573d6000803e3d6000fd5b505050506040513d602081101561356f57600080fd5b5051604080516309f07d3d60e21b81526001600160a01b0388811660048301526024820188905260016044830152915191909216916327c1f4f491606480830192600092919082900301818387803b1580156135ca57600080fd5b505af11580156135de573d6000803e3d6000fd5b50505050826001600160a01b031684866001600160a01b03167fa717395bf4be1915f0bc8e6cf9b0f526c5ad40a0c3750b709a29a834daf0fd9b613620612b72565b6001860154609d546040805163abc8c7af60e01b815290516001600160a01b03938416939092169163abc8c7af91600480820192602092909190829003018186803b15801561366e57600080fd5b505afa158015613682573d6000803e3d6000fd5b505050506040513d602081101561369857600080fd5b50516001880154604080516341976e0960e01b81526001600160a01b039283166004820152905191909216916341976e09916024808301926020929190829003018186803b1580156136e957600080fd5b505afa1580156136fd573d6000803e3d6000fd5b505050506040513d602081101561371357600080fd5b5051604080516001600160a01b039485168152929093166020830152818301526060810188905290519081900360800190a45050506001600160a01b03909116600090815260976020908152604080832093835292905290812080546001600160a01b0319908116825560018201805490911690556002810182905560038101829055600481018290556005810191909155600601805460ff19169055565b6001600160a01b0384166000818152609760209081526040808320878452825280832060068101805460ff1916600190811790915594845260988352818420888552909252822080546001600160a01b03191681559283018290556002909201819055600382015483111561392c57600061383e6103e86130b9609b548761449490919063ffffffff16565b6001840154609c546040805163a9059cbb60e01b81526001600160a01b039283166004820152602481018590529051939450911691829163a9059cbb9160448083019260209291908290030181600087803b15801561389c57600080fd5b505af11580156138b0573d6000803e3d6000fd5b505050506040513d60208110156138c657600080fd5b5051613919576040805162461bcd60e51b815260206004820152601b60248201527f6661696c656420746f2073656e6420706c6174666f726d206665650000000000604482015290519081900360640190fd5b6139238583614554565b9250505061392f565b50815b609d546040805163508d838960e11b815290516000926001600160a01b03169163a11b0712916004808301926020929190829003018186803b15801561397457600080fd5b505afa158015613988573d6000803e3d6000fd5b505050506040513d602081101561399e57600080fd5b5051604080516329c5eaf560e11b81526001600160a01b038a81166004830152602482018a905260448201869052825193945060009384939186169263538bd5ea926064808301939192829003018186803b1580156139fc57600080fd5b505afa158015613a10573d6000803e3d6000fd5b505050506040513d6040811015613a2657600080fd5b50805160209091015190925090506001600160a01b03821615801590613a4b57508015155b15613b365760018501546040805163a9059cbb60e01b81526001600160a01b0385811660048301526024820185905291519190921691829163a9059cbb916044808201926020929091908290030181600087803b158015613aab57600080fd5b505af1158015613abf573d6000803e3d6000fd5b505050506040513d6020811015613ad557600080fd5b5051613b28576040805162461bcd60e51b815260206004820152601c60248201527f6661696c656420746f2073656e642074686520726f79616c7469657300000000604482015290519081900360640190fd5b613b328583614554565b9450505b8315613c0257600185015485546040805163a9059cbb60e01b81526001600160a01b0392831660048201526024810188905290519190921691829163a9059cbb916044808201926020929091908290030181600087803b158015613b9957600080fd5b505af1158015613bad573d6000803e3d6000fd5b505050506040513d6020811015613bc357600080fd5b5051613c005760405162461bcd60e51b815260040180806020018281038252602c8152602001806149b7602c913960400191505060405180910390fd5b505b845460408051632142170760e11b81526001600160a01b0392831660048201528983166024820152604481018b90529051918b16916342842e0e9160648082019260009290919082900301818387803b158015613c5e57600080fd5b505af1158015613c72573d6000803e3d6000fd5b50505050609d60009054906101000a90046001600160a01b03166001600160a01b0316639e1f5b286040518163ffffffff1660e01b815260040160206040518083038186803b158015613cc457600080fd5b505afa158015613cd8573d6000803e3d6000fd5b505050506040513d6020811015613cee57600080fd5b5051604080516309f07d3d60e21b81526001600160a01b038c81166004830152602482018c905260016044830152915191909216916327c1f4f491606480830192600092919082900301818387803b158015613d4957600080fd5b505af1158015613d5d573d6000803e3d6000fd5b50505050866001600160a01b0316888a6001600160a01b03167fa717395bf4be1915f0bc8e6cf9b0f526c5ad40a0c3750b709a29a834daf0fd9b8860000160009054906101000a90046001600160a01b03168960010160009054906101000a90046001600160a01b0316609d60009054906101000a90046001600160a01b03166001600160a01b031663abc8c7af6040518163ffffffff1660e01b815260040160206040518083038186803b158015613e1557600080fd5b505afa158015613e29573d6000803e3d6000fd5b505050506040513d6020811015613e3f57600080fd5b505160018c0154604080516341976e0960e01b81526001600160a01b039283166004820152905191909216916341976e09916024808301926020929190829003018186803b158015613e9057600080fd5b505afa158015613ea4573d6000803e3d6000fd5b505050506040513d6020811015613eba57600080fd5b5051604080516001600160a01b03948516815292909316602083015281830152606081018c905290519081900360800190a45050506001600160a01b03909516600090815260976020908152604080832096835295905293842080546001600160a01b0319908116825560018201805490911690556002810185905560038101859055600481018590556005810194909455505050600601805460ff1916905550565b6001600160a01b038716600090815260976020908152604080832089845290915281206005015415613fd0576040805162461bcd60e51b8152602060048201526017602482015276185d58dd1a5bdb88185b1c9958591e481cdd185c9d1959604a1b604482015290519081900360640190fd5b8361012c018210156140135760405162461bcd60e51b81526004018080602001828103825260328152602001806149256032913960400191505060405180910390fd5b61401b612b76565b8411614063576040805162461bcd60e51b8152602060048201526012602482015271696e76616c69642073746172742074696d6560701b604482015290519081900360640190fd5b6000831561406e5750845b886001600160a01b03166342842e0e8a6001600160a01b0316636352211e8b6040518263ffffffff1660e01b81526004018082815260200191505060206040518083038186803b1580156140c157600080fd5b505afa1580156140d5573d6000803e3d6000fd5b505050506040513d60208110156140eb57600080fd5b5051604080516001600160e01b031960e085901b1681526001600160a01b039092166004830152306024830152604482018c905251606480830192600092919082900301818387803b15801561414057600080fd5b505af1158015614154573d6000803e3d6000fd5b505050506040518060e0016040528061416b612b72565b6001600160a01b03168152602001886001600160a01b0316815260200182815260200187815260200186815260200184815260200160001515815250609760008b6001600160a01b03166001600160a01b0316815260200190815260200160002060008a815260200190815260200160002060008201518160000160006101000a8154816001600160a01b0302191690836001600160a01b0316021790555060208201518160010160006101000a8154816001600160a01b0302191690836001600160a01b0316021790555060408201518160020155606082015181600301556080820151816004015560a0820151816005015560c08201518160060160006101000a81548160ff02191690831515021790555090505087896001600160a01b03167fca437d90ed6373b827a01275bd2fdfe7e6406d7ecd400662ee0533d3546ab17a8960405180826001600160a01b0316815260200191505060405180910390a350979650505050505050565b60006142e4306145b1565b15905090565b600054610100900460ff168061430357506143036142d9565b80614311575060005460ff16155b61434c5760405162461bcd60e51b815260040180806020018281038252602e815260200180614a07602e913960400191505060405180910390fd5b600054610100900460ff16158015614377576000805460ff1961ff0019909116610100171660011790555b61437f6145b7565b614387614657565b8015614399576000805461ff00191690555b50565b600054610100900460ff16806143b557506143b56142d9565b806143c3575060005460ff16155b6143fe5760405162461bcd60e51b815260040180806020018281038252602e815260200180614a07602e913960400191505060405180910390fd5b600054610100900460ff16158015614429576000805460ff1961ff0019909116610100171660011790555b614387614750565b60008282018381101561448b576040805162461bcd60e51b815260206004820152601b60248201527f536166654d6174683a206164646974696f6e206f766572666c6f770000000000604482015290519081900360640190fd5b90505b92915050565b6000826144a35750600061448e565b828202828482816144b057fe5b041461448b5760405162461bcd60e51b8152600401808060200182810382526021815260200180614a6b6021913960400191505060405180910390fd5b6000808211614543576040805162461bcd60e51b815260206004820152601a60248201527f536166654d6174683a206469766973696f6e206279207a65726f000000000000604482015290519081900360640190fd5b81838161454c57fe5b049392505050565b6000828211156145ab576040805162461bcd60e51b815260206004820152601e60248201527f536166654d6174683a207375627472616374696f6e206f766572666c6f770000604482015290519081900360640190fd5b50900390565b3b151590565b600054610100900460ff16806145d057506145d06142d9565b806145de575060005460ff16155b6146195760405162461bcd60e51b815260040180806020018281038252602e815260200180614a07602e913960400191505060405180910390fd5b600054610100900460ff16158015614387576000805460ff1961ff0019909116610100171660011790558015614399576000805461ff001916905550565b600054610100900460ff168061467057506146706142d9565b8061467e575060005460ff16155b6146b95760405162461bcd60e51b815260040180806020018281038252602e815260200180614a07602e913960400191505060405180910390fd5b600054610100900460ff161580156146e4576000805460ff1961ff0019909116610100171660011790555b60006146ee612b72565b603380546001600160a01b0319166001600160a01b038316908117909155604051919250906000907f8be0079c531659141344cd1fd0a4f28419497f9722a3daafe3b4186f6b6457e0908290a3508015614399576000805461ff001916905550565b600054610100900460ff168061476957506147696142d9565b80614777575060005460ff16155b6147b25760405162461bcd60e51b815260040180806020018281038252602e815260200180614a07602e913960400191505060405180910390fd5b600054610100900460ff161580156147dd576000805460ff1961ff0019909116610100171660011790555b60016065558015614399576000805461ff001916905550565b6040518060e0016040528060006001600160a01b0316815260200160006001600160a01b0316815260200160008152602001600081526020016000815260200160008152602001600015158152509056fe6269642063616e6e6f74206265206c6f776572207468616e20726573657276652070726963654552433230206d6574686f64207573656420666f72204554482061756374696f6e5265656e7472616e637947756172643a207265656e7472616e742063616c6c0054656e61727441756374696f6e3a20496e76616c696420506c6174666f726d2046656520526563697069656e744f776e61626c653a206e6577206f776e657220697320746865207a65726f206164647265737341756374696f6e2074696d652065786365656473206d6178696d756d206c656e677468656e642074696d65206d7573742062652067726561746572207468616e207374617274202862792035206d696e75746573295f6d736753656e6465722829206d7573742062652061756374696f6e2077696e6e6572206f722073656c6c657253656e646572206d757374206265206974656d206f776e657220616e64204e4654206d75737420626520696e20657363726f776661696c656420746f2073656e6420746865206f776e6572207468652061756374696f6e2062616c616e636561646472657373287468697329206d75737420626520746865206974656d206f776e6572496e697469616c697a61626c653a20636f6e747261637420697320616c726561647920696e697469616c697a656473746172742074696d652073686f756c64206265206c657373207468616e20656e642074696d65202862792035206d696e7574657329536166654d6174683a206d756c7469706c69636174696f6e206f766572666c6f774f776e61626c653a2063616c6c6572206973206e6f7420746865206f776e6572696e73756666696369656e742062616c616e6365206f72206e6f7420617070726f76656463616e207769746864726177206f6e6c7920616674657220313220686f757273202861667465722061756374696f6e20656e6465642968696768657374206269642069732062656c6f77207265736572766550726963656e6f74206f776e657220616e64206f7220636f6e7472616374206e6f7420617070726f766564526573657276652070726963652063616e206f6e6c792062652064656372656173656461756374696f6e20616c726561647920726573756c746564000000000000000048696768657374206269642069732063757272656e746c792061626f7665207265736572766520707269636562696464696e67206f757473696465206f66207468652061756374696f6e2077696e646f77a26469706673582212206492c693534b31b0e190177eee06a8797aff43eb956b22fd69b118bb17396d0c64736f6c634300060c0033",
  "linkReferences": {},
  "deployedLinkReferences": {}
}