{
  "_format": "hh-sol-artifact-1",
  "contractName": "TokenDistributor",
  "sourceName": "contracts/Rewards/TokenDistributor.sol",
  "abi": [
    {
      "inputs": [
        {
          "internalType": "address",
          "name": "_pixellyToken",
          "type": "address"
        },
        {
          "internalType": "address",
          "name": "_tokenSplitter",
          "type": "address"
        },
        {
          "internalType": "uint256",
          "name": "_startBlock",
          "type": "uint256"
        },
        {
          "internalType": "uint256[]",
          "name": "_rewardsPerBlockForStaking",
          "type": "uint256[]"
        },
        {
          "internalType": "uint256[]",
          "name": "_rewardsPerBlockForOthers",
          "type": "uint256[]"
        },
        {
          "internalType": "uint256[]",
          "name": "_periodLengthesInBlocks",
          "type": "uint256[]"
        },
        {
          "internalType": "uint256",
          "name": "_numberPeriods",
          "type": "uint256"
        }
      ],
      "stateMutability": "nonpayable",
      "type": "constructor"
    },
    {
      "anonymous": false,
      "inputs": [
        {
          "indexed": true,
          "internalType": "address",
          "name": "user",
          "type": "address"
        },
        {
          "indexed": false,
          "internalType": "uint256",
          "name": "harvestedAmount",
          "type": "uint256"
        }
      ],
      "name": "Compound",
      "type": "event"
    },
    {
      "anonymous": false,
      "inputs": [
        {
          "indexed": true,
          "internalType": "address",
          "name": "user",
          "type": "address"
        },
        {
          "indexed": false,
          "internalType": "uint256",
          "name": "amount",
          "type": "uint256"
        },
        {
          "indexed": false,
          "internalType": "uint256",
          "name": "harvestedAmount",
          "type": "uint256"
        }
      ],
      "name": "Deposit",
      "type": "event"
    },
    {
      "anonymous": false,
      "inputs": [
        {
          "indexed": true,
          "internalType": "uint256",
          "name": "currentPhase",
          "type": "uint256"
        },
        {
          "indexed": false,
          "internalType": "uint256",
          "name": "startBlock",
          "type": "uint256"
        },
        {
          "indexed": false,
          "internalType": "uint256",
          "name": "rewardPerBlockForStaking",
          "type": "uint256"
        },
        {
          "indexed": false,
          "internalType": "uint256",
          "name": "rewardPerBlockForOthers",
          "type": "uint256"
        }
      ],
      "name": "NewRewardsPerBlock",
      "type": "event"
    },
    {
      "anonymous": false,
      "inputs": [
        {
          "indexed": true,
          "internalType": "address",
          "name": "user",
          "type": "address"
        },
        {
          "indexed": false,
          "internalType": "uint256",
          "name": "amount",
          "type": "uint256"
        },
        {
          "indexed": false,
          "internalType": "uint256",
          "name": "harvestedAmount",
          "type": "uint256"
        }
      ],
      "name": "Withdraw",
      "type": "event"
    },
    {
      "inputs": [],
      "name": "NUMBER_PERIODS",
      "outputs": [
        {
          "internalType": "uint256",
          "name": "",
          "type": "uint256"
        }
      ],
      "stateMutability": "view",
      "type": "function"
    },
    {
      "inputs": [],
      "name": "PRECISION_FACTOR",
      "outputs": [
        {
          "internalType": "uint256",
          "name": "",
          "type": "uint256"
        }
      ],
      "stateMutability": "view",
      "type": "function"
    },
    {
      "inputs": [],
      "name": "START_BLOCK",
      "outputs": [
        {
          "internalType": "uint256",
          "name": "",
          "type": "uint256"
        }
      ],
      "stateMutability": "view",
      "type": "function"
    },
    {
      "inputs": [],
      "name": "accTokenPerShare",
      "outputs": [
        {
          "internalType": "uint256",
          "name": "",
          "type": "uint256"
        }
      ],
      "stateMutability": "view",
      "type": "function"
    },
    {
      "inputs": [
        {
          "internalType": "address",
          "name": "user",
          "type": "address"
        }
      ],
      "name": "calculatePendingRewards",
      "outputs": [
        {
          "internalType": "uint256",
          "name": "",
          "type": "uint256"
        }
      ],
      "stateMutability": "view",
      "type": "function"
    },
    {
      "inputs": [],
      "name": "currentPhase",
      "outputs": [
        {
          "internalType": "uint256",
          "name": "",
          "type": "uint256"
        }
      ],
      "stateMutability": "view",
      "type": "function"
    },
    {
      "inputs": [
        {
          "internalType": "uint256",
          "name": "amount",
          "type": "uint256"
        }
      ],
      "name": "deposit",
      "outputs": [],
      "stateMutability": "nonpayable",
      "type": "function"
    },
    {
      "inputs": [],
      "name": "endBlock",
      "outputs": [
        {
          "internalType": "uint256",
          "name": "",
          "type": "uint256"
        }
      ],
      "stateMutability": "view",
      "type": "function"
    },
    {
      "inputs": [],
      "name": "harvestAndCompound",
      "outputs": [],
      "stateMutability": "nonpayable",
      "type": "function"
    },
    {
      "inputs": [],
      "name": "lastRewardBlock",
      "outputs": [
        {
          "internalType": "uint256",
          "name": "",
          "type": "uint256"
        }
      ],
      "stateMutability": "view",
      "type": "function"
    },
    {
      "inputs": [],
      "name": "pixellyToken",
      "outputs": [
        {
          "internalType": "contract IPixellyToken",
          "name": "",
          "type": "address"
        }
      ],
      "stateMutability": "view",
      "type": "function"
    },
    {
      "inputs": [],
      "name": "rewardPerBlockForOthers",
      "outputs": [
        {
          "internalType": "uint256",
          "name": "",
          "type": "uint256"
        }
      ],
      "stateMutability": "view",
      "type": "function"
    },
    {
      "inputs": [],
      "name": "rewardPerBlockForStaking",
      "outputs": [
        {
          "internalType": "uint256",
          "name": "",
          "type": "uint256"
        }
      ],
      "stateMutability": "view",
      "type": "function"
    },
    {
      "inputs": [
        {
          "internalType": "uint256",
          "name": "",
          "type": "uint256"
        }
      ],
      "name": "stakingPeriod",
      "outputs": [
        {
          "internalType": "uint256",
          "name": "rewardPerBlockForStaking",
          "type": "uint256"
        },
        {
          "internalType": "uint256",
          "name": "rewardPerBlockForOthers",
          "type": "uint256"
        },
        {
          "internalType": "uint256",
          "name": "periodLengthInBlock",
          "type": "uint256"
        }
      ],
      "stateMutability": "view",
      "type": "function"
    },
    {
      "inputs": [],
      "name": "tokenSplitter",
      "outputs": [
        {
          "internalType": "address",
          "name": "",
          "type": "address"
        }
      ],
      "stateMutability": "view",
      "type": "function"
    },
    {
      "inputs": [],
      "name": "totalAmountStaked",
      "outputs": [
        {
          "internalType": "uint256",
          "name": "",
          "type": "uint256"
        }
      ],
      "stateMutability": "view",
      "type": "function"
    },
    {
      "inputs": [],
      "name": "updatePool",
      "outputs": [],
      "stateMutability": "nonpayable",
      "type": "function"
    },
    {
      "inputs": [
        {
          "internalType": "address",
          "name": "",
          "type": "address"
        }
      ],
      "name": "userInfo",
      "outputs": [
        {
          "internalType": "uint256",
          "name": "amount",
          "type": "uint256"
        },
        {
          "internalType": "uint256",
          "name": "rewardDebt",
          "type": "uint256"
        }
      ],
      "stateMutability": "view",
      "type": "function"
    },
    {
      "inputs": [
        {
          "internalType": "uint256",
          "name": "amount",
          "type": "uint256"
        }
      ],
      "name": "withdraw",
      "outputs": [],
      "stateMutability": "nonpayable",
      "type": "function"
    },
    {
      "inputs": [],
      "name": "withdrawAll",
      "outputs": [],
      "stateMutability": "nonpayable",
      "type": "function"
    }
  ],
  "bytecode": "0x6101006040523480156200001257600080fd5b50604051620017ca380380620017ca833981810160405260e08110156200003857600080fd5b8151602083015160408085015160608601805192519496939591949391820192846401000000008211156200006c57600080fd5b9083019060208201858111156200008257600080fd5b8251866020820283011164010000000082111715620000a057600080fd5b82525081516020918201928201910280838360005b83811015620000cf578181015183820152602001620000b5565b5050505090500160405260200180516040519392919084640100000000821115620000f957600080fd5b9083019060208201858111156200010f57600080fd5b82518660208202830111640100000000821117156200012d57600080fd5b82525081516020918201928201910280838360005b838110156200015c57818101518382015260200162000142565b50505050905001604052602001805160405193929190846401000000008211156200018657600080fd5b9083019060208201858111156200019c57600080fd5b8251866020820283011164010000000082111715620001ba57600080fd5b82525081516020918201928201910280838360005b83811015620001e9578181015183820152602001620001cf565b5050505091909101604052506020015160016000558351909250821490508015620002145750808451145b8015620002215750808451145b6200025e5760405162461bcd60e51b815260040180806020018281038252602e8152602001806200179c602e913960400191505060405180910390fd5b6000876001600160a01b03166318160ddd6040518163ffffffff1660e01b815260040160206040518083038186803b1580156200029a57600080fd5b505afa158015620002af573d6000803e3d6000fd5b505050506040513d6020811015620002c657600080fd5b505160408051630cfccc8360e01b815290516001600160a01b038b1691630cfccc83916004808301926020929190829003018186803b1580156200030957600080fd5b505afa1580156200031e573d6000803e3d6000fd5b505050506040513d60208110156200033557600080fd5b50510390506000805b838110156200042d578481815181106200035457fe5b60200260200101518682815181106200036957fe5b6020026020010151028582815181106200037f57fe5b60200260200101518883815181106200039457fe5b60200260200101510201820191506040518060600160405280888381518110620003ba57fe5b60200260200101518152602001878381518110620003d457fe5b60200260200101518152602001868381518110620003ee57fe5b6020908102919091018101519091526000838152600882526040908190208351815591830151600180840191909155920151600290910155016200033e565b508181146200046e5760405162461bcd60e51b8152600401808060200182810382526024815260200180620017786024913960400191505060405180910390fd5b6001600160601b031960608a811b821660805289901b1660a052855186906000906200049657fe5b602002602001015160068190555084600081518110620004b257fe5b60200260200101516005819055508660e0818152505083600081518110620004d657fe5b60209081029190910101518701600355505060c052505050600455505060805160601c60a05160601c60c05160e051611221620005576000398061068652508061030552806106aa5280610b2d5250806108455280610ca952508061061a52806107d3528061091f5280610a255280610bb15280610c7a52506112216000f3fe608060405234801561001057600080fd5b506004361061012c5760003560e01c80638f662915116100ad578063c1b5c54c11610071578063c1b5c54c1461028b578063ccd34cd514610293578063e3161ddd1461029b578063e683d96f146102a3578063fe961f61146102ab5761012c565b80638f662915146101ff578063a46074c314610207578063a9f8d1811461022b578063b6b55f2514610233578063c1027c98146102505761012c565b80632e1a7d4d116100f45780632e1a7d4d146101c257806339b3e826146101df57806352bf348c146101e75780635a9477e9146101ef578063853828b6146101f75761012c565b8063055ad42e14610131578063083c63231461014b578063097aad10146101535780631959a002146101795780632a4e051b146101b8575b600080fd5b6101396102b3565b60408051918252519081900360200190f35b6101396102b9565b6101396004803603602081101561016957600080fd5b50356001600160a01b03166102bf565b61019f6004803603602081101561018f57600080fd5b50356001600160a01b031661040b565b6040805192835260208301919091528051918290030190f35b6101c0610424565b005b6101c0600480360360208110156101d857600080fd5b5035610515565b610139610684565b6101396106a8565b6101396106cc565b6101c06106d2565b61013961083d565b61020f610843565b604080516001600160a01b039092168252519081900360200190f35b610139610867565b6101c06004803603602081101561024957600080fd5b503561086d565b61026d6004803603602081101561026657600080fd5b5035610a02565b60408051938452602084019290925282820152519081900360600190f35b61020f610a23565b610139610a47565b6101c0610a50565b610139610aa3565b610139610aa9565b60025481565b60035481565b6000600454431180156102d3575060075415155b156103d55760006102e660045443610aaf565b600654600354600254929350908302915b8143118015610328575060017f00000000000000000000000000000000000000000000000000000000000000000381105b1561037f576001016000818152600860205260408120805460029091015484019390914385101561036a5760008481526008602052604090206002015461036e565b8143035b9050828102860195505050506102f7565b600060075464e8d4a5100085028161039357fe5b600180546001600160a01b038b16600090815260096020526040902091820154915464e8d4a51000949093040190910291909104039550610406945050505050565b6001600160a01b038216600090815260096020526040902060018082015490549154909164e8d4a510009102040390505b919050565b6009602052600090815260409020805460019091015482565b6002600054141561046a576040805162461bcd60e51b815260206004820152601f6024820152600080516020611145833981519152604482015290519081900360640190fd5b6002600055610477610ae2565b3360009081526009602052604090206001808201549054915464e8d4a5100092029190910403806104a8575061050e565b33600081815260096020908152604091829020805485018155600780548601905560018054825464e8d4a51000910204910155815184815291517f169f1815ebdea059aac3bb00ec9a9594c7a5ffcb64a17e8392b5d84909a145569281900390910190a2505b6001600055565b6002600054141561055b576040805162461bcd60e51b815260206004820152601f6024820152600080516020611145833981519152604482015290519081900360640190fd5b6002600090815533815260096020526040902054811180159061057e5750600081115b6105b95760405162461bcd60e51b815260040180806020018281038252603781526020018061118b6037913960400191505060405180910390fd5b6105c1610ae2565b336000818152600960205260409020600180820180548254845464e8d4a5100091810282900492909203918201879003948590559254909302919091049055600780548201849003905590610641906001600160a01b037f0000000000000000000000000000000000000000000000000000000000000000169084610d53565b6040805183815260208101839052815133927ff279e6a1f5e320cca91135676d9cb6e44ca8a08c0b88342bcdb1144f6511b568928290030190a250506001600055565b7f000000000000000000000000000000000000000000000000000000000000000081565b7f000000000000000000000000000000000000000000000000000000000000000081565b60065481565b60026000541415610718576040805162461bcd60e51b815260206004820152601f6024820152600080516020611145833981519152604482015290519081900360640190fd5b600260009081553381526009602052604090205461077d576040805162461bcd60e51b815260206004820152601c60248201527f57697468647261773a20416d6f756e74206d757374206265203e203000000000604482015290519081900360640190fd5b610785610ae2565b33600081815260096020526040812060018082018054915483546007805482900390559385905593905564e8d4a51000928202929092049190910391908201906107fa906001600160a01b037f0000000000000000000000000000000000000000000000000000000000000000169083610d53565b6040805182815260208101849052815133927ff279e6a1f5e320cca91135676d9cb6e44ca8a08c0b88342bcdb1144f6511b568928290030190a250506001600055565b60015481565b7f000000000000000000000000000000000000000000000000000000000000000081565b60045481565b600260005414156108b3576040805162461bcd60e51b815260206004820152601f6024820152600080516020611145833981519152604482015290519081900360640190fd5b60026000558061090a576040805162461bcd60e51b815260206004820152601b60248201527f4465706f7369743a20416d6f756e74206d757374206265203e20300000000000604482015290519081900360640190fd5b610912610ae2565b6109476001600160a01b037f000000000000000000000000000000000000000000000000000000000000000016333084610da5565b33600090815260096020526040812054156109845733600090815260096020526040902060018082015490549154909164e8d4a510009102040390505b3360008181526009602090815260409182902080548587019081018083556001805464e8d4a51000920291909104920191909155600780549091019055815185815290810184905281517f90890809c654f11d6e72a28fa60149770a0d11ec6c92319d6ceb2bb0a4ea1a15929181900390910190a250506001600055565b60086020526000908152604090208054600182015460029092015490919083565b7f000000000000000000000000000000000000000000000000000000000000000081565b64e8d4a5100081565b60026000541415610a96576040805162461bcd60e51b815260206004820152601f6024820152600080516020611145833981519152604482015290519081900360640190fd5b600260005561050e610ae2565b60055481565b60075481565b60006003548211610ac35750818103610adc565b6003548310610ad457506000610adc565b826003540390505b92915050565b6004544311610af057610d51565b600754610b005743600455610d51565b6000610b0e60045443610aaf565b60065460055491925082029082025b60035443118015610b52575060017f000000000000000000000000000000000000000000000000000000000000000003600254105b15610ba757610b62600354610e05565b6003805460028054600090815260086020526040812090910154820190925590610b8c8243610aaf565b90506006548102840193506005548102830192505050610b1d565b8115610d3d5760007f00000000000000000000000000000000000000000000000000000000000000006001600160a01b03166340c10f1930856040518363ffffffff1660e01b815260040180836001600160a01b0316815260200182815260200192505050602060405180830381600087803b158015610c2657600080fd5b505af1158015610c3a573d6000803e3d6000fd5b505050506040513d6020811015610c5057600080fd5b505190508015610c785760075464e8d4a51000840281610c6c57fe5b04600154016001819055505b7f00000000000000000000000000000000000000000000000000000000000000006001600160a01b03166340c10f197f0000000000000000000000000000000000000000000000000000000000000000846040518363ffffffff1660e01b815260040180836001600160a01b0316815260200182815260200192505050602060405180830381600087803b158015610d0f57600080fd5b505af1158015610d23573d6000803e3d6000fd5b505050506040513d6020811015610d3957600080fd5b5050505b60035460045411610d4d57436004555b5050505b565b604080516001600160a01b038416602482015260448082018490528251808303909101815260649091019091526020810180516001600160e01b031663a9059cbb60e01b179052610d4d908490610e74565b604080516001600160a01b0380861660248301528416604482015260648082018490528251808303909101815260849091019091526020810180516001600160e01b03166323b872dd60e01b179052610dff908590610e74565b50505050565b6002805460019081019182905560008281526008602090815260409182902080546006819055930154600581905582518681529182019390935280820192909252517f40181eb77bccfdef1a73b669bb4290d98e2fbec678c7cf4578ae256210420e179181900360600190a250565b6060610ec9826040518060400160405280602081526020017f5361666545524332303a206c6f772d6c6576656c2063616c6c206661696c6564815250856001600160a01b0316610f259092919063ffffffff16565b805190915015610d4d57808060200190516020811015610ee857600080fd5b5051610d4d5760405162461bcd60e51b815260040180806020018281038252602a8152602001806111c2602a913960400191505060405180910390fd5b6060610f348484600085610f3e565b90505b9392505050565b606082471015610f7f5760405162461bcd60e51b81526004018080602001828103825260268152602001806111656026913960400191505060405180910390fd5b610f888561109a565b610fd9576040805162461bcd60e51b815260206004820152601d60248201527f416464726573733a2063616c6c20746f206e6f6e2d636f6e7472616374000000604482015290519081900360640190fd5b60006060866001600160a01b031685876040518082805190602001908083835b602083106110185780518252601f199092019160209182019101610ff9565b6001836020036101000a03801982511681845116808217855250505050505090500191505060006040518083038185875af1925050503d806000811461107a576040519150601f19603f3d011682016040523d82523d6000602084013e61107f565b606091505b509150915061108f8282866110a0565b979650505050505050565b3b151590565b606083156110af575081610f37565b8251156110bf5782518084602001fd5b8160405162461bcd60e51b81526004018080602001828103825283818151815260200191508051906020019080838360005b838110156111095781810151838201526020016110f1565b50505050905090810190601f1680156111365780820380516001836020036101000a031916815260200191505b509250505060405180910390fdfe5265656e7472616e637947756172643a207265656e7472616e742063616c6c00416464726573733a20696e73756666696369656e742062616c616e636520666f722063616c6c57697468647261773a20416d6f756e74206d757374206265203e2030206f72206c6f776572207468616e20757365722062616c616e63655361666545524332303a204552433230206f7065726174696f6e20646964206e6f742073756363656564a2646970667358221220eeba7e2a271b4ca87d09c1b9ca83da624a7c34ca772486533a54b63ad4fa1cb764736f6c634300060c00334469737472696275746f723a2057726f6e672072657761726420706172616d65746572734469737472696275746f723a204c656e6774686573206d757374206d61746368206e756d626572506572696f6473",
  "linkReferences": {},
  "deployedLinkReferences": {}
}