{
  "_format": "hh-sol-artifact-1",
  "contractName": "VestingContractWithFeeSharing",
  "sourceName": "contracts/Rewards/VestingContractWithFeeSharing.sol",
  "abi": [
    {
      "inputs": [
        {
          "internalType": "uint256",
          "name": "_vestingBetweenPeriodsInBlocks",
          "type": "uint256"
        },
        {
          "internalType": "uint256",
          "name": "_startBlock",
          "type": "uint256"
        },
        {
          "internalType": "uint256",
          "name": "_numberUnlockPeriods",
          "type": "uint256"
        },
        {
          "internalType": "uint256",
          "name": "_maxAmountToWithdraw",
          "type": "uint256"
        },
        {
          "internalType": "address",
          "name": "_tenartToken",
          "type": "address"
        }
      ],
      "stateMutability": "nonpayable",
      "type": "constructor"
    },
    {
      "anonymous": false,
      "inputs": [
        {
          "indexed": true,
          "internalType": "address",
          "name": "currency",
          "type": "address"
        },
        {
          "indexed": false,
          "internalType": "uint256",
          "name": "amount",
          "type": "uint256"
        }
      ],
      "name": "OtherTokensWithdrawn",
      "type": "event"
    },
    {
      "anonymous": false,
      "inputs": [
        {
          "indexed": true,
          "internalType": "address",
          "name": "previousOwner",
          "type": "address"
        },
        {
          "indexed": true,
          "internalType": "address",
          "name": "newOwner",
          "type": "address"
        }
      ],
      "name": "OwnershipTransferred",
      "type": "event"
    },
    {
      "anonymous": false,
      "inputs": [
        {
          "indexed": false,
          "internalType": "uint256",
          "name": "amount",
          "type": "uint256"
        }
      ],
      "name": "TokensUnlocked",
      "type": "event"
    },
    {
      "inputs": [],
      "name": "NUMBER_UNLOCK_PERIODS",
      "outputs": [
        {
          "internalType": "uint256",
          "name": "",
          "type": "uint256"
        }
      ],
      "stateMutability": "view",
      "type": "function"
    },
    {
      "inputs": [],
      "name": "STANDARD_AMOUNT_UNLOCKED_AT_EACH_UNLOCK",
      "outputs": [
        {
          "internalType": "uint256",
          "name": "",
          "type": "uint256"
        }
      ],
      "stateMutability": "view",
      "type": "function"
    },
    {
      "inputs": [],
      "name": "START_BLOCK",
      "outputs": [
        {
          "internalType": "uint256",
          "name": "",
          "type": "uint256"
        }
      ],
      "stateMutability": "view",
      "type": "function"
    },
    {
      "inputs": [],
      "name": "VESTING_BETWEEN_PERIODS_IN_BLOCKS",
      "outputs": [
        {
          "internalType": "uint256",
          "name": "",
          "type": "uint256"
        }
      ],
      "stateMutability": "view",
      "type": "function"
    },
    {
      "inputs": [],
      "name": "maxAmountToWithdrawForNextPeriod",
      "outputs": [
        {
          "internalType": "uint256",
          "name": "",
          "type": "uint256"
        }
      ],
      "stateMutability": "view",
      "type": "function"
    },
    {
      "inputs": [],
      "name": "nextBlockForUnlock",
      "outputs": [
        {
          "internalType": "uint256",
          "name": "",
          "type": "uint256"
        }
      ],
      "stateMutability": "view",
      "type": "function"
    },
    {
      "inputs": [],
      "name": "numberPastUnlocks",
      "outputs": [
        {
          "internalType": "uint256",
          "name": "",
          "type": "uint256"
        }
      ],
      "stateMutability": "view",
      "type": "function"
    },
    {
      "inputs": [],
      "name": "owner",
      "outputs": [
        {
          "internalType": "address",
          "name": "",
          "type": "address"
        }
      ],
      "stateMutability": "view",
      "type": "function"
    },
    {
      "inputs": [],
      "name": "renounceOwnership",
      "outputs": [],
      "stateMutability": "nonpayable",
      "type": "function"
    },
    {
      "inputs": [],
      "name": "tenartToken",
      "outputs": [
        {
          "internalType": "contract IERC20",
          "name": "",
          "type": "address"
        }
      ],
      "stateMutability": "view",
      "type": "function"
    },
    {
      "inputs": [
        {
          "internalType": "address",
          "name": "newOwner",
          "type": "address"
        }
      ],
      "name": "transferOwnership",
      "outputs": [],
      "stateMutability": "nonpayable",
      "type": "function"
    },
    {
      "inputs": [],
      "name": "unlockLooksRareToken",
      "outputs": [],
      "stateMutability": "nonpayable",
      "type": "function"
    },
    {
      "inputs": [
        {
          "internalType": "address",
          "name": "_currency",
          "type": "address"
        }
      ],
      "name": "withdrawOtherCurrency",
      "outputs": [],
      "stateMutability": "nonpayable",
      "type": "function"
    }
  ],
  "bytecode": "0x61012060405234801561001157600080fd5b50604051610eb8380380610eb8833981810160405260a081101561003457600080fd5b50805160208201516040830151606084015160809094015192939192909190600061005d6100de565b600080546001600160a01b0319166001600160a01b0383169081178255604051929350917f8be0079c531659141344cd1fd0a4f28419497f9722a3daafe3b4186f6b6457e0908290a3506001805561010085905260e084905260a09290925260c0819052600255910160035560601b6001600160601b0319166080526100e2565b3390565b60805160601c60a05160c05160e05161010051610d716101476000398061041a528061077952508061044452508061054452806107b4525080610636528061074e5280610856525080610269528061052052806106af52806107f35250610d716000f3fe608060405234801561001057600080fd5b50600436106100cf5760003560e01c8063715018a61161008c5780638da5cb5b116100665780638da5cb5b1461016a5780639ce6b91314610172578063d55c89d11461017a578063f2fde38b14610182576100cf565b8063715018a61461013657806383b42e201461013e57806383be950414610162576100cf565b8063087b8261146100d457806316d90f18146100fc5780632f6a7add1461011657806339b3e8261461011e5780635745dc2f14610126578063688d35e31461012e575b600080fd5b6100fa600480360360208110156100ea57600080fd5b50356001600160a01b03166101a8565b005b610104610418565b60408051918252519081900360200190f35b61010461043c565b610104610442565b610104610466565b61010461046c565b6100fa610472565b61014661051e565b604080516001600160a01b039092168252519081900360200190f35b610104610542565b610146610566565b6100fa610575565b610104610854565b6100fa6004803603602081101561019857600080fd5b50356001600160a01b0316610878565b60026001541415610200576040805162461bcd60e51b815260206004820152601f60248201527f5265656e7472616e637947756172643a207265656e7472616e742063616c6c00604482015290519081900360640190fd5b600260015561020d61097a565b6001600160a01b031661021e610566565b6001600160a01b031614610267576040805162461bcd60e51b81526020600482018190526024820152600080516020610cf2833981519152604482015290519081900360640190fd5b7f00000000000000000000000000000000000000000000000000000000000000006001600160a01b0316816001600160a01b031614156102ee576040805162461bcd60e51b815260206004820152601b60248201527f4f776e65723a2043616e6e6f7420776974686472617720544152540000000000604482015290519081900360640190fd5b6000816001600160a01b03166370a08231306040518263ffffffff1660e01b815260040180826001600160a01b0316815260200191505060206040518083038186803b15801561033d57600080fd5b505afa158015610351573d6000803e3d6000fd5b505050506040513d602081101561036757600080fd5b50519050806103bd576040805162461bcd60e51b815260206004820152601a60248201527f4f776e65723a204e6f7468696e6720746f207769746864726177000000000000604482015290519081900360640190fd5b6103d16001600160a01b038316338361097e565b6040805182815290516001600160a01b038416917f5676510805b862db723e047a98c2fc1877f1ca77de43b7d78a4860dcdcec997e919081900360200190a2505060018055565b7f000000000000000000000000000000000000000000000000000000000000000081565b60045481565b7f000000000000000000000000000000000000000000000000000000000000000081565b60035481565b60025481565b61047a61097a565b6001600160a01b031661048b610566565b6001600160a01b0316146104d4576040805162461bcd60e51b81526020600482018190526024820152600080516020610cf2833981519152604482015290519081900360640190fd5b600080546040516001600160a01b03909116907f8be0079c531659141344cd1fd0a4f28419497f9722a3daafe3b4186f6b6457e0908390a3600080546001600160a01b0319169055565b7f000000000000000000000000000000000000000000000000000000000000000081565b7f000000000000000000000000000000000000000000000000000000000000000081565b6000546001600160a01b031690565b600260015414156105cd576040805162461bcd60e51b815260206004820152601f60248201527f5265656e7472616e637947756172643a207265656e7472616e742063616c6c00604482015290519081900360640190fd5b60026001556105da61097a565b6001600160a01b03166105eb610566565b6001600160a01b031614610634576040805162461bcd60e51b81526020600482018190526024820152600080516020610cf2833981519152604482015290519081900360640190fd5b7f0000000000000000000000000000000000000000000000000000000000000000600454148061066657506003544310155b6106ab576040805162461bcd60e51b8152602060048201526011602482015270556e6c6f636b3a20546f6f206561726c7960781b604482015290519081900360640190fd5b60007f00000000000000000000000000000000000000000000000000000000000000006001600160a01b03166370a08231306040518263ffffffff1660e01b815260040180826001600160a01b0316815260200191505060206040518083038186803b15801561071a57600080fd5b505afa15801561072e573d6000803e3d6000fd5b505050506040513d602081101561074457600080fd5b50516004549091507f000000000000000000000000000000000000000000000000000000000000000011156107e657600380547f000000000000000000000000000000000000000000000000000000000000000001905560048054600101905560025481106107db5750600280547f00000000000000000000000000000000000000000000000000000000000000009091556107e6565b600280548281030190555b61081a6001600160a01b037f000000000000000000000000000000000000000000000000000000000000000016338361097e565b6040805182815290517fd8cc4e8d808fe950b07bfffcd83eebf1190cd35ea77fe0c8a7d75a6e9b90e5c19181900360200190a15060018055565b7f000000000000000000000000000000000000000000000000000000000000000081565b61088061097a565b6001600160a01b0316610891610566565b6001600160a01b0316146108da576040805162461bcd60e51b81526020600482018190526024820152600080516020610cf2833981519152604482015290519081900360640190fd5b6001600160a01b03811661091f5760405162461bcd60e51b8152600401808060200182810382526026815260200180610ca66026913960400191505060405180910390fd5b600080546040516001600160a01b03808516939216917f8be0079c531659141344cd1fd0a4f28419497f9722a3daafe3b4186f6b6457e091a3600080546001600160a01b0319166001600160a01b0392909216919091179055565b3390565b604080516001600160a01b038416602482015260448082018490528251808303909101815260649091019091526020810180516001600160e01b031663a9059cbb60e01b1790526109d09084906109d5565b505050565b6060610a2a826040518060400160405280602081526020017f5361666545524332303a206c6f772d6c6576656c2063616c6c206661696c6564815250856001600160a01b0316610a869092919063ffffffff16565b8051909150156109d057808060200190516020811015610a4957600080fd5b50516109d05760405162461bcd60e51b815260040180806020018281038252602a815260200180610d12602a913960400191505060405180910390fd5b6060610a958484600085610a9f565b90505b9392505050565b606082471015610ae05760405162461bcd60e51b8152600401808060200182810382526026815260200180610ccc6026913960400191505060405180910390fd5b610ae985610bfb565b610b3a576040805162461bcd60e51b815260206004820152601d60248201527f416464726573733a2063616c6c20746f206e6f6e2d636f6e7472616374000000604482015290519081900360640190fd5b60006060866001600160a01b031685876040518082805190602001908083835b60208310610b795780518252601f199092019160209182019101610b5a565b6001836020036101000a03801982511681845116808217855250505050505090500191505060006040518083038185875af1925050503d8060008114610bdb576040519150601f19603f3d011682016040523d82523d6000602084013e610be0565b606091505b5091509150610bf0828286610c01565b979650505050505050565b3b151590565b60608315610c10575081610a98565b825115610c205782518084602001fd5b8160405162461bcd60e51b81526004018080602001828103825283818151815260200191508051906020019080838360005b83811015610c6a578181015183820152602001610c52565b50505050905090810190601f168015610c975780820380516001836020036101000a031916815260200191505b509250505060405180910390fdfe4f776e61626c653a206e6577206f776e657220697320746865207a65726f2061646472657373416464726573733a20696e73756666696369656e742062616c616e636520666f722063616c6c4f776e61626c653a2063616c6c6572206973206e6f7420746865206f776e65725361666545524332303a204552433230206f7065726174696f6e20646964206e6f742073756363656564a26469706673582212209d336c0a5dab8b640658e46f46f40c12a0c21fa94028e9ee207cdba29fb6770864736f6c634300060c0033",
  "linkReferences": {},
  "deployedLinkReferences": {}
}