{
  "_format": "hh-sol-artifact-1",
  "contractName": "TenartMarketplace",
  "sourceName": "contracts/TenartMarketplace.sol",
  "abi": [
    {
      "anonymous": false,
      "inputs": [
        {
          "indexed": true,
          "internalType": "address",
          "name": "creator",
          "type": "address"
        },
        {
          "indexed": true,
          "internalType": "address",
          "name": "addressee",
          "type": "address"
        },
        {
          "indexed": true,
          "internalType": "address",
          "name": "nft",
          "type": "address"
        },
        {
          "indexed": false,
          "internalType": "uint256",
          "name": "tokenId",
          "type": "uint256"
        }
      ],
      "name": "CounterOfferCanceled",
      "type": "event"
    },
    {
      "anonymous": false,
      "inputs": [
        {
          "indexed": true,
          "internalType": "address",
          "name": "creator",
          "type": "address"
        },
        {
          "indexed": true,
          "internalType": "address",
          "name": "addressee",
          "type": "address"
        },
        {
          "indexed": true,
          "internalType": "address",
          "name": "nft",
          "type": "address"
        },
        {
          "indexed": false,
          "internalType": "uint256",
          "name": "tokenId",
          "type": "uint256"
        },
        {
          "components": [
            {
              "internalType": "contract IERC20Upgradeable",
              "name": "payToken",
              "type": "address"
            },
            {
              "internalType": "uint256",
              "name": "quantity",
              "type": "uint256"
            },
            {
              "internalType": "uint256",
              "name": "pricePerItem",
              "type": "uint256"
            },
            {
              "internalType": "uint256",
              "name": "deadline",
              "type": "uint256"
            }
          ],
          "indexed": false,
          "internalType": "struct TenartMarketplace.Offer",
          "name": "counteroffer",
          "type": "tuple"
        }
      ],
      "name": "CounterOfferCreated",
      "type": "event"
    },
    {
      "anonymous": false,
      "inputs": [
        {
          "indexed": true,
          "internalType": "address",
          "name": "creator",
          "type": "address"
        },
        {
          "indexed": true,
          "internalType": "address",
          "name": "addressee",
          "type": "address"
        },
        {
          "indexed": true,
          "internalType": "address",
          "name": "nft",
          "type": "address"
        },
        {
          "indexed": false,
          "internalType": "uint256",
          "name": "tokenId",
          "type": "uint256"
        }
      ],
      "name": "CounterOfferRefused",
      "type": "event"
    },
    {
      "anonymous": false,
      "inputs": [
        {
          "indexed": true,
          "internalType": "address",
          "name": "owner",
          "type": "address"
        },
        {
          "indexed": true,
          "internalType": "address",
          "name": "nft",
          "type": "address"
        },
        {
          "indexed": false,
          "internalType": "uint256",
          "name": "tokenId",
          "type": "uint256"
        }
      ],
      "name": "ItemCanceled",
      "type": "event"
    },
    {
      "anonymous": false,
      "inputs": [
        {
          "indexed": true,
          "internalType": "address",
          "name": "owner",
          "type": "address"
        },
        {
          "indexed": true,
          "internalType": "address",
          "name": "nft",
          "type": "address"
        },
        {
          "indexed": false,
          "internalType": "uint256",
          "name": "tokenId",
          "type": "uint256"
        },
        {
          "indexed": false,
          "internalType": "uint256",
          "name": "quantity",
          "type": "uint256"
        },
        {
          "indexed": false,
          "internalType": "address",
          "name": "payToken",
          "type": "address"
        },
        {
          "indexed": false,
          "internalType": "uint256",
          "name": "pricePerItem",
          "type": "uint256"
        },
        {
          "indexed": false,
          "internalType": "uint256",
          "name": "startingTime",
          "type": "uint256"
        }
      ],
      "name": "ItemListed",
      "type": "event"
    },
    {
      "anonymous": false,
      "inputs": [
        {
          "indexed": true,
          "internalType": "address",
          "name": "seller",
          "type": "address"
        },
        {
          "indexed": true,
          "internalType": "address",
          "name": "buyer",
          "type": "address"
        },
        {
          "indexed": true,
          "internalType": "address",
          "name": "nft",
          "type": "address"
        },
        {
          "indexed": false,
          "internalType": "uint256",
          "name": "tokenId",
          "type": "uint256"
        },
        {
          "indexed": false,
          "internalType": "uint256",
          "name": "quantity",
          "type": "uint256"
        },
        {
          "indexed": false,
          "internalType": "address",
          "name": "payToken",
          "type": "address"
        },
        {
          "indexed": false,
          "internalType": "int256",
          "name": "unitPrice",
          "type": "int256"
        },
        {
          "indexed": false,
          "internalType": "uint256",
          "name": "pricePerItem",
          "type": "uint256"
        }
      ],
      "name": "ItemSold",
      "type": "event"
    },
    {
      "anonymous": false,
      "inputs": [
        {
          "indexed": true,
          "internalType": "address",
          "name": "owner",
          "type": "address"
        },
        {
          "indexed": true,
          "internalType": "address",
          "name": "nft",
          "type": "address"
        },
        {
          "indexed": false,
          "internalType": "uint256",
          "name": "tokenId",
          "type": "uint256"
        },
        {
          "indexed": false,
          "internalType": "address",
          "name": "payToken",
          "type": "address"
        },
        {
          "indexed": false,
          "internalType": "uint256",
          "name": "newPrice",
          "type": "uint256"
        }
      ],
      "name": "ItemUpdated",
      "type": "event"
    },
    {
      "anonymous": false,
      "inputs": [
        {
          "indexed": true,
          "internalType": "address",
          "name": "creator",
          "type": "address"
        },
        {
          "indexed": true,
          "internalType": "address",
          "name": "nft",
          "type": "address"
        },
        {
          "indexed": false,
          "internalType": "uint256",
          "name": "tokenId",
          "type": "uint256"
        }
      ],
      "name": "OfferCanceled",
      "type": "event"
    },
    {
      "anonymous": false,
      "inputs": [
        {
          "indexed": true,
          "internalType": "address",
          "name": "creator",
          "type": "address"
        },
        {
          "indexed": true,
          "internalType": "address",
          "name": "nft",
          "type": "address"
        },
        {
          "indexed": false,
          "internalType": "uint256",
          "name": "tokenId",
          "type": "uint256"
        },
        {
          "indexed": false,
          "internalType": "uint256",
          "name": "quantity",
          "type": "uint256"
        },
        {
          "indexed": false,
          "internalType": "address",
          "name": "payToken",
          "type": "address"
        },
        {
          "indexed": false,
          "internalType": "uint256",
          "name": "pricePerItem",
          "type": "uint256"
        },
        {
          "indexed": false,
          "internalType": "uint256",
          "name": "deadline",
          "type": "uint256"
        }
      ],
      "name": "OfferCreated",
      "type": "event"
    },
    {
      "anonymous": false,
      "inputs": [
        {
          "indexed": true,
          "internalType": "address",
          "name": "creator",
          "type": "address"
        },
        {
          "indexed": true,
          "internalType": "address",
          "name": "nft",
          "type": "address"
        },
        {
          "indexed": false,
          "internalType": "uint256",
          "name": "tokenId",
          "type": "uint256"
        }
      ],
      "name": "OfferRefused",
      "type": "event"
    },
    {
      "anonymous": false,
      "inputs": [
        {
          "indexed": true,
          "internalType": "address",
          "name": "previousOwner",
          "type": "address"
        },
        {
          "indexed": true,
          "internalType": "address",
          "name": "newOwner",
          "type": "address"
        }
      ],
      "name": "OwnershipTransferred",
      "type": "event"
    },
    {
      "anonymous": false,
      "inputs": [
        {
          "indexed": false,
          "internalType": "uint16",
          "name": "platformFee",
          "type": "uint16"
        }
      ],
      "name": "UpdatePlatformFee",
      "type": "event"
    },
    {
      "anonymous": false,
      "inputs": [
        {
          "indexed": false,
          "internalType": "address payable",
          "name": "platformFeeRecipient",
          "type": "address"
        }
      ],
      "name": "UpdatePlatformFeeRecipient",
      "type": "event"
    },
    {
      "inputs": [
        {
          "internalType": "address",
          "name": "_nftAddress",
          "type": "address"
        },
        {
          "internalType": "uint256",
          "name": "_tokenId",
          "type": "uint256"
        }
      ],
      "name": "acceptCounterOffer",
      "outputs": [],
      "stateMutability": "nonpayable",
      "type": "function"
    },
    {
      "inputs": [
        {
          "internalType": "address",
          "name": "_nftAddress",
          "type": "address"
        },
        {
          "internalType": "uint256",
          "name": "_tokenId",
          "type": "uint256"
        },
        {
          "internalType": "address",
          "name": "_creator",
          "type": "address"
        }
      ],
      "name": "acceptOffer",
      "outputs": [],
      "stateMutability": "nonpayable",
      "type": "function"
    },
    {
      "inputs": [],
      "name": "addressRegistry",
      "outputs": [
        {
          "internalType": "contract ITenartAddressRegistry",
          "name": "",
          "type": "address"
        }
      ],
      "stateMutability": "view",
      "type": "function"
    },
    {
      "inputs": [
        {
          "internalType": "address",
          "name": "_nftAddress",
          "type": "address"
        },
        {
          "internalType": "uint256",
          "name": "_tokenId",
          "type": "uint256"
        },
        {
          "internalType": "address",
          "name": "_payToken",
          "type": "address"
        },
        {
          "internalType": "address",
          "name": "_owner",
          "type": "address"
        }
      ],
      "name": "buyItem",
      "outputs": [],
      "stateMutability": "nonpayable",
      "type": "function"
    },
    {
      "inputs": [
        {
          "internalType": "address",
          "name": "_nftAddress",
          "type": "address"
        },
        {
          "internalType": "uint256",
          "name": "_tokenId",
          "type": "uint256"
        },
        {
          "internalType": "uint256",
          "name": "_quantity",
          "type": "uint256"
        },
        {
          "internalType": "address",
          "name": "_addressee",
          "type": "address"
        }
      ],
      "name": "cancelCounterOffer",
      "outputs": [],
      "stateMutability": "nonpayable",
      "type": "function"
    },
    {
      "inputs": [
        {
          "internalType": "address",
          "name": "_nftAddress",
          "type": "address"
        },
        {
          "internalType": "uint256",
          "name": "_tokenId",
          "type": "uint256"
        }
      ],
      "name": "cancelListing",
      "outputs": [],
      "stateMutability": "nonpayable",
      "type": "function"
    },
    {
      "inputs": [
        {
          "internalType": "address",
          "name": "_nftAddress",
          "type": "address"
        },
        {
          "internalType": "uint256",
          "name": "_tokenId",
          "type": "uint256"
        }
      ],
      "name": "cancelOffer",
      "outputs": [],
      "stateMutability": "nonpayable",
      "type": "function"
    },
    {
      "inputs": [
        {
          "internalType": "address",
          "name": "",
          "type": "address"
        }
      ],
      "name": "collectionRoyalties",
      "outputs": [
        {
          "internalType": "uint16",
          "name": "royalty",
          "type": "uint16"
        },
        {
          "internalType": "address",
          "name": "creator",
          "type": "address"
        },
        {
          "internalType": "address",
          "name": "feeRecipient",
          "type": "address"
        }
      ],
      "stateMutability": "view",
      "type": "function"
    },
    {
      "inputs": [
        {
          "internalType": "address",
          "name": "",
          "type": "address"
        },
        {
          "internalType": "uint256",
          "name": "",
          "type": "uint256"
        },
        {
          "internalType": "address",
          "name": "",
          "type": "address"
        }
      ],
      "name": "counterOffers",
      "outputs": [
        {
          "internalType": "contract IERC20Upgradeable",
          "name": "payToken",
          "type": "address"
        },
        {
          "internalType": "uint256",
          "name": "quantity",
          "type": "uint256"
        },
        {
          "internalType": "uint256",
          "name": "pricePerItem",
          "type": "uint256"
        },
        {
          "internalType": "uint256",
          "name": "deadline",
          "type": "uint256"
        }
      ],
      "stateMutability": "view",
      "type": "function"
    },
    {
      "inputs": [
        {
          "internalType": "address",
          "name": "_nftAddress",
          "type": "address"
        },
        {
          "internalType": "uint256",
          "name": "_tokenId",
          "type": "uint256"
        },
        {
          "components": [
            {
              "internalType": "contract IERC20Upgradeable",
              "name": "payToken",
              "type": "address"
            },
            {
              "internalType": "uint256",
              "name": "quantity",
              "type": "uint256"
            },
            {
              "internalType": "uint256",
              "name": "pricePerItem",
              "type": "uint256"
            },
            {
              "internalType": "uint256",
              "name": "deadline",
              "type": "uint256"
            }
          ],
          "internalType": "struct TenartMarketplace.Offer",
          "name": "counteroffer",
          "type": "tuple"
        },
        {
          "internalType": "address",
          "name": "_addressee",
          "type": "address"
        }
      ],
      "name": "createCounterOffer",
      "outputs": [],
      "stateMutability": "nonpayable",
      "type": "function"
    },
    {
      "inputs": [
        {
          "internalType": "address",
          "name": "_nftAddress",
          "type": "address"
        },
        {
          "internalType": "uint256",
          "name": "_tokenId",
          "type": "uint256"
        },
        {
          "internalType": "contract IERC20Upgradeable",
          "name": "_payToken",
          "type": "address"
        },
        {
          "internalType": "uint256",
          "name": "_quantity",
          "type": "uint256"
        },
        {
          "internalType": "uint256",
          "name": "_pricePerItem",
          "type": "uint256"
        },
        {
          "internalType": "uint256",
          "name": "_deadline",
          "type": "uint256"
        }
      ],
      "name": "createOffer",
      "outputs": [],
      "stateMutability": "nonpayable",
      "type": "function"
    },
    {
      "inputs": [],
      "name": "feeReceipient",
      "outputs": [
        {
          "internalType": "address payable",
          "name": "",
          "type": "address"
        }
      ],
      "stateMutability": "view",
      "type": "function"
    },
    {
      "inputs": [
        {
          "internalType": "address",
          "name": "_payToken",
          "type": "address"
        }
      ],
      "name": "getPrice",
      "outputs": [
        {
          "internalType": "int256",
          "name": "",
          "type": "int256"
        }
      ],
      "stateMutability": "view",
      "type": "function"
    },
    {
      "inputs": [
        {
          "internalType": "address payable",
          "name": "_feeRecipient",
          "type": "address"
        },
        {
          "internalType": "uint16",
          "name": "_platformFee",
          "type": "uint16"
        }
      ],
      "name": "initialize",
      "outputs": [],
      "stateMutability": "nonpayable",
      "type": "function"
    },
    {
      "inputs": [
        {
          "internalType": "address",
          "name": "_nftAddress",
          "type": "address"
        },
        {
          "internalType": "uint256",
          "name": "_tokenId",
          "type": "uint256"
        },
        {
          "internalType": "uint256",
          "name": "_quantity",
          "type": "uint256"
        },
        {
          "internalType": "address",
          "name": "_payToken",
          "type": "address"
        },
        {
          "internalType": "uint256",
          "name": "_pricePerItem",
          "type": "uint256"
        },
        {
          "internalType": "uint256",
          "name": "_startingTime",
          "type": "uint256"
        }
      ],
      "name": "listItem",
      "outputs": [],
      "stateMutability": "nonpayable",
      "type": "function"
    },
    {
      "inputs": [
        {
          "internalType": "address",
          "name": "",
          "type": "address"
        },
        {
          "internalType": "uint256",
          "name": "",
          "type": "uint256"
        },
        {
          "internalType": "address",
          "name": "",
          "type": "address"
        }
      ],
      "name": "listings",
      "outputs": [
        {
          "internalType": "uint256",
          "name": "quantity",
          "type": "uint256"
        },
        {
          "internalType": "address",
          "name": "payToken",
          "type": "address"
        },
        {
          "internalType": "uint256",
          "name": "pricePerItem",
          "type": "uint256"
        },
        {
          "internalType": "uint256",
          "name": "startingTime",
          "type": "uint256"
        }
      ],
      "stateMutability": "view",
      "type": "function"
    },
    {
      "inputs": [
        {
          "internalType": "address",
          "name": "",
          "type": "address"
        },
        {
          "internalType": "uint256",
          "name": "",
          "type": "uint256"
        }
      ],
      "name": "minters",
      "outputs": [
        {
          "internalType": "address",
          "name": "",
          "type": "address"
        }
      ],
      "stateMutability": "view",
      "type": "function"
    },
    {
      "inputs": [
        {
          "internalType": "address",
          "name": "",
          "type": "address"
        },
        {
          "internalType": "uint256",
          "name": "",
          "type": "uint256"
        },
        {
          "internalType": "address",
          "name": "",
          "type": "address"
        }
      ],
      "name": "offers",
      "outputs": [
        {
          "internalType": "contract IERC20Upgradeable",
          "name": "payToken",
          "type": "address"
        },
        {
          "internalType": "uint256",
          "name": "quantity",
          "type": "uint256"
        },
        {
          "internalType": "uint256",
          "name": "pricePerItem",
          "type": "uint256"
        },
        {
          "internalType": "uint256",
          "name": "deadline",
          "type": "uint256"
        }
      ],
      "stateMutability": "view",
      "type": "function"
    },
    {
      "inputs": [],
      "name": "owner",
      "outputs": [
        {
          "internalType": "address",
          "name": "",
          "type": "address"
        }
      ],
      "stateMutability": "view",
      "type": "function"
    },
    {
      "inputs": [
        {
          "internalType": "address",
          "name": "",
          "type": "address"
        },
        {
          "internalType": "uint256",
          "name": "",
          "type": "uint256"
        }
      ],
      "name": "ownerOfERC1155",
      "outputs": [
        {
          "internalType": "address",
          "name": "",
          "type": "address"
        }
      ],
      "stateMutability": "view",
      "type": "function"
    },
    {
      "inputs": [],
      "name": "platformFee",
      "outputs": [
        {
          "internalType": "uint16",
          "name": "",
          "type": "uint16"
        }
      ],
      "stateMutability": "view",
      "type": "function"
    },
    {
      "inputs": [
        {
          "internalType": "address",
          "name": "_nftAddress",
          "type": "address"
        },
        {
          "internalType": "uint256",
          "name": "_tokenId",
          "type": "uint256"
        }
      ],
      "name": "refuseCounterOffer",
      "outputs": [],
      "stateMutability": "nonpayable",
      "type": "function"
    },
    {
      "inputs": [
        {
          "internalType": "address",
          "name": "_nftAddress",
          "type": "address"
        },
        {
          "internalType": "uint256",
          "name": "_tokenId",
          "type": "uint256"
        },
        {
          "internalType": "address",
          "name": "_creator",
          "type": "address"
        },
        {
          "internalType": "uint256",
          "name": "_quantity",
          "type": "uint256"
        }
      ],
      "name": "refuseOffer",
      "outputs": [],
      "stateMutability": "nonpayable",
      "type": "function"
    },
    {
      "inputs": [
        {
          "internalType": "address",
          "name": "_nftAddress",
          "type": "address"
        },
        {
          "internalType": "address",
          "name": "_creator",
          "type": "address"
        },
        {
          "internalType": "uint16",
          "name": "_royalty",
          "type": "uint16"
        },
        {
          "internalType": "address",
          "name": "_feeRecipient",
          "type": "address"
        }
      ],
      "name": "registerCollectionRoyalty",
      "outputs": [],
      "stateMutability": "nonpayable",
      "type": "function"
    },
    {
      "inputs": [
        {
          "internalType": "address",
          "name": "_nftAddress",
          "type": "address"
        },
        {
          "internalType": "uint256",
          "name": "_tokenId",
          "type": "uint256"
        },
        {
          "internalType": "uint16",
          "name": "_royalty",
          "type": "uint16"
        }
      ],
      "name": "registerRoyalty",
      "outputs": [],
      "stateMutability": "nonpayable",
      "type": "function"
    },
    {
      "inputs": [],
      "name": "renounceOwnership",
      "outputs": [],
      "stateMutability": "nonpayable",
      "type": "function"
    },
    {
      "inputs": [
        {
          "internalType": "address",
          "name": "",
          "type": "address"
        },
        {
          "internalType": "uint256",
          "name": "",
          "type": "uint256"
        }
      ],
      "name": "royalties",
      "outputs": [
        {
          "internalType": "uint16",
          "name": "",
          "type": "uint16"
        }
      ],
      "stateMutability": "view",
      "type": "function"
    },
    {
      "inputs": [
        {
          "internalType": "address",
          "name": "newOwner",
          "type": "address"
        }
      ],
      "name": "transferOwnership",
      "outputs": [],
      "stateMutability": "nonpayable",
      "type": "function"
    },
    {
      "inputs": [
        {
          "internalType": "address",
          "name": "_registry",
          "type": "address"
        }
      ],
      "name": "updateAddressRegistry",
      "outputs": [],
      "stateMutability": "nonpayable",
      "type": "function"
    },
    {
      "inputs": [
        {
          "internalType": "address",
          "name": "_nftAddress",
          "type": "address"
        },
        {
          "internalType": "uint256",
          "name": "_tokenId",
          "type": "uint256"
        },
        {
          "internalType": "address",
          "name": "_payToken",
          "type": "address"
        },
        {
          "internalType": "uint256",
          "name": "_newPrice",
          "type": "uint256"
        }
      ],
      "name": "updateListing",
      "outputs": [],
      "stateMutability": "nonpayable",
      "type": "function"
    },
    {
      "inputs": [
        {
          "internalType": "uint16",
          "name": "_platformFee",
          "type": "uint16"
        }
      ],
      "name": "updatePlatformFee",
      "outputs": [],
      "stateMutability": "nonpayable",
      "type": "function"
    },
    {
      "inputs": [
        {
          "internalType": "address payable",
          "name": "_platformFeeRecipient",
          "type": "address"
        }
      ],
      "name": "updatePlatformFeeRecipient",
      "outputs": [],
      "stateMutability": "nonpayable",
      "type": "function"
    },
    {
      "inputs": [
        {
          "internalType": "address",
          "name": "_nftAddress",
          "type": "address"
        },
        {
          "internalType": "uint256",
          "name": "_tokenId",
          "type": "uint256"
        },
        {
          "internalType": "address",
          "name": "_seller",
          "type": "address"
        },
        {
          "internalType": "address",
          "name": "_buyer",
          "type": "address"
        }
      ],
      "name": "validateItemSold",
      "outputs": [],
      "stateMutability": "nonpayable",
      "type": "function"
    }
  ],
  "bytecode": "0x608060405234801561001057600080fd5b50615e9a80620000216000396000f3fe608060405234801561001057600080fd5b50600436106101fb5760003560e01c8063715018a61161011a578063e1e549c4116100ad578063f2fde38b1161007c578063f2fde38b14610449578063f3880b6e1461045c578063f39e69a41461046f578063f3ad65f414610482578063f5fe7f711461048a576101fb565b8063e1e549c4146103fd578063e2db6f0014610410578063e940ebeb14610423578063e984f2eb14610436576101fb565b8063afb06952116100e9578063afb06952146103b1578063b2ddee06146103c4578063c1661a9a146103d7578063d3f494cc146103ea576101fb565b8063715018a61461037b57806378746d0d1461038357806385f9d345146103965780638da5cb5b146103a9576101fb565b806341976e091161019257806357b275b41161016157806357b275b41461031057806368e79e89146103325780636bd3a64b1461034557806370e38c5814610368576101fb565b806341976e09146102b757806342cbb4b8146102d757806345dc7772146102ea5780634ff3c16f146102fd576101fb565b806326232a2e116101ce57806326232a2e146102675780633740ebb31461027c5780633bbb2806146102915780633fc1cc26146102a4576101fb565b8063058a56ac146102005780630b4fc33614610215578063192c94b5146102415780631ea52b7b14610254575b600080fd5b61021361020e36600461520b565b61049d565b005b610228610223366004615263565b610608565b6040516102389493929190615692565b60405180910390f35b61021361024f36600461537d565b61064a565b61021361026236600461520b565b610ab6565b61026f61131e565b6040516102389190615d34565b610284611328565b60405161023891906155b7565b61021361029f366004615263565b61133d565b6102136102b2366004615497565b611ab0565b6102ca6102c53660046150cd565b611f75565b60405161023891906156b8565b6102136102e5366004615322565b6121c5565b6102846102f836600461520b565b612612565b61021361030b366004615459565b612638565b61032361031e3660046150cd565b61278e565b60405161023893929190615d43565b6102136103403660046150cd565b6127c0565b610358610353366004615263565b612821565b6040516102389493929190615d87565b6102136103763660046152db565b612863565b6102136129ad565b61028461039136600461520b565b612a36565b6102136103a43660046152a4565b612a5c565b610284612c5f565b6102136103bf36600461553b565b612c6e565b6102136103d236600461520b565b612cf9565b6102136103e5366004615143565b612dd2565b6102286103f8366004615263565b612fca565b61026f61040b36600461520b565b61300c565b61021361041e36600461520b565b61302d565b6102136104313660046152a4565b61335d565b6102136104443660046152db565b61352a565b6102136104573660046150cd565b6136d6565b61021361046a366004615423565b613797565b61021361047d366004615105565b6138a5565b610284613967565b6102136104983660046150cd565b613976565b81816104a7613a07565b6104af615060565b506001600160a01b038084166000908152609a602090815260408083208684528252808320858516845282529182902082516080810184528154909416845260018101549184018290526002810154928401929092526003909101546060830152158015906105285750610521613a0b565b8160600151115b61054d5760405162461bcd60e51b815260040161054490615ca8565b60405180910390fd5b6001600160a01b0386166000908152609a60209081526040808320888452909152812090610579613a07565b6001600160a01b0390811682526020820192909252604001600090812080546001600160a01b031916815560018101829055600281018290556003015586166105c0613a07565b6001600160a01b03167fc6e24dcedb16cc237925b586889d0a38102c719734d6cc56acb89b013099b3a7876040516105f891906156b8565b60405180910390a3505050505050565b609b60209081526000938452604080852082529284528284209052825290208054600182015460028301546003909301546001600160a01b0390921692909184565b838382610655615060565b506001600160a01b038084166000908152609b60209081526040808320868452825280832085851684528252918290208251608081018452815490941684526001810154918401829052600281015492840192909252600390910154606083015215806106cd57506106c5613a0b565b816060015111155b6106e95760405162461bcd60e51b815260040161054490615985565b8787866106f4615060565b506001600160a01b038084166000908152609a6020908152604080832086845282528083208585168452825291829020825160808101845281549094168452600181015491840182905260028101549284019290925260039091015460608301521580159061076d5750610766613a0b565b8160600151115b6107895760405162461bcd60e51b815260040161054490615ca8565b6040516301ffc9a760e01b81526001600160a01b038d16906301ffc9a7906107bc906380ac58cd60e01b9060040161567d565b60206040518083038186803b1580156107d457600080fd5b505afa1580156107e8573d6000803e3d6000fd5b505050506040513d601f19601f8201168201806040525081019061080c91906154f2565b8061089557506040516301ffc9a760e01b81526001600160a01b038d16906301ffc9a79061084590636cdb3d1360e11b9060040161567d565b60206040518083038186803b15801561085d57600080fd5b505afa158015610871573d6000803e3d6000fd5b505050506040513d601f19601f8201168201806040525081019061089591906154f2565b6108b15760405162461bcd60e51b815260040161054490615720565b6108b9613a0b565b8a60600151116108db5760405162461bcd60e51b815260040161054490615cdf565b6108e58c8c613a0f565b6108fc8c8c6108f2613a07565b8d60200151613b4b565b895161090790613da8565b60405180608001604052808b600001516001600160a01b031681526020018b6020015181526020018b6040015181526020018b60600151815250609b60008e6001600160a01b03166001600160a01b0316815260200190815260200160002060008d815260200190815260200160002060008b6001600160a01b03166001600160a01b0316815260200190815260200160002060008201518160000160006101000a8154816001600160a01b0302191690836001600160a01b031602179055506020820151816001015560408201518160020155606082015181600301559050506109f0613a07565b609c60008e6001600160a01b03166001600160a01b0316815260200190815260200160002060008d815260200190815260200160002060006101000a8154816001600160a01b0302191690836001600160a01b031602179055508b6001600160a01b0316896001600160a01b0316610a66613a07565b6001600160a01b03167f9d5970c4c1ec49e2a70306c510d7e8e874b0ffbe4ec619d61e2b8a6f68ddccab8e8e604051610aa0929190615dab565b60405180910390a4505050505050505050505050565b60026065541415610ad95760405162461bcd60e51b815260040161054490615c71565b60026065558181610ae8613a07565b610af0615060565b506001600160a01b038084166000908152609b60209081526040808320868452825280832085851684528252918290208251608081018452815490941684526001810154918401829052600281015492840192909252600390910154606083015215801590610b695750610b62613a0b565b8160600151115b610b855760405162461bcd60e51b81526004016105449061582a565b610b8d615060565b6001600160a01b0387166000908152609b60209081526040808320898452909152812090610bb9613a07565b6001600160a01b03908116825260208083019390935260409182016000908120835160808101855281548416815260018201549581019590955260028101548585015260030154606085015291516301ffc9a760e01b81529293509091908916906301ffc9a790610c35906380ac58cd60e01b9060040161567d565b60206040518083038186803b158015610c4d57600080fd5b505afa158015610c61573d6000803e3d6000fd5b505050506040513d601f19601f82011682018060405250810190610c8591906154f2565b15610d10576040516331a9108f60e11b815288906001600160a01b03821690636352211e90610cb8908b906004016156b8565b60206040518083038186803b158015610cd057600080fd5b505afa158015610ce4573d6000803e3d6000fd5b505050506040513d601f19601f82011682018060405250810190610d0891906150e9565b915050610dc0565b6040516301ffc9a760e01b81526001600160a01b038916906301ffc9a790610d4390636cdb3d1360e11b9060040161567d565b60206040518083038186803b158015610d5b57600080fd5b505afa158015610d6f573d6000803e3d6000fd5b505050506040513d601f19601f82011682018060405250810190610d9391906154f2565b15610dc057506001600160a01b038088166000908152609c602090815260408083208a8452909152902054165b6000610ddd83602001518460400151613f6890919063ffffffff16565b609d54909150600090610e03906103e890610dfd90859061ffff16613f68565b90613fab565b9050610e2f610e10613a07565b609d5486516001600160a01b0390811692916201000090041684613fdd565b609f546040805163508d838960e11b815290516000926001600160a01b03169163a11b0712916004808301926020929190829003018186803b158015610e7457600080fd5b505afa158015610e88573d6000803e3d6000fd5b505050506040513d601f19601f82011682018060405250810190610eac91906150e9565b90506000806001600160a01b03831663538bd5ea8e8e610ecc8989614035565b6040518463ffffffff1660e01b8152600401610eea9392919061565c565b604080518083038186803b158015610f0157600080fd5b505afa158015610f15573d6000803e3d6000fd5b505050506040513d601f19601f82011682018060405250810190610f399190615236565b90925090506001600160a01b03821615801590610f5557508015155b15610f8557610f78610f65613a07565b88516001600160a01b0316908484613fdd565b610f82848261405d565b93505b610fae610f90613a07565b87610f9b8888614035565b8a516001600160a01b0316929190613fdd565b6040516301ffc9a760e01b81526001600160a01b038e16906301ffc9a790610fe1906380ac58cd60e01b9060040161567d565b60206040518083038186803b158015610ff957600080fd5b505afa15801561100d573d6000803e3d6000fd5b505050506040513d601f19601f8201168201806040525081019061103191906154f2565b156110a4578c6001600160a01b03166342842e0e8761104e613a07565b8f6040518463ffffffff1660e01b815260040161106d939291906155e5565b600060405180830381600087803b15801561108757600080fd5b505af115801561109b573d6000803e3d6000fd5b50505050611125565b8c6001600160a01b031663f242432a876110bc613a07565b8f8b60200151604051806020016040528060008152506040518663ffffffff1660e01b81526004016110f2959493929190615609565b600060405180830381600087803b15801561110c57600080fd5b505af1158015611120573d6000803e3d6000fd5b505050505b8c6001600160a01b0316611137613a07565b6001600160a01b0316876001600160a01b03167f949d1413baca5c0e4ab96b0198d536cac8cdcc17cb909b9ea24594f42ed9fa0d8f8b602001518c600001516111838e60000151611f75565b8e60400151604051611199959493929190615de7565b60405180910390a48c6001600160a01b03166111b3613a07565b6001600160a01b0316876001600160a01b03167fc104fa75ed75ffe209d3531bdd6a3192aa4fbc6e89cc18668a4700ecf130233e8f6040516111f591906156b8565b60405180910390a4609960008e6001600160a01b03166001600160a01b0316815260200190815260200160002060008d81526020019081526020016000206000876001600160a01b03166001600160a01b031681526020019081526020016000206000808201600090556001820160006101000a8154906001600160a01b030219169055600282016000905560038201600090555050609b60008e6001600160a01b03166001600160a01b0316815260200190815260200160002060008d815260200190815260200160002060006112cb613a07565b6001600160a01b031681526020810191909152604001600090812080546001600160a01b031916815560018082018390556002820183905560039091019190915560655550505050505050505050505050565b609d5461ffff1681565b609d546201000090046001600160a01b031681565b600260655414156113605760405162461bcd60e51b815260040161054490615c71565b6002606555828282611370615060565b506001600160a01b038084166000908152609a602090815260408083208684528252808320858516845282529182902082516080810184528154909416845260018101549184018290526002810154928401929092526003909101546060830152158015906113e957506113e2613a0b565b8160600151115b6114055760405162461bcd60e51b815260040161054490615ca8565b61140d615060565b506001600160a01b038088166000908152609a602090815260408083208a845282528083208985168452825291829020825160808101845281549094168452600181015491840191909152600281015491830191909152600301546060820152611484888861147a613a07565b8460200151613b4b565b60006114a182602001518360400151613f6890919063ffffffff16565b609d549091506000906114c1906103e890610dfd90859061ffff16613f68565b609d5484519192506114e9916001600160a01b03908116918b91620100009091041684613fdd565b609f546040805163508d838960e11b815290516000926001600160a01b03169163a11b0712916004808301926020929190829003018186803b15801561152e57600080fd5b505afa158015611542573d6000803e3d6000fd5b505050506040513d601f19601f8201168201806040525081019061156691906150e9565b90506000806001600160a01b03831663538bd5ea8e8e6115868989614035565b6040518463ffffffff1660e01b81526004016115a49392919061565c565b604080518083038186803b1580156115bb57600080fd5b505afa1580156115cf573d6000803e3d6000fd5b505050506040513d601f19601f820116820180604052508101906115f39190615236565b90925090506001600160a01b0382161580159061160f57508015155b1561163857855161162b906001600160a01b03168c8484613fdd565b611635848261405d565b93505b6116618b611644613a07565b61164e8888614035565b89516001600160a01b0316929190613fdd565b6040516301ffc9a760e01b81526001600160a01b038e16906301ffc9a790611694906380ac58cd60e01b9060040161567d565b60206040518083038186803b1580156116ac57600080fd5b505afa1580156116c0573d6000803e3d6000fd5b505050506040513d601f19601f820116820180604052508101906116e491906154f2565b15611757578c6001600160a01b03166342842e0e611700613a07565b8d8f6040518463ffffffff1660e01b8152600401611720939291906155e5565b600060405180830381600087803b15801561173a57600080fd5b505af115801561174e573d6000803e3d6000fd5b505050506117d8565b8c6001600160a01b031663f242432a61176e613a07565b8d8f8a60200151604051806020016040528060008152506040518663ffffffff1660e01b81526004016117a5959493929190615609565b600060405180830381600087803b1580156117bf57600080fd5b505af11580156117d3573d6000803e3d6000fd5b505050505b609f60009054906101000a90046001600160a01b03166001600160a01b0316639e1f5b286040518163ffffffff1660e01b815260040160206040518083038186803b15801561182657600080fd5b505afa15801561183a573d6000803e3d6000fd5b505050506040513d601f19601f8201168201806040525081019061185e91906150e9565b6001600160a01b03166327c1f4f48e8e89602001516040518463ffffffff1660e01b81526004016118919392919061565c565b600060405180830381600087803b1580156118ab57600080fd5b505af11580156118bf573d6000803e3d6000fd5b505050508c6001600160a01b03168b6001600160a01b03166118df613a07565b6001600160a01b03167f949d1413baca5c0e4ab96b0198d536cac8cdcc17cb909b9ea24594f42ed9fa0d8f8a602001518b600001516119218d60000151611f75565b8d60400151604051611937959493929190615de7565b60405180910390a48c6001600160a01b03168b6001600160a01b03167fc6e24dcedb16cc237925b586889d0a38102c719734d6cc56acb89b013099b3a78e60405161198291906156b8565b60405180910390a36001600160a01b038d1660009081526099602090815260408083208f84529091528120906119b6613a07565b6001600160a01b03166001600160a01b031681526020019081526020016000206000808201600090556001820160006101000a8154906001600160a01b030219169055600282016000905560038201600090555050609a60008e6001600160a01b03166001600160a01b0316815260200190815260200160002060008d815260200190815260200160002060008c6001600160a01b03166001600160a01b03168152602001908152602001600020600080820160006101000a8154906001600160a01b0302191690556001820160009055600282016000905560038201600090555050505050505050505050506001606581905550505050565b8585611aba613a07565b611ac2615091565b506001600160a01b038084166000908152609960209081526040808320868452825280832085851684528252918290208251608081018452815480825260018301549095169281019290925260028101549282019290925260039091015460608201529015611b435760405162461bcd60e51b815260040161054490615bd4565b6040516301ffc9a760e01b81526001600160a01b038b16906301ffc9a790611b76906380ac58cd60e01b9060040161567d565b60206040518083038186803b158015611b8e57600080fd5b505afa158015611ba2573d6000803e3d6000fd5b505050506040513d601f19601f82011682018060405250810190611bc691906154f2565b15611d265789611bd4613a07565b6001600160a01b0316816001600160a01b0316636352211e8c6040518263ffffffff1660e01b8152600401611c0991906156b8565b60206040518083038186803b158015611c2157600080fd5b505afa158015611c35573d6000803e3d6000fd5b505050506040513d601f19601f82011682018060405250810190611c5991906150e9565b6001600160a01b031614611c7f5760405162461bcd60e51b815260040161054490615801565b806001600160a01b031663e985e9c5611c96613a07565b306040518363ffffffff1660e01b8152600401611cb49291906155cb565b60206040518083038186803b158015611ccc57600080fd5b505afa158015611ce0573d6000803e3d6000fd5b505050506040513d601f19601f82011682018060405250810190611d0491906154f2565b611d205760405162461bcd60e51b815260040161054490615ad8565b50611e6a565b6040516301ffc9a760e01b81526001600160a01b038b16906301ffc9a790611d5990636cdb3d1360e11b9060040161567d565b60206040518083038186803b158015611d7157600080fd5b505afa158015611d85573d6000803e3d6000fd5b505050506040513d601f19601f82011682018060405250810190611da991906154f2565b15611e525789886001600160a01b03821662fdd58e611dc6613a07565b8d6040518363ffffffff1660e01b8152600401611de4929190615643565b60206040518083038186803b158015611dfc57600080fd5b505afa158015611e10573d6000803e3d6000fd5b505050506040513d601f19601f82011682018060405250810190611e349190615557565b1015611c7f5760405162461bcd60e51b815260040161054490615b03565b60405162461bcd60e51b815260040161054490615720565b611e7387613da8565b604080516080810182528981526001600160a01b03808a166020808401919091528284018a905260608301899052908d166000908152609982528381208d82529091529182209091611ec3613a07565b6001600160a01b039081168252602080830193909352604091820160002084518155928401516001840180546001600160a01b0319169183169190911790559083015160028301556060909201516003909101558a16611f21613a07565b6001600160a01b03167fa0294f02f8ad82fe4744717b0f953a105547196cd3c67056200c1a4ae3aa26298b8b8b8b8b604051611f61959493929190615de7565b60405180910390a350505050505050505050565b600080600080609f60009054906101000a90046001600160a01b03166001600160a01b031663741bef1a6040518163ffffffff1660e01b815260040160206040518083038186803b158015611fc957600080fd5b505afa158015611fdd573d6000803e3d6000fd5b505050506040513d601f19601f8201168201806040525081019061200191906150e9565b90506001600160a01b03851661210657806001600160a01b03166341976e09826001600160a01b031663f24286216040518163ffffffff1660e01b815260040160206040518083038186803b15801561205957600080fd5b505afa15801561206d573d6000803e3d6000fd5b505050506040513d601f19601f8201168201806040525081019061209191906150e9565b6040518263ffffffff1660e01b81526004016120ad91906155b7565b604080518083038186803b1580156120c457600080fd5b505afa1580156120d8573d6000803e3d6000fd5b505050506040513d601f19601f820116820180604052508101906120fc9190615512565b9093509150612187565b6040516341976e0960e01b81526001600160a01b038216906341976e09906121329088906004016155b7565b604080518083038186803b15801561214957600080fd5b505afa15801561215d573d6000803e3d6000fd5b505050506040513d601f19601f820116820180604052508101906121819190615512565b90935091505b60128260ff1610156121a6578160120360ff16600a0a830292506121bc565b6012820360ff16600a0a83816121b857fe5b0592505b50909392505050565b85856121cf613a07565b6121d7615060565b506001600160a01b038084166000908152609a602090815260408083208684528252808320858516845282529182902082516080810184528154909416845260018101549184018290526002810154928401929092526003909101546060830152158061224f5750612247613a0b565b816060015111155b61226b5760405162461bcd60e51b815260040161054490615a0a565b6040516301ffc9a760e01b81526001600160a01b038b16906301ffc9a79061229e906380ac58cd60e01b9060040161567d565b60206040518083038186803b1580156122b657600080fd5b505afa1580156122ca573d6000803e3d6000fd5b505050506040513d601f19601f820116820180604052508101906122ee91906154f2565b8061237757506040516301ffc9a760e01b81526001600160a01b038b16906301ffc9a79061232790636cdb3d1360e11b9060040161567d565b60206040518083038186803b15801561233f57600080fd5b505afa158015612353573d6000803e3d6000fd5b505050506040513d601f19601f8201168201806040525081019061237791906154f2565b6123935760405162461bcd60e51b815260040161054490615720565b609f5460408051637d9f6db560e01b815290516000926001600160a01b031691637d9f6db5916004808301926020929190829003018186803b1580156123d857600080fd5b505afa1580156123ec573d6000803e3d6000fd5b505050506040513d601f19601f8201168201806040525081019061241091906150e9565b9050600080826001600160a01b03166344f91c1e8e8e6040518363ffffffff1660e01b8152600401612443929190615643565b60c06040518083038186803b15801561245b57600080fd5b505afa15801561246f573d6000803e3d6000fd5b505050506040513d601f19601f82011682018060405250810190612493919061519e565b955050945050505081600014806124ac57506001811515145b6124c85760405162461bcd60e51b8152600401610544906156d4565b6124d0613a0b565b88116124ee5760405162461bcd60e51b815260040161054490615cdf565b6124f78b613da8565b60405180608001604052808c6001600160a01b031681526020018b81526020018a815260200189815250609a60008f6001600160a01b03166001600160a01b0316815260200190815260200160002060008e81526020019081526020016000206000612561613a07565b6001600160a01b0390811682526020808301939093526040918201600020845181546001600160a01b0319169083161781559284015160018401559083015160028301556060909201516003909101558d166125bb613a07565b6001600160a01b03167f89f255157c655b5155655107b77c620998e5ad4e7485d749e4e6d7ddb63e70f68e8d8f8e8e6040516125fb959493929190615de7565b60405180910390a350505050505050505050505050565b609c6020908152600092835260408084209091529082529020546001600160a01b031681565b838382612643615060565b506001600160a01b038084166000908152609b602090815260408083208684528252808320858516845282529182902082516080810184528154909416845260018101549184018290526002810154928401929092526003909101546060830152158015906126bc57506126b5613a0b565b8160600151115b6126d85760405162461bcd60e51b81526004016105449061582a565b6126eb88886126e5613a07565b89613b4b565b6001600160a01b038089166000818152609b602090815260408083208c84528252808320948a1680845294909152812080546001600160a01b031916815560018101829055600281018290556003015590612744613a07565b6001600160a01b03167fc104fa75ed75ffe209d3531bdd6a3192aa4fbc6e89cc18668a4700ecf130233e8a60405161277c91906156b8565b60405180910390a45050505050505050565b609e602052600090815260409020805460019091015461ffff8216916001600160a01b03620100009091048116911683565b6127c8613a07565b6001600160a01b03166127d9612c5f565b6001600160a01b0316146127ff5760405162461bcd60e51b815260040161054490615aa3565b609f80546001600160a01b0319166001600160a01b0392909216919091179055565b6099602090815260009384526040808520825292845282842090528252902080546001820154600283015460039093015491926001600160a01b039091169184565b83838361286e615060565b506001600160a01b038084166000908152609a602090815260408083208684528252808320858516845282529182902082516080810184528154909416845260018101549184018290526002810154928401929092526003909101546060830152158015906128e757506128e0613a0b565b8160600151115b6129035760405162461bcd60e51b815260040161054490615ca8565b6129168888612910613a07565b88613b4b565b6001600160a01b038089166000818152609a602090815260408083208c84528252808320948b168084529490915280822080546001600160a01b0319168155600181018390556002810183905560030191909155519091907ff8d1169355663f7e5f0874e73ca28404a771368f7ba7cae0fa65c38769bd8d7a9061299b908b906156b8565b60405180910390a35050505050505050565b6129b5613a07565b6001600160a01b03166129c6612c5f565b6001600160a01b0316146129ec5760405162461bcd60e51b815260040161054490615aa3565b6033546040516000916001600160a01b0316907f8be0079c531659141344cd1fd0a4f28419497f9722a3daafe3b4186f6b6457e0908390a3603380546001600160a01b0319169055565b60976020908152600092835260408084209091529082529020546001600160a01b031681565b60026065541415612a7f5760405162461bcd60e51b815260040161054490615c71565b6002606555838382612a8f615091565b506001600160a01b0380841660009081526099602090815260408083208684528252808320858516845282529182902082516080810184528154808252600183015490951692810192909252600281015492820192909252600390910154606082015290612b0f5760405162461bcd60e51b815260040161054490615d0b565b878786612b1a615091565b506001600160a01b0380841660009081526099602090815260408083208684528252808320858516845282529182902082516080810184528154808252600183015490951692810192909252600281015492820192909252600390910154606082015290612b8d90859085908590613b4b565b8060600151612b9a613a0b565b1015612bb85760405162461bcd60e51b815260040161054490615b73565b612bc0615091565b506001600160a01b03808d1660009081526099602090815260408083208f845282528083208d851684528252918290208251608081018452815481526001820154851692810183905260028201549381019390935260030154606083015290918c1614612c3f5760405162461bcd60e51b815260040161054490615bfc565b612c4b8d8d8d8d614082565b505060016065555050505050505050505050565b6033546001600160a01b031690565b612c76613a07565b6001600160a01b0316612c87612c5f565b6001600160a01b031614612cad5760405162461bcd60e51b815260040161054490615aa3565b609d805461ffff191661ffff83161790556040517fcabead39256298cdf7d1228eee68b47bc54a2192283d8d93574da08d2d7ac30390612cee908390615d34565b60405180910390a150565b60026065541415612d1c5760405162461bcd60e51b815260040161054490615c71565b60026065558181612d2b613a07565b612d33615091565b506001600160a01b0380841660009081526099602090815260408083208684528252808320858516845282529182902082516080810184528154808252600183015490951692810192909252600281015492820192909252600390910154606082015290612db35760405162461bcd60e51b815260040161054490615d0b565b612dc58686612dc0613a07565b6145f7565b5050600160655550505050565b612dda613a07565b6001600160a01b0316612deb612c5f565b6001600160a01b031614612e115760405162461bcd60e51b815260040161054490615aa3565b6001600160a01b038316612e375760405162461bcd60e51b8152600401610544906157ca565b6127108261ffff161115612e5d5760405162461bcd60e51b815260040161054490615a7a565b61ffff82161580612e7657506001600160a01b03811615155b612e925760405162461bcd60e51b815260040161054490615921565b612e9b84614705565b15612eb85760405162461bcd60e51b815260040161054490615720565b6001600160a01b038481166000908152609e602052604090205462010000900416612f6a576040805160608101825261ffff80851682526001600160a01b0380871660208085019182528683168587019081528a84166000908152609e9092529590209351845491518316620100000262010000600160b01b03199190941661ffff199092169190911716919091178255915160019091018054919092166001600160a01b0319909116179055612fc4565b6001600160a01b038481166000908152609e6020526040902080546001820180546001600160a01b03191685851617905561ffff191661ffff85161762010000600160b01b03191662010000928616929092029190911790555b50505050565b609a60209081526000938452604080852082529284528284209052825290208054600182015460028301546003909301546001600160a01b0390921692909184565b609860209081526000928352604080842090915290825290205461ffff1681565b8181613037613a07565b61303f615060565b506001600160a01b038084166000908152609b602090815260408083208684528252808320858516845282529182902082516080810184528154909416845260018101549184018290526002810154928401929092526003909101546060830152158015906130b857506130b1613a0b565b8160600151115b6130d45760405162461bcd60e51b81526004016105449061582a565b6001600160a01b0386166000908152609b60209081526040808320888452909152812090613100613a07565b6001600160a01b03908116825260208201929092526040908101600090812080546001600160a01b0319168155600181018290556002810182905560030181905590516301ffc9a760e01b815290918816906301ffc9a79061316d906380ac58cd60e01b9060040161567d565b60206040518083038186803b15801561318557600080fd5b505afa158015613199573d6000803e3d6000fd5b505050506040513d601f19601f820116820180604052508101906131bd91906154f2565b15613248576040516331a9108f60e11b815287906001600160a01b03821690636352211e906131f0908a906004016156b8565b60206040518083038186803b15801561320857600080fd5b505afa15801561321c573d6000803e3d6000fd5b505050506040513d601f19601f8201168201806040525081019061324091906150e9565b9150506132f8565b6040516301ffc9a760e01b81526001600160a01b038816906301ffc9a79061327b90636cdb3d1360e11b9060040161567d565b60206040518083038186803b15801561329357600080fd5b505afa1580156132a7573d6000803e3d6000fd5b505050506040513d601f19601f820116820180604052508101906132cb91906154f2565b156132f857506001600160a01b038087166000908152609c60209081526040808320898452909152902054165b866001600160a01b031661330a613a07565b6001600160a01b0316826001600160a01b03167f015aa46dc61e79e3666aa3c948d95a9c7880c24c99dbb6acda9583a17cfdb79d8960405161334c91906156b8565b60405180910390a450505050505050565b613365613a07565b6001600160a01b0316609f60009054906101000a90046001600160a01b03166001600160a01b0316639e1f5b286040518163ffffffff1660e01b815260040160206040518083038186803b1580156133bc57600080fd5b505afa1580156133d0573d6000803e3d6000fd5b505050506040513d601f19601f820116820180604052508101906133f491906150e9565b6001600160a01b03161461341a5760405162461bcd60e51b815260040161054490615b32565b613422615091565b506001600160a01b038085166000908152609960209081526040808320878452825280832086851684528252918290208251608081018452815480825260018301549095169281019290925260028101549282019290925260039091015460608201529015613496576134968585856145f7565b6001600160a01b038086166000818152609a6020908152604080832089845282528083209487168084529490915280822080546001600160a01b0319168155600181018390556002810183905560030191909155519091907fc6e24dcedb16cc237925b586889d0a38102c719734d6cc56acb89b013099b3a79061351b9088906156b8565b60405180910390a35050505050565b6002606554141561354d5760405162461bcd60e51b815260040161054490615c71565b6002606555838361355c613a07565b613564615091565b506001600160a01b03808416600090815260996020908152604080832086845282528083208585168452825291829020825160808101845281548082526001830154909516928101929092526002810154928201929092526003909101546060820152906135e45760405162461bcd60e51b815260040161054490615d0b565b6001600160a01b03881660009081526099602090815260408083208a8452909152812081613610613a07565b6001600160a01b03166001600160a01b031681526020019081526020016000209050613646898961363f613a07565b8454613b4b565b61364f87613da8565b6001810180546001600160a01b0319166001600160a01b0389811691909117909155600282018790558916613682613a07565b6001600160a01b03167f60a11f1619b1716bc2857bf610d4bc631336e14d197025fd5875c1aca1ac7cbd8a8a8a6040516136be93929190615d68565b60405180910390a35050600160655550505050505050565b6136de613a07565b6001600160a01b03166136ef612c5f565b6001600160a01b0316146137155760405162461bcd60e51b815260040161054490615aa3565b6001600160a01b03811661373b5760405162461bcd60e51b81526004016105449061574d565b6033546040516001600160a01b038084169216907f8be0079c531659141344cd1fd0a4f28419497f9722a3daafe3b4186f6b6457e090600090a3603380546001600160a01b0319166001600160a01b0392909216919091179055565b6127108161ffff1611156137bd5760405162461bcd60e51b815260040161054490615a7a565b6137c683614705565b6137e25760405162461bcd60e51b815260040161054490615720565b6137f683836137ef613a07565b6001613b4b565b6001600160a01b03838116600090815260976020908152604080832086845290915290205416156138395760405162461bcd60e51b815260040161054490615958565b613841613a07565b6001600160a01b039384166000818152609760209081526040808320878452825280832080546001600160a01b03191695909816949094179096559081526098855281812093815292909352919020805461ffff191661ffff909216919091179055565b600054610100900460ff16806138be57506138be614bbd565b806138cc575060005460ff16155b6138e85760405162461bcd60e51b8152600401610544906159bc565b600054610100900460ff16158015613913576000805460ff1961ff0019909116610100171660011790555b609d805461ffff191661ffff84161762010000600160b01b031916620100006001600160a01b03861602179055613948614bce565b613950614c60565b8015613962576000805461ff00191690555b505050565b609f546001600160a01b031681565b61397e613a07565b6001600160a01b031661398f612c5f565b6001600160a01b0316146139b55760405162461bcd60e51b815260040161054490615aa3565b609d805462010000600160b01b031916620100006001600160a01b038416021790556040517fe57e7c1f36cc83fade34e32351e6eee7eb9da532662b1b5da10c631e8222aca790612cee9083906155b7565b3390565b4290565b609f5460408051637d9f6db560e01b815290516000926001600160a01b031691637d9f6db5916004808301926020929190829003018186803b158015613a5457600080fd5b505afa158015613a68573d6000803e3d6000fd5b505050506040513d601f19601f82011682018060405250810190613a8c91906150e9565b9050600080826001600160a01b03166344f91c1e86866040518363ffffffff1660e01b8152600401613abf929190615643565b60c06040518083038186803b158015613ad757600080fd5b505afa158015613aeb573d6000803e3d6000fd5b505050506040513d601f19601f82011682018060405250810190613b0f919061519e565b95505094505050508160001480613b2857506001811515145b613b445760405162461bcd60e51b8152600401610544906156d4565b5050505050565b6040516301ffc9a760e01b81526001600160a01b038516906301ffc9a790613b7e906380ac58cd60e01b9060040161567d565b60206040518083038186803b158015613b9657600080fd5b505afa158015613baa573d6000803e3d6000fd5b505050506040513d601f19601f82011682018060405250810190613bce91906154f2565b15613c82576040516331a9108f60e11b815284906001600160a01b038085169190831690636352211e90613c069088906004016156b8565b60206040518083038186803b158015613c1e57600080fd5b505afa158015613c32573d6000803e3d6000fd5b505050506040513d601f19601f82011682018060405250810190613c5691906150e9565b6001600160a01b031614613c7c5760405162461bcd60e51b815260040161054490615801565b50612fc4565b6040516301ffc9a760e01b81526001600160a01b038516906301ffc9a790613cb590636cdb3d1360e11b9060040161567d565b60206040518083038186803b158015613ccd57600080fd5b505afa158015613ce1573d6000803e3d6000fd5b505050506040513d601f19601f82011682018060405250810190613d0591906154f2565b15611e5257604051627eeac760e11b8152849082906001600160a01b0383169062fdd58e90613d3a9087908990600401615643565b60206040518083038186803b158015613d5257600080fd5b505afa158015613d66573d6000803e3d6000fd5b505050506040513d601f19601f82011682018060405250810190613d8a9190615557565b1015613c7c5760405162461bcd60e51b815260040161054490615801565b6001600160a01b0381161580613f495750609f5460408051639d23c4c760e01b815290516000926001600160a01b031691639d23c4c7916004808301926020929190829003018186803b158015613dfe57600080fd5b505afa158015613e12573d6000803e3d6000fd5b505050506040513d601f19601f82011682018060405250810190613e3691906150e9565b6001600160a01b031614158015613f495750609f60009054906101000a90046001600160a01b03166001600160a01b0316639d23c4c76040518163ffffffff1660e01b815260040160206040518083038186803b158015613e9657600080fd5b505afa158015613eaa573d6000803e3d6000fd5b505050506040513d601f19601f82011682018060405250810190613ece91906150e9565b6001600160a01b03166398afdfe3826040518263ffffffff1660e01b8152600401613ef991906155b7565b60206040518083038186803b158015613f1157600080fd5b505afa158015613f25573d6000803e3d6000fd5b505050506040513d601f19601f82011682018060405250810190613f4991906154f2565b613f655760405162461bcd60e51b815260040161054490615bfc565b50565b600082613f7757506000613fa5565b82820282848281613f8457fe5b0414613fa25760405162461bcd60e51b815260040161054490615a39565b90505b92915050565b6000808211613fcc5760405162461bcd60e51b8152600401610544906158ea565b818381613fd557fe5b049392505050565b612fc4846323b872dd60e01b858585604051602401613ffe939291906155e5565b60408051601f198184030181529190526020810180516001600160e01b03166001600160e01b031990931692909217909152614cd6565b6000828211156140575760405162461bcd60e51b81526004016105449061586d565b50900390565b600082820183811015613fa25760405162461bcd60e51b815260040161054490615793565b61408a615091565b506001600160a01b03808516600090815260996020908152604080832087845282528083208585168452825280832081516080810183528154808252600183015490961693810193909352600281015491830182905260030154606083015290926140f59190613f68565b609d54909150600090614115906103e890610dfd90859061ffff16613f68565b905061413f614122613a07565b609d546001600160a01b0388811692916201000090041684613fdd565b609f546040805163508d838960e11b815290516000926001600160a01b03169163a11b0712916004808301926020929190829003018186803b15801561418457600080fd5b505afa158015614198573d6000803e3d6000fd5b505050506040513d601f19601f820116820180604052508101906141bc91906150e9565b90506000806001600160a01b03831663538bd5ea8b8b6141dc8989614035565b6040518463ffffffff1660e01b81526004016141fa9392919061565c565b604080518083038186803b15801561421157600080fd5b505afa158015614225573d6000803e3d6000fd5b505050506040513d601f19601f820116820180604052508101906142499190615236565b90925090506001600160a01b0382161580159061426557508015155b1561429457614287614275613a07565b6001600160a01b038a16908484613fdd565b614291848261405d565b93505b6142bc61429f613a07565b886142aa8888614035565b6001600160a01b038c16929190613fdd565b6040516301ffc9a760e01b81526001600160a01b038b16906301ffc9a7906142ef906380ac58cd60e01b9060040161567d565b60206040518083038186803b15801561430757600080fd5b505afa15801561431b573d6000803e3d6000fd5b505050506040513d601f19601f8201168201806040525081019061433f91906154f2565b156143b257896001600160a01b03166342842e0e8861435c613a07565b8c6040518463ffffffff1660e01b815260040161437b939291906155e5565b600060405180830381600087803b15801561439557600080fd5b505af11580156143a9573d6000803e3d6000fd5b50505050614433565b896001600160a01b031663f242432a886143ca613a07565b8c8a60000151604051806020016040528060008152506040518663ffffffff1660e01b8152600401614400959493929190615609565b600060405180830381600087803b15801561441a57600080fd5b505af115801561442e573d6000803e3d6000fd5b505050505b609f60009054906101000a90046001600160a01b03166001600160a01b0316639e1f5b286040518163ffffffff1660e01b815260040160206040518083038186803b15801561448157600080fd5b505afa158015614495573d6000803e3d6000fd5b505050506040513d601f19601f820116820180604052508101906144b991906150e9565b86516040516309f07d3d60e21b81526001600160a01b0392909216916327c1f4f4916144eb918e918e9160040161565c565b600060405180830381600087803b15801561450557600080fd5b505af1158015614519573d6000803e3d6000fd5b50505050896001600160a01b031661452f613a07565b6001600160a01b0316886001600160a01b03167f949d1413baca5c0e4ab96b0198d536cac8cdcc17cb909b9ea24594f42ed9fa0d8c8a600001518d6145738f611f75565b8d51614580908e90613fab565b604051614591959493929190615de7565b60405180910390a45050506001600160a01b0396871660009081526099602090815260408083209883529781528782209590981681529390965250509182208281556001810180546001600160a01b031916905560028101839055600301919091555050565b6145ff615091565b506001600160a01b038084166000908152609960209081526040808320868452825280832085851684528252918290208251608081018452815480825260018301549095169281019290925260028101549282019290925260039091015460608201529061467290859085908590613b4b565b6001600160a01b0380851660008181526099602090815260408083208884528252808320948716808452949091528082208281556001810180546001600160a01b03191690556002810183905560030191909155519091907f9ba1a3cb55ce8d63d072a886f94d2a744f50cddf82128e897d0661f5ec623158906146f79087906156b8565b60405180910390a350505050565b6000816001600160a01b0316609f60009054906101000a90046001600160a01b03166001600160a01b031663330bf32d6040518163ffffffff1660e01b815260040160206040518083038186803b15801561475f57600080fd5b505afa158015614773573d6000803e3d6000fd5b505050506040513d601f19601f8201168201806040525081019061479791906150e9565b6001600160a01b031614806148a85750609f60009054906101000a90046001600160a01b03166001600160a01b031663c45a01556040518163ffffffff1660e01b815260040160206040518083038186803b1580156147f557600080fd5b505afa158015614809573d6000803e3d6000fd5b505050506040513d601f19601f8201168201806040525081019061482d91906150e9565b6001600160a01b031663f6a3d24e836040518263ffffffff1660e01b815260040161485891906155b7565b60206040518083038186803b15801561487057600080fd5b505afa158015614884573d6000803e3d6000fd5b505050506040513d601f19601f820116820180604052508101906148a891906154f2565b806149af5750609f60009054906101000a90046001600160a01b03166001600160a01b031663735db9396040518163ffffffff1660e01b815260040160206040518083038186803b1580156148fc57600080fd5b505afa158015614910573d6000803e3d6000fd5b505050506040513d601f19601f8201168201806040525081019061493491906150e9565b6001600160a01b031663f6a3d24e836040518263ffffffff1660e01b815260040161495f91906155b7565b60206040518083038186803b15801561497757600080fd5b505afa15801561498b573d6000803e3d6000fd5b505050506040513d601f19601f820116820180604052508101906149af91906154f2565b80614ab65750609f60009054906101000a90046001600160a01b03166001600160a01b0316630fb27d8c6040518163ffffffff1660e01b815260040160206040518083038186803b158015614a0357600080fd5b505afa158015614a17573d6000803e3d6000fd5b505050506040513d601f19601f82011682018060405250810190614a3b91906150e9565b6001600160a01b031663f6a3d24e836040518263ffffffff1660e01b8152600401614a6691906155b7565b60206040518083038186803b158015614a7e57600080fd5b505afa158015614a92573d6000803e3d6000fd5b505050506040513d601f19601f82011682018060405250810190614ab691906154f2565b80613fa55750609f60009054906101000a90046001600160a01b03166001600160a01b031663924db13f6040518163ffffffff1660e01b815260040160206040518083038186803b158015614b0a57600080fd5b505afa158015614b1e573d6000803e3d6000fd5b505050506040513d601f19601f82011682018060405250810190614b4291906150e9565b6001600160a01b031663f6a3d24e836040518263ffffffff1660e01b8152600401614b6d91906155b7565b60206040518083038186803b158015614b8557600080fd5b505afa158015614b99573d6000803e3d6000fd5b505050506040513d601f19601f82011682018060405250810190613fa591906154f2565b6000614bc830614d65565b15905090565b600054610100900460ff1680614be75750614be7614bbd565b80614bf5575060005460ff16155b614c115760405162461bcd60e51b8152600401610544906159bc565b600054610100900460ff16158015614c3c576000805460ff1961ff0019909116610100171660011790555b614c44614d6b565b614c4c614dec565b8015613f65576000805461ff001916905550565b600054610100900460ff1680614c795750614c79614bbd565b80614c87575060005460ff16155b614ca35760405162461bcd60e51b8152600401610544906159bc565b600054610100900460ff16158015614cce576000805460ff1961ff0019909116610100171660011790555b614c4c614ec6565b6060614d2b826040518060400160405280602081526020017f5361666545524332303a206c6f772d6c6576656c2063616c6c206661696c6564815250856001600160a01b0316614f4d9092919063ffffffff16565b8051909150156139625780806020019051810190614d4991906154f2565b6139625760405162461bcd60e51b815260040161054490615c27565b3b151590565b600054610100900460ff1680614d845750614d84614bbd565b80614d92575060005460ff16155b614dae5760405162461bcd60e51b8152600401610544906159bc565b600054610100900460ff16158015614c4c576000805460ff1961ff0019909116610100171660011790558015613f65576000805461ff001916905550565b600054610100900460ff1680614e055750614e05614bbd565b80614e13575060005460ff16155b614e2f5760405162461bcd60e51b8152600401610544906159bc565b600054610100900460ff16158015614e5a576000805460ff1961ff0019909116610100171660011790555b6000614e64613a07565b603380546001600160a01b0319166001600160a01b038316908117909155604051919250906000907f8be0079c531659141344cd1fd0a4f28419497f9722a3daafe3b4186f6b6457e0908290a3508015613f65576000805461ff001916905550565b600054610100900460ff1680614edf5750614edf614bbd565b80614eed575060005460ff16155b614f095760405162461bcd60e51b8152600401610544906159bc565b600054610100900460ff16158015614f34576000805460ff1961ff0019909116610100171660011790555b60016065558015613f65576000805461ff001916905550565b6060614f5c8484600085614f66565b90505b9392505050565b606082471015614f885760405162461bcd60e51b8152600401610544906158a4565b614f9185614d65565b614fad5760405162461bcd60e51b815260040161054490615b9d565b60006060866001600160a01b03168587604051614fca919061559b565b60006040518083038185875af1925050503d8060008114615007576040519150601f19603f3d011682016040523d82523d6000602084013e61500c565b606091505b509150915061501c828286615027565b979650505050505050565b60608315615036575081614f5f565b8251156150465782518084602001fd5b8160405162461bcd60e51b815260040161054491906156c1565b604051806080016040528060006001600160a01b031681526020016000815260200160008152602001600081525090565b60405180608001604052806000815260200160006001600160a01b0316815260200160008152602001600081525090565b8035613fa581615e3f565b6000602082840312156150de578081fd5b8135613fa281615e3f565b6000602082840312156150fa578081fd5b8151613fa281615e3f565b60008060408385031215615117578081fd5b823561512281615e3f565b9150602083013561ffff81168114615138578182fd5b809150509250929050565b60008060008060808587031215615158578182fd5b843561516381615e3f565b9350602085013561517381615e3f565b9250604085013561518381615e54565b9150606085013561519381615e3f565b939692955090935050565b60008060008060008060c087890312156151b6578182fd5b86516151c181615e3f565b60208801519096506151d281615e3f565b8095505060408701519350606087015192506080870151915060a087015180151581146151fd578182fd5b809150509295509295509295565b6000806040838503121561521d578182fd5b823561522881615e3f565b946020939093013593505050565b60008060408385031215615248578182fd5b825161525381615e3f565b6020939093015192949293505050565b600080600060608486031215615277578283fd5b833561528281615e3f565b925060208401359150604084013561529981615e3f565b809150509250925092565b600080600080608085870312156152b9578384fd5b84356152c481615e3f565b935060208501359250604085013561518381615e3f565b600080600080608085870312156152f0578182fd5b84356152fb81615e3f565b935060208501359250604085013561531281615e3f565b9396929550929360600135925050565b60008060008060008060c0878903121561533a578384fd5b863561534581615e3f565b955060208701359450604087013561535c81615e3f565b959894975094956060810135955060808101359460a0909101359350915050565b60008060008084860360e0811215615393578283fd5b853561539e81615e3f565b9450602086013593506080603f19820112156153b8578283fd5b506040516080810181811067ffffffffffffffff821117156153d8578384fd5b60409081528601356153e981615e3f565b815260608681013560208301526080870135604083015260a08701359082015291506154188660c087016150c2565b905092959194509250565b600080600060608486031215615437578081fd5b833561544281615e3f565b925060208401359150604084013561529981615e54565b6000806000806080858703121561546e578182fd5b843561547981615e3f565b93506020850135925060408501359150606085013561519381615e3f565b60008060008060008060c087890312156154af578384fd5b86356154ba81615e3f565b9550602087013594506040870135935060608701356154d881615e3f565b9598949750929560808101359460a0909101359350915050565b600060208284031215615503578081fd5b81518015158114613fa2578182fd5b60008060408385031215615524578182fd5b82519150602083015160ff81168114615138578182fd5b60006020828403121561554c578081fd5b8135613fa281615e54565b600060208284031215615568578081fd5b5051919050565b60008151808452615587816020860160208601615e13565b601f01601f19169290920160200192915050565b600082516155ad818460208701615e13565b9190910192915050565b6001600160a01b0391909116815260200190565b6001600160a01b0392831681529116602082015260400190565b6001600160a01b039384168152919092166020820152604081019190915260600190565b6001600160a01b03868116825285166020820152604081018490526060810183905260a06080820181905260009061501c9083018461556f565b6001600160a01b03929092168252602082015260400190565b6001600160a01b039390931683526020830191909152604082015260600190565b6001600160e01b031991909116815260200190565b6001600160a01b0394909416845260208401929092526040830152606082015260800190565b90815260200190565b600060208252614f5f602083018461556f565b6020808252602c908201527f63616e6e6f7420706c61636520616e206f666665722069662061756374696f6e60408201526b1034b99033b7b4b7339037b760a11b606082015260800190565b602080825260139082015272696e76616c6964206e6674206164647265737360681b604082015260600190565b60208082526026908201527f4f776e61626c653a206e6577206f776e657220697320746865207a65726f206160408201526564647265737360d01b606082015260800190565b6020808252601b908201527f536166654d6174683a206164646974696f6e206f766572666c6f770000000000604082015260600190565b60208082526017908201527f696e76616c69642063726561746f722061646472657373000000000000000000604082015260600190565b6020808252600f908201526e6e6f74206f776e696e67206974656d60881b604082015260600190565b60208082526023908201527f636f756e746572206f66666572206e6f7420657869737473206f7220657870696040820152621c995960ea1b606082015260800190565b6020808252601e908201527f536166654d6174683a207375627472616374696f6e206f766572666c6f770000604082015260600190565b60208082526026908201527f416464726573733a20696e73756666696369656e742062616c616e636520666f6040820152651c8818d85b1b60d21b606082015260800190565b6020808252601a908201527f536166654d6174683a206469766973696f6e206279207a65726f000000000000604082015260600190565b6020808252601d908201527f696e76616c69642066656520726563697069656e742061646472657373000000604082015260600190565b6020808252601390820152721c9bde585b1d1e48185b1c9958591e481cd95d606a1b604082015260600190565b6020808252601d908201527f636f756e746572206f6666657220616c72656164792063726561746564000000604082015260600190565b6020808252602e908201527f496e697469616c697a61626c653a20636f6e747261637420697320616c72656160408201526d191e481a5b9a5d1a585b1a5e995960921b606082015260800190565b6020808252601590820152741bd999995c88185b1c9958591e4818dc99585d1959605a1b604082015260600190565b60208082526021908201527f536166654d6174683a206d756c7469706c69636174696f6e206f766572666c6f6040820152607760f81b606082015260800190565b6020808252600f908201526e696e76616c696420726f79616c747960881b604082015260600190565b6020808252818101527f4f776e61626c653a2063616c6c6572206973206e6f7420746865206f776e6572604082015260600190565b6020808252601190820152701a5d195b481b9bdd08185c1c1c9bdd9959607a1b604082015260600190565b6020808252601590820152746d75737420686f6c6420656e6f756768206e66747360581b604082015260600190565b60208082526021908201527f73656e646572206d7573742062652062756e646c65206d61726b6574706c61636040820152606560f81b606082015260800190565b60208082526010908201526f6974656d206e6f742062757961626c6560801b604082015260600190565b6020808252601d908201527f416464726573733a2063616c6c20746f206e6f6e2d636f6e7472616374000000604082015260600190565b6020808252600e908201526d185b1c9958591e481b1a5cdd195960921b604082015260600190565b60208082526011908201527034b73b30b634b2103830bc903a37b5b2b760791b604082015260600190565b6020808252602a908201527f5361666545524332303a204552433230206f7065726174696f6e20646964206e6040820152691bdd081cdd58d8d9595960b21b606082015260800190565b6020808252601f908201527f5265656e7472616e637947756172643a207265656e7472616e742063616c6c00604082015260600190565b6020808252601b908201527f6f66666572206e6f7420657869737473206f7220657870697265640000000000604082015260600190565b60208082526012908201527134b73b30b634b21032bc3834b930ba34b7b760711b604082015260600190565b6020808252600f908201526e6e6f74206c6973746564206974656d60881b604082015260600190565b61ffff91909116815260200190565b61ffff9390931683526001600160a01b03918216602084015216604082015260600190565b9283526001600160a01b03919091166020830152604082015260600190565b9384526001600160a01b039290921660208401526040830152606082015260800190565b91825280516001600160a01b03166020808401919091528101516040808401919091528101516060808401919091520151608082015260a00190565b94855260208501939093526001600160a01b039190911660408401526060830152608082015260a00190565b60005b83811015615e2e578181015183820152602001615e16565b83811115612fc45750506000910152565b6001600160a01b0381168114613f6557600080fd5b61ffff81168114613f6557600080fdfea264697066735822122091e5b9a071efee4cfd88e2d790e151983a3414e9fc5ec62e49affd1b0d7174be64736f6c634300060c0033",
  "linkReferences": {},
  "deployedLinkReferences": {}
}