{
  "_format": "hh-sol-artifact-1",
  "contractName": "ProxyRegistry",
  "sourceName": "contracts/TenartArtTradablePrivate.sol",
  "abi": [
    {
      "inputs": [
        {
          "internalType": "address",
          "name": "",
          "type": "address"
        }
      ],
      "name": "proxies",
      "outputs": [
        {
          "internalType": "contract OwnableDelegateProxy",
          "name": "",
          "type": "address"
        }
      ],
      "stateMutability": "view",
      "type": "function"
    }
  ],
  "bytecode": "0x6080604052348015600f57600080fd5b5060bd8061001e6000396000f3fe6080604052348015600f57600080fd5b506004361060285760003560e01c8063c455279114602d575b600080fd5b605060048036036020811015604157600080fd5b50356001600160a01b0316606c565b604080516001600160a01b039092168252519081900360200190f35b6000602081905290815260409020546001600160a01b03168156fea2646970667358221220702d6419a7f8584d4de95139ceaf6684430ef78d4535ca8b0f355e519f8242a164736f6c634300060c0033",
  "linkReferences": {},
  "deployedLinkReferences": {}
}