{
  "_format": "hh-sol-artifact-1",
  "contractName": "PrivateSaleWithFeeSharing",
  "sourceName": "contracts/Rewards/PrivateSaleWithFeeSharing.sol",
  "abi": [
    {
      "inputs": [
        {
          "internalType": "address",
          "name": "_tenartToken",
          "type": "address"
        },
        {
          "internalType": "address",
          "name": "_rewardToken",
          "type": "address"
        },
        {
          "internalType": "uint256",
          "name": "_maxBlockForWithdrawal",
          "type": "uint256"
        },
        {
          "internalType": "uint256",
          "name": "_totalLooksDistributed",
          "type": "uint256"
        }
      ],
      "stateMutability": "nonpayable",
      "type": "constructor"
    },
    {
      "anonymous": false,
      "inputs": [
        {
          "indexed": true,
          "internalType": "address",
          "name": "user",
          "type": "address"
        },
        {
          "indexed": false,
          "internalType": "uint8",
          "name": "tier",
          "type": "uint8"
        }
      ],
      "name": "Deposit",
      "type": "event"
    },
    {
      "anonymous": false,
      "inputs": [
        {
          "indexed": true,
          "internalType": "address",
          "name": "user",
          "type": "address"
        },
        {
          "indexed": false,
          "internalType": "uint256",
          "name": "amount",
          "type": "uint256"
        }
      ],
      "name": "Harvest",
      "type": "event"
    },
    {
      "anonymous": false,
      "inputs": [
        {
          "indexed": false,
          "internalType": "uint8",
          "name": "tier",
          "type": "uint8"
        },
        {
          "indexed": false,
          "internalType": "uint256",
          "name": "allocationCostInETH",
          "type": "uint256"
        }
      ],
      "name": "NewAllocationCostPerTier",
      "type": "event"
    },
    {
      "anonymous": false,
      "inputs": [
        {
          "indexed": false,
          "internalType": "uint256",
          "name": "blockForWithdrawal",
          "type": "uint256"
        }
      ],
      "name": "NewBlockForWithdrawal",
      "type": "event"
    },
    {
      "anonymous": false,
      "inputs": [
        {
          "indexed": false,
          "internalType": "uint256",
          "name": "price",
          "type": "uint256"
        }
      ],
      "name": "NewPriceOfETHInTART",
      "type": "event"
    },
    {
      "anonymous": false,
      "inputs": [
        {
          "indexed": false,
          "internalType": "enum PrivateSaleWithFeeSharing.SalePhase",
          "name": "newSalePhase",
          "type": "uint8"
        }
      ],
      "name": "NewSalePhase",
      "type": "event"
    },
    {
      "anonymous": false,
      "inputs": [
        {
          "indexed": true,
          "internalType": "address",
          "name": "previousOwner",
          "type": "address"
        },
        {
          "indexed": true,
          "internalType": "address",
          "name": "newOwner",
          "type": "address"
        }
      ],
      "name": "OwnershipTransferred",
      "type": "event"
    },
    {
      "anonymous": false,
      "inputs": [
        {
          "indexed": false,
          "internalType": "address",
          "name": "user",
          "type": "address"
        }
      ],
      "name": "UserRemoved",
      "type": "event"
    },
    {
      "anonymous": false,
      "inputs": [
        {
          "indexed": false,
          "internalType": "address[]",
          "name": "users",
          "type": "address[]"
        },
        {
          "indexed": false,
          "internalType": "uint8",
          "name": "tier",
          "type": "uint8"
        }
      ],
      "name": "UsersWhitelisted",
      "type": "event"
    },
    {
      "anonymous": false,
      "inputs": [
        {
          "indexed": true,
          "internalType": "address",
          "name": "user",
          "type": "address"
        },
        {
          "indexed": false,
          "internalType": "uint8",
          "name": "tier",
          "type": "uint8"
        },
        {
          "indexed": false,
          "internalType": "uint256",
          "name": "amount",
          "type": "uint256"
        }
      ],
      "name": "Withdraw",
      "type": "event"
    },
    {
      "inputs": [],
      "name": "MAX_BLOCK_FOR_WITHDRAWAL",
      "outputs": [
        {
          "internalType": "uint256",
          "name": "",
          "type": "uint256"
        }
      ],
      "stateMutability": "view",
      "type": "function"
    },
    {
      "inputs": [],
      "name": "NUMBER_TIERS",
      "outputs": [
        {
          "internalType": "uint8",
          "name": "",
          "type": "uint8"
        }
      ],
      "stateMutability": "view",
      "type": "function"
    },
    {
      "inputs": [],
      "name": "TOTAL_TART_DISTRIBUTED",
      "outputs": [
        {
          "internalType": "uint256",
          "name": "",
          "type": "uint256"
        }
      ],
      "stateMutability": "view",
      "type": "function"
    },
    {
      "inputs": [
        {
          "internalType": "uint8",
          "name": "",
          "type": "uint8"
        }
      ],
      "name": "allocationCostPerTier",
      "outputs": [
        {
          "internalType": "uint256",
          "name": "",
          "type": "uint256"
        }
      ],
      "stateMutability": "view",
      "type": "function"
    },
    {
      "inputs": [],
      "name": "blockForWithdrawal",
      "outputs": [
        {
          "internalType": "uint256",
          "name": "",
          "type": "uint256"
        }
      ],
      "stateMutability": "view",
      "type": "function"
    },
    {
      "inputs": [
        {
          "internalType": "address",
          "name": "user",
          "type": "address"
        }
      ],
      "name": "calculatePendingRewards",
      "outputs": [
        {
          "internalType": "uint256",
          "name": "",
          "type": "uint256"
        }
      ],
      "stateMutability": "view",
      "type": "function"
    },
    {
      "inputs": [],
      "name": "currentPhase",
      "outputs": [
        {
          "internalType": "enum PrivateSaleWithFeeSharing.SalePhase",
          "name": "",
          "type": "uint8"
        }
      ],
      "stateMutability": "view",
      "type": "function"
    },
    {
      "inputs": [],
      "name": "deposit",
      "outputs": [],
      "stateMutability": "payable",
      "type": "function"
    },
    {
      "inputs": [],
      "name": "getMaxAmountTARTToDistribute",
      "outputs": [
        {
          "internalType": "uint256",
          "name": "maxAmountCollected",
          "type": "uint256"
        }
      ],
      "stateMutability": "view",
      "type": "function"
    },
    {
      "inputs": [],
      "name": "harvest",
      "outputs": [],
      "stateMutability": "nonpayable",
      "type": "function"
    },
    {
      "inputs": [
        {
          "internalType": "uint8",
          "name": "",
          "type": "uint8"
        }
      ],
      "name": "numberOfParticipantsForATier",
      "outputs": [
        {
          "internalType": "uint256",
          "name": "",
          "type": "uint256"
        }
      ],
      "stateMutability": "view",
      "type": "function"
    },
    {
      "inputs": [],
      "name": "owner",
      "outputs": [
        {
          "internalType": "address",
          "name": "",
          "type": "address"
        }
      ],
      "stateMutability": "view",
      "type": "function"
    },
    {
      "inputs": [],
      "name": "priceOfETHInTART",
      "outputs": [
        {
          "internalType": "uint256",
          "name": "",
          "type": "uint256"
        }
      ],
      "stateMutability": "view",
      "type": "function"
    },
    {
      "inputs": [
        {
          "internalType": "address",
          "name": "_user",
          "type": "address"
        }
      ],
      "name": "removeUserFromWhitelist",
      "outputs": [],
      "stateMutability": "nonpayable",
      "type": "function"
    },
    {
      "inputs": [],
      "name": "renounceOwnership",
      "outputs": [],
      "stateMutability": "nonpayable",
      "type": "function"
    },
    {
      "inputs": [],
      "name": "rewardToken",
      "outputs": [
        {
          "internalType": "contract IERC20",
          "name": "",
          "type": "address"
        }
      ],
      "stateMutability": "view",
      "type": "function"
    },
    {
      "inputs": [
        {
          "internalType": "uint8",
          "name": "_tier",
          "type": "uint8"
        },
        {
          "internalType": "uint256",
          "name": "_allocationCostInETH",
          "type": "uint256"
        }
      ],
      "name": "setAllocationCostPerTier",
      "outputs": [],
      "stateMutability": "nonpayable",
      "type": "function"
    },
    {
      "inputs": [
        {
          "internalType": "uint256",
          "name": "_blockForWithdrawal",
          "type": "uint256"
        }
      ],
      "name": "setBlockForWithdrawal",
      "outputs": [],
      "stateMutability": "nonpayable",
      "type": "function"
    },
    {
      "inputs": [
        {
          "internalType": "uint256",
          "name": "_priceOfETHinTART",
          "type": "uint256"
        }
      ],
      "name": "setPriceOfETHInTART",
      "outputs": [],
      "stateMutability": "nonpayable",
      "type": "function"
    },
    {
      "inputs": [],
      "name": "tenartToken",
      "outputs": [
        {
          "internalType": "contract IERC20",
          "name": "",
          "type": "address"
        }
      ],
      "stateMutability": "view",
      "type": "function"
    },
    {
      "inputs": [],
      "name": "totalAmountCommitted",
      "outputs": [
        {
          "internalType": "uint256",
          "name": "",
          "type": "uint256"
        }
      ],
      "stateMutability": "view",
      "type": "function"
    },
    {
      "inputs": [],
      "name": "totalRewardTokensDistributedToStakers",
      "outputs": [
        {
          "internalType": "uint256",
          "name": "",
          "type": "uint256"
        }
      ],
      "stateMutability": "view",
      "type": "function"
    },
    {
      "inputs": [
        {
          "internalType": "address",
          "name": "newOwner",
          "type": "address"
        }
      ],
      "name": "transferOwnership",
      "outputs": [],
      "stateMutability": "nonpayable",
      "type": "function"
    },
    {
      "inputs": [
        {
          "internalType": "enum PrivateSaleWithFeeSharing.SalePhase",
          "name": "_newSalePhase",
          "type": "uint8"
        }
      ],
      "name": "updateSalePhase",
      "outputs": [],
      "stateMutability": "nonpayable",
      "type": "function"
    },
    {
      "inputs": [],
      "name": "updateSalePhaseToWithdraw",
      "outputs": [],
      "stateMutability": "nonpayable",
      "type": "function"
    },
    {
      "inputs": [
        {
          "internalType": "address",
          "name": "",
          "type": "address"
        }
      ],
      "name": "userInfo",
      "outputs": [
        {
          "internalType": "uint256",
          "name": "rewardsDistributedToAccount",
          "type": "uint256"
        },
        {
          "internalType": "uint8",
          "name": "tier",
          "type": "uint8"
        },
        {
          "internalType": "bool",
          "name": "hasDeposited",
          "type": "bool"
        },
        {
          "internalType": "bool",
          "name": "hasWithdrawn",
          "type": "bool"
        }
      ],
      "stateMutability": "view",
      "type": "function"
    },
    {
      "inputs": [
        {
          "internalType": "address[]",
          "name": "_users",
          "type": "address[]"
        },
        {
          "internalType": "uint8",
          "name": "_tier",
          "type": "uint8"
        }
      ],
      "name": "whitelistUsers",
      "outputs": [],
      "stateMutability": "nonpayable",
      "type": "function"
    },
    {
      "inputs": [],
      "name": "withdraw",
      "outputs": [],
      "stateMutability": "nonpayable",
      "type": "function"
    },
    {
      "inputs": [],
      "name": "withdrawCommittedAmount",
      "outputs": [],
      "stateMutability": "nonpayable",
      "type": "function"
    }
  ],
  "bytecode": "0x6101006040523480156200001257600080fd5b506040516200292838038062002928833981810160405260808110156200003857600080fd5b508051602082015160408301516060909301519192909160006200005b62000117565b600080546001600160a01b0319166001600160a01b0383169081178255604051929350917f8be0079c531659141344cd1fd0a4f28419497f9722a3daafe3b4186f6b6457e0908290a35060018055438211620000e95760405162461bcd60e51b8152600401808060200182810382526037815260200180620028f16037913960400191505060405180910390fd5b6001600160601b0319606094851b81166080529290931b90911660a052600381905560c05260e0526200011b565b3390565b60805160601c60a05160601c60c05160e051612759620001986000398061102752806117ec52806118215280611a2d5280611aa85250806110ad528061206452508061068d5280610a2d5280610b305280610e695280610fb85280612088525080610bda5280611205528061184e5280611ac952506127596000f3fe6080604052600436106101c25760003560e01c80638da5cb5b116100f7578063c9d0358611610095578063f6da1cd411610064578063f6da1cd414610595578063f79bbab9146105c2578063f7c618c1146105d7578063f9902bb1146105ec576101c2565b8063c9d0358614610518578063d0e30db014610545578063e6145c6c1461054d578063f2fde38b14610562576101c2565b8063aabb75d0116100d1578063aabb75d014610459578063ad52a6b7146104d9578063b764444a146104ee578063b81e429d14610503576101c2565b80638da5cb5b1461041a578063913818071461042f578063996eaaf214610444576101c2565b80634641257d11610164578063715018a61161013e578063715018a61461037457806379ba99cf1461038957806383b42e20146103b657806385948f1c146103e7576101c2565b80634641257d14610320578063589485b5146103355780635fd8e6cc1461034a576101c2565b80631959a002116101a05780631959a0021461026e5780631c6b823d146102cb5780633ccfd60b146102f657806343ab3c4f1461030b576101c2565b8063055ad42e146101c7578063097aad10146101fd578063193cd1f814610242575b600080fd5b3480156101d357600080fd5b506101dc61061f565b604051808260048111156101ec57fe5b815260200191505060405180910390f35b34801561020957600080fd5b506102306004803603602081101561022057600080fd5b50356001600160a01b0316610628565b60408051918252519081900360200190f35b34801561024e57600080fd5b5061026c6004803603602081101561026557600080fd5b5035610778565b005b34801561027a57600080fd5b506102a16004803603602081101561029157600080fd5b50356001600160a01b0316610868565b6040805194855260ff90931660208501529015158383015215156060830152519081900360800190f35b3480156102d757600080fd5b506102e0610897565b6040805160ff9092168252519081900360200190f35b34801561030257600080fd5b5061026c61089c565b34801561031757600080fd5b5061026c610c63565b34801561032c57600080fd5b5061026c610d46565b34801561034157600080fd5b50610230611025565b34801561035657600080fd5b5061026c6004803603602081101561036d57600080fd5b5035611049565b34801561038057600080fd5b5061026c611145565b34801561039557600080fd5b50610230600480360360208110156103ac57600080fd5b503560ff166111f1565b3480156103c257600080fd5b506103cb611203565b604080516001600160a01b039092168252519081900360200190f35b3480156103f357600080fd5b5061026c6004803603604081101561040a57600080fd5b5060ff8135169060200135611227565b34801561042657600080fd5b506103cb611397565b34801561043b57600080fd5b506102306113a6565b34801561045057600080fd5b506102306113ac565b34801561046557600080fd5b5061026c6004803603604081101561047c57600080fd5b81019060208101813564010000000081111561049757600080fd5b8201836020820111156104a957600080fd5b803590602001918460208302840111640100000000831117156104cb57600080fd5b91935091503560ff166113b2565b3480156104e557600080fd5b5061026c611643565b3480156104fa57600080fd5b506102306118c0565b34801561050f57600080fd5b50610230611905565b34801561052457600080fd5b5061026c6004803603602081101561053b57600080fd5b503560ff1661190b565b61026c611cf5565b34801561055957600080fd5b50610230611f48565b34801561056e57600080fd5b5061026c6004803603602081101561058557600080fd5b50356001600160a01b0316611f4e565b3480156105a157600080fd5b50610230600480360360208110156105b857600080fd5b503560ff16612050565b3480156105ce57600080fd5b50610230612062565b3480156105e357600080fd5b506103cb612086565b3480156105f857600080fd5b5061026c6004803603602081101561060f57600080fd5b50356001600160a01b03166120aa565b60025460ff1681565b6001600160a01b038116600090815260096020526040812060010154610100900460ff16158061067957506001600160a01b03821660009081526009602052604090206001015462010000900460ff165b1561068657506000610773565b60006006547f00000000000000000000000000000000000000000000000000000000000000006001600160a01b03166370a08231306040518263ffffffff1660e01b815260040180826001600160a01b0316815260200191505060206040518083038186803b1580156106f857600080fd5b505afa15801561070c573d6000803e3d6000fd5b505050506040513d602081101561072257600080fd5b50516001600160a01b0385166000908152600960209081526040808320805460055460019092015460ff168552600790935290832054949093019450909290919084028161076c57fe5b0403925050505b919050565b610780612246565b6001600160a01b0316610791611397565b6001600160a01b0316146107da576040805162461bcd60e51b8152602060048201819052602482015260008051602061264d833981519152604482015290519081900360640190fd5b600060025460ff1660048111156107ed57fe5b1461082d576040805162461bcd60e51b815260206004820152601c60248201526000805160206126b4833981519152604482015290519081900360640190fd5b60048190556040805182815290517fccd8591d32f9c437729642a01b766a00cc10532a47e63020ad765a04d195608c9181900360200190a150565b6009602052600090815260409020805460019091015460ff808216916101008104821691620100009091041684565b600381565b600260015414156108e2576040805162461bcd60e51b815260206004820152601f6024820152600080516020612572833981519152604482015290519081900360640190fd5b6002600155600460025460ff1660048111156108fa57fe5b1461094c576040805162461bcd60e51b815260206004820181905260248201527f57697468647261773a205068617365206d757374206265205769746864726177604482015290519081900360640190fd5b33600090815260096020526040902060010154610100900460ff166109b8576040805162461bcd60e51b815260206004820152601b60248201527f57697468647261773a2055736572206e6f7420656c696769626c650000000000604482015290519081900360640190fd5b3360009081526009602052604090206001015462010000900460ff1615610a26576040805162461bcd60e51b815260206004820152601f60248201527f57697468647261773a2048617320616c72656164792077697468647261776e00604482015290519081900360640190fd5b60006006547f00000000000000000000000000000000000000000000000000000000000000006001600160a01b03166370a08231306040518263ffffffff1660e01b815260040180826001600160a01b0316815260200191505060206040518083038186803b158015610a9857600080fd5b505afa158015610aac573d6000803e3d6000fd5b505050506040513d6020811015610ac257600080fd5b5051336000908152600960209081526040808320805460055460019092015460ff1685526007909352908320549490930194509092909190840281610b0357fe5b040390508015610b96573360008181526009602052604090208054830190556006805483019055610b5f907f00000000000000000000000000000000000000000000000000000000000000006001600160a01b0316908361224a565b60408051828152905133917fc9695243a805adb74c91f28311176c65b417e842d5699893cef56d18bfa48cba919081900360200190a25b5050336000818152600960209081526040808320600101805462ff0000191662010000179081905560045460ff9190911684526007909252909120540290610c09907f00000000000000000000000000000000000000000000000000000000000000006001600160a01b0316908361224a565b3360008181526009602090815260409182902060010154825160ff909116815290810184905281517fe3054ec6f352b09a86839beeeceb27ed4684f9164eb61f4a5d6d159ee8789d74929181900390910190a25060018055565b600360025460ff166004811115610c7657fe5b14610cc1576040805162461bcd60e51b815260206004820152601660248201527550686173653a204d757374206265205374616b696e6760501b604482015290519081900360640190fd5b600354431015610d025760405162461bcd60e51b81526004018080602001828103825260268152602001806126056026913960400191505060405180910390fd5b6002805460ff1916600490811790915560408051918252517ff67ed3f575b43d45ed40fcb3338822a7176804dacbad665bfbe01d596fe5b6589181900360200190a1565b60026001541415610d8c576040805162461bcd60e51b815260206004820152601f6024820152600080516020612572833981519152604482015290519081900360640190fd5b6002600155600360025460ff166004811115610da457fe5b14610df6576040805162461bcd60e51b815260206004820152601e60248201527f486172766573743a205068617365206d757374206265205374616b696e670000604482015290519081900360640190fd5b33600090815260096020526040902060010154610100900460ff16610e62576040805162461bcd60e51b815260206004820152601a60248201527f486172766573743a2055736572206e6f7420656c696769626c65000000000000604482015290519081900360640190fd5b60006006547f00000000000000000000000000000000000000000000000000000000000000006001600160a01b03166370a08231306040518263ffffffff1660e01b815260040180826001600160a01b0316815260200191505060206040518083038186803b158015610ed457600080fd5b505afa158015610ee8573d6000803e3d6000fd5b505050506040513d6020811015610efe57600080fd5b5051336000908152600960209081526040808320805460055460019092015460ff1685526007909352908320549490930194509092909190840281610f3f57fe5b0403905080610f95576040805162461bcd60e51b815260206004820152601c60248201527f486172766573743a204e6f7468696e6720746f207472616e7366657200000000604482015290519081900360640190fd5b3360008181526009602052604090208054830190556006805483019055610fe7907f00000000000000000000000000000000000000000000000000000000000000006001600160a01b0316908361224a565b60408051828152905133917fc9695243a805adb74c91f28311176c65b417e842d5699893cef56d18bfa48cba919081900360200190a2505060018055565b7f000000000000000000000000000000000000000000000000000000000000000081565b611051612246565b6001600160a01b0316611062611397565b6001600160a01b0316146110ab576040805162461bcd60e51b8152602060048201819052602482015260008051602061264d833981519152604482015290519081900360640190fd5b7f000000000000000000000000000000000000000000000000000000000000000081111561110a5760405162461bcd60e51b815260040180806020018281038252604781526020018061266d6047913960600191505060405180910390fd5b60038190556040805182815290517fdcd248c98d6a98d5b6ce62b32ff1d6ac37cb4477a79e6d3a63204fa23cf0a10e9181900360200190a150565b61114d612246565b6001600160a01b031661115e611397565b6001600160a01b0316146111a7576040805162461bcd60e51b8152602060048201819052602482015260008051602061264d833981519152604482015290519081900360640190fd5b600080546040516001600160a01b03909116907f8be0079c531659141344cd1fd0a4f28419497f9722a3daafe3b4186f6b6457e0908390a3600080546001600160a01b0319169055565b60076020526000908152604090205481565b7f000000000000000000000000000000000000000000000000000000000000000081565b61122f612246565b6001600160a01b0316611240611397565b6001600160a01b031614611289576040805162461bcd60e51b8152602060048201819052602482015260008051602061264d833981519152604482015290519081900360640190fd5b600060025460ff16600481111561129c57fe5b146112dc576040805162461bcd60e51b815260206004820152601c60248201526000805160206126b4833981519152604482015290519081900360640190fd5b60008260ff161180156112f35750600360ff831611155b611344576040805162461bcd60e51b815260206004820152601c60248201527f4f776e65723a2054696572206f757473696465206f662072616e676500000000604482015290519081900360640190fd5b60ff82166000818152600760209081526040918290208490558151928352820183905280517fc32d3da121d033455a3d63554389cfb02231069639f7d480f7881a343b9e70f49281900390910190a15050565b6000546001600160a01b031690565b60045481565b60035481565b6113ba612246565b6001600160a01b03166113cb611397565b6001600160a01b031614611414576040805162461bcd60e51b8152602060048201819052602482015260008051602061264d833981519152604482015290519081900360640190fd5b600060025460ff16600481111561142757fe5b14611467576040805162461bcd60e51b815260206004820152601c60248201526000805160206126b4833981519152604482015290519081900360640190fd5b60008160ff1611801561147e5750600360ff821611155b6114cf576040805162461bcd60e51b815260206004820152601c60248201527f4f776e65723a2054696572206f757473696465206f662072616e676500000000604482015290519081900360640190fd5b60005b828110156115b657600960008585848181106114ea57fe5b602090810292909201356001600160a01b03168352508101919091526040016000206001015460ff1615611565576040805162461bcd60e51b815260206004820152601760248201527f4f776e65723a205469657220616c726561647920736574000000000000000000604482015290519081900360640190fd5b816009600086868581811061157657fe5b602090810292909201356001600160a01b03168352508101919091526040016000206001908101805460ff191660ff9390931692909217909155016114d2565b5060ff81166000818152600860209081526040918290208054860190558151808201939093528183529082018490527f3bb4938c38fee7f595b40fb7501b5e901c1cf1a91dc0c99ebefd90eed30687d991859185918591819060608201908690860280828437600083820152604051601f909101601f1916909201829003965090945050505050a1505050565b61164b612246565b6001600160a01b031661165c611397565b6001600160a01b0316146116a5576040805162461bcd60e51b8152602060048201819052602482015260008051602061264d833981519152604482015290519081900360640190fd5b600260015414156116eb576040805162461bcd60e51b815260206004820152601f6024820152600080516020612572833981519152604482015290519081900360640190fd5b6002600181905560025460ff16600481111561170357fe5b14611755576040805162461bcd60e51b815260206004820152601960248201527f4f776e65723a205068617365206d757374206265204f76657200000000000000604482015290519081900360640190fd5b60055460405160009133918381818185875af1925050503d8060008114611798576040519150601f19603f3d011682016040523d82523d6000602084013e61179d565b606091505b50509050806117ea576040805162461bcd60e51b815260206004820152601460248201527313dddb995c8e88151c985b9cd9995c8819985a5b60621b604482015290519081900360640190fd5b7f000000000000000000000000000000000000000000000000000000000000000060045460055402101561187757600454600554027f0000000000000000000000000000000000000000000000000000000000000000036118756001600160a01b037f000000000000000000000000000000000000000000000000000000000000000016338361224a565b505b6002805460ff1916600390811790915560408051918252517ff67ed3f575b43d45ed40fcb3338822a7176804dacbad665bfbe01d596fe5b6589181900360200190a15060018055565b600060015b600360ff8216116118fd5760ff81166000908152600860209081526040808320546007909252909120540291909101906001016118c5565b506004540290565b60055481565b611913612246565b6001600160a01b0316611924611397565b6001600160a01b03161461196d576040805162461bcd60e51b8152602060048201819052602482015260008051602061264d833981519152604482015290519081900360640190fd5b600181600481111561197b57fe5b1415611be257600060025460ff16600481111561199457fe5b146119d4576040805162461bcd60e51b815260206004820152601c60248201526000805160206126b4833981519152604482015290519081900360640190fd5b600060045411611a2b576040805162461bcd60e51b815260206004820181905260248201527f4f776e65723a2045786368616e67652072617465206d757374206265203e2030604482015290519081900360640190fd5b7f0000000000000000000000000000000000000000000000000000000000000000611a546118c0565b14611aa6576040805162461bcd60e51b815260206004820152601b60248201527f4f776e65723a2057726f6e6720616d6f756e74206f6620544152540000000000604482015290519081900360640190fd5b7f00000000000000000000000000000000000000000000000000000000000000007f00000000000000000000000000000000000000000000000000000000000000006001600160a01b03166370a08231306040518263ffffffff1660e01b815260040180826001600160a01b0316815260200191505060206040518083038186803b158015611b3457600080fd5b505afa158015611b48573d6000803e3d6000fd5b505050506040513d6020811015611b5e57600080fd5b50511015611b9d5760405162461bcd60e51b81526004018080602001828103825260268152602001806126fe6026913960400191505060405180910390fd5b4360035411611bdd5760405162461bcd60e51b81526004018080602001828103825260278152602001806125b86027913960400191505060405180910390fd5b611c92565b6002816004811115611bf057fe5b1415611c5b57600160025460ff166004811115611c0957fe5b14611bdd576040805162461bcd60e51b815260206004820152601c60248201527f4f776e65723a205068617365206d757374206265204465706f73697400000000604482015290519081900360640190fd5b60405162461bcd60e51b815260040180806020018281038252602281526020018061262b6022913960400191505060405180910390fd5b6002805482919060ff19166001836004811115611cab57fe5b02179055507ff67ed3f575b43d45ed40fcb3338822a7176804dacbad665bfbe01d596fe5b6588160405180826004811115611ce257fe5b815260200191505060405180910390a150565b60026001541415611d3b576040805162461bcd60e51b815260206004820152601f6024820152600080516020612572833981519152604482015290519081900360640190fd5b6002600190815560025460ff166004811115611d5357fe5b14611da5576040805162461bcd60e51b815260206004820152601e60248201527f4465706f7369743a205068617365206d757374206265204465706f7369740000604482015290519081900360640190fd5b3360009081526009602052604090206001015460ff16611e0c576040805162461bcd60e51b815260206004820152601860248201527f4465706f7369743a204e6f742077686974656c69737465640000000000000000604482015290519081900360640190fd5b33600090815260096020526040902060010154610100900460ff1615611e72576040805162461bcd60e51b815260206004820152601660248201527511195c1bdcda5d0e8812185cc819195c1bdcda5d195960521b604482015290519081900360640190fd5b3360009081526009602090815260408083206001015460ff16835260079091529020543414611ee0576040805162461bcd60e51b815260206004820152601560248201527411195c1bdcda5d0e8815dc9bdb99c8185b5bdd5b9d605a1b604482015290519081900360640190fd5b33600081815260096020908152604091829020600101805461ff001916610100178155600580543401905554825160ff91909116815291517fad2e6c88b0f5fc3ff908e76d24409bcbd07a8a6da62cb7e25c8e9ff196bdf7a99281900390910190a260018055565b60065481565b611f56612246565b6001600160a01b0316611f67611397565b6001600160a01b031614611fb0576040805162461bcd60e51b8152602060048201819052602482015260008051602061264d833981519152604482015290519081900360640190fd5b6001600160a01b038116611ff55760405162461bcd60e51b81526004018080602001828103825260268152602001806125926026913960400191505060405180910390fd5b600080546040516001600160a01b03808516939216917f8be0079c531659141344cd1fd0a4f28419497f9722a3daafe3b4186f6b6457e091a3600080546001600160a01b0319166001600160a01b0392909216919091179055565b60086020526000908152604090205481565b7f000000000000000000000000000000000000000000000000000000000000000081565b7f000000000000000000000000000000000000000000000000000000000000000081565b6120b2612246565b6001600160a01b03166120c3611397565b6001600160a01b03161461210c576040805162461bcd60e51b8152602060048201819052602482015260008051602061264d833981519152604482015290519081900360640190fd5b600060025460ff16600481111561211f57fe5b1461215f576040805162461bcd60e51b815260206004820152601c60248201526000805160206126b4833981519152604482015290519081900360640190fd5b6001600160a01b03811660009081526009602052604090206001015460ff166121cf576040805162461bcd60e51b815260206004820152601c60248201527f4f776e65723a2054696572206e6f742073657420666f72207573657200000000604482015290519081900360640190fd5b6001600160a01b0381166000818152600960208181526040808420600101805460ff16855260088352818520805460001901905593859052918152825460ff19169092558051928352517fe9dce8c992623ce791725b21e857e33248d1f190a25b5168313420eebdaae99d9281900390910190a150565b3390565b604080516001600160a01b038416602482015260448082018490528251808303909101815260649091019091526020810180516001600160e01b031663a9059cbb60e01b17905261229c9084906122a1565b505050565b60606122f6826040518060400160405280602081526020017f5361666545524332303a206c6f772d6c6576656c2063616c6c206661696c6564815250856001600160a01b03166123529092919063ffffffff16565b80519091501561229c5780806020019051602081101561231557600080fd5b505161229c5760405162461bcd60e51b815260040180806020018281038252602a8152602001806126d4602a913960400191505060405180910390fd5b6060612361848460008561236b565b90505b9392505050565b6060824710156123ac5760405162461bcd60e51b81526004018080602001828103825260268152602001806125df6026913960400191505060405180910390fd5b6123b5856124c7565b612406576040805162461bcd60e51b815260206004820152601d60248201527f416464726573733a2063616c6c20746f206e6f6e2d636f6e7472616374000000604482015290519081900360640190fd5b60006060866001600160a01b031685876040518082805190602001908083835b602083106124455780518252601f199092019160209182019101612426565b6001836020036101000a03801982511681845116808217855250505050505090500191505060006040518083038185875af1925050503d80600081146124a7576040519150601f19603f3d011682016040523d82523d6000602084013e6124ac565b606091505b50915091506124bc8282866124cd565b979650505050505050565b3b151590565b606083156124dc575081612364565b8251156124ec5782518084602001fd5b8160405162461bcd60e51b81526004018080602001828103825283818151815260200191508051906020019080838360005b8381101561253657818101518382015260200161251e565b50505050905090810190601f1680156125635780820380516001836020036101000a031916815260200191505b509250505060405180910390fdfe5265656e7472616e637947756172643a207265656e7472616e742063616c6c004f776e61626c653a206e6577206f776e657220697320746865207a65726f20616464726573734f776e65723a20426c6f636b20666f72207769746864726177616c2077726f6e676c7920736574416464726573733a20696e73756666696369656e742062616c616e636520666f722063616c6c50686173653a20546f6f206561726c7920746f207570646174652073616c65207374617475734f776e65723a2043616e6e6f742075706461746520746f20746869732070686173654f776e61626c653a2063616c6c6572206973206e6f7420746865206f776e65724f776e65723a20426c6f636b20666f72207769746864726177616c206d757374206265206c6f776572207468616e206d617820626c6f636b20666f72207769746864726177616c4f776e65723a205068617365206d7573742062652050656e64696e67000000005361666545524332303a204552433230206f7065726174696f6e20646964206e6f7420737563636565644f776e65723a204e6f7420656e6f756768205441525420696e2074686520636f6e7472616374a26469706673582212201d5d57a867d396ac891e0606b16022db016b0dd23d327bef996d0bd297216ae664736f6c634300060c00334f776e65723a204d6178426c6f636b466f725769746864726177616c206d75737420626520616674657220626c6f636b206e756d626572",
  "linkReferences": {},
  "deployedLinkReferences": {}
}