{
  "_format": "hh-sol-artifact-1",
  "contractName": "TenartNFT",
  "sourceName": "contracts/TenartNFT.sol",
  "abi": [
    {
      "inputs": [
        {
          "internalType": "address payable",
          "name": "_feeRecipient",
          "type": "address"
        },
        {
          "internalType": "uint256",
          "name": "_platformFee",
          "type": "uint256"
        }
      ],
      "stateMutability": "nonpayable",
      "type": "constructor"
    },
    {
      "anonymous": false,
      "inputs": [
        {
          "indexed": true,
          "internalType": "address",
          "name": "owner",
          "type": "address"
        },
        {
          "indexed": true,
          "internalType": "address",
          "name": "approved",
          "type": "address"
        },
        {
          "indexed": true,
          "internalType": "uint256",
          "name": "tokenId",
          "type": "uint256"
        }
      ],
      "name": "Approval",
      "type": "event"
    },
    {
      "anonymous": false,
      "inputs": [
        {
          "indexed": true,
          "internalType": "address",
          "name": "owner",
          "type": "address"
        },
        {
          "indexed": true,
          "internalType": "address",
          "name": "operator",
          "type": "address"
        },
        {
          "indexed": false,
          "internalType": "bool",
          "name": "approved",
          "type": "bool"
        }
      ],
      "name": "ApprovalForAll",
      "type": "event"
    },
    {
      "anonymous": false,
      "inputs": [
        {
          "indexed": false,
          "internalType": "uint256",
          "name": "tokenId",
          "type": "uint256"
        },
        {
          "indexed": false,
          "internalType": "address",
          "name": "beneficiary",
          "type": "address"
        },
        {
          "indexed": false,
          "internalType": "string",
          "name": "tokenUri",
          "type": "string"
        },
        {
          "indexed": false,
          "internalType": "address",
          "name": "minter",
          "type": "address"
        }
      ],
      "name": "Minted",
      "type": "event"
    },
    {
      "anonymous": false,
      "inputs": [
        {
          "indexed": true,
          "internalType": "address",
          "name": "previousOwner",
          "type": "address"
        },
        {
          "indexed": true,
          "internalType": "address",
          "name": "newOwner",
          "type": "address"
        }
      ],
      "name": "OwnershipTransferred",
      "type": "event"
    },
    {
      "anonymous": false,
      "inputs": [
        {
          "indexed": true,
          "internalType": "address",
          "name": "from",
          "type": "address"
        },
        {
          "indexed": true,
          "internalType": "address",
          "name": "to",
          "type": "address"
        },
        {
          "indexed": true,
          "internalType": "uint256",
          "name": "tokenId",
          "type": "uint256"
        }
      ],
      "name": "Transfer",
      "type": "event"
    },
    {
      "anonymous": false,
      "inputs": [
        {
          "indexed": false,
          "internalType": "uint256",
          "name": "platformFee",
          "type": "uint256"
        }
      ],
      "name": "UpdatePlatformFee",
      "type": "event"
    },
    {
      "anonymous": false,
      "inputs": [
        {
          "indexed": false,
          "internalType": "address payable",
          "name": "platformFeeRecipient",
          "type": "address"
        }
      ],
      "name": "UpdatePlatformFeeRecipient",
      "type": "event"
    },
    {
      "inputs": [
        {
          "internalType": "address",
          "name": "to",
          "type": "address"
        },
        {
          "internalType": "uint256",
          "name": "tokenId",
          "type": "uint256"
        }
      ],
      "name": "approve",
      "outputs": [],
      "stateMutability": "nonpayable",
      "type": "function"
    },
    {
      "inputs": [
        {
          "internalType": "address",
          "name": "owner",
          "type": "address"
        }
      ],
      "name": "balanceOf",
      "outputs": [
        {
          "internalType": "uint256",
          "name": "",
          "type": "uint256"
        }
      ],
      "stateMutability": "view",
      "type": "function"
    },
    {
      "inputs": [],
      "name": "baseURI",
      "outputs": [
        {
          "internalType": "string",
          "name": "",
          "type": "string"
        }
      ],
      "stateMutability": "view",
      "type": "function"
    },
    {
      "inputs": [
        {
          "internalType": "uint256",
          "name": "_tokenId",
          "type": "uint256"
        }
      ],
      "name": "burn",
      "outputs": [],
      "stateMutability": "nonpayable",
      "type": "function"
    },
    {
      "inputs": [
        {
          "internalType": "uint256",
          "name": "",
          "type": "uint256"
        }
      ],
      "name": "creators",
      "outputs": [
        {
          "internalType": "address",
          "name": "",
          "type": "address"
        }
      ],
      "stateMutability": "view",
      "type": "function"
    },
    {
      "inputs": [
        {
          "internalType": "uint256",
          "name": "_tokenId",
          "type": "uint256"
        }
      ],
      "name": "exists",
      "outputs": [
        {
          "internalType": "bool",
          "name": "",
          "type": "bool"
        }
      ],
      "stateMutability": "view",
      "type": "function"
    },
    {
      "inputs": [],
      "name": "feeReceipient",
      "outputs": [
        {
          "internalType": "address payable",
          "name": "",
          "type": "address"
        }
      ],
      "stateMutability": "view",
      "type": "function"
    },
    {
      "inputs": [
        {
          "internalType": "uint256",
          "name": "tokenId",
          "type": "uint256"
        }
      ],
      "name": "getApproved",
      "outputs": [
        {
          "internalType": "address",
          "name": "",
          "type": "address"
        }
      ],
      "stateMutability": "view",
      "type": "function"
    },
    {
      "inputs": [
        {
          "internalType": "uint256",
          "name": "_tokenId",
          "type": "uint256"
        },
        {
          "internalType": "address",
          "name": "_operator",
          "type": "address"
        }
      ],
      "name": "isApproved",
      "outputs": [
        {
          "internalType": "bool",
          "name": "",
          "type": "bool"
        }
      ],
      "stateMutability": "view",
      "type": "function"
    },
    {
      "inputs": [
        {
          "internalType": "address",
          "name": "owner",
          "type": "address"
        },
        {
          "internalType": "address",
          "name": "operator",
          "type": "address"
        }
      ],
      "name": "isApprovedForAll",
      "outputs": [
        {
          "internalType": "bool",
          "name": "",
          "type": "bool"
        }
      ],
      "stateMutability": "view",
      "type": "function"
    },
    {
      "inputs": [
        {
          "internalType": "address",
          "name": "_beneficiary",
          "type": "address"
        },
        {
          "internalType": "string",
          "name": "_tokenUri",
          "type": "string"
        },
        {
          "internalType": "address",
          "name": "_royaltyRecipient",
          "type": "address"
        },
        {
          "internalType": "uint256",
          "name": "_royaltyValue",
          "type": "uint256"
        }
      ],
      "name": "mint",
      "outputs": [
        {
          "internalType": "uint256",
          "name": "",
          "type": "uint256"
        }
      ],
      "stateMutability": "payable",
      "type": "function"
    },
    {
      "inputs": [],
      "name": "name",
      "outputs": [
        {
          "internalType": "string",
          "name": "",
          "type": "string"
        }
      ],
      "stateMutability": "view",
      "type": "function"
    },
    {
      "inputs": [],
      "name": "owner",
      "outputs": [
        {
          "internalType": "address",
          "name": "",
          "type": "address"
        }
      ],
      "stateMutability": "view",
      "type": "function"
    },
    {
      "inputs": [
        {
          "internalType": "uint256",
          "name": "tokenId",
          "type": "uint256"
        }
      ],
      "name": "ownerOf",
      "outputs": [
        {
          "internalType": "address",
          "name": "",
          "type": "address"
        }
      ],
      "stateMutability": "view",
      "type": "function"
    },
    {
      "inputs": [],
      "name": "platformFee",
      "outputs": [
        {
          "internalType": "uint256",
          "name": "",
          "type": "uint256"
        }
      ],
      "stateMutability": "view",
      "type": "function"
    },
    {
      "inputs": [],
      "name": "renounceOwnership",
      "outputs": [],
      "stateMutability": "nonpayable",
      "type": "function"
    },
    {
      "inputs": [
        {
          "internalType": "uint256",
          "name": "_tokenId",
          "type": "uint256"
        },
        {
          "internalType": "uint256",
          "name": "_salePrice",
          "type": "uint256"
        }
      ],
      "name": "royaltyInfo",
      "outputs": [
        {
          "internalType": "address",
          "name": "_receiver",
          "type": "address"
        },
        {
          "internalType": "uint256",
          "name": "_royaltyAmount",
          "type": "uint256"
        }
      ],
      "stateMutability": "view",
      "type": "function"
    },
    {
      "inputs": [
        {
          "internalType": "address",
          "name": "from",
          "type": "address"
        },
        {
          "internalType": "address",
          "name": "to",
          "type": "address"
        },
        {
          "internalType": "uint256",
          "name": "tokenId",
          "type": "uint256"
        }
      ],
      "name": "safeTransferFrom",
      "outputs": [],
      "stateMutability": "nonpayable",
      "type": "function"
    },
    {
      "inputs": [
        {
          "internalType": "address",
          "name": "from",
          "type": "address"
        },
        {
          "internalType": "address",
          "name": "to",
          "type": "address"
        },
        {
          "internalType": "uint256",
          "name": "tokenId",
          "type": "uint256"
        },
        {
          "internalType": "bytes",
          "name": "_data",
          "type": "bytes"
        }
      ],
      "name": "safeTransferFrom",
      "outputs": [],
      "stateMutability": "nonpayable",
      "type": "function"
    },
    {
      "inputs": [
        {
          "internalType": "address",
          "name": "operator",
          "type": "address"
        },
        {
          "internalType": "bool",
          "name": "approved",
          "type": "bool"
        }
      ],
      "name": "setApprovalForAll",
      "outputs": [],
      "stateMutability": "nonpayable",
      "type": "function"
    },
    {
      "inputs": [
        {
          "internalType": "address",
          "name": "_recipient",
          "type": "address"
        },
        {
          "internalType": "uint16",
          "name": "_value",
          "type": "uint16"
        }
      ],
      "name": "setDefaultRoyalty",
      "outputs": [],
      "stateMutability": "nonpayable",
      "type": "function"
    },
    {
      "inputs": [
        {
          "internalType": "uint256",
          "name": "_tokenId",
          "type": "uint256"
        },
        {
          "internalType": "address",
          "name": "_receiver",
          "type": "address"
        },
        {
          "internalType": "uint16",
          "name": "_value",
          "type": "uint16"
        }
      ],
      "name": "setTokenRoyalty",
      "outputs": [],
      "stateMutability": "nonpayable",
      "type": "function"
    },
    {
      "inputs": [
        {
          "internalType": "bytes4",
          "name": "interfaceId",
          "type": "bytes4"
        }
      ],
      "name": "supportsInterface",
      "outputs": [
        {
          "internalType": "bool",
          "name": "",
          "type": "bool"
        }
      ],
      "stateMutability": "view",
      "type": "function"
    },
    {
      "inputs": [],
      "name": "symbol",
      "outputs": [
        {
          "internalType": "string",
          "name": "",
          "type": "string"
        }
      ],
      "stateMutability": "view",
      "type": "function"
    },
    {
      "inputs": [
        {
          "internalType": "uint256",
          "name": "index",
          "type": "uint256"
        }
      ],
      "name": "tokenByIndex",
      "outputs": [
        {
          "internalType": "uint256",
          "name": "",
          "type": "uint256"
        }
      ],
      "stateMutability": "view",
      "type": "function"
    },
    {
      "inputs": [],
      "name": "tokenIdPointer",
      "outputs": [
        {
          "internalType": "uint256",
          "name": "",
          "type": "uint256"
        }
      ],
      "stateMutability": "view",
      "type": "function"
    },
    {
      "inputs": [
        {
          "internalType": "address",
          "name": "owner",
          "type": "address"
        },
        {
          "internalType": "uint256",
          "name": "index",
          "type": "uint256"
        }
      ],
      "name": "tokenOfOwnerByIndex",
      "outputs": [
        {
          "internalType": "uint256",
          "name": "",
          "type": "uint256"
        }
      ],
      "stateMutability": "view",
      "type": "function"
    },
    {
      "inputs": [
        {
          "internalType": "uint256",
          "name": "tokenId",
          "type": "uint256"
        }
      ],
      "name": "tokenURI",
      "outputs": [
        {
          "internalType": "string",
          "name": "",
          "type": "string"
        }
      ],
      "stateMutability": "view",
      "type": "function"
    },
    {
      "inputs": [],
      "name": "totalSupply",
      "outputs": [
        {
          "internalType": "uint256",
          "name": "",
          "type": "uint256"
        }
      ],
      "stateMutability": "view",
      "type": "function"
    },
    {
      "inputs": [
        {
          "internalType": "address",
          "name": "from",
          "type": "address"
        },
        {
          "internalType": "address",
          "name": "to",
          "type": "address"
        },
        {
          "internalType": "uint256",
          "name": "tokenId",
          "type": "uint256"
        }
      ],
      "name": "transferFrom",
      "outputs": [],
      "stateMutability": "nonpayable",
      "type": "function"
    },
    {
      "inputs": [
        {
          "internalType": "address",
          "name": "newOwner",
          "type": "address"
        }
      ],
      "name": "transferOwnership",
      "outputs": [],
      "stateMutability": "nonpayable",
      "type": "function"
    },
    {
      "inputs": [
        {
          "internalType": "uint256",
          "name": "_platformFee",
          "type": "uint256"
        }
      ],
      "name": "updatePlatformFee",
      "outputs": [],
      "stateMutability": "nonpayable",
      "type": "function"
    },
    {
      "inputs": [
        {
          "internalType": "address payable",
          "name": "_platformFeeRecipient",
          "type": "address"
        }
      ],
      "name": "updatePlatformFeeRecipient",
      "outputs": [],
      "stateMutability": "nonpayable",
      "type": "function"
    }
  ],
  "bytecode": "0x60806040523480156200001157600080fd5b506040516200308538038062003085833981810160405260408110156200003757600080fd5b508051602091820151604080518082018252600981526815195b985c9d13919560ba1b81860152815180830190925260048252631513919560e21b94820194909452919290916200008f6301ffc9a760e01b62000177565b8151620000a490600690602085019062000200565b508051620000ba90600790602084019062000200565b50620000cd6380ac58cd60e01b62000177565b620000df635b5e139f60e01b62000177565b620000f163780e9d6360e01b62000177565b506000905062000100620001fc565b600b80546001600160a01b0319166001600160a01b038316908117909155604051919250906000907f8be0079c531659141344cd1fd0a4f28419497f9722a3daafe3b4186f6b6457e0908290a350600e55600f80546001600160a01b0319166001600160a01b03929092169190911790556200029c565b6001600160e01b03198082161415620001d7576040805162461bcd60e51b815260206004820152601c60248201527f4552433136353a20696e76616c696420696e7465726661636520696400000000604482015290519081900360640190fd5b6001600160e01b0319166000908152602081905260409020805460ff19166001179055565b3390565b828054600181600116156101000203166002900490600052602060002090601f016020900481019282601f106200024357805160ff191683800117855562000273565b8280016001018555821562000273579182015b828111156200027357825182559160200191906001019062000256565b506200028192915062000285565b5090565b5b8082111562000281576000815560010162000286565b612dd980620002ac6000396000f3fe6080604052600436106101ee5760003560e01c806356c316371161010d578063a22cb465116100a0578063cd53d08e1161006f578063cd53d08e14610808578063da14cbbc14610832578063e985e9c5146108c1578063f2fde38b146108fc578063f5fe7f711461092f576101ee565b8063a22cb465146106a6578063aa0b5988146106e1578063b88d4fde1461070b578063c87b56dd146107de576101ee565b8063715018a6116100dc578063715018a61461062457806378db6c53146106395780638da5cb5b1461067c57806395d89b4114610691576101ee565b806356c31637146105795780636352211e146105b25780636c0360eb146105dc57806370a08231146105f1576101ee565b80632f745c591161018557806342966c681161015457806342966c68146104be5780634331f639146104e85780634f558e79146105255780634f6ccce71461054f576101ee565b80632f745c59146104185780633740ebb3146104515780633b3a1a7a1461046657806342842e0e1461047b576101ee565b806318160ddd116101c157806318160ddd1461034657806323b872dd1461036d57806326232a2e146103b05780632a55205a146103c5576101ee565b806301ffc9a7146101f357806306fdde031461023b578063081812fc146102c5578063095ea7b31461030b575b600080fd5b3480156101ff57600080fd5b506102276004803603602081101561021657600080fd5b50356001600160e01b031916610962565b604080519115158252519081900360200190f35b34801561024757600080fd5b50610250610975565b6040805160208082528351818301528351919283929083019185019080838360005b8381101561028a578181015183820152602001610272565b50505050905090810190601f1680156102b75780820380516001836020036101000a031916815260200191505b509250505060405180910390f35b3480156102d157600080fd5b506102ef600480360360208110156102e857600080fd5b5035610a0b565b604080516001600160a01b039092168252519081900360200190f35b34801561031757600080fd5b506103446004803603604081101561032e57600080fd5b506001600160a01b038135169060200135610a6d565b005b34801561035257600080fd5b5061035b610b48565b60408051918252519081900360200190f35b34801561037957600080fd5b506103446004803603606081101561039057600080fd5b506001600160a01b03813581169160208101359091169060400135610b59565b3480156103bc57600080fd5b5061035b610bb0565b3480156103d157600080fd5b506103f5600480360360408110156103e857600080fd5b5080359060200135610bb6565b604080516001600160a01b03909316835260208301919091528051918290030190f35b34801561042457600080fd5b5061035b6004803603604081101561043b57600080fd5b506001600160a01b038135169060200135610c79565b34801561045d57600080fd5b506102ef610ca4565b34801561047257600080fd5b5061035b610cb3565b34801561048757600080fd5b506103446004803603606081101561049e57600080fd5b506001600160a01b03813581169160208101359091169060400135610cb9565b3480156104ca57600080fd5b50610344600480360360208110156104e157600080fd5b5035610cd4565b3480156104f457600080fd5b506103446004803603604081101561050b57600080fd5b5080356001600160a01b0316906020013561ffff16610d86565b34801561053157600080fd5b506102276004803603602081101561054857600080fd5b5035610d98565b34801561055b57600080fd5b5061035b6004803603602081101561057257600080fd5b5035610da3565b34801561058557600080fd5b506102276004803603604081101561059c57600080fd5b50803590602001356001600160a01b0316610db9565b3480156105be57600080fd5b506102ef600480360360208110156105d557600080fd5b5035610df7565b3480156105e857600080fd5b50610250610e1f565b3480156105fd57600080fd5b5061035b6004803603602081101561061457600080fd5b50356001600160a01b0316610e80565b34801561063057600080fd5b50610344610ee8565b34801561064557600080fd5b506103446004803603606081101561065c57600080fd5b5080359060208101356001600160a01b0316906040013561ffff16610f94565b34801561068857600080fd5b506102ef610fa3565b34801561069d57600080fd5b50610250610fb2565b3480156106b257600080fd5b50610344600480360360408110156106c957600080fd5b506001600160a01b0381351690602001351515611013565b3480156106ed57600080fd5b506103446004803603602081101561070457600080fd5b5035611118565b34801561071757600080fd5b506103446004803603608081101561072e57600080fd5b6001600160a01b0382358116926020810135909116916040820135919081019060808101606082013564010000000081111561076957600080fd5b82018360208201111561077b57600080fd5b8035906020019184600183028401116401000000008311171561079d57600080fd5b91908080601f0160208091040260200160405190810160405280939291908181526020018383808284376000920191909152509295506111b5945050505050565b3480156107ea57600080fd5b506102506004803603602081101561080157600080fd5b5035611213565b34801561081457600080fd5b506102ef6004803603602081101561082b57600080fd5b5035611496565b61035b6004803603608081101561084857600080fd5b6001600160a01b03823516919081019060408101602082013564010000000081111561087357600080fd5b82018360208201111561088557600080fd5b803590602001918460018302840111640100000000831117156108a757600080fd5b91935091506001600160a01b0381351690602001356114b1565b3480156108cd57600080fd5b50610227600480360360408110156108e457600080fd5b506001600160a01b038135811691602001351661168a565b34801561090857600080fd5b506103446004803603602081101561091f57600080fd5b50356001600160a01b03166116b8565b34801561093b57600080fd5b506103446004803603602081101561095257600080fd5b50356001600160a01b03166117bb565b600061096d82611871565b90505b919050565b60068054604080516020601f6002600019610100600188161502019095169490940493840181900481028201810190925282815260609390929091830182828015610a015780601f106109d657610100808354040283529160200191610a01565b820191906000526020600020905b8154815290600101906020018083116109e457829003601f168201915b5050505050905090565b6000610a16826118b1565b610a515760405162461bcd60e51b815260040180806020018281038252602c815260200180612c22602c913960400191505060405180910390fd5b506000908152600460205260409020546001600160a01b031690565b6000610a7882610df7565b9050806001600160a01b0316836001600160a01b03161415610acb5760405162461bcd60e51b8152600401808060200182810382526021815260200180612cf26021913960400191505060405180910390fd5b806001600160a01b0316610add6118be565b6001600160a01b03161480610afe5750610afe81610af96118be565b61168a565b610b395760405162461bcd60e51b8152600401808060200182810382526038815260200180612b756038913960400191505060405180910390fd5b610b4383836118c2565b505050565b6000610b546002611930565b905090565b610b6a610b646118be565b8261193b565b610ba55760405162461bcd60e51b8152600401808060200182810382526031815260200180612d136031913960400191505060405180910390fd5b610b438383836119df565b600e5481565b600080610bc1612993565b506000848152600a60209081526040918290208251808401909352546001600160a01b038116808452600160a01b90910462ffffff1691830191909152610c5a575060008052600a6020908152604080518082019091527f13da86008ba1c6922daee3e07db95305ef49ebced9f5467a0b8613fcc6b343e3546001600160a01b0381168252600160a01b900462ffffff16918101919091525b8051602090910151909561271062ffffff909216949094020493505050565b6001600160a01b0382166000908152600160205260408120610c9b9083611b2b565b90505b92915050565b600f546001600160a01b031681565b600c5481565b610b43838383604051806020016040528060008152506111b5565b6000610cde6118be565b9050806001600160a01b0316610cf383610df7565b6001600160a01b03161480610d0d5750610d0d8282610db9565b610d5e576040805162461bcd60e51b815260206004820152601e60248201527f4f6e6c79206761726d656e74206f776e6572206f7220617070726f7665640000604482015290519081900360640190fd5b610d6782611b37565b506000908152600d6020526040902080546001600160a01b0319169055565b610d94828261ffff16611c04565b5050565b600061096d826118b1565b600080610db1600284611ccd565b509392505050565b6000610dcd610dc784610df7565b8361168a565b80610c9b5750816001600160a01b0316610de684610a0b565b6001600160a01b0316149392505050565b600061096d82604051806060016040528060298152602001612bd76029913960029190611ce9565b60098054604080516020601f6002600019610100600188161502019095169490940493840181900481028201810190925282815260609390929091830182828015610a015780601f106109d657610100808354040283529160200191610a01565b60006001600160a01b038216610ec75760405162461bcd60e51b815260040180806020018281038252602a815260200180612bad602a913960400191505060405180910390fd5b6001600160a01b038216600090815260016020526040902061096d90611930565b610ef06118be565b6001600160a01b0316610f01610fa3565b6001600160a01b031614610f4a576040805162461bcd60e51b81526020600482018190526024820152600080516020612c7a833981519152604482015290519081900360640190fd5b600b546040516000916001600160a01b0316907f8be0079c531659141344cd1fd0a4f28419497f9722a3daafe3b4186f6b6457e0908390a3600b80546001600160a01b0319169055565b610b4383838361ffff16611d00565b600b546001600160a01b031690565b60078054604080516020601f6002600019610100600188161502019095169490940493840181900481028201810190925282815260609390929091830182828015610a015780601f106109d657610100808354040283529160200191610a01565b61101b6118be565b6001600160a01b0316826001600160a01b03161415611081576040805162461bcd60e51b815260206004820152601960248201527f4552433732313a20617070726f766520746f2063616c6c657200000000000000604482015290519081900360640190fd5b806005600061108e6118be565b6001600160a01b03908116825260208083019390935260409182016000908120918716808252919093529120805460ff1916921515929092179091556110d26118be565b6001600160a01b03167f17307eab39ab6107e8899845ad3d59bd9653f200f220920489ca2b5937696c318360405180821515815260200191505060405180910390a35050565b6111206118be565b6001600160a01b0316611131610fa3565b6001600160a01b03161461117a576040805162461bcd60e51b81526020600482018190526024820152600080516020612c7a833981519152604482015290519081900360640190fd5b600e8190556040805182815290517f2644fd26359c107ff7991b6dfc36ce902b334ce4e3891bbecacc5922aa620efa9181900360200190a150565b6111c66111c06118be565b8361193b565b6112015760405162461bcd60e51b8152600401808060200182810382526031815260200180612d136031913960400191505060405180910390fd5b61120d84848484611daa565b50505050565b606061121e826118b1565b6112595760405162461bcd60e51b815260040180806020018281038252602f815260200180612cc3602f913960400191505060405180910390fd5b60008281526008602090815260409182902080548351601f60026000196101006001861615020190931692909204918201849004840281018401909452808452606093928301828280156112ee5780601f106112c3576101008083540402835291602001916112ee565b820191906000526020600020905b8154815290600101906020018083116112d157829003601f168201915b5050505050905060606112ff610e1f565b905080516000141561131357509050610970565b8151156113d45780826040516020018083805190602001908083835b6020831061134e5780518252601f19909201916020918201910161132f565b51815160209384036101000a600019018019909216911617905285519190930192850191508083835b602083106113965780518252601f199092019160209182019101611377565b6001836020036101000a0380198251168184511680821785525050505050509050019250505060405160208183030381529060405292505050610970565b806113de85611dfc565b6040516020018083805190602001908083835b602083106114105780518252601f1990920191602091820191016113f1565b51815160209384036101000a600019018019909216911617905285519190930192850191508083835b602083106114585780518252601f199092019160209182019101611439565b6001836020036101000a0380198251168184511680821785525050505050509050019250505060405160208183030381529060405292505050919050565b600d602052600090815260409020546001600160a01b031681565b6000600e5434101561150a576040805162461bcd60e51b815260206004820152601b60248201527f496e73756666696369656e742066756e647320746f206d696e742e0000000000604482015290519081900360640190fd5b61151c85856115176118be565b611ed7565b600c5461152a906001611f58565b600c8190556115398782611fb2565b6115798187878080601f016020809104026020016040519081016040528093929190818152602001838380828437600092019190915250611fcc92505050565b821561158a5761158a818585611d00565b600f546040516001600160a01b03909116903480156108fc02916000818181858888f193505050501580156115c3573d6000803e3d6000fd5b506115cc6118be565b6000828152600d6020526040902080546001600160a01b0319166001600160a01b03929092169190911790557f997115af5924f5e38964c6d65c804d4cb85129b65e62eb20a8ca6329dbe57e18818888886116256118be565b604080518681526001600160a01b0380871660208301528316606082015260809181018281529181018490529060a08201858580828437600083820152604051601f909101601f19169092018290039850909650505050505050a19695505050505050565b6001600160a01b03918216600090815260056020908152604080832093909416825291909152205460ff1690565b6116c06118be565b6001600160a01b03166116d1610fa3565b6001600160a01b03161461171a576040805162461bcd60e51b81526020600482018190526024820152600080516020612c7a833981519152604482015290519081900360640190fd5b6001600160a01b03811661175f5760405162461bcd60e51b8152600401808060200182810382526026815260200180612ad96026913960400191505060405180910390fd5b600b546040516001600160a01b038084169216907f8be0079c531659141344cd1fd0a4f28419497f9722a3daafe3b4186f6b6457e090600090a3600b80546001600160a01b0319166001600160a01b0392909216919091179055565b6117c36118be565b6001600160a01b03166117d4610fa3565b6001600160a01b03161461181d576040805162461bcd60e51b81526020600482018190526024820152600080516020612c7a833981519152604482015290519081900360640190fd5b600f80546001600160a01b0383166001600160a01b0319909116811790915560408051918252517fe57e7c1f36cc83fade34e32351e6eee7eb9da532662b1b5da10c631e8222aca79181900360200190a150565b60006001600160e01b0319821663152a902d60e11b14806118a257506001600160e01b03198216631df54d3560e11b145b8061096d575061096d8261202f565b600061096d60028361204e565b3390565b600081815260046020526040902080546001600160a01b0319166001600160a01b03841690811790915581906118f782610df7565b6001600160a01b03167f8c5be1e5ebec7d5bd14f71427d1e84f3dd0314c0f7b2291e5b200ac8c7c3b92560405160405180910390a45050565b600061096d8261205a565b6000611946826118b1565b6119815760405162461bcd60e51b815260040180806020018281038252602c815260200180612b49602c913960400191505060405180910390fd5b600061198c83610df7565b9050806001600160a01b0316846001600160a01b031614806119c75750836001600160a01b03166119bc84610a0b565b6001600160a01b0316145b806119d757506119d7818561168a565b949350505050565b826001600160a01b03166119f282610df7565b6001600160a01b031614611a375760405162461bcd60e51b8152600401808060200182810382526029815260200180612c9a6029913960400191505060405180910390fd5b6001600160a01b038216611a7c5760405162461bcd60e51b8152600401808060200182810382526024815260200180612aff6024913960400191505060405180910390fd5b611a87838383610b43565b611a926000826118c2565b6001600160a01b0383166000908152600160205260409020611ab4908261205e565b506001600160a01b0382166000908152600160205260409020611ad7908261206a565b50611ae460028284612076565b5080826001600160a01b0316846001600160a01b03167fddf252ad1be2c89b69c2b068fc378daa952ba7f163c4a11628f55a4df523b3ef60405160405180910390a4505050565b6000610c9b838361208c565b6000611b4282610df7565b9050611b5081600084610b43565b611b5b6000836118c2565b6000828152600860205260409020546002600019610100600184161502019091160415611b99576000828152600860205260408120611b99916129aa565b6001600160a01b0381166000908152600160205260409020611bbb908361205e565b50611bc76002836120f0565b5060405182906000906001600160a01b038416907fddf252ad1be2c89b69c2b068fc378daa952ba7f163c4a11628f55a4df523b3ef908390a45050565b612710811115611c4f576040805162461bcd60e51b81526020600482015260116024820152700a4def2c2d8e8f27440a8dede40d0d2ced607b1b604482015290519081900360640190fd5b604080518082019091526001600160a01b03928316815262ffffff918216602080830191825260008052600a905290517f13da86008ba1c6922daee3e07db95305ef49ebced9f5467a0b8613fcc6b343e3805492516001600160a01b0319909316919094161762ffffff60a01b1916600160a01b9190921602179055565b6000808080611cdc86866120fc565b9097909650945050505050565b6000611cf6848484612177565b90505b9392505050565b612710811115611d4a576040805162461bcd60e51b815260206004820152601060248201526f0a4def2c2d8e8f240a8dede40d0d2ced60831b604482015290519081900360640190fd5b6040805180820182526001600160a01b03938416815262ffffff92831660208083019182526000968752600a905291909420935184549151909216600160a01b0262ffffff60a01b19929093166001600160a01b03199091161716179055565b611db58484846119df565b611dc184848484612241565b61120d5760405162461bcd60e51b8152600401808060200182810382526032815260200180612aa76032913960400191505060405180910390fd5b606081611e2157506040805180820190915260018152600360fc1b6020820152610970565b8160005b8115611e3957600101600a82049150611e25565b60608167ffffffffffffffff81118015611e5257600080fd5b506040519080825280601f01601f191660200182016040528015611e7d576020820181803683370190505b50859350905060001982015b8315611ece57600a840660300160f81b82828060019003935081518110611eac57fe5b60200101906001600160f81b031916908160001a905350600a84049350611e89565b50949350505050565b81611f135760405162461bcd60e51b815260040180806020018281038252602d815260200180612d44602d913960400191505060405180910390fd5b6001600160a01b038116610b435760405162461bcd60e51b8152600401808060200182810382526033815260200180612d716033913960400191505060405180910390fd5b600082820183811015610c9b576040805162461bcd60e51b815260206004820152601b60248201527f536166654d6174683a206164646974696f6e206f766572666c6f770000000000604482015290519081900360640190fd5b610d948282604051806020016040528060008152506123a9565b611fd5826118b1565b6120105760405162461bcd60e51b815260040180806020018281038252602c815260200180612c4e602c913960400191505060405180910390fd5b60008281526008602090815260409091208251610b43928401906129f1565b6001600160e01b03191660009081526020819052604090205460ff1690565b6000610c9b83836123fb565b5490565b6000610c9b8383612413565b6000610c9b83836124d9565b6000611cf684846001600160a01b038516612523565b815460009082106120ce5760405162461bcd60e51b8152600401808060200182810382526022815260200180612a856022913960400191505060405180910390fd5b8260000182815481106120dd57fe5b9060005260206000200154905092915050565b6000610c9b83836125ba565b8154600090819083106121405760405162461bcd60e51b8152600401808060200182810382526022815260200180612c006022913960400191505060405180910390fd5b600084600001848154811061215157fe5b906000526020600020906002020190508060000154816001015492509250509250929050565b600082815260018401602052604081205482816122125760405162461bcd60e51b81526004018080602001828103825283818151815260200191508051906020019080838360005b838110156121d75781810151838201526020016121bf565b50505050905090810190601f1680156122045780820380516001836020036101000a031916815260200191505b509250505060405180910390fd5b5084600001600182038154811061222557fe5b9060005260206000209060020201600101549150509392505050565b6000612255846001600160a01b031661268e565b612261575060016119d7565b606061236f630a85bd0160e11b6122766118be565b88878760405160240180856001600160a01b03168152602001846001600160a01b0316815260200183815260200180602001828103825283818151815260200191508051906020019080838360005b838110156122dd5781810151838201526020016122c5565b50505050905090810190601f16801561230a5780820380516001836020036101000a031916815260200191505b5095505050505050604051602081830303815290604052906001600160e01b0319166020820180516001600160e01b038381831617835250505050604051806060016040528060328152602001612aa7603291396001600160a01b0388169190612694565b9050600081806020019051602081101561238857600080fd5b50516001600160e01b031916630a85bd0160e11b1492505050949350505050565b6123b383836126a3565b6123c06000848484612241565b610b435760405162461bcd60e51b8152600401808060200182810382526032815260200180612aa76032913960400191505060405180910390fd5b60009081526001919091016020526040902054151590565b600081815260018301602052604081205480156124cf578354600019808301919081019060009087908390811061244657fe5b906000526020600020015490508087600001848154811061246357fe5b60009182526020808320909101929092558281526001898101909252604090209084019055865487908061249357fe5b60019003818190600052602060002001600090559055866001016000878152602001908152602001600020600090556001945050505050610c9e565b6000915050610c9e565b60006124e583836123fb565b61251b57508154600181810184556000848152602080822090930184905584548482528286019093526040902091909155610c9e565b506000610c9e565b600082815260018401602052604081205480612588575050604080518082018252838152602080820184815286546001818101895560008981528481209551600290930290950191825591519082015586548684528188019092529290912055611cf9565b8285600001600183038154811061259b57fe5b9060005260206000209060020201600101819055506000915050611cf9565b600081815260018301602052604081205480156124cf57835460001980830191908101906000908790839081106125ed57fe5b906000526020600020906002020190508087600001848154811061260d57fe5b60009182526020808320845460029093020191825560019384015491840191909155835482528983019052604090209084019055865487908061264c57fe5b6000828152602080822060026000199094019384020182815560019081018390559290935588815289820190925260408220919091559450610c9e9350505050565b3b151590565b6060611cf684846000856127d1565b6001600160a01b0382166126fe576040805162461bcd60e51b815260206004820181905260248201527f4552433732313a206d696e7420746f20746865207a65726f2061646472657373604482015290519081900360640190fd5b612707816118b1565b15612759576040805162461bcd60e51b815260206004820152601c60248201527f4552433732313a20746f6b656e20616c7265616479206d696e74656400000000604482015290519081900360640190fd5b61276560008383610b43565b6001600160a01b0382166000908152600160205260409020612787908261206a565b5061279460028284612076565b5060405181906001600160a01b038416906000907fddf252ad1be2c89b69c2b068fc378daa952ba7f163c4a11628f55a4df523b3ef908290a45050565b6060824710156128125760405162461bcd60e51b8152600401808060200182810382526026815260200180612b236026913960400191505060405180910390fd5b61281b8561268e565b61286c576040805162461bcd60e51b815260206004820152601d60248201527f416464726573733a2063616c6c20746f206e6f6e2d636f6e7472616374000000604482015290519081900360640190fd5b60006060866001600160a01b031685876040518082805190602001908083835b602083106128ab5780518252601f19909201916020918201910161288c565b6001836020036101000a03801982511681845116808217855250505050505090500191505060006040518083038185875af1925050503d806000811461290d576040519150601f19603f3d011682016040523d82523d6000602084013e612912565b606091505b509150915061292282828661292d565b979650505050505050565b6060831561293c575081611cf9565b82511561294c5782518084602001fd5b60405162461bcd60e51b81526020600482018181528451602484015284518593919283926044019190850190808383600083156121d75781810151838201526020016121bf565b604080518082019091526000808252602082015290565b50805460018160011615610100020316600290046000825580601f106129d057506129ee565b601f0160209004906000526020600020908101906129ee9190612a6f565b50565b828054600181600116156101000203166002900490600052602060002090601f016020900481019282601f10612a3257805160ff1916838001178555612a5f565b82800160010185558215612a5f579182015b82811115612a5f578251825591602001919060010190612a44565b50612a6b929150612a6f565b5090565b5b80821115612a6b5760008155600101612a7056fe456e756d657261626c655365743a20696e646578206f7574206f6620626f756e64734552433732313a207472616e7366657220746f206e6f6e20455243373231526563656976657220696d706c656d656e7465724f776e61626c653a206e6577206f776e657220697320746865207a65726f20616464726573734552433732313a207472616e7366657220746f20746865207a65726f2061646472657373416464726573733a20696e73756666696369656e742062616c616e636520666f722063616c6c4552433732313a206f70657261746f7220717565727920666f72206e6f6e6578697374656e7420746f6b656e4552433732313a20617070726f76652063616c6c6572206973206e6f74206f776e6572206e6f7220617070726f76656420666f7220616c6c4552433732313a2062616c616e636520717565727920666f7220746865207a65726f20616464726573734552433732313a206f776e657220717565727920666f72206e6f6e6578697374656e7420746f6b656e456e756d657261626c654d61703a20696e646578206f7574206f6620626f756e64734552433732313a20617070726f76656420717565727920666f72206e6f6e6578697374656e7420746f6b656e4552433732314d657461646174613a2055524920736574206f66206e6f6e6578697374656e7420746f6b656e4f776e61626c653a2063616c6c6572206973206e6f7420746865206f776e65724552433732313a207472616e73666572206f6620746f6b656e2074686174206973206e6f74206f776e4552433732314d657461646174613a2055524920717565727920666f72206e6f6e6578697374656e7420746f6b656e4552433732313a20617070726f76616c20746f2063757272656e74206f776e65724552433732313a207472616e736665722063616c6c6572206973206e6f74206f776e6572206e6f7220617070726f7665645f6173736572744d696e74696e67506172616d7356616c69643a20546f6b656e2055524920697320656d7074795f6173736572744d696e74696e67506172616d7356616c69643a2044657369676e6572206973207a65726f2061646472657373a2646970667358221220ebc1abcfa37918663de617cf23ef3463240aed1cdc2e6acf5026dfd6e9c2fd2f64736f6c634300060c0033",
  "linkReferences": {},
  "deployedLinkReferences": {}
}