{
  "_format": "hh-sol-artifact-1",
  "contractName": "TradingRewardsDistributor",
  "sourceName": "contracts/Rewards/TradingRewardsDistributor.sol",
  "abi": [
    {
      "inputs": [
        {
          "internalType": "address",
          "name": "_tenartToken",
          "type": "address"
        }
      ],
      "stateMutability": "nonpayable",
      "type": "constructor"
    },
    {
      "anonymous": false,
      "inputs": [
        {
          "indexed": true,
          "internalType": "address",
          "name": "previousOwner",
          "type": "address"
        },
        {
          "indexed": true,
          "internalType": "address",
          "name": "newOwner",
          "type": "address"
        }
      ],
      "name": "OwnershipTransferred",
      "type": "event"
    },
    {
      "anonymous": false,
      "inputs": [
        {
          "indexed": false,
          "internalType": "address",
          "name": "account",
          "type": "address"
        }
      ],
      "name": "Paused",
      "type": "event"
    },
    {
      "anonymous": false,
      "inputs": [
        {
          "indexed": true,
          "internalType": "address",
          "name": "user",
          "type": "address"
        },
        {
          "indexed": true,
          "internalType": "uint256",
          "name": "rewardRound",
          "type": "uint256"
        },
        {
          "indexed": false,
          "internalType": "uint256",
          "name": "amount",
          "type": "uint256"
        }
      ],
      "name": "RewardsClaim",
      "type": "event"
    },
    {
      "anonymous": false,
      "inputs": [
        {
          "indexed": false,
          "internalType": "uint256",
          "name": "amount",
          "type": "uint256"
        }
      ],
      "name": "TokenWithdrawnOwner",
      "type": "event"
    },
    {
      "anonymous": false,
      "inputs": [
        {
          "indexed": false,
          "internalType": "address",
          "name": "account",
          "type": "address"
        }
      ],
      "name": "Unpaused",
      "type": "event"
    },
    {
      "anonymous": false,
      "inputs": [
        {
          "indexed": true,
          "internalType": "uint256",
          "name": "rewardRound",
          "type": "uint256"
        }
      ],
      "name": "UpdateTradingRewards",
      "type": "event"
    },
    {
      "inputs": [],
      "name": "BUFFER_ADMIN_WITHDRAW",
      "outputs": [
        {
          "internalType": "uint256",
          "name": "",
          "type": "uint256"
        }
      ],
      "stateMutability": "view",
      "type": "function"
    },
    {
      "inputs": [
        {
          "internalType": "address",
          "name": "",
          "type": "address"
        }
      ],
      "name": "amountClaimedByUser",
      "outputs": [
        {
          "internalType": "uint256",
          "name": "",
          "type": "uint256"
        }
      ],
      "stateMutability": "view",
      "type": "function"
    },
    {
      "inputs": [
        {
          "internalType": "address",
          "name": "user",
          "type": "address"
        },
        {
          "internalType": "uint256",
          "name": "amount",
          "type": "uint256"
        },
        {
          "internalType": "bytes32[]",
          "name": "merkleProof",
          "type": "bytes32[]"
        }
      ],
      "name": "canClaim",
      "outputs": [
        {
          "internalType": "bool",
          "name": "",
          "type": "bool"
        },
        {
          "internalType": "uint256",
          "name": "",
          "type": "uint256"
        }
      ],
      "stateMutability": "view",
      "type": "function"
    },
    {
      "inputs": [
        {
          "internalType": "uint256",
          "name": "amount",
          "type": "uint256"
        },
        {
          "internalType": "bytes32[]",
          "name": "merkleProof",
          "type": "bytes32[]"
        }
      ],
      "name": "claim",
      "outputs": [],
      "stateMutability": "nonpayable",
      "type": "function"
    },
    {
      "inputs": [],
      "name": "currentRewardRound",
      "outputs": [
        {
          "internalType": "uint256",
          "name": "",
          "type": "uint256"
        }
      ],
      "stateMutability": "view",
      "type": "function"
    },
    {
      "inputs": [
        {
          "internalType": "uint256",
          "name": "",
          "type": "uint256"
        },
        {
          "internalType": "address",
          "name": "",
          "type": "address"
        }
      ],
      "name": "hasUserClaimedForRewardRound",
      "outputs": [
        {
          "internalType": "bool",
          "name": "",
          "type": "bool"
        }
      ],
      "stateMutability": "view",
      "type": "function"
    },
    {
      "inputs": [],
      "name": "lastPausedTimestamp",
      "outputs": [
        {
          "internalType": "uint256",
          "name": "",
          "type": "uint256"
        }
      ],
      "stateMutability": "view",
      "type": "function"
    },
    {
      "inputs": [],
      "name": "maximumAmountPerUserInCurrentTree",
      "outputs": [
        {
          "internalType": "uint256",
          "name": "",
          "type": "uint256"
        }
      ],
      "stateMutability": "view",
      "type": "function"
    },
    {
      "inputs": [
        {
          "internalType": "uint256",
          "name": "",
          "type": "uint256"
        }
      ],
      "name": "merkleRootOfRewardRound",
      "outputs": [
        {
          "internalType": "bytes32",
          "name": "",
          "type": "bytes32"
        }
      ],
      "stateMutability": "view",
      "type": "function"
    },
    {
      "inputs": [
        {
          "internalType": "bytes32",
          "name": "",
          "type": "bytes32"
        }
      ],
      "name": "merkleRootUsed",
      "outputs": [
        {
          "internalType": "bool",
          "name": "",
          "type": "bool"
        }
      ],
      "stateMutability": "view",
      "type": "function"
    },
    {
      "inputs": [],
      "name": "owner",
      "outputs": [
        {
          "internalType": "address",
          "name": "",
          "type": "address"
        }
      ],
      "stateMutability": "view",
      "type": "function"
    },
    {
      "inputs": [],
      "name": "pauseDistribution",
      "outputs": [],
      "stateMutability": "nonpayable",
      "type": "function"
    },
    {
      "inputs": [],
      "name": "paused",
      "outputs": [
        {
          "internalType": "bool",
          "name": "",
          "type": "bool"
        }
      ],
      "stateMutability": "view",
      "type": "function"
    },
    {
      "inputs": [],
      "name": "renounceOwnership",
      "outputs": [],
      "stateMutability": "nonpayable",
      "type": "function"
    },
    {
      "inputs": [],
      "name": "tenartToken",
      "outputs": [
        {
          "internalType": "contract IERC20",
          "name": "",
          "type": "address"
        }
      ],
      "stateMutability": "view",
      "type": "function"
    },
    {
      "inputs": [
        {
          "internalType": "address",
          "name": "newOwner",
          "type": "address"
        }
      ],
      "name": "transferOwnership",
      "outputs": [],
      "stateMutability": "nonpayable",
      "type": "function"
    },
    {
      "inputs": [],
      "name": "unpauseDistribution",
      "outputs": [],
      "stateMutability": "nonpayable",
      "type": "function"
    },
    {
      "inputs": [
        {
          "internalType": "bytes32",
          "name": "merkleRoot",
          "type": "bytes32"
        },
        {
          "internalType": "uint256",
          "name": "newMaximumAmountPerUser",
          "type": "uint256"
        }
      ],
      "name": "updateTradingRewards",
      "outputs": [],
      "stateMutability": "nonpayable",
      "type": "function"
    },
    {
      "inputs": [
        {
          "internalType": "uint256",
          "name": "amount",
          "type": "uint256"
        }
      ],
      "name": "withdrawTokenRewards",
      "outputs": [],
      "stateMutability": "nonpayable",
      "type": "function"
    }
  ],
  "bytecode": "0x60a060405234801561001057600080fd5b506040516200152d3803806200152d8339818101604052602081101561003557600080fd5b50516000805460ff191681556001805561004d6100bb565b600280546001600160a01b0319166001600160a01b038316908117909155604051919250906000907f8be0079c531659141344cd1fd0a4f28419497f9722a3daafe3b4186f6b6457e0908290a3506001600160601b0319606082901b166080526100b56100bf565b50610168565b3390565b6100c761015f565b1561010c576040805162461bcd60e51b815260206004820152601060248201526f14185d5cd8589b194e881c185d5cd95960821b604482015290519081900360640190fd5b6000805460ff191660011790557f62e78cea01bee320cd4e420270b5ea74000d11b0c9f74754ebdbfc544b05a2586101426100bb565b604080516001600160a01b039092168252519081900360200190a1565b60005460ff1690565b60805160601c61139d62000190600039806105de52806107d75280610a54525061139d6000f3fe608060405234801561001057600080fd5b50600436106101215760003560e01c8063847fadca116100ad578063ba42590d11610071578063ba42590d146102d0578063dc38bdb5146102ed578063f2fde38b1461038d578063fa461974146103b3578063ff0a4eb0146103bb57610121565b8063847fadca146102545780638923e2f7146102775780638da5cb5b146102945780639ea76f341461029c578063b94ec9d0146102c857610121565b80633b66f49d116100f45780633b66f49d146101c95780635c975abb146101ef578063715018a61461020b57806383b42e201461021357806384483c861461023757610121565b80631040faf914610126578063141fd8c8146101405780632f52ebb71461014857806331cec7a3146101c1575b600080fd5b61012e6103c3565b60408051918252519081900360200190f35b61012e6103c9565b6101bf6004803603604081101561015e57600080fd5b8135919081019060408101602082013564010000000081111561018057600080fd5b82018360208201111561019257600080fd5b803590602001918460208302840111640100000000831117156101b457600080fd5b5090925090506103d0565b005b6101bf610651565b61012e600480360360208110156101df57600080fd5b50356001600160a01b031661070e565b6101f7610720565b604080519115158252519081900360200190f35b6101bf610729565b61021b6107d5565b604080516001600160a01b039092168252519081900360200190f35b61012e6004803603602081101561024d57600080fd5b50356107f9565b6101bf6004803603604081101561026a57600080fd5b508035906020013561080b565b6101bf6004803603602081101561028d57600080fd5b503561093a565b61021b610ab1565b6101f7600480360360408110156102b257600080fd5b50803590602001356001600160a01b0316610ac0565b6101bf610ae0565b6101f7600480360360208110156102e657600080fd5b5035610b9a565b6103726004803603606081101561030357600080fd5b6001600160a01b038235169160208101359181019060608101604082013564010000000081111561033357600080fd5b82018360208201111561034557600080fd5b8035906020019184602083028401116401000000008311171561036757600080fd5b509092509050610baf565b60408051921515835260208301919091528051918290030190f35b6101bf600480360360208110156103a357600080fd5b50356001600160a01b0316610bcc565b61012e610ccf565b61012e610cd5565b60035481565b6203f48081565b6103d8610720565b1561041d576040805162461bcd60e51b815260206004820152601060248201526f14185d5cd8589b194e881c185d5cd95960821b604482015290519081900360640190fd5b60026001541415610475576040805162461bcd60e51b815260206004820152601f60248201527f5265656e7472616e637947756172643a207265656e7472616e742063616c6c00604482015290519081900360640190fd5b6002600155600354600090815260096020908152604080832033845290915290205460ff16156104ec576040805162461bcd60e51b815260206004820152601860248201527f526577617264733a20416c726561647920636c61696d65640000000000000000604482015290519081900360640190fd5b6000806104fb33868686610cdb565b915091508161054a576040805162461bcd60e51b81526020600482015260166024820152752932bbb0b932399d1024b73b30b634b210383937b7b360511b604482015290519081900360640190fd5b8460055410156105a1576040805162461bcd60e51b815260206004820152601f60248201527f526577617264733a20416d6f756e7420686967686572207468616e206d617800604482015290519081900360640190fd5b600354600090815260096020908152604080832033808552908352818420805460ff19166001179055600690925290912080548301905561060d907f00000000000000000000000000000000000000000000000000000000000000006001600160a01b03169083610dda565b60035460408051838152905133917fe8dbd8c18906df11a70832fe7c874d1fddf6952cee2320658d66925618387999919081900360200190a3505060018055505050565b610659610e31565b6001600160a01b031661066a610ab1565b6001600160a01b0316146106b3576040805162461bcd60e51b8152602060048201819052602482015260008051602061131e833981519152604482015290519081900360640190fd5b6106bb610720565b15610700576040805162461bcd60e51b815260206004820152601060248201526f14185d5cd8589b194e881c185d5cd95960821b604482015290519081900360640190fd5b4260045561070c610e35565b565b60066020526000908152604090205481565b60005460ff1690565b610731610e31565b6001600160a01b0316610742610ab1565b6001600160a01b03161461078b576040805162461bcd60e51b8152602060048201819052602482015260008051602061131e833981519152604482015290519081900360640190fd5b6002546040516000916001600160a01b0316907f8be0079c531659141344cd1fd0a4f28419497f9722a3daafe3b4186f6b6457e0908390a3600280546001600160a01b0319169055565b7f000000000000000000000000000000000000000000000000000000000000000081565b60076020526000908152604090205481565b610813610e31565b6001600160a01b0316610824610ab1565b6001600160a01b03161461086d576040805162461bcd60e51b8152602060048201819052602482015260008051602061131e833981519152604482015290519081900360640190fd5b60008281526008602052604090205460ff16156108d1576040805162461bcd60e51b815260206004820152601f60248201527f4f776e65723a204d65726b6c6520726f6f7420616c7265616479207573656400604482015290519081900360640190fd5b60038054600190810180835560009081526007602090815260408083208790558683526008909152808220805460ff191690931790925560058490559154905190917f0b1d6b49e69d133866d064a73f0181e1e35aa94fde3ef0095587d7ebd0423caa91a25050565b610942610e31565b6001600160a01b0316610953610ab1565b6001600160a01b03161461099c576040805162461bcd60e51b8152602060048201819052602482015260008051602061131e833981519152604482015290519081900360640190fd5b6109a4610720565b6109ec576040805162461bcd60e51b815260206004820152601460248201527314185d5cd8589b194e881b9bdd081c185d5cd95960621b604482015290519081900360640190fd5b6203f480600454014211610a47576040805162461bcd60e51b815260206004820152601c60248201527f4f776e65723a20546f6f206561726c7920746f20776974686472617700000000604482015290519081900360640190fd5b610a7b6001600160a01b037f0000000000000000000000000000000000000000000000000000000000000000163383610dda565b6040805182815290517fb4cd5c4a08bbed33abfe773ece179d156730e39629e065b7dcd8263027387c1d9181900360200190a150565b6002546001600160a01b031690565b600960209081526000928352604080842090915290825290205460ff1681565b610ae8610e31565b6001600160a01b0316610af9610ab1565b6001600160a01b031614610b42576040805162461bcd60e51b8152602060048201819052602482015260008051602061131e833981519152604482015290519081900360640190fd5b610b4a610720565b610b92576040805162461bcd60e51b815260206004820152601460248201527314185d5cd8589b194e881b9bdd081c185d5cd95960621b604482015290519081900360640190fd5b61070c610ed5565b60086020526000908152604090205460ff1681565b600080610bbe86868686610cdb565b915091505b94509492505050565b610bd4610e31565b6001600160a01b0316610be5610ab1565b6001600160a01b031614610c2e576040805162461bcd60e51b8152602060048201819052602482015260008051602061131e833981519152604482015290519081900360640190fd5b6001600160a01b038116610c735760405162461bcd60e51b81526004018080602001828103825260268152602001806112d26026913960400191505060405180910390fd5b6002546040516001600160a01b038084169216907f8be0079c531659141344cd1fd0a4f28419497f9722a3daafe3b4186f6b6457e090600090a3600280546001600160a01b0319166001600160a01b0392909216919091179055565b60045481565b60055481565b6000806000868660405160200180836001600160a01b031660601b8152601401828152602001925050506040516020818303038152906040528051906020012090506000610d6c86868080602002602001604051908101604052809392919081815260200183836020028082843760009201829052506003548152600760205260409020549250869150610f589050565b9050801580610da0575060035460009081526009602090815260408083206001600160a01b038c16845290915290205460ff165b15610db357600080935093505050610bc3565b5050506001600160a01b038516600090815260066020526040902054600191508403610bc3565b604080516001600160a01b038416602482015260448082018490528251808303909101815260649091019091526020810180516001600160e01b031663a9059cbb60e01b179052610e2c908490611003565b505050565b3390565b610e3d610720565b15610e82576040805162461bcd60e51b815260206004820152601060248201526f14185d5cd8589b194e881c185d5cd95960821b604482015290519081900360640190fd5b6000805460ff191660011790557f62e78cea01bee320cd4e420270b5ea74000d11b0c9f74754ebdbfc544b05a258610eb8610e31565b604080516001600160a01b039092168252519081900360200190a1565b610edd610720565b610f25576040805162461bcd60e51b815260206004820152601460248201527314185d5cd8589b194e881b9bdd081c185d5cd95960621b604482015290519081900360640190fd5b6000805460ff191690557f5db9ee0a495bf2e6ff9c91a7834c1ba4fdd244a5e8aa4e537bd38aeae4b073aa610eb8610e31565b600081815b8551811015610ff6576000868281518110610f7457fe5b60200260200101519050808311610fbb5782816040516020018083815260200182815260200192505050604051602081830303815290604052805190602001209250610fed565b808360405160200180838152602001828152602001925050506040516020818303038152906040528051906020012092505b50600101610f5d565b50831490505b9392505050565b6060611058826040518060400160405280602081526020017f5361666545524332303a206c6f772d6c6576656c2063616c6c206661696c6564815250856001600160a01b03166110b49092919063ffffffff16565b805190915015610e2c5780806020019051602081101561107757600080fd5b5051610e2c5760405162461bcd60e51b815260040180806020018281038252602a81526020018061133e602a913960400191505060405180910390fd5b60606110c384846000856110cb565b949350505050565b60608247101561110c5760405162461bcd60e51b81526004018080602001828103825260268152602001806112f86026913960400191505060405180910390fd5b61111585611227565b611166576040805162461bcd60e51b815260206004820152601d60248201527f416464726573733a2063616c6c20746f206e6f6e2d636f6e7472616374000000604482015290519081900360640190fd5b60006060866001600160a01b031685876040518082805190602001908083835b602083106111a55780518252601f199092019160209182019101611186565b6001836020036101000a03801982511681845116808217855250505050505090500191505060006040518083038185875af1925050503d8060008114611207576040519150601f19603f3d011682016040523d82523d6000602084013e61120c565b606091505b509150915061121c82828661122d565b979650505050505050565b3b151590565b6060831561123c575081610ffc565b82511561124c5782518084602001fd5b8160405162461bcd60e51b81526004018080602001828103825283818151815260200191508051906020019080838360005b8381101561129657818101518382015260200161127e565b50505050905090810190601f1680156112c35780820380516001836020036101000a031916815260200191505b509250505060405180910390fdfe4f776e61626c653a206e6577206f776e657220697320746865207a65726f2061646472657373416464726573733a20696e73756666696369656e742062616c616e636520666f722063616c6c4f776e61626c653a2063616c6c6572206973206e6f7420746865206f776e65725361666545524332303a204552433230206f7065726174696f6e20646964206e6f742073756363656564a264697066735822122072fef495c78719405e750b7336402bcf527f2fed6bdbe3de36ab958d2c79ccba64736f6c634300060c0033",
  "linkReferences": {},
  "deployedLinkReferences": {}
}