{
  "_format": "hh-sol-artifact-1",
  "contractName": "TenartAuction",
  "sourceName": "contracts/TenartAuction.sol",
  "abi": [
    {
      "anonymous": false,
      "inputs": [
        {
          "indexed": true,
          "internalType": "address",
          "name": "nftAddress",
          "type": "address"
        },
        {
          "indexed": true,
          "internalType": "uint256",
          "name": "tokenId",
          "type": "uint256"
        }
      ],
      "name": "AuctionCancelled",
      "type": "event"
    },
    {
      "anonymous": false,
      "inputs": [
        {
          "indexed": true,
          "internalType": "address",
          "name": "nftAddress",
          "type": "address"
        },
        {
          "indexed": true,
          "internalType": "uint256",
          "name": "tokenId",
          "type": "uint256"
        },
        {
          "indexed": false,
          "internalType": "address",
          "name": "payToken",
          "type": "address"
        }
      ],
      "name": "AuctionCreated",
      "type": "event"
    },
    {
      "anonymous": false,
      "inputs": [
        {
          "indexed": false,
          "internalType": "address",
          "name": "oldOwner",
          "type": "address"
        },
        {
          "indexed": true,
          "internalType": "address",
          "name": "nftAddress",
          "type": "address"
        },
        {
          "indexed": true,
          "internalType": "uint256",
          "name": "tokenId",
          "type": "uint256"
        },
        {
          "indexed": true,
          "internalType": "address",
          "name": "winner",
          "type": "address"
        },
        {
          "indexed": false,
          "internalType": "address",
          "name": "payToken",
          "type": "address"
        },
        {
          "indexed": false,
          "internalType": "int256",
          "name": "unitPrice",
          "type": "int256"
        },
        {
          "indexed": false,
          "internalType": "uint256",
          "name": "winningBid",
          "type": "uint256"
        }
      ],
      "name": "AuctionResulted",
      "type": "event"
    },
    {
      "anonymous": false,
      "inputs": [
        {
          "indexed": true,
          "internalType": "address",
          "name": "nftAddress",
          "type": "address"
        },
        {
          "indexed": true,
          "internalType": "uint256",
          "name": "tokenId",
          "type": "uint256"
        },
        {
          "indexed": true,
          "internalType": "address",
          "name": "bidder",
          "type": "address"
        },
        {
          "indexed": false,
          "internalType": "uint256",
          "name": "bid",
          "type": "uint256"
        }
      ],
      "name": "BidPlaced",
      "type": "event"
    },
    {
      "anonymous": false,
      "inputs": [
        {
          "indexed": true,
          "internalType": "address",
          "name": "nftAddress",
          "type": "address"
        },
        {
          "indexed": true,
          "internalType": "uint256",
          "name": "tokenId",
          "type": "uint256"
        },
        {
          "indexed": true,
          "internalType": "address",
          "name": "bidder",
          "type": "address"
        },
        {
          "indexed": false,
          "internalType": "uint256",
          "name": "bid",
          "type": "uint256"
        }
      ],
      "name": "BidRefunded",
      "type": "event"
    },
    {
      "anonymous": false,
      "inputs": [
        {
          "indexed": true,
          "internalType": "address",
          "name": "nftAddress",
          "type": "address"
        },
        {
          "indexed": true,
          "internalType": "uint256",
          "name": "tokenId",
          "type": "uint256"
        },
        {
          "indexed": true,
          "internalType": "address",
          "name": "bidder",
          "type": "address"
        },
        {
          "indexed": false,
          "internalType": "uint256",
          "name": "bid",
          "type": "uint256"
        }
      ],
      "name": "BidWithdrawn",
      "type": "event"
    },
    {
      "anonymous": false,
      "inputs": [
        {
          "indexed": true,
          "internalType": "address",
          "name": "previousOwner",
          "type": "address"
        },
        {
          "indexed": true,
          "internalType": "address",
          "name": "newOwner",
          "type": "address"
        }
      ],
      "name": "OwnershipTransferred",
      "type": "event"
    },
    {
      "anonymous": false,
      "inputs": [
        {
          "indexed": false,
          "internalType": "bool",
          "name": "isPaused",
          "type": "bool"
        }
      ],
      "name": "PauseToggled",
      "type": "event"
    },
    {
      "anonymous": false,
      "inputs": [],
      "name": "TenartAuctionContractDeployed",
      "type": "event"
    },
    {
      "anonymous": false,
      "inputs": [
        {
          "indexed": true,
          "internalType": "address",
          "name": "nftAddress",
          "type": "address"
        },
        {
          "indexed": true,
          "internalType": "uint256",
          "name": "tokenId",
          "type": "uint256"
        },
        {
          "indexed": false,
          "internalType": "uint256",
          "name": "endTime",
          "type": "uint256"
        }
      ],
      "name": "UpdateAuctionEndTime",
      "type": "event"
    },
    {
      "anonymous": false,
      "inputs": [
        {
          "indexed": true,
          "internalType": "address",
          "name": "nftAddress",
          "type": "address"
        },
        {
          "indexed": true,
          "internalType": "uint256",
          "name": "tokenId",
          "type": "uint256"
        },
        {
          "indexed": false,
          "internalType": "address",
          "name": "payToken",
          "type": "address"
        },
        {
          "indexed": false,
          "internalType": "uint256",
          "name": "reservePrice",
          "type": "uint256"
        }
      ],
      "name": "UpdateAuctionReservePrice",
      "type": "event"
    },
    {
      "anonymous": false,
      "inputs": [
        {
          "indexed": true,
          "internalType": "address",
          "name": "nftAddress",
          "type": "address"
        },
        {
          "indexed": true,
          "internalType": "uint256",
          "name": "tokenId",
          "type": "uint256"
        },
        {
          "indexed": false,
          "internalType": "uint256",
          "name": "startTime",
          "type": "uint256"
        }
      ],
      "name": "UpdateAuctionStartTime",
      "type": "event"
    },
    {
      "anonymous": false,
      "inputs": [
        {
          "indexed": false,
          "internalType": "uint256",
          "name": "bidWithdrawalLockTime",
          "type": "uint256"
        }
      ],
      "name": "UpdateBidWithdrawalLockTime",
      "type": "event"
    },
    {
      "anonymous": false,
      "inputs": [
        {
          "indexed": false,
          "internalType": "uint256",
          "name": "minBidIncrement",
          "type": "uint256"
        }
      ],
      "name": "UpdateMinBidIncrement",
      "type": "event"
    },
    {
      "anonymous": false,
      "inputs": [
        {
          "indexed": false,
          "internalType": "uint256",
          "name": "platformFee",
          "type": "uint256"
        }
      ],
      "name": "UpdatePlatformFee",
      "type": "event"
    },
    {
      "anonymous": false,
      "inputs": [
        {
          "indexed": false,
          "internalType": "address payable",
          "name": "platformFeeRecipient",
          "type": "address"
        }
      ],
      "name": "UpdatePlatformFeeRecipient",
      "type": "event"
    },
    {
      "inputs": [],
      "name": "addressRegistry",
      "outputs": [
        {
          "internalType": "contract ITenartAddressRegistry",
          "name": "",
          "type": "address"
        }
      ],
      "stateMutability": "view",
      "type": "function"
    },
    {
      "inputs": [
        {
          "internalType": "address",
          "name": "",
          "type": "address"
        },
        {
          "internalType": "uint256",
          "name": "",
          "type": "uint256"
        }
      ],
      "name": "auctions",
      "outputs": [
        {
          "internalType": "address",
          "name": "owner",
          "type": "address"
        },
        {
          "internalType": "address",
          "name": "payToken",
          "type": "address"
        },
        {
          "internalType": "uint256",
          "name": "minBid",
          "type": "uint256"
        },
        {
          "internalType": "uint256",
          "name": "reservePrice",
          "type": "uint256"
        },
        {
          "internalType": "uint256",
          "name": "startTime",
          "type": "uint256"
        },
        {
          "internalType": "uint256",
          "name": "endTime",
          "type": "uint256"
        },
        {
          "internalType": "bool",
          "name": "resulted",
          "type": "bool"
        }
      ],
      "stateMutability": "view",
      "type": "function"
    },
    {
      "inputs": [],
      "name": "bidWithdrawalLockTime",
      "outputs": [
        {
          "internalType": "uint256",
          "name": "",
          "type": "uint256"
        }
      ],
      "stateMutability": "view",
      "type": "function"
    },
    {
      "inputs": [
        {
          "internalType": "address",
          "name": "_nftAddress",
          "type": "address"
        },
        {
          "internalType": "uint256",
          "name": "_tokenId",
          "type": "uint256"
        }
      ],
      "name": "cancelAuction",
      "outputs": [],
      "stateMutability": "nonpayable",
      "type": "function"
    },
    {
      "inputs": [
        {
          "internalType": "address",
          "name": "_nftAddress",
          "type": "address"
        },
        {
          "internalType": "uint256",
          "name": "_tokenId",
          "type": "uint256"
        }
      ],
      "name": "cancelAuctionOwner",
      "outputs": [],
      "stateMutability": "nonpayable",
      "type": "function"
    },
    {
      "inputs": [
        {
          "internalType": "address",
          "name": "_nftAddress",
          "type": "address"
        },
        {
          "internalType": "uint256",
          "name": "_tokenId",
          "type": "uint256"
        },
        {
          "internalType": "address",
          "name": "_payToken",
          "type": "address"
        },
        {
          "internalType": "uint256",
          "name": "_reservePrice",
          "type": "uint256"
        },
        {
          "internalType": "uint256",
          "name": "_startTimestamp",
          "type": "uint256"
        },
        {
          "internalType": "bool",
          "name": "minBidReserve",
          "type": "bool"
        },
        {
          "internalType": "uint256",
          "name": "_endTimestamp",
          "type": "uint256"
        }
      ],
      "name": "createAuction",
      "outputs": [],
      "stateMutability": "nonpayable",
      "type": "function"
    },
    {
      "inputs": [
        {
          "internalType": "address",
          "name": "_nftAddress",
          "type": "address"
        },
        {
          "internalType": "uint256",
          "name": "_tokenId",
          "type": "uint256"
        }
      ],
      "name": "endAuction",
      "outputs": [],
      "stateMutability": "nonpayable",
      "type": "function"
    },
    {
      "inputs": [
        {
          "internalType": "address",
          "name": "_nftAddress",
          "type": "address"
        },
        {
          "internalType": "uint256",
          "name": "_tokenId",
          "type": "uint256"
        }
      ],
      "name": "getAuction",
      "outputs": [
        {
          "internalType": "address",
          "name": "_owner",
          "type": "address"
        },
        {
          "internalType": "address",
          "name": "_payToken",
          "type": "address"
        },
        {
          "internalType": "uint256",
          "name": "_reservePrice",
          "type": "uint256"
        },
        {
          "internalType": "uint256",
          "name": "_startTime",
          "type": "uint256"
        },
        {
          "internalType": "uint256",
          "name": "_endTime",
          "type": "uint256"
        },
        {
          "internalType": "bool",
          "name": "_resulted",
          "type": "bool"
        },
        {
          "internalType": "uint256",
          "name": "minBid",
          "type": "uint256"
        }
      ],
      "stateMutability": "view",
      "type": "function"
    },
    {
      "inputs": [
        {
          "internalType": "address",
          "name": "_nftAddress",
          "type": "address"
        },
        {
          "internalType": "uint256",
          "name": "_tokenId",
          "type": "uint256"
        }
      ],
      "name": "getHighestBidder",
      "outputs": [
        {
          "internalType": "address payable",
          "name": "_bidder",
          "type": "address"
        },
        {
          "internalType": "uint256",
          "name": "_bid",
          "type": "uint256"
        },
        {
          "internalType": "uint256",
          "name": "_lastBidTime",
          "type": "uint256"
        }
      ],
      "stateMutability": "view",
      "type": "function"
    },
    {
      "inputs": [
        {
          "internalType": "address",
          "name": "",
          "type": "address"
        },
        {
          "internalType": "uint256",
          "name": "",
          "type": "uint256"
        }
      ],
      "name": "highestBids",
      "outputs": [
        {
          "internalType": "address payable",
          "name": "bidder",
          "type": "address"
        },
        {
          "internalType": "uint256",
          "name": "bid",
          "type": "uint256"
        },
        {
          "internalType": "uint256",
          "name": "lastBidTime",
          "type": "uint256"
        }
      ],
      "stateMutability": "view",
      "type": "function"
    },
    {
      "inputs": [
        {
          "internalType": "address payable",
          "name": "_platformFeeRecipient",
          "type": "address"
        },
        {
          "internalType": "uint256",
          "name": "_minBidIncrement",
          "type": "uint256"
        }
      ],
      "name": "initialize",
      "outputs": [],
      "stateMutability": "nonpayable",
      "type": "function"
    },
    {
      "inputs": [],
      "name": "isPaused",
      "outputs": [
        {
          "internalType": "bool",
          "name": "",
          "type": "bool"
        }
      ],
      "stateMutability": "view",
      "type": "function"
    },
    {
      "inputs": [],
      "name": "maxAuctionLength",
      "outputs": [
        {
          "internalType": "uint256",
          "name": "",
          "type": "uint256"
        }
      ],
      "stateMutability": "view",
      "type": "function"
    },
    {
      "inputs": [],
      "name": "minBidIncrement",
      "outputs": [
        {
          "internalType": "uint256",
          "name": "",
          "type": "uint256"
        }
      ],
      "stateMutability": "view",
      "type": "function"
    },
    {
      "inputs": [
        {
          "internalType": "address",
          "name": "operator",
          "type": "address"
        },
        {
          "internalType": "address",
          "name": "from",
          "type": "address"
        },
        {
          "internalType": "uint256",
          "name": "tokenId",
          "type": "uint256"
        },
        {
          "internalType": "bytes",
          "name": "data",
          "type": "bytes"
        }
      ],
      "name": "onERC721Received",
      "outputs": [
        {
          "internalType": "bytes4",
          "name": "",
          "type": "bytes4"
        }
      ],
      "stateMutability": "nonpayable",
      "type": "function"
    },
    {
      "inputs": [],
      "name": "owner",
      "outputs": [
        {
          "internalType": "address",
          "name": "",
          "type": "address"
        }
      ],
      "stateMutability": "view",
      "type": "function"
    },
    {
      "inputs": [
        {
          "internalType": "address",
          "name": "_nftAddress",
          "type": "address"
        },
        {
          "internalType": "uint256",
          "name": "_tokenId",
          "type": "uint256"
        },
        {
          "internalType": "uint256",
          "name": "_bidAmount",
          "type": "uint256"
        }
      ],
      "name": "placeBid",
      "outputs": [],
      "stateMutability": "nonpayable",
      "type": "function"
    },
    {
      "inputs": [],
      "name": "platformFee",
      "outputs": [
        {
          "internalType": "uint256",
          "name": "",
          "type": "uint256"
        }
      ],
      "stateMutability": "view",
      "type": "function"
    },
    {
      "inputs": [],
      "name": "platformFeeRecipient",
      "outputs": [
        {
          "internalType": "address payable",
          "name": "",
          "type": "address"
        }
      ],
      "stateMutability": "view",
      "type": "function"
    },
    {
      "inputs": [
        {
          "internalType": "address",
          "name": "_tokenContract",
          "type": "address"
        }
      ],
      "name": "reclaimERC20",
      "outputs": [],
      "stateMutability": "nonpayable",
      "type": "function"
    },
    {
      "inputs": [],
      "name": "renounceOwnership",
      "outputs": [],
      "stateMutability": "nonpayable",
      "type": "function"
    },
    {
      "inputs": [
        {
          "internalType": "address",
          "name": "_nftAddress",
          "type": "address"
        },
        {
          "internalType": "uint256",
          "name": "_tokenId",
          "type": "uint256"
        }
      ],
      "name": "resultAuction",
      "outputs": [],
      "stateMutability": "nonpayable",
      "type": "function"
    },
    {
      "inputs": [],
      "name": "toggleIsPaused",
      "outputs": [],
      "stateMutability": "nonpayable",
      "type": "function"
    },
    {
      "inputs": [
        {
          "internalType": "address",
          "name": "newOwner",
          "type": "address"
        }
      ],
      "name": "transferOwnership",
      "outputs": [],
      "stateMutability": "nonpayable",
      "type": "function"
    },
    {
      "inputs": [
        {
          "internalType": "address",
          "name": "_registry",
          "type": "address"
        }
      ],
      "name": "updateAddressRegistry",
      "outputs": [],
      "stateMutability": "nonpayable",
      "type": "function"
    },
    {
      "inputs": [
        {
          "internalType": "address",
          "name": "_nftAddress",
          "type": "address"
        },
        {
          "internalType": "uint256",
          "name": "_tokenId",
          "type": "uint256"
        },
        {
          "internalType": "uint256",
          "name": "_reservePrice",
          "type": "uint256"
        }
      ],
      "name": "updateAuctionReservePrice",
      "outputs": [],
      "stateMutability": "nonpayable",
      "type": "function"
    },
    {
      "inputs": [
        {
          "internalType": "address",
          "name": "_nftAddress",
          "type": "address"
        },
        {
          "internalType": "uint256",
          "name": "_tokenId",
          "type": "uint256"
        },
        {
          "internalType": "uint256",
          "name": "_startTime",
          "type": "uint256"
        }
      ],
      "name": "updateAuctionStartTime",
      "outputs": [],
      "stateMutability": "nonpayable",
      "type": "function"
    },
    {
      "inputs": [
        {
          "internalType": "uint256",
          "name": "_bidWithdrawalLockTime",
          "type": "uint256"
        }
      ],
      "name": "updateBidWithdrawalLockTime",
      "outputs": [],
      "stateMutability": "nonpayable",
      "type": "function"
    },
    {
      "inputs": [
        {
          "internalType": "uint256",
          "name": "_minBidIncrement",
          "type": "uint256"
        }
      ],
      "name": "updateMinBidIncrement",
      "outputs": [],
      "stateMutability": "nonpayable",
      "type": "function"
    },
    {
      "inputs": [
        {
          "internalType": "uint256",
          "name": "_platformFee",
          "type": "uint256"
        }
      ],
      "name": "updatePlatformFee",
      "outputs": [],
      "stateMutability": "nonpayable",
      "type": "function"
    },
    {
      "inputs": [
        {
          "internalType": "address payable",
          "name": "_platformFeeRecipient",
          "type": "address"
        }
      ],
      "name": "updatePlatformFeeRecipient",
      "outputs": [],
      "stateMutability": "nonpayable",
      "type": "function"
    },
    {
      "inputs": [
        {
          "internalType": "address",
          "name": "_nftAddress",
          "type": "address"
        },
        {
          "internalType": "uint256",
          "name": "_tokenId",
          "type": "uint256"
        }
      ],
      "name": "withdrawBid",
      "outputs": [],
      "stateMutability": "nonpayable",
      "type": "function"
    }
  ],
  "bytecode": "0x608060405234801561001057600080fd5b50614b9b806100206000396000f3fe608060405234801561001057600080fd5b50600436106101f05760003560e01c8063859b97fe1161010f578063b1254bf4116100a2578063f2fde38b11610071578063f2fde38b14610719578063f3ad65f41461073f578063f5fe7f7114610747578063f9613d7f1461076d576101f0565b8063b1254bf41461069d578063b187bd26146106c9578063cd6dc687146106e5578063eb13554f14610711576101f0565b8063a062feb9116100de578063a062feb9146105d4578063a670a9b414610606578063aa0b598814610632578063ab2870e21461064f576101f0565b8063859b97fe1461053257806388cedbc41461055e5780638905fd4f1461058a5780638da5cb5b146105b0576101f0565b80635f7063ef116101875780636b753f36116101565780636b753f36146104325780636c58a5a414610486578063715018a6146104b8578063762a66a2146104c0576101f0565b80635f7063ef146103bb578063623de5ad146103e757806368e79e89146104045780636a5362f61461042a576101f0565b806326232a2e116101c357806326232a2e1461030d578063335b115e1461031557806344f91c1e1461031d5780634cb8ef5b1461038f576101f0565b806304717aca146101f5578063083759e0146102295780630e519ef914610246578063150b7a0214610260575b600080fd5b6102276004803603606081101561020b57600080fd5b506001600160a01b038135169060208101359060400135610775565b005b6102276004803603602081101561023f57600080fd5b50356109b9565b61024e610a56565b60408051918252519081900360200190f35b6102f06004803603608081101561027657600080fd5b6001600160a01b038235811692602081013590911691604082013591908101906080810160608201356401000000008111156102b157600080fd5b8201836020820111156102c357600080fd5b803590602001918460018302840111640100000000831117156102e557600080fd5b509092509050610a5d565b604080516001600160e01b03199092168252519081900360200190f35b61024e610a6e565b61024e610a74565b6103496004803603604081101561033357600080fd5b506001600160a01b038135169060200135610a7a565b604080516001600160a01b039889168152969097166020870152858701949094526060850192909252608084015260a0830152151560c082015290519081900360e00190f35b610227600480360360408110156103a557600080fd5b506001600160a01b038135169060200135610ad1565b610227600480360360408110156103d157600080fd5b506001600160a01b038135169060200135610d34565b610227600480360360208110156103fd57600080fd5b503561115b565b6102276004803603602081101561041a57600080fd5b50356001600160a01b03166111f8565b61024e61127c565b61045e6004803603604081101561044857600080fd5b506001600160a01b038135169060200135611282565b604080516001600160a01b039094168452602084019290925282820152519081900360600190f35b6102276004803603606081101561049c57600080fd5b506001600160a01b0381351690602081013590604001356112b8565b610227611509565b6104ec600480360360408110156104d657600080fd5b506001600160a01b0381351690602001356115b5565b604080516001600160a01b0398891681529690971660208701528587019490945260608501929092526080840152151560a083015260c082015290519081900360e00190f35b6102276004803603604081101561054857600080fd5b506001600160a01b038135169060200135611611565b6102276004803603604081101561057457600080fd5b506001600160a01b038135169060200135611838565b610227600480360360208110156105a057600080fd5b50356001600160a01b0316611abf565b6105b8611cb9565b604080516001600160a01b039092168252519081900360200190f35b610227600480360360608110156105ea57600080fd5b506001600160a01b038135169060208101359060400135611cc8565b61045e6004803603604081101561061c57600080fd5b506001600160a01b038135169060200135611ef4565b6102276004803603602081101561064857600080fd5b5035611f2c565b610227600480360360e081101561066557600080fd5b506001600160a01b0381358116916020810135916040820135169060608101359060808101359060a081013515159060c00135611fc9565b610227600480360360408110156106b357600080fd5b506001600160a01b038135169060200135612391565b6106d16126bb565b604080519115158252519081900360200190f35b610227600480360360408110156106fb57600080fd5b506001600160a01b0381351690602001356126cb565b6105b8612817565b6102276004803603602081101561072f57600080fd5b50356001600160a01b0316612826565b6105b8612929565b6102276004803603602081101561075d57600080fd5b50356001600160a01b0316612938565b610227612a38565b600260655414156107bb576040805162461bcd60e51b815260206004820152601f6024820152600080516020614814833981519152604482015290519081900360640190fd5b6002606555609d54600160a01b900460ff1615610811576040805162461bcd60e51b815260206004820152600f60248201526e18dbdb9d1c9858dd081c185d5cd959608a1b604482015290519081900360640190fd5b3261081a612af9565b6001600160a01b03161461082d57600080fd5b61083561477b565b506001600160a01b038084166000908152609760209081526040808320868452825291829020825160e0810184528154851681526001820154909416918401919091526002810154918301919091526003810154606083015260048101546080830152600581015460a0830181905260069091015460ff16151560c08301526108f9576040805162461bcd60e51b81526020600482015260116024820152704e6f2061756374696f6e2065786973747360781b604482015290519081900360640190fd5b8060800151610906612afd565b1015801561091f57508060a0015161091c612afd565b11155b61095a5760405162461bcd60e51b8152600401808060200182810382526025815260200180614b416025913960400191505060405180910390fd5b60208101516001600160a01b03166109a35760405162461bcd60e51b81526004018080602001828103825260218152602001806147f36021913960400191505060405180910390fd5b6109ae848484612b01565b505060016065555050565b6109c1612af9565b6001600160a01b03166109d2611cb9565b6001600160a01b031614610a1b576040805162461bcd60e51b81526020600482018190526024820152600080516020614a11833981519152604482015290519081900360640190fd5b60998190556040805182815290517f489b0441344cbdcb036bee4857de51567f580e9747166f76b581be803ca45fcb9181900360200190a150565b62278d0081565b630a85bd0160e11b95945050505050565b609b5481565b60995481565b609760209081526000928352604080842090915290825290208054600182015460028301546003840154600485015460058601546006909601546001600160a01b0395861696959094169492939192909160ff1687565b60026065541415610b17576040805162461bcd60e51b815260206004820152601f6024820152600080516020614814833981519152604482015290519081900360640190fd5b6002606555609d54600160a01b900460ff1615610b6d576040805162461bcd60e51b815260206004820152600f60248201526e18dbdb9d1c9858dd081c185d5cd959608a1b604482015290519081900360640190fd5b6001600160a01b03821660009081526098602090815260408083208484529091529020610b98612af9565b81546001600160a01b03908116911614610bf9576040805162461bcd60e51b815260206004820152601e60248201527f796f7520617265206e6f74207468652068696768657374206269646465720000604482015290519081900360640190fd5b6001600160a01b038316600090815260976020908152604080832085845290915290206005015480610c29612afd565b118015610c41575061a8c081610c3d612afd565b0310155b610c7c5760405162461bcd60e51b8152600401808060200182810382526036815260200180614a556036913960400191505060405180910390fd5b6001808301546001600160a01b0386166000908152609860209081526040808320888452909152812080546001600160a01b0319168155928301819055600290920191909155610cd58585610ccf612af9565b84612e16565b610cdd612af9565b6001600160a01b031684866001600160a01b03167f867b8ea96dd803063f905a19f8117cbb1866ec7a594dfede75ab4a5235f61d7c846040518082815260200191505060405180910390a450506001606555505050565b60026065541415610d7a576040805162461bcd60e51b815260206004820152601f6024820152600080516020614814833981519152604482015290519081900360640190fd5b60026065556001600160a01b0380831660008181526097602090815260408083208684528252808320938352609882528083208684529091529020805460018201549293919291169081610dcc612af9565b6001600160a01b03161480610dfa575083546001600160a01b0316610def612af9565b6001600160a01b0316145b610e355760405162461bcd60e51b815260040180806020018281038252602d8152602001806148dc602d913960400191505060405180910390fd5b306001600160a01b0316866001600160a01b0316636352211e876040518263ffffffff1660e01b81526004018082815260200191505060206040518083038186803b158015610e8357600080fd5b505afa158015610e97573d6000803e3d6000fd5b505050506040513d6020811015610ead57600080fd5b50516001600160a01b031614610ef45760405162461bcd60e51b81526004018080602001828103825260248152602001806149686024913960400191505060405180910390fd5b6000846005015411610f41576040805162461bcd60e51b81526020600482015260116024820152706e6f2061756374696f6e2065786973747360781b604482015290519081900360640190fd5b8360050154610f4e612afd565b11610f94576040805162461bcd60e51b8152602060048201526011602482015270185d58dd1a5bdb881b9bdd08195b991959607a1b604482015290519081900360640190fd5b600684015460ff1615610fdc576040805162461bcd60e51b81526020600482015260186024820152600080516020614af5833981519152604482015290519081900360640190fd5b6001600160a01b038216611026576040805162461bcd60e51b815260206004820152600c60248201526b6e6f206f70656e206269647360a01b604482015290519081900360640190fd5b83600301548110156110695760405162461bcd60e51b8152600401808060200182810382526021815260200180614a8b6021913960400191505060405180910390fd5b856001600160a01b031663e985e9c5611080612af9565b306040518363ffffffff1660e01b815260040180836001600160a01b03168152602001826001600160a01b031681526020019250505060206040518083038186803b1580156110ce57600080fd5b505afa1580156110e2573d6000803e3d6000fd5b505050506040513d60208110156110f857600080fd5b5051611142576040805162461bcd60e51b8152602060048201526014602482015273185d58dd1a5bdb881b9bdd08185c1c1c9bdd995960621b604482015290519081900360640190fd5b61114e86868484612fb2565b5050600160655550505050565b611163612af9565b6001600160a01b0316611174611cb9565b6001600160a01b0316146111bd576040805162461bcd60e51b81526020600482018190526024820152600080516020614a11833981519152604482015290519081900360640190fd5b609a8190556040805182815290517ff9e4b69944d3fbdd96aedcda02032e2091346ececc3b55a485b40a6dc09bb9e09181900360200190a150565b611200612af9565b6001600160a01b0316611211611cb9565b6001600160a01b03161461125a576040805162461bcd60e51b81526020600482018190526024820152600080516020614a11833981519152604482015290519081900360640190fd5b609d80546001600160a01b0319166001600160a01b0392909216919091179055565b609a5481565b60986020908152600092835260408084209091529082529020805460018201546002909201546001600160a01b03909116919083565b6001600160a01b038084166000908152609760209081526040808320868452909152902080549091166112e9612af9565b6001600160a01b03161461133b576040805162461bcd60e51b815260206004820152601460248201527339b2b73232b91036bab9ba1031329037bbb732b960611b604482015290519081900360640190fd5b60008211611385576040805162461bcd60e51b8152602060048201526012602482015271696e76616c69642073746172742074696d6560701b604482015290519081900360640190fd5b61138d612afd565b8160040154603c01116113e1576040805162461bcd60e51b8152602060048201526017602482015276185d58dd1a5bdb88185b1c9958591e481cdd185c9d1959604a1b604482015290519081900360640190fd5b80600501548261012c01106114275760405162461bcd60e51b81526004018080602001828103825260368152602001806149ba6036913960400191505060405180910390fd5b600681015460ff161561146f576040805162461bcd60e51b81526020600482015260186024820152600080516020614af5833981519152604482015290519081900360640190fd5b60008160050154116114bc576040805162461bcd60e51b81526020600482015260116024820152706e6f2061756374696f6e2065786973747360781b604482015290519081900360640190fd5b6004810182905560408051838152905184916001600160a01b038716917ff123182d1bfce603eb20a2f74cce94af6542f353a4c2a8d5cfadf41822b32b389181900360200190a350505050565b611511612af9565b6001600160a01b0316611522611cb9565b6001600160a01b03161461156b576040805162461bcd60e51b81526020600482018190526024820152600080516020614a11833981519152604482015290519081900360640190fd5b6033546040516000916001600160a01b0316907f8be0079c531659141344cd1fd0a4f28419497f9722a3daafe3b4186f6b6457e0908390a3603380546001600160a01b0319169055565b6001600160a01b0391821660009081526097602090815260408083209383529290522080546001820154600383015460048401546005850154600686015460029096015494871697939096169591949093919260ff9091169190565b60026065541415611657576040805162461bcd60e51b815260206004820152601f6024820152600080516020614814833981519152604482015290519081900360640190fd5b600260655561166461477b565b506001600160a01b038083166000908152609760209081526040808320858452825291829020825160e081018452815485168082526001830154909516928101929092526002810154928201929092526003820154606082015260048201546080820152600582015460a082015260069091015460ff16151560c0820152906116eb612af9565b6001600160a01b03161461173d576040805162461bcd60e51b815260206004820152601460248201527339b2b73232b91036bab9ba1031329037bbb732b960611b604482015290519081900360640190fd5b60008160a001511161178a576040805162461bcd60e51b81526020600482015260116024820152706e6f2061756374696f6e2065786973747360781b604482015290519081900360640190fd5b8060c00151156117cf576040805162461bcd60e51b81526020600482015260186024820152600080516020614af5833981519152604482015290519081900360640190fd5b6001600160a01b0383166000908152609860209081526040808320858452909152902060608201516001820154106109ae5760405162461bcd60e51b815260040180806020018281038252602c815260200180614b15602c913960400191505060405180910390fd5b6002606554141561187e576040805162461bcd60e51b815260206004820152601f6024820152600080516020614814833981519152604482015290519081900360640190fd5b600260655561188b612af9565b6001600160a01b031661189c611cb9565b6001600160a01b0316146118e5576040805162461bcd60e51b81526020600482018190526024820152600080516020614a11833981519152604482015290519081900360640190fd5b6001600160a01b0380831660008181526097602090815260408083208684528252808320805494845260988352818420878552909252909120805460018201546005840154939594851694929391909216919061197d576040805162461bcd60e51b81526020600482015260116024820152706e6f2061756374696f6e2065786973747360781b604482015290519081900360640190fd5b846005015461198a612afd565b116119d0576040805162461bcd60e51b8152602060048201526011602482015270185d58dd1a5bdb881b9bdd08195b991959607a1b604482015290519081900360640190fd5b600685015460ff1615611a18576040805162461bcd60e51b81526020600482015260186024820152600080516020614af5833981519152604482015290519081900360640190fd5b6001600160a01b038216611a62576040805162461bcd60e51b815260206004820152600c60248201526b6e6f206f70656e206269647360a01b604482015290519081900360640190fd5b8460030154811015611aa55760405162461bcd60e51b8152600401808060200182810382526021815260200180614a8b6021913960400191505060405180910390fd5b611ab187878484613737565b505060016065555050505050565b611ac7612af9565b6001600160a01b0316611ad8611cb9565b6001600160a01b031614611b21576040805162461bcd60e51b81526020600482018190526024820152600080516020614a11833981519152604482015290519081900360640190fd5b6001600160a01b038116611b6e576040805162461bcd60e51b815260206004820152600f60248201526e496e76616c6964206164647265737360881b604482015290519081900360640190fd5b604080516370a0823160e01b8152306004820152905182916000916001600160a01b038416916370a08231916024808301926020929190829003018186803b158015611bb957600080fd5b505afa158015611bcd573d6000803e3d6000fd5b505050506040513d6020811015611be357600080fd5b505190506001600160a01b03821663a9059cbb611bfe612af9565b836040518363ffffffff1660e01b815260040180836001600160a01b0316815260200182815260200192505050602060405180830381600087803b158015611c4557600080fd5b505af1158015611c59573d6000803e3d6000fd5b505050506040513d6020811015611c6f57600080fd5b5051611cb4576040805162461bcd60e51b815260206004820152600f60248201526e151c985b9cd9995c8819985a5b1959608a1b604482015290519081900360640190fd5b505050565b6033546001600160a01b031690565b6001600160a01b0383166000818152609760209081526040808320868452825291829020600381015483516331a9108f60e11b81526004810188905293519194909330939192636352211e92602480840193919291829003018186803b158015611d3157600080fd5b505afa158015611d45573d6000803e3d6000fd5b505050506040513d6020811015611d5b57600080fd5b50516001600160a01b0316148015611d8c575081546001600160a01b0316611d81612af9565b6001600160a01b0316145b611dc75760405162461bcd60e51b81526004018080602001828103825260338152602001806149096033913960400191505060405180910390fd5b600682015460ff1615611e0f576040805162461bcd60e51b81526020600482015260186024820152600080516020614af5833981519152604482015290519081900360640190fd5b6000826005015411611e5c576040805162461bcd60e51b81526020600482015260116024820152706e6f2061756374696f6e2065786973747360781b604482015290519081900360640190fd5b808310611e9a5760405162461bcd60e51b8152600401808060200182810382526023815260200180614ad26023913960400191505060405180910390fd5b600382018390556001820154604080516001600160a01b03928316815260208101869052815187938916927f1492815b4a41d34cc0015f8ba8013fa45717ea6d8591db6036bdca706981fe83928290030190a35050505050565b6001600160a01b0391821660009081526098602090815260408083209383529290522080546001820154600290920154921692909190565b611f34612af9565b6001600160a01b0316611f45611cb9565b6001600160a01b031614611f8e576040805162461bcd60e51b81526020600482018190526024820152600080516020614a11833981519152604482015290519081900360640190fd5b609b8190556040805182815290517f2644fd26359c107ff7991b6dfc36ce902b334ce4e3891bbecacc5922aa620efa9181900360200190a150565b609d54600160a01b900460ff161561201a576040805162461bcd60e51b815260206004820152600f60248201526e18dbdb9d1c9858dd081c185d5cd959608a1b604482015290519081900360640190fd5b612022612af9565b6001600160a01b0316876001600160a01b0316636352211e886040518263ffffffff1660e01b81526004018082815260200191505060206040518083038186803b15801561206f57600080fd5b505afa158015612083573d6000803e3d6000fd5b505050506040513d602081101561209957600080fd5b50516001600160a01b031614801561213e5750866001600160a01b031663e985e9c56120c3612af9565b306040518363ffffffff1660e01b815260040180836001600160a01b03168152602001826001600160a01b031681526020019250505060206040518083038186803b15801561211157600080fd5b505afa158015612125573d6000803e3d6000fd5b505050506040513d602081101561213b57600080fd5b50515b6121795760405162461bcd60e51b8152600401808060200182810382526026815260200180614aac6026913960400191505060405180910390fd5b609d5460408051639d23c4c760e01b815290516000926001600160a01b031691639d23c4c7916004808301926020929190829003018186803b1580156121be57600080fd5b505afa1580156121d2573d6000803e3d6000fd5b505050506040513d60208110156121e857600080fd5b50516001600160a01b0316148015906122ef5750609d60009054906101000a90046001600160a01b03166001600160a01b0316639d23c4c76040518163ffffffff1660e01b815260040160206040518083038186803b15801561224a57600080fd5b505afa15801561225e573d6000803e3d6000fd5b505050506040513d602081101561227457600080fd5b5051604080516398afdfe360e01b81526001600160a01b038881166004830152915191909216916398afdfe39160248083019260209291908290030181600087803b1580156122c257600080fd5b505af11580156122d6573d6000803e3d6000fd5b505050506040513d60208110156122ec57600080fd5b50515b612334576040805162461bcd60e51b815260206004820152601160248201527034b73b30b634b2103830bc903a37b5b2b760791b604482015290519081900360640190fd5b62278d0083018111156123785760405162461bcd60e51b81526004018080602001828103825260238152602001806148876023913960400191505060405180910390fd5b61238787878787878787613ee2565b5050505050505050565b600260655414156123d7576040805162461bcd60e51b815260206004820152601f6024820152600080516020614814833981519152604482015290519081900360640190fd5b60026065556123e4612af9565b6001600160a01b03166123f5611cb9565b6001600160a01b03161461243e576040805162461bcd60e51b81526020600482018190526024820152600080516020614a11833981519152604482015290519081900360640190fd5b61244661477b565b506001600160a01b038083166000908152609760209081526040808320858452825291829020825160e0810184528154851681526001820154909416918401919091526002810154918301919091526003810154606083015260048101546080830152600581015460a0830181905260069091015460ff16151560c083015261250a576040805162461bcd60e51b81526020600482015260116024820152706e6f2061756374696f6e2065786973747360781b604482015290519081900360640190fd5b8060c001511561254f576040805162461bcd60e51b81526020600482015260186024820152600080516020614af5833981519152604482015290519081900360640190fd5b6001600160a01b0383166000908152609860209081526040808320858452909152902060608201516001820154106125b85760405162461bcd60e51b815260040180806020018281038252602c815260200180614b15602c913960400191505060405180910390fd5b80546001600160a01b03161561262357805460018201546125e691869186916001600160a01b031690612e16565b6001600160a01b0384166000908152609860209081526040808320868452909152812080546001600160a01b031916815560018101829055600201555b6001600160a01b038416600081815260976020908152604080832087845290915280822080546001600160a01b03199081168255600182018054909116905560028101839055600381018390556004810183905560058101839055600601805460ff19169055518592917f018b64b6242d32aa550e95d78985b938d71af5b3f10827b0683f55da1639304891a3505060016065555050565b609d54600160a01b900460ff1681565b600054610100900460ff16806126e457506126e461425e565b806126f2575060005460ff16155b61272d5760405162461bcd60e51b815260040180806020018281038252602e81526020018061498c602e913960400191505060405180910390fd5b600054610100900460ff16158015612758576000805460ff1961ff0019909116610100171660011790555b6001600160a01b03831661279d5760405162461bcd60e51b815260040180806020018281038252602d815260200180614834602d913960400191505060405180910390fd5b609c80546001600160a01b0319166001600160a01b03851617905560998290556104b0609a556019609b556040517f3ba39df8159eb54aa73007b8e73640a2f0e7c1a2ca3b2929394da08de87add2690600090a16127f961426f565b612801614321565b8015611cb4576000805461ff0019169055505050565b609c546001600160a01b031681565b61282e612af9565b6001600160a01b031661283f611cb9565b6001600160a01b031614612888576040805162461bcd60e51b81526020600482018190526024820152600080516020614a11833981519152604482015290519081900360640190fd5b6001600160a01b0381166128cd5760405162461bcd60e51b81526004018080602001828103825260268152602001806148616026913960400191505060405180910390fd5b6033546040516001600160a01b038084169216907f8be0079c531659141344cd1fd0a4f28419497f9722a3daafe3b4186f6b6457e090600090a3603380546001600160a01b0319166001600160a01b0392909216919091179055565b609d546001600160a01b031681565b612940612af9565b6001600160a01b0316612951611cb9565b6001600160a01b03161461299a576040805162461bcd60e51b81526020600482018190526024820152600080516020614a11833981519152604482015290519081900360640190fd5b6001600160a01b0381166129e4576040805162461bcd60e51b815260206004820152600c60248201526b7a65726f206164647265737360a01b604482015290519081900360640190fd5b609c80546001600160a01b0383166001600160a01b0319909116811790915560408051918252517fe57e7c1f36cc83fade34e32351e6eee7eb9da532662b1b5da10c631e8222aca79181900360200190a150565b612a40612af9565b6001600160a01b0316612a51611cb9565b6001600160a01b031614612a9a576040805162461bcd60e51b81526020600482018190526024820152600080516020614a11833981519152604482015290519081900360640190fd5b609d805460ff600160a01b808304821615810260ff60a01b1990931692909217928390556040805192909304161515815290517f9077d36bc00859b5c3f320310707208543dd35092cb0a0fe117d0c6a558b148b9181900360200190a1565b3390565b4290565b609d54600160a01b900460ff1615612b52576040805162461bcd60e51b815260206004820152600f60248201526e18dbdb9d1c9858dd081c185d5cd959608a1b604482015290519081900360640190fd5b6001600160a01b03831660009081526097602090815260408083208584529091529020600381015460028201541415612bc8578060030154821015612bc85760405162461bcd60e51b81526004018080602001828103825260268152602001806147cd6026913960400191505060405180910390fd5b6001600160a01b038416600090815260986020908152604080832086845290915281206099546001820154919291612bff916143b6565b905080841015612c56576040805162461bcd60e51b815260206004820152601f60248201527f6661696c656420746f206f757462696420686967686573742062696464657200604482015290519081900360640190fd5b60018301546001600160a01b0316806323b872dd612c72612af9565b30886040518463ffffffff1660e01b815260040180846001600160a01b03168152602001836001600160a01b031681526020018281526020019350505050602060405180830381600087803b158015612cca57600080fd5b505af1158015612cde573d6000803e3d6000fd5b505050506040513d6020811015612cf457600080fd5b5051612d315760405162461bcd60e51b8152600401808060200182810382526024815260200180614a316024913960400191505060405180910390fd5b610258612d3c612afd565b8560050154031015612d55576005840180546102580190555b82546001600160a01b031615612d835782546001840154612d8391899189916001600160a01b031690612e16565b612d8b612af9565b83546001600160a01b0319166001600160a01b039190911617835560018301859055612db5612afd565b6002840155612dc2612af9565b6001600160a01b031686886001600160a01b03167f0158f5674dc243762459b88cfc91b10d2d1ef9d40821cca978c2b680aa444682886040518082815260200191505060405180910390a450505050505050565b612e1e61477b565b506001600160a01b0380851660009081526097602090815260408083208784528252808320815160e08101835281548616815260018201548616818501819052600283015482850152600383015460608301526004808401546080840152600584015460a084015260069093015460ff16151560c0830152835163a9059cbb60e01b81529689169287019290925260248601879052915191949093849363a9059cbb93604480850194929391928390030190829087803b158015612ee157600080fd5b505af1158015612ef5573d6000803e3d6000fd5b505050506040513d6020811015612f0b57600080fd5b5051612f5e576040805162461bcd60e51b815260206004820181905260248201527f6661696c656420746f20726566756e642070726576696f757320626964646572604482015290519081900360640190fd5b836001600160a01b031685876001600160a01b03167f90e20d1ba82eaa07a212267355536f76bc83bf91c81fd41b74283c4082e76952866040518082815260200191505060405180910390a4505050505050565b6001600160a01b0384166000818152609760209081526040808320878452825280832060068101805460ff1916600190811790915594845260988352818420888552909252822080546001600160a01b0319168155928301829055600290920181905560038201548311156131325760006130446103e861303e609b548761441990919063ffffffff16565b90614472565b6001840154609c546040805163a9059cbb60e01b81526001600160a01b039283166004820152602481018590529051939450911691829163a9059cbb9160448083019260209291908290030181600087803b1580156130a257600080fd5b505af11580156130b6573d6000803e3d6000fd5b505050506040513d60208110156130cc57600080fd5b505161311f576040805162461bcd60e51b815260206004820152601b60248201527f6661696c656420746f2073656e6420706c6174666f726d206665650000000000604482015290519081900360640190fd5b61312985836144d9565b92505050613135565b50815b609d546040805163508d838960e11b815290516000926001600160a01b03169163a11b0712916004808301926020929190829003018186803b15801561317a57600080fd5b505afa15801561318e573d6000803e3d6000fd5b505050506040513d60208110156131a457600080fd5b5051604080516329c5eaf560e11b81526001600160a01b038a81166004830152602482018a905260448201869052825193945060009384939186169263538bd5ea926064808301939192829003018186803b15801561320257600080fd5b505afa158015613216573d6000803e3d6000fd5b505050506040513d604081101561322c57600080fd5b50805160209091015190925090506001600160a01b0382161580159061325157508015155b1561333c5760018501546040805163a9059cbb60e01b81526001600160a01b0385811660048301526024820185905291519190921691829163a9059cbb916044808201926020929091908290030181600087803b1580156132b157600080fd5b505af11580156132c5573d6000803e3d6000fd5b505050506040513d60208110156132db57600080fd5b505161332e576040805162461bcd60e51b815260206004820152601c60248201527f6661696c656420746f2073656e642074686520726f79616c7469657300000000604482015290519081900360640190fd5b61333885836144d9565b9450505b831561340857600185015485546040805163a9059cbb60e01b81526001600160a01b0392831660048201526024810188905290519190921691829163a9059cbb916044808201926020929091908290030181600087803b15801561339f57600080fd5b505af11580156133b3573d6000803e3d6000fd5b505050506040513d60208110156133c957600080fd5b50516134065760405162461bcd60e51b815260040180806020018281038252602c81526020018061493c602c913960400191505060405180910390fd5b505b505060408051632142170760e11b81523060048201526001600160a01b03878116602483015260448201899052915191891693506342842e0e925060648082019260009290919082900301818387803b15801561346457600080fd5b505af1158015613478573d6000803e3d6000fd5b50505050609d60009054906101000a90046001600160a01b03166001600160a01b0316639e1f5b286040518163ffffffff1660e01b815260040160206040518083038186803b1580156134ca57600080fd5b505afa1580156134de573d6000803e3d6000fd5b505050506040513d60208110156134f457600080fd5b5051604080516309f07d3d60e21b81526001600160a01b0388811660048301526024820188905260016044830152915191909216916327c1f4f491606480830192600092919082900301818387803b15801561354f57600080fd5b505af1158015613563573d6000803e3d6000fd5b50505050826001600160a01b031684866001600160a01b03167fa717395bf4be1915f0bc8e6cf9b0f526c5ad40a0c3750b709a29a834daf0fd9b6135a5612af9565b6001860154609d546040805163abc8c7af60e01b815290516001600160a01b03938416939092169163abc8c7af91600480820192602092909190829003018186803b1580156135f357600080fd5b505afa158015613607573d6000803e3d6000fd5b505050506040513d602081101561361d57600080fd5b50516001880154604080516341976e0960e01b81526001600160a01b039283166004820152905191909216916341976e09916024808301926020929190829003018186803b15801561366e57600080fd5b505afa158015613682573d6000803e3d6000fd5b505050506040513d602081101561369857600080fd5b5051604080516001600160a01b039485168152929093166020830152818301526060810188905290519081900360800190a45050506001600160a01b03909116600090815260976020908152604080832093835292905290812080546001600160a01b0319908116825560018201805490911690556002810182905560038101829055600481018290556005810191909155600601805460ff19169055565b6001600160a01b0384166000818152609760209081526040808320878452825280832060068101805460ff1916600190811790915594845260988352818420888552909252822080546001600160a01b0319168155928301829055600290920181905560038201548311156138b15760006137c36103e861303e609b548761441990919063ffffffff16565b6001840154609c546040805163a9059cbb60e01b81526001600160a01b039283166004820152602481018590529051939450911691829163a9059cbb9160448083019260209291908290030181600087803b15801561382157600080fd5b505af1158015613835573d6000803e3d6000fd5b505050506040513d602081101561384b57600080fd5b505161389e576040805162461bcd60e51b815260206004820152601b60248201527f6661696c656420746f2073656e6420706c6174666f726d206665650000000000604482015290519081900360640190fd5b6138a885836144d9565b925050506138b4565b50815b609d546040805163508d838960e11b815290516000926001600160a01b03169163a11b0712916004808301926020929190829003018186803b1580156138f957600080fd5b505afa15801561390d573d6000803e3d6000fd5b505050506040513d602081101561392357600080fd5b5051604080516329c5eaf560e11b81526001600160a01b038a81166004830152602482018a905260448201869052825193945060009384939186169263538bd5ea926064808301939192829003018186803b15801561398157600080fd5b505afa158015613995573d6000803e3d6000fd5b505050506040513d60408110156139ab57600080fd5b50805160209091015190925090506001600160a01b038216158015906139d057508015155b15613abb5760018501546040805163a9059cbb60e01b81526001600160a01b0385811660048301526024820185905291519190921691829163a9059cbb916044808201926020929091908290030181600087803b158015613a3057600080fd5b505af1158015613a44573d6000803e3d6000fd5b505050506040513d6020811015613a5a57600080fd5b5051613aad576040805162461bcd60e51b815260206004820152601c60248201527f6661696c656420746f2073656e642074686520726f79616c7469657300000000604482015290519081900360640190fd5b613ab785836144d9565b9450505b8315613b8757600185015485546040805163a9059cbb60e01b81526001600160a01b0392831660048201526024810188905290519190921691829163a9059cbb916044808201926020929091908290030181600087803b158015613b1e57600080fd5b505af1158015613b32573d6000803e3d6000fd5b505050506040513d6020811015613b4857600080fd5b5051613b855760405162461bcd60e51b815260040180806020018281038252602c81526020018061493c602c913960400191505060405180910390fd5b505b845460408051632142170760e11b81526001600160a01b0392831660048201528983166024820152604481018b90529051918b16916342842e0e9160648082019260009290919082900301818387803b158015613be357600080fd5b505af1158015613bf7573d6000803e3d6000fd5b50505050609d60009054906101000a90046001600160a01b03166001600160a01b0316639e1f5b286040518163ffffffff1660e01b815260040160206040518083038186803b158015613c4957600080fd5b505afa158015613c5d573d6000803e3d6000fd5b505050506040513d6020811015613c7357600080fd5b5051604080516309f07d3d60e21b81526001600160a01b038c81166004830152602482018c905260016044830152915191909216916327c1f4f491606480830192600092919082900301818387803b158015613cce57600080fd5b505af1158015613ce2573d6000803e3d6000fd5b50505050866001600160a01b0316888a6001600160a01b03167fa717395bf4be1915f0bc8e6cf9b0f526c5ad40a0c3750b709a29a834daf0fd9b8860000160009054906101000a90046001600160a01b03168960010160009054906101000a90046001600160a01b0316609d60009054906101000a90046001600160a01b03166001600160a01b031663abc8c7af6040518163ffffffff1660e01b815260040160206040518083038186803b158015613d9a57600080fd5b505afa158015613dae573d6000803e3d6000fd5b505050506040513d6020811015613dc457600080fd5b505160018c0154604080516341976e0960e01b81526001600160a01b039283166004820152905191909216916341976e09916024808301926020929190829003018186803b158015613e1557600080fd5b505afa158015613e29573d6000803e3d6000fd5b505050506040513d6020811015613e3f57600080fd5b5051604080516001600160a01b03948516815292909316602083015281830152606081018c905290519081900360800190a45050506001600160a01b03909516600090815260976020908152604080832096835295905293842080546001600160a01b0319908116825560018201805490911690556002810185905560038101859055600481018590556005810194909455505050600601805460ff1916905550565b6001600160a01b038716600090815260976020908152604080832089845290915281206005015415613f55576040805162461bcd60e51b8152602060048201526017602482015276185d58dd1a5bdb88185b1c9958591e481cdd185c9d1959604a1b604482015290519081900360640190fd5b8361012c01821015613f985760405162461bcd60e51b81526004018080602001828103825260328152602001806148aa6032913960400191505060405180910390fd5b613fa0612afd565b8411613fe8576040805162461bcd60e51b8152602060048201526012602482015271696e76616c69642073746172742074696d6560701b604482015290519081900360640190fd5b60008315613ff35750845b886001600160a01b03166342842e0e8a6001600160a01b0316636352211e8b6040518263ffffffff1660e01b81526004018082815260200191505060206040518083038186803b15801561404657600080fd5b505afa15801561405a573d6000803e3d6000fd5b505050506040513d602081101561407057600080fd5b5051604080516001600160e01b031960e085901b1681526001600160a01b039092166004830152306024830152604482018c905251606480830192600092919082900301818387803b1580156140c557600080fd5b505af11580156140d9573d6000803e3d6000fd5b505050506040518060e001604052806140f0612af9565b6001600160a01b03168152602001886001600160a01b0316815260200182815260200187815260200186815260200184815260200160001515815250609760008b6001600160a01b03166001600160a01b0316815260200190815260200160002060008a815260200190815260200160002060008201518160000160006101000a8154816001600160a01b0302191690836001600160a01b0316021790555060208201518160010160006101000a8154816001600160a01b0302191690836001600160a01b0316021790555060408201518160020155606082015181600301556080820151816004015560a0820151816005015560c08201518160060160006101000a81548160ff02191690831515021790555090505087896001600160a01b03167fca437d90ed6373b827a01275bd2fdfe7e6406d7ecd400662ee0533d3546ab17a8960405180826001600160a01b0316815260200191505060405180910390a350979650505050505050565b600061426930614536565b15905090565b600054610100900460ff1680614288575061428861425e565b80614296575060005460ff16155b6142d15760405162461bcd60e51b815260040180806020018281038252602e81526020018061498c602e913960400191505060405180910390fd5b600054610100900460ff161580156142fc576000805460ff1961ff0019909116610100171660011790555b61430461453c565b61430c6145dc565b801561431e576000805461ff00191690555b50565b600054610100900460ff168061433a575061433a61425e565b80614348575060005460ff16155b6143835760405162461bcd60e51b815260040180806020018281038252602e81526020018061498c602e913960400191505060405180910390fd5b600054610100900460ff161580156143ae576000805460ff1961ff0019909116610100171660011790555b61430c6146d5565b600082820183811015614410576040805162461bcd60e51b815260206004820152601b60248201527f536166654d6174683a206164646974696f6e206f766572666c6f770000000000604482015290519081900360640190fd5b90505b92915050565b60008261442857506000614413565b8282028284828161443557fe5b04146144105760405162461bcd60e51b81526004018080602001828103825260218152602001806149f06021913960400191505060405180910390fd5b60008082116144c8576040805162461bcd60e51b815260206004820152601a60248201527f536166654d6174683a206469766973696f6e206279207a65726f000000000000604482015290519081900360640190fd5b8183816144d157fe5b049392505050565b600082821115614530576040805162461bcd60e51b815260206004820152601e60248201527f536166654d6174683a207375627472616374696f6e206f766572666c6f770000604482015290519081900360640190fd5b50900390565b3b151590565b600054610100900460ff1680614555575061455561425e565b80614563575060005460ff16155b61459e5760405162461bcd60e51b815260040180806020018281038252602e81526020018061498c602e913960400191505060405180910390fd5b600054610100900460ff1615801561430c576000805460ff1961ff001990911661010017166001179055801561431e576000805461ff001916905550565b600054610100900460ff16806145f557506145f561425e565b80614603575060005460ff16155b61463e5760405162461bcd60e51b815260040180806020018281038252602e81526020018061498c602e913960400191505060405180910390fd5b600054610100900460ff16158015614669576000805460ff1961ff0019909116610100171660011790555b6000614673612af9565b603380546001600160a01b0319166001600160a01b038316908117909155604051919250906000907f8be0079c531659141344cd1fd0a4f28419497f9722a3daafe3b4186f6b6457e0908290a350801561431e576000805461ff001916905550565b600054610100900460ff16806146ee57506146ee61425e565b806146fc575060005460ff16155b6147375760405162461bcd60e51b815260040180806020018281038252602e81526020018061498c602e913960400191505060405180910390fd5b600054610100900460ff16158015614762576000805460ff1961ff0019909116610100171660011790555b6001606555801561431e576000805461ff001916905550565b6040518060e0016040528060006001600160a01b0316815260200160006001600160a01b0316815260200160008152602001600081526020016000815260200160008152602001600015158152509056fe6269642063616e6e6f74206265206c6f776572207468616e20726573657276652070726963654552433230206d6574686f64207573656420666f72204554482061756374696f6e5265656e7472616e637947756172643a207265656e7472616e742063616c6c0054656e61727441756374696f6e3a20496e76616c696420506c6174666f726d2046656520526563697069656e744f776e61626c653a206e6577206f776e657220697320746865207a65726f206164647265737341756374696f6e2074696d652065786365656473206d6178696d756d206c656e677468656e642074696d65206d7573742062652067726561746572207468616e207374617274202862792035206d696e75746573295f6d736753656e6465722829206d7573742062652061756374696f6e2077696e6e6572206f722073656c6c657253656e646572206d757374206265206974656d206f776e657220616e64204e4654206d75737420626520696e20657363726f776661696c656420746f2073656e6420746865206f776e6572207468652061756374696f6e2062616c616e636561646472657373287468697329206d75737420626520746865206974656d206f776e6572496e697469616c697a61626c653a20636f6e747261637420697320616c726561647920696e697469616c697a656473746172742074696d652073686f756c64206265206c657373207468616e20656e642074696d65202862792035206d696e7574657329536166654d6174683a206d756c7469706c69636174696f6e206f766572666c6f774f776e61626c653a2063616c6c6572206973206e6f7420746865206f776e6572696e73756666696369656e742062616c616e6365206f72206e6f7420617070726f76656463616e207769746864726177206f6e6c7920616674657220313220686f757273202861667465722061756374696f6e20656e6465642968696768657374206269642069732062656c6f77207265736572766550726963656e6f74206f776e657220616e64206f7220636f6e7472616374206e6f7420617070726f766564526573657276652070726963652063616e206f6e6c792062652064656372656173656461756374696f6e20616c726561647920726573756c746564000000000000000048696768657374206269642069732063757272656e746c792061626f7665207265736572766520707269636562696464696e67206f757473696465206f66207468652061756374696f6e2077696e646f77a26469706673582212204f149a90983e16a1d2b12ef13c6fa9a68552a8e2fa884d3c24d4402feaa8ea4a64736f6c634300060c0033",
  "linkReferences": {},
  "deployedLinkReferences": {}
}