{
  "_format": "hh-sol-artifact-1",
  "contractName": "TenartRoyaltyRegistry",
  "sourceName": "contracts/TenartRoyaltyRegistry.sol",
  "abi": [
    {
      "anonymous": false,
      "inputs": [
        {
          "indexed": true,
          "internalType": "address",
          "name": "previousOwner",
          "type": "address"
        },
        {
          "indexed": true,
          "internalType": "address",
          "name": "newOwner",
          "type": "address"
        }
      ],
      "name": "OwnershipTransferred",
      "type": "event"
    },
    {
      "inputs": [],
      "name": "owner",
      "outputs": [
        {
          "internalType": "address",
          "name": "",
          "type": "address"
        }
      ],
      "stateMutability": "view",
      "type": "function"
    },
    {
      "inputs": [],
      "name": "renounceOwnership",
      "outputs": [],
      "stateMutability": "nonpayable",
      "type": "function"
    },
    {
      "inputs": [
        {
          "internalType": "address",
          "name": "_collection",
          "type": "address"
        },
        {
          "internalType": "uint256",
          "name": "_tokenId",
          "type": "uint256"
        },
        {
          "internalType": "uint256",
          "name": "_salePrice",
          "type": "uint256"
        }
      ],
      "name": "royaltyInfo",
      "outputs": [
        {
          "internalType": "address",
          "name": "_receiver",
          "type": "address"
        },
        {
          "internalType": "uint256",
          "name": "_royaltyAmount",
          "type": "uint256"
        }
      ],
      "stateMutability": "view",
      "type": "function"
    },
    {
      "inputs": [],
      "name": "royaltyMigrationManager",
      "outputs": [
        {
          "internalType": "address",
          "name": "",
          "type": "address"
        }
      ],
      "stateMutability": "view",
      "type": "function"
    },
    {
      "inputs": [
        {
          "internalType": "address",
          "name": "_collection",
          "type": "address"
        },
        {
          "internalType": "address",
          "name": "_receiver",
          "type": "address"
        },
        {
          "internalType": "uint16",
          "name": "_royaltyPercent",
          "type": "uint16"
        }
      ],
      "name": "setDefaultRoyalty",
      "outputs": [],
      "stateMutability": "nonpayable",
      "type": "function"
    },
    {
      "inputs": [
        {
          "internalType": "address",
          "name": "_collection",
          "type": "address"
        },
        {
          "internalType": "uint256",
          "name": "_tokenId",
          "type": "uint256"
        },
        {
          "internalType": "address",
          "name": "_receiver",
          "type": "address"
        },
        {
          "internalType": "uint16",
          "name": "_royaltyPercent",
          "type": "uint16"
        }
      ],
      "name": "setRoyalty",
      "outputs": [],
      "stateMutability": "nonpayable",
      "type": "function"
    },
    {
      "inputs": [
        {
          "internalType": "address",
          "name": "newOwner",
          "type": "address"
        }
      ],
      "name": "transferOwnership",
      "outputs": [],
      "stateMutability": "nonpayable",
      "type": "function"
    },
    {
      "inputs": [
        {
          "internalType": "address",
          "name": "_royaltyMigrationManager",
          "type": "address"
        }
      ],
      "name": "updateMigrationManager",
      "outputs": [],
      "stateMutability": "nonpayable",
      "type": "function"
    }
  ],
  "bytecode": "0x608060405234801561001057600080fd5b50600061001b61006a565b600080546001600160a01b0319166001600160a01b0383169081178255604051929350917f8be0079c531659141344cd1fd0a4f28419497f9722a3daafe3b4186f6b6457e0908290a35061006e565b3390565b610b6b8061007d6000396000f3fe608060405234801561001057600080fd5b50600436106100885760003560e01c80638da5cb5b1161005b5780638da5cb5b14610166578063d59cc2e21461018a578063f2fde38b14610192578063fef4f005146101b857610088565b80631149d95e1461008d57806353059d78146100ca578063538bd5ea14610109578063715018a61461015e575b600080fd5b6100c8600480360360608110156100a357600080fd5b5080356001600160a01b03908116916020810135909116906040013561ffff166101de565b005b6100c8600480360360808110156100e057600080fd5b5080356001600160a01b0390811691602081013591604082013516906060013561ffff16610348565b61013b6004803603606081101561011f57600080fd5b506001600160a01b03813516906020810135906040013561054e565b604080516001600160a01b03909316835260208301919091528051918290030190f35b6100c8610671565b61016e61071d565b604080516001600160a01b039092168252519081900360200190f35b61016e61072c565b6100c8600480360360208110156101a857600080fd5b50356001600160a01b031661073b565b6100c8600480360360208110156101ce57600080fd5b50356001600160a01b031661083d565b6101e66108c1565b6001600160a01b03166101f761071d565b6001600160a01b031614610240576040805162461bcd60e51b81526020600482018190526024820152600080516020610b16833981519152604482015290519081900360640190fd5b604080516301ffc9a760e01b8152631df54d3560e11b600482015290516001600160a01b038516916301ffc9a7916024808301926020929190829003018186803b15801561028d57600080fd5b505afa1580156102a1573d6000803e3d6000fd5b505050506040513d60208110156102b757600080fd5b50511561033657826001600160a01b0316634331f63983836040518363ffffffff1660e01b815260040180836001600160a01b031681526020018261ffff16815260200192505050600060405180830381600087803b15801561031957600080fd5b505af115801561032d573d6000803e3d6000fd5b50505050610343565b61034383600084846108c5565b505050565b83836103526108c1565b6001600160a01b0316826001600160a01b0316636352211e836040518263ffffffff1660e01b81526004018082815260200191505060206040518083038186803b15801561039f57600080fd5b505afa1580156103b3573d6000803e3d6000fd5b505050506040513d60208110156103c957600080fd5b50516001600160a01b031614806103fa57506001546001600160a01b03166103ef6108c1565b6001600160a01b0316145b61043c576040805162461bcd60e51b815260206004820152600e60248201526d1b9bdd08185d5d1a1bdc9a5e995960921b604482015290519081900360640190fd5b604080516301ffc9a760e01b8152631df54d3560e11b600482015290516001600160a01b038816916301ffc9a7916024808301926020929190829003018186803b15801561048957600080fd5b505afa15801561049d573d6000803e3d6000fd5b505050506040513d60208110156104b357600080fd5b50511561053a57856001600160a01b03166378db6c538686866040518463ffffffff1660e01b815260040180848152602001836001600160a01b031681526020018261ffff1681526020019350505050600060405180830381600087803b15801561051d57600080fd5b505af1158015610531573d6000803e3d6000fd5b50505050610546565b610546868686866108c5565b505050505050565b604080516301ffc9a760e01b815263152a902d60e11b6004820152905160009182916001600160a01b038716916301ffc9a7916024808301926020929190829003018186803b1580156105a057600080fd5b505afa1580156105b4573d6000803e3d6000fd5b505050506040513d60208110156105ca57600080fd5b505115610658576040805163152a902d60e11b8152600481018690526024810185905281516001600160a01b03881692632a55205a9260448082019391829003018186803b15801561061b57600080fd5b505afa15801561062f573d6000803e3d6000fd5b505050506040513d604081101561064557600080fd5b5080516020909101519092509050610669565b610663858585610a1b565b90925090505b935093915050565b6106796108c1565b6001600160a01b031661068a61071d565b6001600160a01b0316146106d3576040805162461bcd60e51b81526020600482018190526024820152600080516020610b16833981519152604482015290519081900360640190fd5b600080546040516001600160a01b03909116907f8be0079c531659141344cd1fd0a4f28419497f9722a3daafe3b4186f6b6457e0908390a3600080546001600160a01b0319169055565b6000546001600160a01b031690565b6001546001600160a01b031681565b6107436108c1565b6001600160a01b031661075461071d565b6001600160a01b03161461079d576040805162461bcd60e51b81526020600482018190526024820152600080516020610b16833981519152604482015290519081900360640190fd5b6001600160a01b0381166107e25760405162461bcd60e51b8152600401808060200182810382526026815260200180610af06026913960400191505060405180910390fd5b600080546040516001600160a01b03808516939216917f8be0079c531659141344cd1fd0a4f28419497f9722a3daafe3b4186f6b6457e091a3600080546001600160a01b0319166001600160a01b0392909216919091179055565b6108456108c1565b6001600160a01b031661085661071d565b6001600160a01b03161461089f576040805162461bcd60e51b81526020600482018190526024820152600080516020610b16833981519152604482015290519081900360640190fd5b600180546001600160a01b0319166001600160a01b0392909216919091179055565b3390565b6108cd610ad8565b506001600160a01b038481166000908152600260209081526040808320878452825291829020825180840190935254928316808352600160a01b90930461ffff1690820152901561095b576040805162461bcd60e51b8152602060048201526013602482015272149bde585b1d1e48185b1c9958591e481cd95d606a1b604482015290519081900360640190fd5b6127108261ffff1611156109a9576040805162461bcd60e51b815260206004820152601060248201526f0a4def2c2d8e8f240e8dede40d0d2ced60831b604482015290519081900360640190fd5b506040805180820182526001600160a01b03938416815261ffff92831660208083019182529685166000908152600288528381209681529590965293209251835494516001600160a01b031990951692169190911761ffff60a01b1916600160a01b9390911692909202919091179055565b600080610a26610ad8565b506001600160a01b038581166000908152600260209081526040808320888452825291829020825180840190935254928316808352600160a01b90930461ffff169082015290610ab857506001600160a01b0385811660009081526002602090815260408083208380528252918290208251808401909352549283168252600160a01b90920461ffff16918101919091525b805160208201519093506127109061ffff16850204915050935093915050565b60408051808201909152600080825260208201529056fe4f776e61626c653a206e6577206f776e657220697320746865207a65726f20616464726573734f776e61626c653a2063616c6c6572206973206e6f7420746865206f776e6572a264697066735822122091acf0dc84743281cabbc79ddb9219ec19caf03d1a9169eb6e54560e6dfb68c264736f6c634300060c0033",
  "linkReferences": {},
  "deployedLinkReferences": {}
}