{
  "_format": "hh-sol-artifact-1",
  "contractName": "BiddingContractMock",
  "sourceName": "contracts/mock/BiddingContractMock.sol",
  "abi": [
    {
      "inputs": [
        {
          "internalType": "contract PixellyAuction",
          "name": "_auctionContract",
          "type": "address"
        }
      ],
      "stateMutability": "nonpayable",
      "type": "constructor"
    },
    {
      "inputs": [],
      "name": "auctionContract",
      "outputs": [
        {
          "internalType": "contract PixellyAuction",
          "name": "",
          "type": "address"
        }
      ],
      "stateMutability": "view",
      "type": "function"
    }
  ],
  "bytecode": "0x608060405234801561001057600080fd5b506040516100f83803806100f88339818101604052602081101561003357600080fd5b5051600080546001600160a01b039092166001600160a01b03199092169190911790556094806100646000396000f3fe6080604052348015600f57600080fd5b506004361060285760003560e01c80630ab8afac14602d575b600080fd5b6033604f565b604080516001600160a01b039092168252519081900360200190f35b6000546001600160a01b03168156fea2646970667358221220bd940b1dde0406b7d8bc804c9950cb6134feab8a2029b0ee02dbfc785170bb4764736f6c634300060c0033",
  "linkReferences": {},
  "deployedLinkReferences": {}
}