{
  "_format": "hh-sol-artifact-1",
  "contractName": "FeeSharingSystem",
  "sourceName": "contracts/Rewards/FeeSharingSystem.sol",
  "abi": [
    {
      "inputs": [
        {
          "internalType": "address",
          "name": "_tenartToken",
          "type": "address"
        },
        {
          "internalType": "address",
          "name": "_rewardToken",
          "type": "address"
        },
        {
          "internalType": "address",
          "name": "_tokenDistributor",
          "type": "address"
        }
      ],
      "stateMutability": "nonpayable",
      "type": "constructor"
    },
    {
      "anonymous": false,
      "inputs": [
        {
          "indexed": true,
          "internalType": "address",
          "name": "user",
          "type": "address"
        },
        {
          "indexed": false,
          "internalType": "uint256",
          "name": "amount",
          "type": "uint256"
        },
        {
          "indexed": false,
          "internalType": "uint256",
          "name": "harvestedAmount",
          "type": "uint256"
        }
      ],
      "name": "Deposit",
      "type": "event"
    },
    {
      "anonymous": false,
      "inputs": [
        {
          "indexed": true,
          "internalType": "address",
          "name": "user",
          "type": "address"
        },
        {
          "indexed": false,
          "internalType": "uint256",
          "name": "harvestedAmount",
          "type": "uint256"
        }
      ],
      "name": "Harvest",
      "type": "event"
    },
    {
      "anonymous": false,
      "inputs": [
        {
          "indexed": false,
          "internalType": "uint256",
          "name": "numberBlocks",
          "type": "uint256"
        },
        {
          "indexed": false,
          "internalType": "uint256",
          "name": "rewardPerBlock",
          "type": "uint256"
        },
        {
          "indexed": false,
          "internalType": "uint256",
          "name": "reward",
          "type": "uint256"
        }
      ],
      "name": "NewRewardPeriod",
      "type": "event"
    },
    {
      "anonymous": false,
      "inputs": [
        {
          "indexed": true,
          "internalType": "address",
          "name": "previousOwner",
          "type": "address"
        },
        {
          "indexed": true,
          "internalType": "address",
          "name": "newOwner",
          "type": "address"
        }
      ],
      "name": "OwnershipTransferred",
      "type": "event"
    },
    {
      "anonymous": false,
      "inputs": [
        {
          "indexed": true,
          "internalType": "address",
          "name": "user",
          "type": "address"
        },
        {
          "indexed": false,
          "internalType": "uint256",
          "name": "amount",
          "type": "uint256"
        },
        {
          "indexed": false,
          "internalType": "uint256",
          "name": "harvestedAmount",
          "type": "uint256"
        }
      ],
      "name": "Withdraw",
      "type": "event"
    },
    {
      "inputs": [],
      "name": "PRECISION_FACTOR",
      "outputs": [
        {
          "internalType": "uint256",
          "name": "",
          "type": "uint256"
        }
      ],
      "stateMutability": "view",
      "type": "function"
    },
    {
      "inputs": [
        {
          "internalType": "address",
          "name": "user",
          "type": "address"
        }
      ],
      "name": "calculatePendingRewards",
      "outputs": [
        {
          "internalType": "uint256",
          "name": "",
          "type": "uint256"
        }
      ],
      "stateMutability": "view",
      "type": "function"
    },
    {
      "inputs": [],
      "name": "calculateSharePriceInTART",
      "outputs": [
        {
          "internalType": "uint256",
          "name": "",
          "type": "uint256"
        }
      ],
      "stateMutability": "view",
      "type": "function"
    },
    {
      "inputs": [
        {
          "internalType": "address",
          "name": "user",
          "type": "address"
        }
      ],
      "name": "calculateSharesValueInTART",
      "outputs": [
        {
          "internalType": "uint256",
          "name": "",
          "type": "uint256"
        }
      ],
      "stateMutability": "view",
      "type": "function"
    },
    {
      "inputs": [],
      "name": "currentRewardPerBlock",
      "outputs": [
        {
          "internalType": "uint256",
          "name": "",
          "type": "uint256"
        }
      ],
      "stateMutability": "view",
      "type": "function"
    },
    {
      "inputs": [
        {
          "internalType": "uint256",
          "name": "amount",
          "type": "uint256"
        },
        {
          "internalType": "bool",
          "name": "claimRewardToken",
          "type": "bool"
        }
      ],
      "name": "deposit",
      "outputs": [],
      "stateMutability": "nonpayable",
      "type": "function"
    },
    {
      "inputs": [],
      "name": "harvest",
      "outputs": [],
      "stateMutability": "nonpayable",
      "type": "function"
    },
    {
      "inputs": [],
      "name": "lastRewardAdjustment",
      "outputs": [
        {
          "internalType": "uint256",
          "name": "",
          "type": "uint256"
        }
      ],
      "stateMutability": "view",
      "type": "function"
    },
    {
      "inputs": [],
      "name": "lastRewardBlock",
      "outputs": [
        {
          "internalType": "uint256",
          "name": "",
          "type": "uint256"
        }
      ],
      "stateMutability": "view",
      "type": "function"
    },
    {
      "inputs": [],
      "name": "lastUpdateBlock",
      "outputs": [
        {
          "internalType": "uint256",
          "name": "",
          "type": "uint256"
        }
      ],
      "stateMutability": "view",
      "type": "function"
    },
    {
      "inputs": [],
      "name": "owner",
      "outputs": [
        {
          "internalType": "address",
          "name": "",
          "type": "address"
        }
      ],
      "stateMutability": "view",
      "type": "function"
    },
    {
      "inputs": [],
      "name": "periodEndBlock",
      "outputs": [
        {
          "internalType": "uint256",
          "name": "",
          "type": "uint256"
        }
      ],
      "stateMutability": "view",
      "type": "function"
    },
    {
      "inputs": [],
      "name": "renounceOwnership",
      "outputs": [],
      "stateMutability": "nonpayable",
      "type": "function"
    },
    {
      "inputs": [],
      "name": "rewardPerTokenStored",
      "outputs": [
        {
          "internalType": "uint256",
          "name": "",
          "type": "uint256"
        }
      ],
      "stateMutability": "view",
      "type": "function"
    },
    {
      "inputs": [],
      "name": "rewardToken",
      "outputs": [
        {
          "internalType": "contract IERC20",
          "name": "",
          "type": "address"
        }
      ],
      "stateMutability": "view",
      "type": "function"
    },
    {
      "inputs": [],
      "name": "tenartToken",
      "outputs": [
        {
          "internalType": "contract IERC20",
          "name": "",
          "type": "address"
        }
      ],
      "stateMutability": "view",
      "type": "function"
    },
    {
      "inputs": [],
      "name": "tokenDistributor",
      "outputs": [
        {
          "internalType": "contract TokenDistributor",
          "name": "",
          "type": "address"
        }
      ],
      "stateMutability": "view",
      "type": "function"
    },
    {
      "inputs": [],
      "name": "totalShares",
      "outputs": [
        {
          "internalType": "uint256",
          "name": "",
          "type": "uint256"
        }
      ],
      "stateMutability": "view",
      "type": "function"
    },
    {
      "inputs": [
        {
          "internalType": "address",
          "name": "newOwner",
          "type": "address"
        }
      ],
      "name": "transferOwnership",
      "outputs": [],
      "stateMutability": "nonpayable",
      "type": "function"
    },
    {
      "inputs": [
        {
          "internalType": "uint256",
          "name": "reward",
          "type": "uint256"
        },
        {
          "internalType": "uint256",
          "name": "rewardDurationInBlocks",
          "type": "uint256"
        }
      ],
      "name": "updateRewards",
      "outputs": [],
      "stateMutability": "nonpayable",
      "type": "function"
    },
    {
      "inputs": [
        {
          "internalType": "address",
          "name": "",
          "type": "address"
        }
      ],
      "name": "userInfo",
      "outputs": [
        {
          "internalType": "uint256",
          "name": "shares",
          "type": "uint256"
        },
        {
          "internalType": "uint256",
          "name": "userRewardPerTokenPaid",
          "type": "uint256"
        },
        {
          "internalType": "uint256",
          "name": "rewards",
          "type": "uint256"
        }
      ],
      "stateMutability": "view",
      "type": "function"
    },
    {
      "inputs": [
        {
          "internalType": "uint256",
          "name": "shares",
          "type": "uint256"
        },
        {
          "internalType": "bool",
          "name": "claimRewardToken",
          "type": "bool"
        }
      ],
      "name": "withdraw",
      "outputs": [],
      "stateMutability": "nonpayable",
      "type": "function"
    },
    {
      "inputs": [
        {
          "internalType": "bool",
          "name": "claimRewardToken",
          "type": "bool"
        }
      ],
      "name": "withdrawAll",
      "outputs": [],
      "stateMutability": "nonpayable",
      "type": "function"
    }
  ],
  "bytecode": "0x60e060405234801561001057600080fd5b50604051611b7f380380611b7f8339818101604052606081101561003357600080fd5b5080516020820151604090920151600160009081559192916100536100c7565b600180546001600160a01b0319166001600160a01b038316908117909155604051919250906000907f8be0079c531659141344cd1fd0a4f28419497f9722a3daafe3b4186f6b6457e0908290a3506001600160601b0319606092831b811660a05292821b8316608052901b1660c0526100cb565b3390565b60805160601c60a05160601c60c05160601c611a2061015f6000398061034f528061051752806108e552806109825280610b185280610b3e5280610c355280610ced5280610ed45280610f8c52806110b8528061115552806112145250806105f95280610ae35280610ead52806112b252508061072652806109ff52806112ee5280611490528061150a5250611a206000f3fe608060405234801561001057600080fd5b506004361061014d5760003560e01c80638da5cb5b116100c3578063ccd34cd51161007c578063ccd34cd5146102d0578063df136d65146102d8578063e6b11101146102e0578063f2fde38b146102e8578063f7c618c11461030e578063f97ad6e5146103165761014d565b80638da5cb5b1461026857806397e50818146102705780639a40832114610293578063a218141b146102b8578063a9f8d181146102c0578063cb4aec61146102c85761014d565b80633a98ef39116101155780633a98ef391461023857806340d2abae14610240578063442da82f146102485780634641257d14610250578063715018a61461025857806383b42e20146102605761014d565b8063097aad101461015257806318a6bc321461018a5780631959a002146101ae5780631c1c6fe5146101f257806338d0743614610213575b600080fd5b6101786004803603602081101561016857600080fd5b50356001600160a01b031661033c565b60408051918252519081900360200190f35b61019261034d565b604080516001600160a01b039092168252519081900360200190f35b6101d4600480360360208110156101c457600080fd5b50356001600160a01b0316610371565b60408051938452602084019290925282820152519081900360600190f35b6102116004803603602081101561020857600080fd5b50351515610392565b005b6102116004803603604081101561022957600080fd5b508035906020013515156103fe565b6101786104b5565b6101786104bb565b6101786104c1565b6102116104c7565b610211610666565b610192610724565b610192610748565b6102116004803603604081101561028657600080fd5b5080359060200135610758565b610211600480360360408110156102a957600080fd5b50803590602001351515610851565b610178610c03565b610178610c09565b610178610c18565b610178610c1e565b610178610c2a565b610178610c30565b610211600480360360208110156102fe57600080fd5b50356001600160a01b0316610d96565b610192610eab565b6101786004803603602081101561032c57600080fd5b50356001600160a01b0316610ecf565b600061034782611055565b92915050565b7f000000000000000000000000000000000000000000000000000000000000000081565b60086020526000908152604090208054600182015460029092015490919083565b600260005414156103d8576040805162461bcd60e51b815260206004820152601f60248201526000805160206118da833981519152604482015290519081900360640190fd5b60026000908155338152600860205260409020546103f690826110b6565b506001600055565b60026000541415610444576040805162461bcd60e51b815260206004820152601f60248201526000805160206118da833981519152604482015290519081900360640190fd5b600260005581158015906104675750336000908152600860205260409020548211155b6104a25760405162461bcd60e51b81526004018080602001828103825260368152602001806119676036913960400191505060405180910390fd5b6104ac82826110b6565b50506001600055565b60075481565b60035481565b60055481565b6002600054141561050d576040805162461bcd60e51b815260206004820152601f60248201526000805160206118da833981519152604482015290519081900360640190fd5b60026000819055507f00000000000000000000000000000000000000000000000000000000000000006001600160a01b0316632a4e051b6040518163ffffffff1660e01b8152600401600060405180830381600087803b15801561057057600080fd5b505af1158015610584573d6000803e3d6000fd5b5050505061059133611356565b33600090815260086020526040902060020154806105e05760405162461bcd60e51b815260040180806020018281038252602481526020018061199d6024913960400191505060405180910390fd5b33600081815260086020526040812060020155610628907f00000000000000000000000000000000000000000000000000000000000000006001600160a01b031690836113ab565b60408051828152905133917fc9695243a805adb74c91f28311176c65b417e842d5699893cef56d18bfa48cba919081900360200190a2506001600055565b61066e611402565b6001600160a01b031661067f610748565b6001600160a01b0316146106da576040805162461bcd60e51b815260206004820181905260248201527f4f776e61626c653a2063616c6c6572206973206e6f7420746865206f776e6572604482015290519081900360640190fd5b6001546040516000916001600160a01b0316907f8be0079c531659141344cd1fd0a4f28419497f9722a3daafe3b4186f6b6457e0908390a3600180546001600160a01b0319169055565b7f000000000000000000000000000000000000000000000000000000000000000081565b6001546001600160a01b03165b90565b610760611402565b6001600160a01b0316610771610748565b6001600160a01b0316146107cc576040805162461bcd60e51b815260206004820181905260248201527f4f776e61626c653a2063616c6c6572206973206e6f7420746865206f776e6572604482015290519081900360640190fd5b60055443106107e7578082816107de57fe5b046002556107ff565b806002544360055403028301816107fa57fe5b046002555b4360048190558101600555600254604080518381526020810192909252818101849052517f55b4fa63fe43865f67b4f2c4a4df1cf9e6c1f85767211b44b45cf4649b2c2b519181900360600190a15050565b60026000541415610897576040805162461bcd60e51b815260206004820152601f60248201526000805160206118da833981519152604482015290519081900360640190fd5b6002600055670de0b6b3a76400008210156108e35760405162461bcd60e51b81526004018080602001828103825260218152602001806118fa6021913960400191505060405180910390fd5b7f00000000000000000000000000000000000000000000000000000000000000006001600160a01b0316632a4e051b6040518163ffffffff1660e01b8152600401600060405180830381600087803b15801561093e57600080fd5b505af1158015610952573d6000803e3d6000fd5b5050505061095f33611356565b60408051630cacd00160e11b815230600482015281516000926001600160a01b037f00000000000000000000000000000000000000000000000000000000000000001692631959a0029260248083019392829003018186803b1580156109c457600080fd5b505afa1580156109d8573d6000803e3d6000fd5b505050506040513d60408110156109ee57600080fd5b50519050610a276001600160a01b037f000000000000000000000000000000000000000000000000000000000000000016333086611406565b6000600754600014610a8a5781600754850281610a4057fe5b04905080610a85576040805162461bcd60e51b815260206004820152600d60248201526c11195c1bdcda5d0e8811985a5b609a1b604482015290519081900360640190fd5b610a8d565b50825b33600090815260086020526040812080548301905560078054830190558315610b125750336000908152600860205260409020600201548015610b125733600081815260086020526040812060020155610b12907f00000000000000000000000000000000000000000000000000000000000000006001600160a01b031690836113ab565b610b3c857f0000000000000000000000000000000000000000000000000000000000000000611466565b7f00000000000000000000000000000000000000000000000000000000000000006001600160a01b031663b6b55f25866040518263ffffffff1660e01b815260040180828152602001915050600060405180830381600087803b158015610ba257600080fd5b505af1158015610bb6573d6000803e3d6000fd5b5050604080518881526020810185905281513394507f90890809c654f11d6e72a28fa60149770a0d11ec6c92319d6ceb2bb0a4ea1a1593509081900390910190a250506001600055505050565b60045481565b6000610c136115af565b905090565b60025481565b670de0b6b3a764000081565b60065481565b6000807f00000000000000000000000000000000000000000000000000000000000000006001600160a01b0316631959a002306040518263ffffffff1660e01b815260040180826001600160a01b03168152602001915050604080518083038186803b158015610c9f57600080fd5b505afa158015610cb3573d6000803e3d6000fd5b505050506040513d6040811015610cc957600080fd5b5051604080516297aad160e41b815230600482015290519192506001600160a01b037f0000000000000000000000000000000000000000000000000000000000000000169163097aad1091602480820192602092909190829003018186803b158015610d3457600080fd5b505afa158015610d48573d6000803e3d6000fd5b505050506040513d6020811015610d5e57600080fd5b505160075491019015610d8657600754670de0b6b3a7640000820281610d8057fe5b04610d90565b670de0b6b3a76400005b91505090565b610d9e611402565b6001600160a01b0316610daf610748565b6001600160a01b031614610e0a576040805162461bcd60e51b815260206004820181905260248201527f4f776e61626c653a2063616c6c6572206973206e6f7420746865206f776e6572604482015290519081900360640190fd5b6001600160a01b038116610e4f5760405162461bcd60e51b815260040180806020018281038252602681526020018061191b6026913960400191505060405180910390fd5b6001546040516001600160a01b038084169216907f8be0079c531659141344cd1fd0a4f28419497f9722a3daafe3b4186f6b6457e090600090a3600180546001600160a01b0319166001600160a01b0392909216919091179055565b7f000000000000000000000000000000000000000000000000000000000000000081565b6000807f00000000000000000000000000000000000000000000000000000000000000006001600160a01b0316631959a002306040518263ffffffff1660e01b815260040180826001600160a01b03168152602001915050604080518083038186803b158015610f3e57600080fd5b505afa158015610f52573d6000803e3d6000fd5b505050506040513d6040811015610f6857600080fd5b5051604080516297aad160e41b815230600482015290519192506001600160a01b037f0000000000000000000000000000000000000000000000000000000000000000169163097aad1091602480820192602092909190829003018186803b158015610fd357600080fd5b505afa158015610fe7573d6000803e3d6000fd5b505050506040513d6020811015610ffd57600080fd5b50516001600160a01b0384166000908152600860205260409020549101901561104b576007546001600160a01b03841660009081526008602052604090205482028161104557fe5b0461104e565b60005b9392505050565b6001600160a01b03811660009081526008602052604081206002810154600190910154670de0b6b3a76400009061108a6115c7565b6001600160a01b03861660009081526008602052604090205491900302816110ae57fe5b040192915050565b7f00000000000000000000000000000000000000000000000000000000000000006001600160a01b0316632a4e051b6040518163ffffffff1660e01b8152600401600060405180830381600087803b15801561111157600080fd5b505af1158015611125573d6000803e3d6000fd5b5050505061113233611356565b60408051630cacd00160e11b815230600482015281516000926001600160a01b037f00000000000000000000000000000000000000000000000000000000000000001692631959a0029260248083019392829003018186803b15801561119757600080fd5b505afa1580156111ab573d6000803e3d6000fd5b505050506040513d60408110156111c157600080fd5b5051600754909150600090848302816111d657fe5b33600090815260086020526040808220805489900390556007805489900390558051632e1a7d4d60e01b8152939092046004840181905291519193507f00000000000000000000000000000000000000000000000000000000000000006001600160a01b031692632e1a7d4d926024808301939282900301818387803b15801561125f57600080fd5b505af1158015611273573d6000803e3d6000fd5b50505050600083156112e157503360009081526008602052604090206002015480156112e157336000818152600860205260408120600201556112e1907f00000000000000000000000000000000000000000000000000000000000000006001600160a01b031690836113ab565b6113156001600160a01b037f00000000000000000000000000000000000000000000000000000000000000001633846113ab565b6040805183815260208101839052815133927ff279e6a1f5e320cca91135676d9cb6e44ca8a08c0b88342bcdb1144f6511b568928290030190a25050505050565b6004544314611376576113676115c7565b6006556113726115af565b6004555b61137f81611055565b6001600160a01b0390911660009081526008602052604090206002810191909155600654600190910155565b604080516001600160a01b038416602482015260448082018490528251808303909101815260649091019091526020810180516001600160e01b031663a9059cbb60e01b1790526113fd90849061160b565b505050565b3390565b604080516001600160a01b0380861660248301528416604482015260648082018490528251808303909101815260849091019091526020810180516001600160e01b03166323b872dd60e01b17905261146090859061160b565b50505050565b60408051636eb1769f60e11b81523060048201526001600160a01b038381166024830152915184927f0000000000000000000000000000000000000000000000000000000000000000169163dd62ed3e916044808301926020929190829003018186803b1580156114d657600080fd5b505afa1580156114ea573d6000803e3d6000fd5b505050506040513d602081101561150057600080fd5b505110156115ab577f00000000000000000000000000000000000000000000000000000000000000006001600160a01b031663095ea7b3826000196040518363ffffffff1660e01b815260040180836001600160a01b0316815260200182815260200192505050602060405180830381600087803b15801561158157600080fd5b505af1158015611595573d6000803e3d6000fd5b505050506040513d602081101561146057600080fd5b5050565b600060055443106115c257600554610c13565b504390565b6000600754600014156115dd5750600654610755565b600754670de0b6b3a7640000600254026004546115f86115af565b03028161160157fe5b0460065401905090565b6060611660826040518060400160405280602081526020017f5361666545524332303a206c6f772d6c6576656c2063616c6c206661696c6564815250856001600160a01b03166116bc9092919063ffffffff16565b8051909150156113fd5780806020019051602081101561167f57600080fd5b50516113fd5760405162461bcd60e51b815260040180806020018281038252602a8152602001806119c1602a913960400191505060405180910390fd5b60606116cb84846000856116d3565b949350505050565b6060824710156117145760405162461bcd60e51b81526004018080602001828103825260268152602001806119416026913960400191505060405180910390fd5b61171d8561182f565b61176e576040805162461bcd60e51b815260206004820152601d60248201527f416464726573733a2063616c6c20746f206e6f6e2d636f6e7472616374000000604482015290519081900360640190fd5b60006060866001600160a01b031685876040518082805190602001908083835b602083106117ad5780518252601f19909201916020918201910161178e565b6001836020036101000a03801982511681845116808217855250505050505090500191505060006040518083038185875af1925050503d806000811461180f576040519150601f19603f3d011682016040523d82523d6000602084013e611814565b606091505b5091509150611824828286611835565b979650505050505050565b3b151590565b6060831561184457508161104e565b8251156118545782518084602001fd5b8160405162461bcd60e51b81526004018080602001828103825283818151815260200191508051906020019080838360005b8381101561189e578181015183820152602001611886565b50505050905090810190601f1680156118cb5780820380516001836020036101000a031916815260200191505b509250505060405180910390fdfe5265656e7472616e637947756172643a207265656e7472616e742063616c6c004465706f7369743a20416d6f756e74206d757374206265203e3d203120544152544f776e61626c653a206e6577206f776e657220697320746865207a65726f2061646472657373416464726573733a20696e73756666696369656e742062616c616e636520666f722063616c6c57697468647261773a2053686172657320657175616c20746f2030206f72206c6172676572207468616e207573657220736861726573486172766573743a2050656e64696e672072657761726473206d757374206265203e20305361666545524332303a204552433230206f7065726174696f6e20646964206e6f742073756363656564a2646970667358221220f8e8f42ee9d4fecbf8688939aae929b9e38422b10aa61212eb53202b60e6369964736f6c634300060c0033",
  "linkReferences": {},
  "deployedLinkReferences": {}
}