{
  "_format": "hh-sol-artifact-1",
  "contractName": "TenartAddressRegistry",
  "sourceName": "contracts/TenartAddressRegistry.sol",
  "abi": [
    {
      "anonymous": false,
      "inputs": [
        {
          "indexed": true,
          "internalType": "address",
          "name": "previousOwner",
          "type": "address"
        },
        {
          "indexed": true,
          "internalType": "address",
          "name": "newOwner",
          "type": "address"
        }
      ],
      "name": "OwnershipTransferred",
      "type": "event"
    },
    {
      "inputs": [],
      "name": "artFactory",
      "outputs": [
        {
          "internalType": "address",
          "name": "",
          "type": "address"
        }
      ],
      "stateMutability": "view",
      "type": "function"
    },
    {
      "inputs": [],
      "name": "auction",
      "outputs": [
        {
          "internalType": "address",
          "name": "",
          "type": "address"
        }
      ],
      "stateMutability": "view",
      "type": "function"
    },
    {
      "inputs": [],
      "name": "bundleMarketplace",
      "outputs": [
        {
          "internalType": "address",
          "name": "",
          "type": "address"
        }
      ],
      "stateMutability": "view",
      "type": "function"
    },
    {
      "inputs": [],
      "name": "factory",
      "outputs": [
        {
          "internalType": "address",
          "name": "",
          "type": "address"
        }
      ],
      "stateMutability": "view",
      "type": "function"
    },
    {
      "inputs": [],
      "name": "marketplace",
      "outputs": [
        {
          "internalType": "address",
          "name": "",
          "type": "address"
        }
      ],
      "stateMutability": "view",
      "type": "function"
    },
    {
      "inputs": [],
      "name": "owner",
      "outputs": [
        {
          "internalType": "address",
          "name": "",
          "type": "address"
        }
      ],
      "stateMutability": "view",
      "type": "function"
    },
    {
      "inputs": [],
      "name": "priceFeed",
      "outputs": [
        {
          "internalType": "address",
          "name": "",
          "type": "address"
        }
      ],
      "stateMutability": "view",
      "type": "function"
    },
    {
      "inputs": [],
      "name": "privateArtFactory",
      "outputs": [
        {
          "internalType": "address",
          "name": "",
          "type": "address"
        }
      ],
      "stateMutability": "view",
      "type": "function"
    },
    {
      "inputs": [],
      "name": "privateFactory",
      "outputs": [
        {
          "internalType": "address",
          "name": "",
          "type": "address"
        }
      ],
      "stateMutability": "view",
      "type": "function"
    },
    {
      "inputs": [],
      "name": "renounceOwnership",
      "outputs": [],
      "stateMutability": "nonpayable",
      "type": "function"
    },
    {
      "inputs": [],
      "name": "royaltyRegistry",
      "outputs": [
        {
          "internalType": "address",
          "name": "",
          "type": "address"
        }
      ],
      "stateMutability": "view",
      "type": "function"
    },
    {
      "inputs": [],
      "name": "tenartNFT",
      "outputs": [
        {
          "internalType": "address",
          "name": "",
          "type": "address"
        }
      ],
      "stateMutability": "view",
      "type": "function"
    },
    {
      "inputs": [],
      "name": "tokenRegistry",
      "outputs": [
        {
          "internalType": "address",
          "name": "",
          "type": "address"
        }
      ],
      "stateMutability": "view",
      "type": "function"
    },
    {
      "inputs": [
        {
          "internalType": "address",
          "name": "newOwner",
          "type": "address"
        }
      ],
      "name": "transferOwnership",
      "outputs": [],
      "stateMutability": "nonpayable",
      "type": "function"
    },
    {
      "inputs": [
        {
          "internalType": "address",
          "name": "_artFactory",
          "type": "address"
        }
      ],
      "name": "updateArtFactory",
      "outputs": [],
      "stateMutability": "nonpayable",
      "type": "function"
    },
    {
      "inputs": [
        {
          "internalType": "address",
          "name": "_privateArtFactory",
          "type": "address"
        }
      ],
      "name": "updateArtFactoryPrivate",
      "outputs": [],
      "stateMutability": "nonpayable",
      "type": "function"
    },
    {
      "inputs": [
        {
          "internalType": "address",
          "name": "_auction",
          "type": "address"
        }
      ],
      "name": "updateAuction",
      "outputs": [],
      "stateMutability": "nonpayable",
      "type": "function"
    },
    {
      "inputs": [
        {
          "internalType": "address",
          "name": "_bundleMarketplace",
          "type": "address"
        }
      ],
      "name": "updateBundleMarketplace",
      "outputs": [],
      "stateMutability": "nonpayable",
      "type": "function"
    },
    {
      "inputs": [
        {
          "internalType": "address",
          "name": "_marketplace",
          "type": "address"
        }
      ],
      "name": "updateMarketplace",
      "outputs": [],
      "stateMutability": "nonpayable",
      "type": "function"
    },
    {
      "inputs": [
        {
          "internalType": "address",
          "name": "_factory",
          "type": "address"
        }
      ],
      "name": "updateNFTFactory",
      "outputs": [],
      "stateMutability": "nonpayable",
      "type": "function"
    },
    {
      "inputs": [
        {
          "internalType": "address",
          "name": "_privateFactory",
          "type": "address"
        }
      ],
      "name": "updateNFTFactoryPrivate",
      "outputs": [],
      "stateMutability": "nonpayable",
      "type": "function"
    },
    {
      "inputs": [
        {
          "internalType": "address",
          "name": "_priceFeed",
          "type": "address"
        }
      ],
      "name": "updatePriceFeed",
      "outputs": [],
      "stateMutability": "nonpayable",
      "type": "function"
    },
    {
      "inputs": [
        {
          "internalType": "address",
          "name": "_royaltyRegistry",
          "type": "address"
        }
      ],
      "name": "updateRoyaltyRegistry",
      "outputs": [],
      "stateMutability": "nonpayable",
      "type": "function"
    },
    {
      "inputs": [
        {
          "internalType": "address",
          "name": "_tenartNFT",
          "type": "address"
        }
      ],
      "name": "updateTenartNFT",
      "outputs": [],
      "stateMutability": "nonpayable",
      "type": "function"
    },
    {
      "inputs": [
        {
          "internalType": "address",
          "name": "_tokenRegistry",
          "type": "address"
        }
      ],
      "name": "updateTokenRegistry",
      "outputs": [],
      "stateMutability": "nonpayable",
      "type": "function"
    }
  ],
  "bytecode": "0x608060405234801561001057600080fd5b50600061001b61006a565b600080546001600160a01b0319166001600160a01b0383169081178255604051929350917f8be0079c531659141344cd1fd0a4f28419497f9722a3daafe3b4186f6b6457e0908290a35061006e565b3390565b610d0b8061007d6000396000f3fe608060405234801561001057600080fd5b50600436106101735760003560e01c8063975a426a116100de578063b717bb2211610097578063cc7572d611610071578063cc7572d61461032e578063e35bead514610354578063eb6363171461037a578063f2fde38b146103a057610173565b8063b717bb22146102da578063c45a015514610300578063cc2531931461030857610173565b8063975a426a1461026e5780639d0e24a7146102945780639d23c4c7146102ba5780639e1f5b28146102c2578063a11b0712146102ca578063abc8c7af146102d257610173565b8063741bef1a11610130578063741bef1a146102025780637d9f6db51461020a5780638590f295146102125780638da5cb5b14610238578063924db13f1461024057806395877f781461024857610173565b80630fb27d8c146101785780631fa915a41461019c578063330bf32d146101c45780633402a036146101cc578063715018a6146101f2578063735db939146101fa575b600080fd5b6101806103c6565b604080516001600160a01b039092168252519081900360200190f35b6101c2600480360360208110156101b257600080fd5b50356001600160a01b03166103d5565b005b610180610459565b6101c2600480360360208110156101e257600080fd5b50356001600160a01b0316610468565b6101c26104ec565b610180610598565b6101806105a7565b6101806105b6565b6101c26004803603602081101561022857600080fd5b50356001600160a01b03166105c5565b610180610649565b610180610658565b6101c26004803603602081101561025e57600080fd5b50356001600160a01b0316610667565b6101c26004803603602081101561028457600080fd5b50356001600160a01b03166106eb565b6101c2600480360360208110156102aa57600080fd5b50356001600160a01b031661076f565b6101806107f3565b610180610802565b610180610811565b610180610820565b6101c2600480360360208110156102f057600080fd5b50356001600160a01b031661082f565b6101806108b3565b6101c26004803603602081101561031e57600080fd5b50356001600160a01b03166108c2565b6101c26004803603602081101561034457600080fd5b50356001600160a01b0316610946565b6101c26004803603602081101561036a57600080fd5b50356001600160a01b0316610a81565b6101c26004803603602081101561039057600080fd5b50356001600160a01b0316610b05565b6101c2600480360360208110156103b657600080fd5b50356001600160a01b0316610b89565b6007546001600160a01b031681565b6103dd610c8b565b6001600160a01b03166103ee610649565b6001600160a01b031614610437576040805162461bcd60e51b81526020600482018190526024820152600080516020610cb6833981519152604482015290519081900360640190fd5b600980546001600160a01b0319166001600160a01b0392909216919091179055565b6001546001600160a01b031681565b610470610c8b565b6001600160a01b0316610481610649565b6001600160a01b0316146104ca576040805162461bcd60e51b81526020600482018190526024820152600080516020610cb6833981519152604482015290519081900360640190fd5b600280546001600160a01b0319166001600160a01b0392909216919091179055565b6104f4610c8b565b6001600160a01b0316610505610649565b6001600160a01b03161461054e576040805162461bcd60e51b81526020600482018190526024820152600080516020610cb6833981519152604482015290519081900360640190fd5b600080546040516001600160a01b03909116907f8be0079c531659141344cd1fd0a4f28419497f9722a3daafe3b4186f6b6457e0908390a3600080546001600160a01b0319169055565b6006546001600160a01b031681565b600a546001600160a01b031681565b6002546001600160a01b031681565b6105cd610c8b565b6001600160a01b03166105de610649565b6001600160a01b031614610627576040805162461bcd60e51b81526020600482018190526024820152600080516020610cb6833981519152604482015290519081900360640190fd5b600780546001600160a01b0319166001600160a01b0392909216919091179055565b6000546001600160a01b031690565b6008546001600160a01b031681565b61066f610c8b565b6001600160a01b0316610680610649565b6001600160a01b0316146106c9576040805162461bcd60e51b81526020600482018190526024820152600080516020610cb6833981519152604482015290519081900360640190fd5b600a80546001600160a01b0319166001600160a01b0392909216919091179055565b6106f3610c8b565b6001600160a01b0316610704610649565b6001600160a01b03161461074d576040805162461bcd60e51b81526020600482018190526024820152600080516020610cb6833981519152604482015290519081900360640190fd5b600580546001600160a01b0319166001600160a01b0392909216919091179055565b610777610c8b565b6001600160a01b0316610788610649565b6001600160a01b0316146107d1576040805162461bcd60e51b81526020600482018190526024820152600080516020610cb6833981519152604482015290519081900360640190fd5b600480546001600160a01b0319166001600160a01b0392909216919091179055565b6009546001600160a01b031681565b6004546001600160a01b031681565b600b546001600160a01b031681565b6003546001600160a01b031681565b610837610c8b565b6001600160a01b0316610848610649565b6001600160a01b031614610891576040805162461bcd60e51b81526020600482018190526024820152600080516020610cb6833981519152604482015290519081900360640190fd5b600880546001600160a01b0319166001600160a01b0392909216919091179055565b6005546001600160a01b031681565b6108ca610c8b565b6001600160a01b03166108db610649565b6001600160a01b031614610924576040805162461bcd60e51b81526020600482018190526024820152600080516020610cb6833981519152604482015290519081900360640190fd5b600b80546001600160a01b0319166001600160a01b0392909216919091179055565b61094e610c8b565b6001600160a01b031661095f610649565b6001600160a01b0316146109a8576040805162461bcd60e51b81526020600482018190526024820152600080516020610cb6833981519152604482015290519081900360640190fd5b604080516301ffc9a760e01b81526380ac58cd60e01b600482015290516001600160a01b038316916301ffc9a7916024808301926020929190829003018186803b1580156109f557600080fd5b505afa158015610a09573d6000803e3d6000fd5b505050506040513d6020811015610a1f57600080fd5b5051610a5f576040805162461bcd60e51b815260206004820152600a6024820152694e6f742045524337323160b01b604482015290519081900360640190fd5b600180546001600160a01b0319166001600160a01b0392909216919091179055565b610a89610c8b565b6001600160a01b0316610a9a610649565b6001600160a01b031614610ae3576040805162461bcd60e51b81526020600482018190526024820152600080516020610cb6833981519152604482015290519081900360640190fd5b600680546001600160a01b0319166001600160a01b0392909216919091179055565b610b0d610c8b565b6001600160a01b0316610b1e610649565b6001600160a01b031614610b67576040805162461bcd60e51b81526020600482018190526024820152600080516020610cb6833981519152604482015290519081900360640190fd5b600380546001600160a01b0319166001600160a01b0392909216919091179055565b610b91610c8b565b6001600160a01b0316610ba2610649565b6001600160a01b031614610beb576040805162461bcd60e51b81526020600482018190526024820152600080516020610cb6833981519152604482015290519081900360640190fd5b6001600160a01b038116610c305760405162461bcd60e51b8152600401808060200182810382526026815260200180610c906026913960400191505060405180910390fd5b600080546040516001600160a01b03808516939216917f8be0079c531659141344cd1fd0a4f28419497f9722a3daafe3b4186f6b6457e091a3600080546001600160a01b0319166001600160a01b0392909216919091179055565b339056fe4f776e61626c653a206e6577206f776e657220697320746865207a65726f20616464726573734f776e61626c653a2063616c6c6572206973206e6f7420746865206f776e6572a264697066735822122012f2dad50ecbd909f14fa35c412d579f284919c8958ce5b614341a41cad777a864736f6c634300060c0033",
  "linkReferences": {},
  "deployedLinkReferences": {}
}