{
  "_format": "hh-sol-artifact-1",
  "contractName": "StakingPoolForUniswapV2Tokens",
  "sourceName": "contracts/Rewards/TenartStaking.sol",
  "abi": [
    {
      "inputs": [
        {
          "internalType": "address",
          "name": "_stakedToken",
          "type": "address"
        },
        {
          "internalType": "address",
          "name": "_looksRareToken",
          "type": "address"
        },
        {
          "internalType": "uint256",
          "name": "_rewardPerBlock",
          "type": "uint256"
        },
        {
          "internalType": "uint256",
          "name": "_startBlock",
          "type": "uint256"
        },
        {
          "internalType": "uint256",
          "name": "_endBlock",
          "type": "uint256"
        }
      ],
      "stateMutability": "nonpayable",
      "type": "constructor"
    },
    {
      "anonymous": false,
      "inputs": [
        {
          "indexed": false,
          "internalType": "uint256",
          "name": "amount",
          "type": "uint256"
        }
      ],
      "name": "AdminRewardWithdraw",
      "type": "event"
    },
    {
      "anonymous": false,
      "inputs": [
        {
          "indexed": true,
          "internalType": "address",
          "name": "user",
          "type": "address"
        },
        {
          "indexed": false,
          "internalType": "uint256",
          "name": "amount",
          "type": "uint256"
        },
        {
          "indexed": false,
          "internalType": "uint256",
          "name": "harvestedAmount",
          "type": "uint256"
        }
      ],
      "name": "Deposit",
      "type": "event"
    },
    {
      "anonymous": false,
      "inputs": [
        {
          "indexed": true,
          "internalType": "address",
          "name": "user",
          "type": "address"
        },
        {
          "indexed": false,
          "internalType": "uint256",
          "name": "amount",
          "type": "uint256"
        }
      ],
      "name": "EmergencyWithdraw",
      "type": "event"
    },
    {
      "anonymous": false,
      "inputs": [
        {
          "indexed": true,
          "internalType": "address",
          "name": "user",
          "type": "address"
        },
        {
          "indexed": false,
          "internalType": "uint256",
          "name": "harvestedAmount",
          "type": "uint256"
        }
      ],
      "name": "Harvest",
      "type": "event"
    },
    {
      "anonymous": false,
      "inputs": [
        {
          "indexed": false,
          "internalType": "uint256",
          "name": "rewardPerBlock",
          "type": "uint256"
        },
        {
          "indexed": false,
          "internalType": "uint256",
          "name": "endBlock",
          "type": "uint256"
        }
      ],
      "name": "NewRewardPerBlockAndEndBlock",
      "type": "event"
    },
    {
      "anonymous": false,
      "inputs": [
        {
          "indexed": true,
          "internalType": "address",
          "name": "previousOwner",
          "type": "address"
        },
        {
          "indexed": true,
          "internalType": "address",
          "name": "newOwner",
          "type": "address"
        }
      ],
      "name": "OwnershipTransferred",
      "type": "event"
    },
    {
      "anonymous": false,
      "inputs": [
        {
          "indexed": false,
          "internalType": "address",
          "name": "account",
          "type": "address"
        }
      ],
      "name": "Paused",
      "type": "event"
    },
    {
      "anonymous": false,
      "inputs": [
        {
          "indexed": false,
          "internalType": "address",
          "name": "account",
          "type": "address"
        }
      ],
      "name": "Unpaused",
      "type": "event"
    },
    {
      "anonymous": false,
      "inputs": [
        {
          "indexed": true,
          "internalType": "address",
          "name": "user",
          "type": "address"
        },
        {
          "indexed": false,
          "internalType": "uint256",
          "name": "amount",
          "type": "uint256"
        },
        {
          "indexed": false,
          "internalType": "uint256",
          "name": "harvestedAmount",
          "type": "uint256"
        }
      ],
      "name": "Withdraw",
      "type": "event"
    },
    {
      "inputs": [],
      "name": "PRECISION_FACTOR",
      "outputs": [
        {
          "internalType": "uint256",
          "name": "",
          "type": "uint256"
        }
      ],
      "stateMutability": "view",
      "type": "function"
    },
    {
      "inputs": [],
      "name": "START_BLOCK",
      "outputs": [
        {
          "internalType": "uint256",
          "name": "",
          "type": "uint256"
        }
      ],
      "stateMutability": "view",
      "type": "function"
    },
    {
      "inputs": [],
      "name": "accTokenPerShare",
      "outputs": [
        {
          "internalType": "uint256",
          "name": "",
          "type": "uint256"
        }
      ],
      "stateMutability": "view",
      "type": "function"
    },
    {
      "inputs": [
        {
          "internalType": "uint256",
          "name": "amount",
          "type": "uint256"
        }
      ],
      "name": "adminRewardWithdraw",
      "outputs": [],
      "stateMutability": "nonpayable",
      "type": "function"
    },
    {
      "inputs": [
        {
          "internalType": "address",
          "name": "user",
          "type": "address"
        }
      ],
      "name": "calculatePendingRewards",
      "outputs": [
        {
          "internalType": "uint256",
          "name": "",
          "type": "uint256"
        }
      ],
      "stateMutability": "view",
      "type": "function"
    },
    {
      "inputs": [
        {
          "internalType": "uint256",
          "name": "amount",
          "type": "uint256"
        }
      ],
      "name": "deposit",
      "outputs": [],
      "stateMutability": "nonpayable",
      "type": "function"
    },
    {
      "inputs": [],
      "name": "emergencyWithdraw",
      "outputs": [],
      "stateMutability": "nonpayable",
      "type": "function"
    },
    {
      "inputs": [],
      "name": "endBlock",
      "outputs": [
        {
          "internalType": "uint256",
          "name": "",
          "type": "uint256"
        }
      ],
      "stateMutability": "view",
      "type": "function"
    },
    {
      "inputs": [],
      "name": "harvest",
      "outputs": [],
      "stateMutability": "nonpayable",
      "type": "function"
    },
    {
      "inputs": [],
      "name": "lastRewardBlock",
      "outputs": [
        {
          "internalType": "uint256",
          "name": "",
          "type": "uint256"
        }
      ],
      "stateMutability": "view",
      "type": "function"
    },
    {
      "inputs": [],
      "name": "looksRareToken",
      "outputs": [
        {
          "internalType": "contract IERC20",
          "name": "",
          "type": "address"
        }
      ],
      "stateMutability": "view",
      "type": "function"
    },
    {
      "inputs": [],
      "name": "owner",
      "outputs": [
        {
          "internalType": "address",
          "name": "",
          "type": "address"
        }
      ],
      "stateMutability": "view",
      "type": "function"
    },
    {
      "inputs": [],
      "name": "pause",
      "outputs": [],
      "stateMutability": "nonpayable",
      "type": "function"
    },
    {
      "inputs": [],
      "name": "paused",
      "outputs": [
        {
          "internalType": "bool",
          "name": "",
          "type": "bool"
        }
      ],
      "stateMutability": "view",
      "type": "function"
    },
    {
      "inputs": [],
      "name": "renounceOwnership",
      "outputs": [],
      "stateMutability": "nonpayable",
      "type": "function"
    },
    {
      "inputs": [],
      "name": "rewardPerBlock",
      "outputs": [
        {
          "internalType": "uint256",
          "name": "",
          "type": "uint256"
        }
      ],
      "stateMutability": "view",
      "type": "function"
    },
    {
      "inputs": [],
      "name": "stakedToken",
      "outputs": [
        {
          "internalType": "contract IERC20",
          "name": "",
          "type": "address"
        }
      ],
      "stateMutability": "view",
      "type": "function"
    },
    {
      "inputs": [
        {
          "internalType": "address",
          "name": "newOwner",
          "type": "address"
        }
      ],
      "name": "transferOwnership",
      "outputs": [],
      "stateMutability": "nonpayable",
      "type": "function"
    },
    {
      "inputs": [],
      "name": "unpause",
      "outputs": [],
      "stateMutability": "nonpayable",
      "type": "function"
    },
    {
      "inputs": [
        {
          "internalType": "uint256",
          "name": "newRewardPerBlock",
          "type": "uint256"
        },
        {
          "internalType": "uint256",
          "name": "newEndBlock",
          "type": "uint256"
        }
      ],
      "name": "updateRewardPerBlockAndEndBlock",
      "outputs": [],
      "stateMutability": "nonpayable",
      "type": "function"
    },
    {
      "inputs": [
        {
          "internalType": "address",
          "name": "",
          "type": "address"
        }
      ],
      "name": "userInfo",
      "outputs": [
        {
          "internalType": "uint256",
          "name": "amount",
          "type": "uint256"
        },
        {
          "internalType": "uint256",
          "name": "rewardDebt",
          "type": "uint256"
        }
      ],
      "stateMutability": "view",
      "type": "function"
    },
    {
      "inputs": [
        {
          "internalType": "uint256",
          "name": "amount",
          "type": "uint256"
        }
      ],
      "name": "withdraw",
      "outputs": [],
      "stateMutability": "nonpayable",
      "type": "function"
    }
  ],
  "bytecode": "0x60e060405234801561001057600080fd5b50604051611993380380611993833981810160405260a081101561003357600080fd5b50805160208201516040830151606084015160809094015192939192909190600061005c6100ea565b600080546001600160a01b0319166001600160a01b0383169081178255604051929350917f8be0079c531659141344cd1fd0a4f28419497f9722a3daafe3b4186f6b6457e0908290a3506000805460ff60a01b19169055600180556001600160601b0319606095861b811660a0529390941b90921660805260055560c08190526003919091556004556100ee565b3390565b60805160601c60a05160601c60c05161183c610157600039806106395280610e995280610f0652508061031352806105705280610bef5280610c855280610dc952806110f25250806105aa5280610615528061080352806109925280610bbb525061183c6000f3fe608060405234801561001057600080fd5b50600436106101425760003560e01c80638456cb59116100b8578063b6b55f251161007c578063b6b55f251461028a578063cc7a262e146102a7578063ccd34cd5146102af578063db2e21bc146102b7578063dead81b3146102bf578063f2fde38b146102e257610142565b80638456cb59146102625780638ae39cac1461026a5780638da5cb5b146102725780638f6629151461027a578063a9f8d1811461028257610142565b806339b3e8261161010a57806339b3e826146102095780633f4ba83a146102115780634641257d146102195780635c975abb14610221578063715018a61461023d5780638060bf0c1461024557610142565b8063083c632314610147578063097aad10146101615780631959a002146101875780632e1a7d4d146101c657806336db9fb2146101e5575b600080fd5b61014f610308565b60408051918252519081900360200190f35b61014f6004803603602081101561017757600080fd5b50356001600160a01b031661030e565b6101ad6004803603602081101561019d57600080fd5b50356001600160a01b0316610461565b6040805192835260208301919091528051918290030190f35b6101e3600480360360208110156101dc57600080fd5b503561047a565b005b6101ed610613565b604080516001600160a01b039092168252519081900360200190f35b61014f610637565b6101e361065b565b6101e3610717565b610229610867565b604080519115158252519081900360200190f35b6101e3610877565b6101e36004803603602081101561025b57600080fd5b5035610923565b6101e36109ef565b61014f610aa6565b6101ed610aac565b61014f610abb565b61014f610ac1565b6101e3600480360360208110156102a057600080fd5b5035610ac7565b6101ed610c83565b61014f610ca7565b6101e3610cb0565b6101e3600480360360408110156102d557600080fd5b5080359060200135610e35565b6101e3600480360360208110156102f857600080fd5b50356001600160a01b0316610fab565b60035481565b6000807f00000000000000000000000000000000000000000000000000000000000000006001600160a01b03166370a08231306040518263ffffffff1660e01b815260040180826001600160a01b0316815260200191505060206040518083038186803b15801561037e57600080fd5b505afa158015610392573d6000803e3d6000fd5b505050506040513d60208110156103a857600080fd5b5051600454909150431180156103bd57508015155b1561042a5760006103d0600454436110ad565b600554909150810260008364e8d4a510008302816103ea57fe5b6002546001600160a01b038916600090815260066020526040902060018101549054939092040192509064e8d4a51000908302040394505050505061045c565b6001600160a01b038316600090815260066020526040902060018101546002549154909164e8d4a51000910204039150505b919050565b6006602052600090815260409020805460019091015482565b600260015414156104c0576040805162461bcd60e51b815260206004820152601f602482015260008051602061169a833981519152604482015290519081900360640190fd5b60026001553360009081526006602052604090205481118015906104e45750600081115b61051f5760405162461bcd60e51b81526004018080602001828103825260378152602001806117796037913960400191505060405180910390fd5b6105276110e0565b33600081815260066020526040902060018101805460028054845487810395869055915464e8d4a510009502859004909355909102919091040390610597906001600160a01b037f00000000000000000000000000000000000000000000000000000000000000001690846111e7565b80156105d1576105d16001600160a01b037f00000000000000000000000000000000000000000000000000000000000000001633836111e7565b6040805183815260208101839052815133927ff279e6a1f5e320cca91135676d9cb6e44ca8a08c0b88342bcdb1144f6511b568928290030190a2505060018055565b7f000000000000000000000000000000000000000000000000000000000000000081565b7f000000000000000000000000000000000000000000000000000000000000000081565b610663611239565b6001600160a01b0316610674610aac565b6001600160a01b0316146106bd576040805162461bcd60e51b81526020600482018190526024820152600080516020611735833981519152604482015290519081900360640190fd5b6106c5610867565b61070d576040805162461bcd60e51b815260206004820152601460248201527314185d5cd8589b194e881b9bdd081c185d5cd95960621b604482015290519081900360640190fd5b61071561123d565b565b6002600154141561075d576040805162461bcd60e51b815260206004820152601f602482015260008051602061169a833981519152604482015290519081900360640190fd5b600260015561076a6110e0565b3360009081526006602052604090206001810154600254915464e8d4a5100092029190910403806107cc5760405162461bcd60e51b81526004018080602001828103825260248152602001806117556024913960400191505060405180910390fd5b600254336000818152600660205260409020805464e8d4a5100093029290920460019092019190915561082a906001600160a01b037f00000000000000000000000000000000000000000000000000000000000000001690836111e7565b60408051828152905133917fc9695243a805adb74c91f28311176c65b417e842d5699893cef56d18bfa48cba919081900360200190a25060018055565b600054600160a01b900460ff1690565b61087f611239565b6001600160a01b0316610890610aac565b6001600160a01b0316146108d9576040805162461bcd60e51b81526020600482018190526024820152600080516020611735833981519152604482015290519081900360640190fd5b600080546040516001600160a01b03909116907f8be0079c531659141344cd1fd0a4f28419497f9722a3daafe3b4186f6b6457e0908390a3600080546001600160a01b0319169055565b61092b611239565b6001600160a01b031661093c610aac565b6001600160a01b031614610985576040805162461bcd60e51b81526020600482018190526024820152600080516020611735833981519152604482015290519081900360640190fd5b6109b96001600160a01b037f00000000000000000000000000000000000000000000000000000000000000001633836111e7565b6040805182815290517f133d0bda545cf860a103708256d4e2d06ec7e5705693425765110f52045c47519181900360200190a150565b6109f7611239565b6001600160a01b0316610a08610aac565b6001600160a01b031614610a51576040805162461bcd60e51b81526020600482018190526024820152600080516020611735833981519152604482015290519081900360640190fd5b610a59610867565b15610a9e576040805162461bcd60e51b815260206004820152601060248201526f14185d5cd8589b194e881c185d5cd95960821b604482015290519081900360640190fd5b6107156112e0565b60055481565b6000546001600160a01b031690565b60025481565b60045481565b60026001541415610b0d576040805162461bcd60e51b815260206004820152601f602482015260008051602061169a833981519152604482015290519081900360640190fd5b600260015580610b64576040805162461bcd60e51b815260206004820152601b60248201527f4465706f7369743a20416d6f756e74206d757374206265203e20300000000000604482015290519081900360640190fd5b610b6c6110e0565b3360009081526006602052604081205415610be25733600090815260066020526040902060018101546002549154909164e8d4a510009102040390508015610be257610be26001600160a01b037f00000000000000000000000000000000000000000000000000000000000000001633836111e7565b610c176001600160a01b037f000000000000000000000000000000000000000000000000000000000000000016333085611369565b336000818152600660209081526040918290208054860180825560025464e8d4a51000910204600190910155815185815290810184905281517f90890809c654f11d6e72a28fa60149770a0d11ec6c92319d6ceb2bb0a4ea1a15929181900390910190a2505060018055565b7f000000000000000000000000000000000000000000000000000000000000000081565b64e8d4a5100081565b60026001541415610cf6576040805162461bcd60e51b815260206004820152601f602482015260008051602061169a833981519152604482015290519081900360640190fd5b6002600155610d03610867565b610d4b576040805162461bcd60e51b815260206004820152601460248201527314185d5cd8589b194e881b9bdd081c185d5cd95960621b604482015290519081900360640190fd5b3360009081526006602052604090205480610dad576040805162461bcd60e51b815260206004820152601c60248201527f57697468647261773a20416d6f756e74206d757374206265203e203000000000604482015290519081900360640190fd5b33600081815260066020526040812081815560010155610df8907f00000000000000000000000000000000000000000000000000000000000000006001600160a01b031690836111e7565b60408051828152905133917f5fafa99d0643513820be26656b45130b01e1c03062e1266bf36f88cbd3bd9695919081900360200190a25060018055565b610e3d611239565b6001600160a01b0316610e4e610aac565b6001600160a01b031614610e97576040805162461bcd60e51b81526020600482018190526024820152600080516020611735833981519152604482015290519081900360640190fd5b7f00000000000000000000000000000000000000000000000000000000000000004310610ec657610ec66110e0565b438111610f045760405162461bcd60e51b815260040180806020018281038252602f8152602001806116e0602f913960400191505060405180910390fd5b7f00000000000000000000000000000000000000000000000000000000000000008111610f625760405162461bcd60e51b815260040180806020018281038252602d8152602001806117da602d913960400191505060405180910390fd5b60038190556005829055604080518381526020810183905281517f5fbc8888d6f91664a15735f81cde412b4cc9641ac0ce5440a295439f71768e4b929181900390910190a15050565b610fb3611239565b6001600160a01b0316610fc4610aac565b6001600160a01b03161461100d576040805162461bcd60e51b81526020600482018190526024820152600080516020611735833981519152604482015290519081900360640190fd5b6001600160a01b0381166110525760405162461bcd60e51b81526004018080602001828103825260268152602001806116ba6026913960400191505060405180910390fd5b600080546040516001600160a01b03808516939216917f8be0079c531659141344cd1fd0a4f28419497f9722a3daafe3b4186f6b6457e091a3600080546001600160a01b0319166001600160a01b0392909216919091179055565b600060035482116110c157508181036110da565b60035483106110d2575060006110da565b826003540390505b92915050565b60045443116110ee57610715565b60007f00000000000000000000000000000000000000000000000000000000000000006001600160a01b03166370a08231306040518263ffffffff1660e01b815260040180826001600160a01b0316815260200191505060206040518083038186803b15801561115d57600080fd5b505afa158015611171573d6000803e3d6000fd5b505050506040513d602081101561118757600080fd5b505190508061119a575043600455610715565b60006111a8600454436110ad565b600554909150810280156111d2578264e8d4a510008202816111c657fe5b04600254016002819055505b600354600454116111e257436004555b505050565b604080516001600160a01b038416602482015260448082018490528251808303909101815260649091019091526020810180516001600160e01b031663a9059cbb60e01b1790526111e29084906113c9565b3390565b611245610867565b61128d576040805162461bcd60e51b815260206004820152601460248201527314185d5cd8589b194e881b9bdd081c185d5cd95960621b604482015290519081900360640190fd5b6000805460ff60a01b191690557f5db9ee0a495bf2e6ff9c91a7834c1ba4fdd244a5e8aa4e537bd38aeae4b073aa6112c3611239565b604080516001600160a01b039092168252519081900360200190a1565b6112e8610867565b1561132d576040805162461bcd60e51b815260206004820152601060248201526f14185d5cd8589b194e881c185d5cd95960821b604482015290519081900360640190fd5b6000805460ff60a01b1916600160a01b1790557f62e78cea01bee320cd4e420270b5ea74000d11b0c9f74754ebdbfc544b05a2586112c3611239565b604080516001600160a01b0380861660248301528416604482015260648082018490528251808303909101815260849091019091526020810180516001600160e01b03166323b872dd60e01b1790526113c39085906113c9565b50505050565b606061141e826040518060400160405280602081526020017f5361666545524332303a206c6f772d6c6576656c2063616c6c206661696c6564815250856001600160a01b031661147a9092919063ffffffff16565b8051909150156111e25780806020019051602081101561143d57600080fd5b50516111e25760405162461bcd60e51b815260040180806020018281038252602a8152602001806117b0602a913960400191505060405180910390fd5b60606114898484600085611493565b90505b9392505050565b6060824710156114d45760405162461bcd60e51b815260040180806020018281038252602681526020018061170f6026913960400191505060405180910390fd5b6114dd856115ef565b61152e576040805162461bcd60e51b815260206004820152601d60248201527f416464726573733a2063616c6c20746f206e6f6e2d636f6e7472616374000000604482015290519081900360640190fd5b60006060866001600160a01b031685876040518082805190602001908083835b6020831061156d5780518252601f19909201916020918201910161154e565b6001836020036101000a03801982511681845116808217855250505050505090500191505060006040518083038185875af1925050503d80600081146115cf576040519150601f19603f3d011682016040523d82523d6000602084013e6115d4565b606091505b50915091506115e48282866115f5565b979650505050505050565b3b151590565b6060831561160457508161148c565b8251156116145782518084602001fd5b8160405162461bcd60e51b81526004018080602001828103825283818151815260200191508051906020019080838360005b8381101561165e578181015183820152602001611646565b50505050905090810190601f16801561168b5780820380516001836020036101000a031916815260200191505b509250505060405180910390fdfe5265656e7472616e637947756172643a207265656e7472616e742063616c6c004f776e61626c653a206e6577206f776e657220697320746865207a65726f20616464726573734f776e65723a204e657720656e64426c6f636b206d7573742062652061667465722063757272656e7420626c6f636b416464726573733a20696e73756666696369656e742062616c616e636520666f722063616c6c4f776e61626c653a2063616c6c6572206973206e6f7420746865206f776e6572486172766573743a2050656e64696e672072657761726473206d757374206265203e203057697468647261773a20416d6f756e74206d757374206265203e2030206f72206c6f776572207468616e20757365722062616c616e63655361666545524332303a204552433230206f7065726174696f6e20646964206e6f7420737563636565644f776e65723a204e657720656e64426c6f636b206d75737420626520616674657220737461727420626c6f636ba2646970667358221220e30350ff684cb93c7576afc0bf424aab49411c78e340571691c034fba677b7a264736f6c634300060c0033",
  "linkReferences": {},
  "deployedLinkReferences": {}
}