{
  "_format": "hh-sol-artifact-1",
  "contractName": "TokenSplitter",
  "sourceName": "contracts/Rewards/TokenSplitter.sol",
  "abi": [
    {
      "inputs": [
        {
          "internalType": "address[]",
          "name": "_accounts",
          "type": "address[]"
        },
        {
          "internalType": "uint256[]",
          "name": "_shares",
          "type": "uint256[]"
        },
        {
          "internalType": "address",
          "name": "_tenartToken",
          "type": "address"
        }
      ],
      "stateMutability": "nonpayable",
      "type": "constructor"
    },
    {
      "anonymous": false,
      "inputs": [
        {
          "indexed": true,
          "internalType": "address",
          "name": "oldRecipient",
          "type": "address"
        },
        {
          "indexed": true,
          "internalType": "address",
          "name": "newRecipient",
          "type": "address"
        }
      ],
      "name": "NewSharesOwner",
      "type": "event"
    },
    {
      "anonymous": false,
      "inputs": [
        {
          "indexed": true,
          "internalType": "address",
          "name": "previousOwner",
          "type": "address"
        },
        {
          "indexed": true,
          "internalType": "address",
          "name": "newOwner",
          "type": "address"
        }
      ],
      "name": "OwnershipTransferred",
      "type": "event"
    },
    {
      "anonymous": false,
      "inputs": [
        {
          "indexed": true,
          "internalType": "address",
          "name": "account",
          "type": "address"
        },
        {
          "indexed": false,
          "internalType": "uint256",
          "name": "amount",
          "type": "uint256"
        }
      ],
      "name": "TokensTransferred",
      "type": "event"
    },
    {
      "inputs": [],
      "name": "TOTAL_SHARES",
      "outputs": [
        {
          "internalType": "uint256",
          "name": "",
          "type": "uint256"
        }
      ],
      "stateMutability": "view",
      "type": "function"
    },
    {
      "inputs": [
        {
          "internalType": "address",
          "name": "",
          "type": "address"
        }
      ],
      "name": "accountInfo",
      "outputs": [
        {
          "internalType": "uint256",
          "name": "shares",
          "type": "uint256"
        },
        {
          "internalType": "uint256",
          "name": "tokensDistributedToAccount",
          "type": "uint256"
        }
      ],
      "stateMutability": "view",
      "type": "function"
    },
    {
      "inputs": [
        {
          "internalType": "address",
          "name": "account",
          "type": "address"
        }
      ],
      "name": "calculatePendingRewards",
      "outputs": [
        {
          "internalType": "uint256",
          "name": "",
          "type": "uint256"
        }
      ],
      "stateMutability": "view",
      "type": "function"
    },
    {
      "inputs": [],
      "name": "owner",
      "outputs": [
        {
          "internalType": "address",
          "name": "",
          "type": "address"
        }
      ],
      "stateMutability": "view",
      "type": "function"
    },
    {
      "inputs": [
        {
          "internalType": "address",
          "name": "account",
          "type": "address"
        }
      ],
      "name": "releaseTokens",
      "outputs": [],
      "stateMutability": "nonpayable",
      "type": "function"
    },
    {
      "inputs": [],
      "name": "renounceOwnership",
      "outputs": [],
      "stateMutability": "nonpayable",
      "type": "function"
    },
    {
      "inputs": [],
      "name": "tenartToken",
      "outputs": [
        {
          "internalType": "contract IERC20",
          "name": "",
          "type": "address"
        }
      ],
      "stateMutability": "view",
      "type": "function"
    },
    {
      "inputs": [],
      "name": "totalTokensDistributed",
      "outputs": [
        {
          "internalType": "uint256",
          "name": "",
          "type": "uint256"
        }
      ],
      "stateMutability": "view",
      "type": "function"
    },
    {
      "inputs": [
        {
          "internalType": "address",
          "name": "newOwner",
          "type": "address"
        }
      ],
      "name": "transferOwnership",
      "outputs": [],
      "stateMutability": "nonpayable",
      "type": "function"
    },
    {
      "inputs": [
        {
          "internalType": "address",
          "name": "_newRecipient",
          "type": "address"
        },
        {
          "internalType": "address",
          "name": "_currentRecipient",
          "type": "address"
        }
      ],
      "name": "updateSharesOwner",
      "outputs": [],
      "stateMutability": "nonpayable",
      "type": "function"
    }
  ],
  "bytecode": "0x60c06040523480156200001157600080fd5b506040516200114038038062001140833981810160405260608110156200003757600080fd5b81019080805160405193929190846401000000008211156200005857600080fd5b9083019060208201858111156200006e57600080fd5b82518660208202830111640100000000821117156200008c57600080fd5b82525081516020918201928201910280838360005b83811015620000bb578181015183820152602001620000a1565b5050505090500160405260200180516040519392919084640100000000821115620000e557600080fd5b908301906020820185811115620000fb57600080fd5b82518660208202830111640100000000821117156200011957600080fd5b82525081516020918201928201910280838360005b83811015620001485781810151838201526020016200012e565b505050509190910160405250602001519150600090506200016862000365565b600080546001600160a01b0319166001600160a01b0383169081178255604051929350917f8be0079c531659141344cd1fd0a4f28419497f9722a3daafe3b4186f6b6457e0908290a3506001805581518351146200020d576040805162461bcd60e51b815260206004820152601760248201527f53706c69747465723a204c656e67746820646966666572000000000000000000604482015290519081900360640190fd5b600083511162000264576040805162461bcd60e51b815260206004820152601c60248201527f53706c69747465723a204c656e677468206d757374206265203e203000000000604482015290519081900360640190fd5b6000805b8451811015620003485760008482815181106200028157fe5b602002602001015111620002dc576040805162461bcd60e51b815260206004820152601660248201527f53706c69747465723a2053686172657320617265203000000000000000000000604482015290519081900360640190fd5b838181518110620002e957fe5b6020026020010151820191508381815181106200030257fe5b6020026020010151600360008784815181106200031b57fe5b6020908102919091018101516001600160a01b031682528101919091526040016000205560010162000268565b5060805260601b6001600160601b03191660a05250620003699050565b3390565b60805160a05160601c610d97620003a960003980610206528061053f528061065352806107c15250806102c5528061056352806107125250610d976000f3fe608060405234801561001057600080fd5b506004361061009e5760003560e01c806387b0be481161006657806387b0be481461013f5780638da5cb5b14610165578063a7310b581461016d578063d8f163ab146101ac578063f2fde38b146101b45761009e565b8063097aad10146100a357806319281afd146100db578063715018a61461010b57806383b42e201461011357806385e3f99714610137575b600080fd5b6100c9600480360360208110156100b957600080fd5b50356001600160a01b03166101da565b60408051918252519081900360200190f35b610109600480360360408110156100f157600080fd5b506001600160a01b03813581169160200135166102fa565b005b61010961047f565b61011b61053d565b604080516001600160a01b039092168252519081900360200190f35b6100c9610561565b6101096004803603602081101561015557600080fd5b50356001600160a01b0316610585565b61011b610830565b6101936004803603602081101561018357600080fd5b50356001600160a01b031661083f565b6040805192835260208301919091528051918290030190f35b6100c9610858565b610109600480360360208110156101ca57600080fd5b50356001600160a01b031661085e565b6001600160a01b0381166000908152600360205260408120546101ff575060006102f5565b60006002547f00000000000000000000000000000000000000000000000000000000000000006001600160a01b03166370a08231306040518263ffffffff1660e01b815260040180826001600160a01b0316815260200191505060206040518083038186803b15801561027157600080fd5b505afa158015610285573d6000803e3d6000fd5b505050506040513d602081101561029b57600080fd5b50516001600160a01b038516600090815260036020526040812060018101549054939092019350917f0000000000000000000000000000000000000000000000000000000000000000908402816102ee57fe5b0403925050505b919050565b610302610972565b6001600160a01b0316610313610830565b6001600160a01b03161461036e576040805162461bcd60e51b815260206004820181905260248201527f4f776e61626c653a2063616c6c6572206973206e6f7420746865206f776e6572604482015290519081900360640190fd5b6001600160a01b0381166000908152600360205260409020546103c25760405162461bcd60e51b8152600401808060200182810382526026815260200180610d126026913960400191505060405180910390fd5b6001600160a01b038216600090815260036020526040902054156104175760405162461bcd60e51b8152600401808060200182810382526028815260200180610c9e6028913960400191505060405180910390fd5b6001600160a01b0380821660008181526003602052604080822080549487168084528284209586556001808301805491909701558484529083905593829055517f47eba4993da31bfed0680c802fb8577f1a9d57bb4c0881372fbe7ad29995a8809190a35050565b610487610972565b6001600160a01b0316610498610830565b6001600160a01b0316146104f3576040805162461bcd60e51b815260206004820181905260248201527f4f776e61626c653a2063616c6c6572206973206e6f7420746865206f776e6572604482015290519081900360640190fd5b600080546040516001600160a01b03909116907f8be0079c531659141344cd1fd0a4f28419497f9722a3daafe3b4186f6b6457e0908390a3600080546001600160a01b0319169055565b7f000000000000000000000000000000000000000000000000000000000000000081565b7f000000000000000000000000000000000000000000000000000000000000000081565b600260015414156105dd576040805162461bcd60e51b815260206004820152601f60248201527f5265656e7472616e637947756172643a207265656e7472616e742063616c6c00604482015290519081900360640190fd5b60026001556001600160a01b03811660009081526003602052604090205461064c576040805162461bcd60e51b815260206004820152601e60248201527f53706c69747465723a204163636f756e7420686173206e6f2073686172650000604482015290519081900360640190fd5b60006002547f00000000000000000000000000000000000000000000000000000000000000006001600160a01b03166370a08231306040518263ffffffff1660e01b815260040180826001600160a01b0316815260200191505060206040518083038186803b1580156106be57600080fd5b505afa1580156106d2573d6000803e3d6000fd5b505050506040513d60208110156106e857600080fd5b50516001600160a01b038416600090815260036020526040812060018101549054939092019350917f00000000000000000000000000000000000000000000000000000000000000009084028161073b57fe5b0403905080610791576040805162461bcd60e51b815260206004820152601d60248201527f53706c69747465723a204e6f7468696e6720746f207472616e73666572000000604482015290519081900360640190fd5b6001600160a01b03808416600090815260036020526040902060010180548301905560028054830190556107e8907f0000000000000000000000000000000000000000000000000000000000000000168483610976565b6040805182815290516001600160a01b038516917f12f4533b5cbd2c9f8a0752a2d0b16379af992dbb2a0844a5007a19d983b3a934919081900360200190a250506001805550565b6000546001600160a01b031690565b6003602052600090815260409020805460019091015482565b60025481565b610866610972565b6001600160a01b0316610877610830565b6001600160a01b0316146108d2576040805162461bcd60e51b815260206004820181905260248201527f4f776e61626c653a2063616c6c6572206973206e6f7420746865206f776e6572604482015290519081900360640190fd5b6001600160a01b0381166109175760405162461bcd60e51b8152600401808060200182810382526026815260200180610cc66026913960400191505060405180910390fd5b600080546040516001600160a01b03808516939216917f8be0079c531659141344cd1fd0a4f28419497f9722a3daafe3b4186f6b6457e091a3600080546001600160a01b0319166001600160a01b0392909216919091179055565b3390565b604080516001600160a01b038416602482015260448082018490528251808303909101815260649091019091526020810180516001600160e01b031663a9059cbb60e01b1790526109c89084906109cd565b505050565b6060610a22826040518060400160405280602081526020017f5361666545524332303a206c6f772d6c6576656c2063616c6c206661696c6564815250856001600160a01b0316610a7e9092919063ffffffff16565b8051909150156109c857808060200190516020811015610a4157600080fd5b50516109c85760405162461bcd60e51b815260040180806020018281038252602a815260200180610d38602a913960400191505060405180910390fd5b6060610a8d8484600085610a97565b90505b9392505050565b606082471015610ad85760405162461bcd60e51b8152600401808060200182810382526026815260200180610cec6026913960400191505060405180910390fd5b610ae185610bf3565b610b32576040805162461bcd60e51b815260206004820152601d60248201527f416464726573733a2063616c6c20746f206e6f6e2d636f6e7472616374000000604482015290519081900360640190fd5b60006060866001600160a01b031685876040518082805190602001908083835b60208310610b715780518252601f199092019160209182019101610b52565b6001836020036101000a03801982511681845116808217855250505050505090500191505060006040518083038185875af1925050503d8060008114610bd3576040519150601f19603f3d011682016040523d82523d6000602084013e610bd8565b606091505b5091509150610be8828286610bf9565b979650505050505050565b3b151590565b60608315610c08575081610a90565b825115610c185782518084602001fd5b8160405162461bcd60e51b81526004018080602001828103825283818151815260200191508051906020019080838360005b83811015610c62578181015183820152602001610c4a565b50505050905090810190601f168015610c8f5780820380516001836020036101000a031916815260200191505b509250505060405180910390fdfe4f776e65723a204e657720726563697069656e7420686173206578697374696e67207368617265734f776e61626c653a206e6577206f776e657220697320746865207a65726f2061646472657373416464726573733a20696e73756666696369656e742062616c616e636520666f722063616c6c4f776e65723a2043757272656e7420726563697069656e7420686173206e6f207368617265735361666545524332303a204552433230206f7065726174696f6e20646964206e6f742073756363656564a26469706673582212209eb7fece9191cedfc29317f8ebed940e692a2c1a68f78093e2b9b5d0939e791a64736f6c634300060c0033",
  "linkReferences": {},
  "deployedLinkReferences": {}
}