{
  "_format": "hh-sol-artifact-1",
  "contractName": "TenartBundleMarketplace",
  "sourceName": "contracts/TenartBundleMarketplace.sol",
  "abi": [
    {
      "anonymous": false,
      "inputs": [
        {
          "indexed": true,
          "internalType": "address",
          "name": "owner",
          "type": "address"
        },
        {
          "indexed": false,
          "internalType": "string",
          "name": "bundleID",
          "type": "string"
        }
      ],
      "name": "ItemCanceled",
      "type": "event"
    },
    {
      "anonymous": false,
      "inputs": [
        {
          "indexed": true,
          "internalType": "address",
          "name": "owner",
          "type": "address"
        },
        {
          "indexed": false,
          "internalType": "string",
          "name": "bundleID",
          "type": "string"
        },
        {
          "indexed": false,
          "internalType": "address",
          "name": "payToken",
          "type": "address"
        },
        {
          "indexed": false,
          "internalType": "uint256",
          "name": "price",
          "type": "uint256"
        },
        {
          "indexed": false,
          "internalType": "uint256",
          "name": "startingTime",
          "type": "uint256"
        }
      ],
      "name": "ItemListed",
      "type": "event"
    },
    {
      "anonymous": false,
      "inputs": [
        {
          "indexed": true,
          "internalType": "address",
          "name": "seller",
          "type": "address"
        },
        {
          "indexed": true,
          "internalType": "address",
          "name": "buyer",
          "type": "address"
        },
        {
          "indexed": false,
          "internalType": "string",
          "name": "bundleID",
          "type": "string"
        },
        {
          "indexed": false,
          "internalType": "address",
          "name": "payToken",
          "type": "address"
        },
        {
          "indexed": false,
          "internalType": "int256",
          "name": "unitPrice",
          "type": "int256"
        },
        {
          "indexed": false,
          "internalType": "uint256",
          "name": "price",
          "type": "uint256"
        }
      ],
      "name": "ItemSold",
      "type": "event"
    },
    {
      "anonymous": false,
      "inputs": [
        {
          "indexed": true,
          "internalType": "address",
          "name": "owner",
          "type": "address"
        },
        {
          "indexed": false,
          "internalType": "string",
          "name": "bundleID",
          "type": "string"
        },
        {
          "indexed": false,
          "internalType": "address[]",
          "name": "nft",
          "type": "address[]"
        },
        {
          "indexed": false,
          "internalType": "uint256[]",
          "name": "tokenId",
          "type": "uint256[]"
        },
        {
          "indexed": false,
          "internalType": "uint256[]",
          "name": "quantity",
          "type": "uint256[]"
        },
        {
          "indexed": false,
          "internalType": "address",
          "name": "payToken",
          "type": "address"
        },
        {
          "indexed": false,
          "internalType": "uint256",
          "name": "newPrice",
          "type": "uint256"
        }
      ],
      "name": "ItemUpdated",
      "type": "event"
    },
    {
      "anonymous": false,
      "inputs": [
        {
          "indexed": true,
          "internalType": "address",
          "name": "creator",
          "type": "address"
        },
        {
          "indexed": false,
          "internalType": "string",
          "name": "bundleID",
          "type": "string"
        }
      ],
      "name": "OfferCanceled",
      "type": "event"
    },
    {
      "anonymous": false,
      "inputs": [
        {
          "indexed": true,
          "internalType": "address",
          "name": "creator",
          "type": "address"
        },
        {
          "indexed": false,
          "internalType": "string",
          "name": "bundleID",
          "type": "string"
        },
        {
          "indexed": false,
          "internalType": "address",
          "name": "payToken",
          "type": "address"
        },
        {
          "indexed": false,
          "internalType": "uint256",
          "name": "price",
          "type": "uint256"
        },
        {
          "indexed": false,
          "internalType": "uint256",
          "name": "deadline",
          "type": "uint256"
        }
      ],
      "name": "OfferCreated",
      "type": "event"
    },
    {
      "anonymous": false,
      "inputs": [
        {
          "indexed": true,
          "internalType": "address",
          "name": "previousOwner",
          "type": "address"
        },
        {
          "indexed": true,
          "internalType": "address",
          "name": "newOwner",
          "type": "address"
        }
      ],
      "name": "OwnershipTransferred",
      "type": "event"
    },
    {
      "anonymous": false,
      "inputs": [
        {
          "indexed": false,
          "internalType": "uint256",
          "name": "platformFee",
          "type": "uint256"
        }
      ],
      "name": "UpdatePlatformFee",
      "type": "event"
    },
    {
      "anonymous": false,
      "inputs": [
        {
          "indexed": false,
          "internalType": "address payable",
          "name": "platformFeeRecipient",
          "type": "address"
        }
      ],
      "name": "UpdatePlatformFeeRecipient",
      "type": "event"
    },
    {
      "inputs": [
        {
          "internalType": "string",
          "name": "_bundleID",
          "type": "string"
        },
        {
          "internalType": "address",
          "name": "_creator",
          "type": "address"
        }
      ],
      "name": "acceptOffer",
      "outputs": [],
      "stateMutability": "nonpayable",
      "type": "function"
    },
    {
      "inputs": [],
      "name": "addressRegistry",
      "outputs": [
        {
          "internalType": "contract ITenartAddressRegistry",
          "name": "",
          "type": "address"
        }
      ],
      "stateMutability": "view",
      "type": "function"
    },
    {
      "inputs": [
        {
          "internalType": "string",
          "name": "_bundleID",
          "type": "string"
        },
        {
          "internalType": "address",
          "name": "_payToken",
          "type": "address"
        }
      ],
      "name": "buyItem",
      "outputs": [],
      "stateMutability": "nonpayable",
      "type": "function"
    },
    {
      "inputs": [
        {
          "internalType": "string",
          "name": "_bundleID",
          "type": "string"
        }
      ],
      "name": "cancelListing",
      "outputs": [],
      "stateMutability": "nonpayable",
      "type": "function"
    },
    {
      "inputs": [
        {
          "internalType": "string",
          "name": "_bundleID",
          "type": "string"
        }
      ],
      "name": "cancelOffer",
      "outputs": [],
      "stateMutability": "nonpayable",
      "type": "function"
    },
    {
      "inputs": [
        {
          "internalType": "string",
          "name": "_bundleID",
          "type": "string"
        },
        {
          "internalType": "contract IERC20Upgradeable",
          "name": "_payToken",
          "type": "address"
        },
        {
          "internalType": "uint256",
          "name": "_price",
          "type": "uint256"
        },
        {
          "internalType": "uint256",
          "name": "_deadline",
          "type": "uint256"
        }
      ],
      "name": "createOffer",
      "outputs": [],
      "stateMutability": "nonpayable",
      "type": "function"
    },
    {
      "inputs": [],
      "name": "feeReceipient",
      "outputs": [
        {
          "internalType": "address payable",
          "name": "",
          "type": "address"
        }
      ],
      "stateMutability": "view",
      "type": "function"
    },
    {
      "inputs": [
        {
          "internalType": "address",
          "name": "_owner",
          "type": "address"
        },
        {
          "internalType": "string",
          "name": "_bundleID",
          "type": "string"
        }
      ],
      "name": "getListing",
      "outputs": [
        {
          "internalType": "address[]",
          "name": "nfts",
          "type": "address[]"
        },
        {
          "internalType": "uint256[]",
          "name": "tokenIds",
          "type": "uint256[]"
        },
        {
          "internalType": "uint256[]",
          "name": "quantities",
          "type": "uint256[]"
        },
        {
          "internalType": "uint256",
          "name": "price",
          "type": "uint256"
        },
        {
          "internalType": "uint256",
          "name": "startingTime",
          "type": "uint256"
        }
      ],
      "stateMutability": "view",
      "type": "function"
    },
    {
      "inputs": [
        {
          "internalType": "address payable",
          "name": "_feeRecipient",
          "type": "address"
        },
        {
          "internalType": "uint256",
          "name": "_platformFee",
          "type": "uint256"
        }
      ],
      "name": "initialize",
      "outputs": [],
      "stateMutability": "nonpayable",
      "type": "function"
    },
    {
      "inputs": [
        {
          "internalType": "string",
          "name": "_bundleID",
          "type": "string"
        },
        {
          "internalType": "address[]",
          "name": "_nftAddresses",
          "type": "address[]"
        },
        {
          "internalType": "uint256[]",
          "name": "_tokenIds",
          "type": "uint256[]"
        },
        {
          "internalType": "uint256[]",
          "name": "_quantities",
          "type": "uint256[]"
        },
        {
          "internalType": "address",
          "name": "_payToken",
          "type": "address"
        },
        {
          "internalType": "uint256",
          "name": "_price",
          "type": "uint256"
        },
        {
          "internalType": "uint256",
          "name": "_startingTime",
          "type": "uint256"
        }
      ],
      "name": "listItem",
      "outputs": [],
      "stateMutability": "nonpayable",
      "type": "function"
    },
    {
      "inputs": [
        {
          "internalType": "address",
          "name": "",
          "type": "address"
        },
        {
          "internalType": "bytes32",
          "name": "",
          "type": "bytes32"
        }
      ],
      "name": "listings",
      "outputs": [
        {
          "internalType": "address",
          "name": "payToken",
          "type": "address"
        },
        {
          "internalType": "uint256",
          "name": "price",
          "type": "uint256"
        },
        {
          "internalType": "uint256",
          "name": "startingTime",
          "type": "uint256"
        }
      ],
      "stateMutability": "view",
      "type": "function"
    },
    {
      "inputs": [
        {
          "internalType": "bytes32",
          "name": "",
          "type": "bytes32"
        },
        {
          "internalType": "address",
          "name": "",
          "type": "address"
        }
      ],
      "name": "offers",
      "outputs": [
        {
          "internalType": "contract IERC20Upgradeable",
          "name": "payToken",
          "type": "address"
        },
        {
          "internalType": "uint256",
          "name": "price",
          "type": "uint256"
        },
        {
          "internalType": "uint256",
          "name": "deadline",
          "type": "uint256"
        }
      ],
      "stateMutability": "view",
      "type": "function"
    },
    {
      "inputs": [],
      "name": "owner",
      "outputs": [
        {
          "internalType": "address",
          "name": "",
          "type": "address"
        }
      ],
      "stateMutability": "view",
      "type": "function"
    },
    {
      "inputs": [
        {
          "internalType": "bytes32",
          "name": "",
          "type": "bytes32"
        }
      ],
      "name": "owners",
      "outputs": [
        {
          "internalType": "address",
          "name": "",
          "type": "address"
        }
      ],
      "stateMutability": "view",
      "type": "function"
    },
    {
      "inputs": [],
      "name": "platformFee",
      "outputs": [
        {
          "internalType": "uint256",
          "name": "",
          "type": "uint256"
        }
      ],
      "stateMutability": "view",
      "type": "function"
    },
    {
      "inputs": [],
      "name": "renounceOwnership",
      "outputs": [],
      "stateMutability": "nonpayable",
      "type": "function"
    },
    {
      "inputs": [
        {
          "internalType": "address",
          "name": "newOwner",
          "type": "address"
        }
      ],
      "name": "transferOwnership",
      "outputs": [],
      "stateMutability": "nonpayable",
      "type": "function"
    },
    {
      "inputs": [
        {
          "internalType": "address",
          "name": "_registry",
          "type": "address"
        }
      ],
      "name": "updateAddressRegistry",
      "outputs": [],
      "stateMutability": "nonpayable",
      "type": "function"
    },
    {
      "inputs": [
        {
          "internalType": "string",
          "name": "_bundleID",
          "type": "string"
        },
        {
          "internalType": "address",
          "name": "_payToken",
          "type": "address"
        },
        {
          "internalType": "uint256",
          "name": "_newPrice",
          "type": "uint256"
        }
      ],
      "name": "updateListing",
      "outputs": [],
      "stateMutability": "nonpayable",
      "type": "function"
    },
    {
      "inputs": [
        {
          "internalType": "uint256",
          "name": "_platformFee",
          "type": "uint256"
        }
      ],
      "name": "updatePlatformFee",
      "outputs": [],
      "stateMutability": "nonpayable",
      "type": "function"
    },
    {
      "inputs": [
        {
          "internalType": "address payable",
          "name": "_platformFeeRecipient",
          "type": "address"
        }
      ],
      "name": "updatePlatformFeeRecipient",
      "outputs": [],
      "stateMutability": "nonpayable",
      "type": "function"
    },
    {
      "inputs": [
        {
          "internalType": "address",
          "name": "_nftAddress",
          "type": "address"
        },
        {
          "internalType": "uint256",
          "name": "_tokenId",
          "type": "uint256"
        },
        {
          "internalType": "uint256",
          "name": "_quantity",
          "type": "uint256"
        }
      ],
      "name": "validateItemSold",
      "outputs": [],
      "stateMutability": "nonpayable",
      "type": "function"
    }
  ],
  "bytecode": "0x608060405234801561001057600080fd5b50615b0d80620000216000396000f3fe608060405234801561001057600080fd5b50600436106101425760003560e01c80639d8820c4116100b8578063cd6dc6871161007c578063cd6dc6871461092c578063e831eebf14610958578063f2fde38b14610a10578063f3ad65f414610a36578063f5fe7f7114610a3e578063fb8ad6ff14610a6457610142565b80639d8820c41461072e578063a5851902146107dd578063aa0b598814610831578063aa3a6b361461084e578063ab0962dd1461087a57610142565b806349deb9771161010a57806349deb9771461040557806368e79e89146105a5578063715018a6146105cb57806384328e20146105d35780638da5cb5b14610682578063943f22611461068a57610142565b806326232a2e1461014757806327c1f4f4146101615780632d63ce27146101955780633740ebb3146102395780634994bfe51461025d575b600080fd5b61014f610a81565b60408051918252519081900360200190f35b6101936004803603606081101561017757600080fd5b506001600160a01b038135169060208101359060400135610a87565b005b610193600480360360208110156101ab57600080fd5b810190602081018135600160201b8111156101c557600080fd5b8201836020820111156101d757600080fd5b803590602001918460018302840111600160201b831117156101f857600080fd5b91908080601f016020809104026020016040519081016040528093929190818152602001838380828437600092019190915250929550611439945050505050565b610241611603565b604080516001600160a01b039092168252519081900360200190f35b610193600480360360e081101561027357600080fd5b810190602081018135600160201b81111561028d57600080fd5b82018360208201111561029f57600080fd5b803590602001918460018302840111600160201b831117156102c057600080fd5b91908080601f0160208091040260200160405190810160405280939291908181526020018383808284376000920191909152509295949360208101935035915050600160201b81111561031257600080fd5b82018360208201111561032457600080fd5b803590602001918460208302840111600160201b8311171561034557600080fd5b919390929091602081019035600160201b81111561036257600080fd5b82018360208201111561037457600080fd5b803590602001918460208302840111600160201b8311171561039557600080fd5b919390929091602081019035600160201b8111156103b257600080fd5b8201836020820111156103c457600080fd5b803590602001918460208302840111600160201b831117156103e557600080fd5b91935091506001600160a01b038135169060208101359060400135611612565b6104b96004803603604081101561041b57600080fd5b6001600160a01b038235169190810190604081016020820135600160201b81111561044557600080fd5b82018360208201111561045757600080fd5b803590602001918460018302840111600160201b8311171561047857600080fd5b91908080601f016020809104026020016040519081016040528093929190818152602001838380828437600092019190915250929550611edf945050505050565b60405180806020018060200180602001868152602001858152602001848103845289818151815260200191508051906020019060200280838360005b8381101561050d5781810151838201526020016104f5565b50505050905001848103835288818151815260200191508051906020019060200280838360005b8381101561054c578181015183820152602001610534565b50505050905001848103825287818151815260200191508051906020019060200280838360005b8381101561058b578181015183820152602001610573565b505050509050019850505050505050505060405180910390f35b610193600480360360208110156105bb57600080fd5b50356001600160a01b0316612092565b610193612116565b610193600480360360408110156105e957600080fd5b810190602081018135600160201b81111561060357600080fd5b82018360208201111561061557600080fd5b803590602001918460018302840111600160201b8311171561063657600080fd5b91908080601f016020809104026020016040519081016040528093929190818152602001838380828437600092019190915250929550505090356001600160a01b031691506121c29050565b610241612c88565b610193600480360360208110156106a057600080fd5b810190602081018135600160201b8111156106ba57600080fd5b8201836020820111156106cc57600080fd5b803590602001918460018302840111600160201b831117156106ed57600080fd5b91908080601f016020809104026020016040519081016040528093929190818152602001838380828437600092019190915250929550612c97945050505050565b6101936004803603604081101561074457600080fd5b810190602081018135600160201b81111561075e57600080fd5b82018360208201111561077057600080fd5b803590602001918460018302840111600160201b8311171561079157600080fd5b91908080601f016020809104026020016040519081016040528093929190818152602001838380828437600092019190915250929550505090356001600160a01b03169150612d8b9050565b610809600480360360408110156107f357600080fd5b50803590602001356001600160a01b0316613009565b604080516001600160a01b039094168452602084019290925282820152519081900360600190f35b6101936004803603602081101561084757600080fd5b503561303f565b6108096004803603604081101561086457600080fd5b506001600160a01b0381351690602001356130dc565b6101936004803603606081101561089057600080fd5b810190602081018135600160201b8111156108aa57600080fd5b8201836020820111156108bc57600080fd5b803590602001918460018302840111600160201b831117156108dd57600080fd5b91908080601f016020809104026020016040519081016040528093929190818152602001838380828437600092019190915250929550506001600160a01b038335169350505060200135613115565b6101936004803603604081101561094257600080fd5b506001600160a01b038135169060200135613525565b6101936004803603608081101561096e57600080fd5b810190602081018135600160201b81111561098857600080fd5b82018360208201111561099a57600080fd5b803590602001918460018302840111600160201b831117156109bb57600080fd5b91908080601f016020809104026020016040519081016040528093929190818152602001838380828437600092019190915250929550506001600160a01b0383351693505050602081013590604001356135f9565b61019360048036036020811015610a2657600080fd5b50356001600160a01b0316613901565b610241613a04565b61019360048036036020811015610a5457600080fd5b50356001600160a01b0316613a13565b61024160048036036020811015610a7a57600080fd5b5035613ac9565b609d5481565b610a8f613ae4565b6001600160a01b0316609f60009054906101000a90046001600160a01b03166001600160a01b0316637d9f6db56040518163ffffffff1660e01b815260040160206040518083038186803b158015610ae657600080fd5b505afa158015610afa573d6000803e3d6000fd5b505050506040513d6020811015610b1057600080fd5b50516001600160a01b03161480610bb85750610b2a613ae4565b6001600160a01b0316609f60009054906101000a90046001600160a01b03166001600160a01b031663abc8c7af6040518163ffffffff1660e01b815260040160206040518083038186803b158015610b8157600080fd5b505afa158015610b95573d6000803e3d6000fd5b505050506040513d6020811015610bab57600080fd5b50516001600160a01b0316145b610bf35760405162461bcd60e51b8152600401808060200182810382526025815260200180615ab36025913960400191505060405180910390fd5b6001600160a01b03831660009081526099602090815260408083208584529091528120610c1f90613ae8565b905060005b818110156113fe576001600160a01b03851660009081526099602090815260408083208784529091528120610c599083613af9565b6000818152609860205260409020549091506001600160a01b031680156113f3576001600160a01b03811660009081526097602090815260408083208584528252808320609b83529281902080548251601f60026000196101006001861615020190931692909204918201859004850281018501909352808352606093830182828015610d275780601f10610cfc57610100808354040283529160200191610d27565b820191906000526020600020905b815481529060010190602001808311610d0a57829003601f168201915b505050505090506000609a600086815260200190815260200160002060008b6001600160a01b03166001600160a01b0316815260200190815260200160002060008a815260200190815260200160002054905087836002018281548110610d8a57fe5b90600052602060002001541115610de757610dc788846002018381548110610dae57fe5b9060005260206000200154613b0c90919063ffffffff16565b836002018281548110610dd657fe5b600091825260209091200155611233565b6000858152609a602090815260408083206001600160a01b038e16845282528083208c8452909152812055825460011415611061576001600160a01b0384166000908152609760209081526040808320888452909152812090610e4a8282615725565b610e58600183016000615725565b610e66600283016000615725565b506003810180546001600160a01b031990811690915560006004830181905560059092018290558682526098602090815260408084208054909316909255609b90528120610eb391615743565b6040805160008082526020808301828152838501838152606085019586905260e08501849052610100850184905260c0808752885161012087015288516001600160a01b038c16977fbf004834f59fa5d831659d6ca458fe7e8675daefebc459ac53a3cab2b6816bf4978b97909690938493839260808a019260a08b0192908b01916101408c0191908d01908083838b5b83811015610f5c578181015183820152602001610f44565b50505050905090810190601f168015610f895780820380516001836020036101000a031916815260200191505b5085810384528a5181528a51602091820191808d01910280838360005b83811015610fbe578181015183820152602001610fa6565b50505050905001858103835289818151815260200191508051906020019060200280838360005b83811015610ffd578181015183820152602001610fe5565b50505050905001858103825288818151815260200191508051906020019060200280838360005b8381101561103c578181015183820152602001611024565b505050509050019a505050505050505050505060405180910390a250505050506113f6565b8254600019018110156111bf5782548390600019810190811061108057fe5b60009182526020909120015483546001600160a01b03909116908490839081106110a657fe5b600091825260209091200180546001600160a01b0319166001600160a01b039290921691909117905560018301805460001981019081106110e357fe5b90600052602060002001548360010182815481106110fd57fe5b600091825260209091200155600283018054600019810190811061111d57fe5b906000526020600020015483600201828154811061113757fe5b906000526020600020018190555080609a6000878152602001908152602001600020600085600001848154811061116a57fe5b60009182526020808320909101546001600160a01b031683528201929092526040018120600186018054919291859081106111a157fe5b90600052602060002001548152602001908152602001600020819055505b82548390806111ca57fe5b600082815260209020810160001990810180546001600160a01b0319169055019055600183018054806111f957fe5b600190038181906000526020600020016000905590558260020180548061121c57fe5b600190038181906000526020600020016000905590555b836001600160a01b03167fbf004834f59fa5d831659d6ca458fe7e8675daefebc459ac53a3cab2b6816bf4838560000186600101876002018860030160009054906101000a90046001600160a01b031689600401546040518080602001806020018060200180602001876001600160a01b0316815260200186815260200185810385528b818151815260200191508051906020019080838360005b838110156112e65781810151838201526020016112ce565b50505050905090810190601f1680156113135780820380516001836020036101000a031916815260200191505b5085810384528a818154815260200191508054801561135b57602002820191906000526020600020905b81546001600160a01b0316815260019091019060200180831161133d575b5050858103835289818154815260200191508054801561139a57602002820191906000526020600020905b815481526020019060010190808311611386575b505085810382528881815481526020019150805480156113d957602002820191906000526020600020905b8154815260200190600101908083116113c5575b50509a505050505050505050505060405180910390a25050505b50505b600101610c24565b506001600160a01b0384166000908152609960209081526040808320868452909152812090818161142f8282615725565b5050505050505050565b600061144482613b69565b905061144e615787565b6000828152609c6020526040812090611465613ae4565b6001600160a01b03908116825260208083019390935260409182016000208251606081018452815490921682526001810154938201939093526002909201549082015290506114b2613be0565b816040015111611509576040805162461bcd60e51b815260206004820152601b60248201527f6f66666572206e6f7420657869737473206f7220657870697265640000000000604482015290519081900360640190fd5b6000828152609c6020526040812090611520613ae4565b6001600160a01b031681526020810191909152604001600090812080546001600160a01b0319168155600181018290556002015561155c613ae4565b6001600160a01b03167f7d7a082d5e9005cb920fdc04023f730c7776927c8a728347783ac7a8d2b31e7c846040518080602001828103825283818151815260200191508051906020019080838360005b838110156115c45781810151838201526020016115ac565b50505050905090810190601f1680156115f15780820380516001836020036101000a031916815260200191505b509250505060405180910390a2505050565b609e546001600160a01b031681565b600061161d8b613b69565b6000818152609b602090815260409091208d519293506116419290918e01906157b1565b50888714801561165057508685145b611690576040805162461bcd60e51b815260206004820152600c60248201526b696e76616c6964206461746160a01b604482015290519081900360640190fd5b6000818152609860205260409020546001600160a01b0316158061171357506116b7613ae4565b6000828152609860205260409020546001600160a01b0390811691161480156117135750609760006116e7613ae4565b6001600160a01b0316815260208082019290925260409081016000908120848252909252902060040154155b611755576040805162461bcd60e51b815260206004820152600e60248201526d185b1c9958591e481b1a5cdd195960921b604482015290519081900360640190fd5b609f5460408051639d23c4c760e01b815290516000926001600160a01b031691639d23c4c7916004808301926020929190829003018186803b15801561179a57600080fd5b505afa1580156117ae573d6000803e3d6000fd5b505050506040513d60208110156117c457600080fd5b505190506001600160a01b038516158061186857506001600160a01b038116158015906118685750806001600160a01b03166398afdfe3866040518263ffffffff1660e01b815260040180826001600160a01b03168152602001915050602060405180830381600087803b15801561183b57600080fd5b505af115801561184f573d6000803e3d6000fd5b505050506040513d602081101561186557600080fd5b50515b6118ad576040805162461bcd60e51b815260206004820152601160248201527034b73b30b634b2103830bc903a37b5b2b760791b604482015290519081900360640190fd5b6000609760006118bb613ae4565b6001600160a01b0316815260208082019290925260409081016000908120868252909252812091506118ee908290615725565b6118fc600182016000615725565b61190a600282016000615725565b60005b8b811015611da5576119418d8d8381811061192457fe5b905060200201356001600160a01b03166380ac58cd60e01b613be4565b15611a9a5760008d8d8381811061195457fe5b905060200201356001600160a01b031690506119a58e8e8481811061197557fe5b905060200201356001600160a01b03168d8d8581811061199157fe5b905060200201356119a0613ae4565b613c67565b806001600160a01b031663e985e9c56119bc613ae4565b306040518363ffffffff1660e01b815260040180836001600160a01b03168152602001826001600160a01b031681526020019250505060206040518083038186803b158015611a0a57600080fd5b505afa158015611a1e573d6000803e3d6000fd5b505050506040513d6020811015611a3457600080fd5b5051611a7b576040805162461bcd60e51b81526020600482015260116024820152701a5d195b481b9bdd08185c1c1c9bdd9959607a1b604482015290519081900360640190fd5b5060028201805460018181018355600092835260209092200155611c8f565b611ac68d8d83818110611aa957fe5b905060200201356001600160a01b031663d9b67a2660e01b613be4565b15611c4c5760008d8d83818110611ad957fe5b905060200201356001600160a01b03169050611b3d8e8e84818110611afa57fe5b905060200201356001600160a01b03168d8d85818110611b1657fe5b905060200201358c8c86818110611b2957fe5b90506020020135611b38613ae4565b613d2e565b806001600160a01b031663e985e9c5611b54613ae4565b306040518363ffffffff1660e01b815260040180836001600160a01b03168152602001826001600160a01b031681526020019250505060206040518083038186803b158015611ba257600080fd5b505afa158015611bb6573d6000803e3d6000fd5b505050506040513d6020811015611bcc57600080fd5b5051611c13576040805162461bcd60e51b81526020600482015260116024820152701a5d195b481b9bdd08185c1c1c9bdd9959607a1b604482015290519081900360640190fd5b826002018a8a84818110611c2357fe5b83546001810185556000948552602094859020919094029290920135919092015550611c8f9050565b6040805162461bcd60e51b8152602060048201526013602482015272696e76616c6964206e6674206164647265737360681b604482015290519081900360640190fd5b60008d8d83818110611c9d57fe5b855460018082018855600088815260209081902090920180549390920294909401356001600160a01b03166001600160a01b03199092168217905592505083018c8c84818110611ce957fe5b8354600181018555600094855260208086209281029490940135910155506001600160a01b03831682526099905260408120611d51918791908f8f87818110611d2e57fe5b905060200201358152602001908152602001600020613dfa90919063ffffffff16565b506000858152609a602090815260408083206001600160a01b0385168452909152812083918e8e84818110611d8257fe5b60209081029290920135835250810191909152604001600020555060010161190d565b506003810180546001600160a01b0319166001600160a01b0388161790556004810185905560058101849055611dd9613ae4565b600084815260986020526040902080546001600160a01b0319166001600160a01b0392909216919091179055611e0d613ae4565b6001600160a01b03167f1dd1f9de6505bd1f4c42382f88f7e9475dedc3c10ff5bd77cf14490a5d74fab28e8888886040518080602001856001600160a01b03168152602001848152602001838152602001828103825286818151815260200191508051906020019080838360005b83811015611e93578181015183820152602001611e7b565b50505050905090810190601f168015611ec05780820380516001836020036101000a031916815260200191505b509550505050505060405180910390a250505050505050505050505050565b60608060606000806000611ef287613b69565b6001600160a01b03891660009081526097602090815260408083208484528252918290208054835181840281018401909452808452939450919290830182828015611f6657602002820191906000526020600020905b81546001600160a01b03168152600190910190602001808311611f48575b505050506001600160a01b038a1660009081526097602090815260408083208684528252918290206001018054835181840281018401909452808452949a509193919250830182828015611fd957602002820191906000526020600020905b815481526020019060010190808311611fc5575b505050506001600160a01b038a1660009081526097602090815260408083208684528252918290206002018054835181840281018401909452808452949950919391925083018282801561204c57602002820191906000526020600020905b815481526020019060010190808311612038575b505050506001600160a01b039990991660009081526097602090815260408083209483529390529190912060048101546005909101549699959850909650949392505050565b61209a613ae4565b6001600160a01b03166120ab612c88565b6001600160a01b0316146120f4576040805162461bcd60e51b81526020600482018190526024820152600080516020615a69833981519152604482015290519081900360640190fd5b609f80546001600160a01b0319166001600160a01b0392909216919091179055565b61211e613ae4565b6001600160a01b031661212f612c88565b6001600160a01b031614612178576040805162461bcd60e51b81526020600482018190526024820152600080516020615a69833981519152604482015290519081900360640190fd5b6033546040516000916001600160a01b0316907f8be0079c531659141344cd1fd0a4f28419497f9722a3daafe3b4186f6b6457e0908390a3603380546001600160a01b0319169055565b60026065541415612208576040805162461bcd60e51b815260206004820152601f6024820152600080516020615960833981519152604482015290519081900360640190fd5b6002606555600061221883613b69565b9050612222613ae4565b6000828152609860205260409020546001600160a01b03908116911614612282576040805162461bcd60e51b815260206004820152600f60248201526e6e6f74206f776e696e67206974656d60881b604482015290519081900360640190fd5b61228a615787565b506000818152609c602090815260408083206001600160a01b03808716855290835292819020815160608101835281549094168452600181015492840192909252600290910154908201526122dd613be0565b816040015111612334576040805162461bcd60e51b815260206004820152601b60248201527f6f66666572206e6f7420657869737473206f7220657870697265640000000000604482015290519081900360640190fd5b6020810151609d54600090612358906103e890612352908590613e06565b90613e5f565b609e548451919250612379916001600160a01b039081169188911684613ec6565b6123a285612385613ae4565b61238f8585613b0c565b86516001600160a01b0316929190613ec6565b6123aa61582f565b609760006123b6613ae4565b6001600160a01b031681526020808201929092526040908101600090812088825283528190208151815460e09481028201850190935260c0810183815290939192849284919084018282801561243557602002820191906000526020600020905b81546001600160a01b03168152600190910190602001808311612417575b505050505081526020016001820180548060200260200160405190810160405280929190818152602001828054801561248d57602002820191906000526020600020905b815481526020019060010190808311612479575b50505050508152602001600282018054806020026020016040519081016040528092919081815260200182805480156124e557602002820191906000526020600020905b8154815260200190600101908083116124d1575b505050918352505060038201546001600160a01b0316602082015260048201546040820152600590910154606090910152905060005b8151518110156128a05761254d8260000151828151811061253857fe5b60200260200101516380ac58cd60e01b613be4565b1561260a57815180518290811061256057fe5b60200260200101516001600160a01b03166342842e0e61257e613ae4565b898560200151858151811061258f57fe5b60200260200101516040518463ffffffff1660e01b815260040180846001600160a01b03168152602001836001600160a01b031681526020018281526020019350505050600060405180830381600087803b1580156125ed57600080fd5b505af1158015612601573d6000803e3d6000fd5b50505050612756565b815180518290811061261857fe5b60200260200101516001600160a01b031663f242432a612636613ae4565b898560200151858151811061264757fe5b60200260200101518660400151868151811061265f57fe5b6020026020010151604051806020016040528060008152506040518663ffffffff1660e01b815260040180866001600160a01b03168152602001856001600160a01b0316815260200184815260200183815260200180602001828103825283818151815260200191508051906020019080838360005b838110156126ed5781810151838201526020016126d5565b50505050905090810190601f16801561271a5780820380516001836020036101000a031916815260200191505b509650505050505050600060405180830381600087803b15801561273d57600080fd5b505af1158015612751573d6000803e3d6000fd5b505050505b609f60009054906101000a90046001600160a01b03166001600160a01b031663abc8c7af6040518163ffffffff1660e01b815260040160206040518083038186803b1580156127a457600080fd5b505afa1580156127b8573d6000803e3d6000fd5b505050506040513d60208110156127ce57600080fd5b5051825180516001600160a01b039092169163e940ebeb9190849081106127f157fe5b60200260200101518460200151848151811061280957fe5b60209081029190910181015160008b8152609890925260408083205481516001600160e01b031960e088901b1681526001600160a01b039586166004820152602481019390935284166044830152928c166064820152915160848084019382900301818387803b15801561287c57600080fd5b505af1158015612890573d6000803e3d6000fd5b50506001909201915061251b9050565b50609760006128ad613ae4565b6001600160a01b03168152602080820192909252604090810160009081208882529092528120906128de8282615725565b6128ec600183016000615725565b6128fa600283016000615725565b506003810180546001600160a01b03191690556000600482018190556005909101819055608082018190526001600160a01b0387168152609760209081526040808320888452825290912082518051849361295992849291019061586e565b50602082810151805161297292600185019201906158cf565b506040820151805161298e9160028401916020909101906158cf565b5060608201516003820180546001600160a01b039283166001600160a01b0319918216179091556080840151600484015560a09093015160059092019190915560008781526098602090815260408083208054948c1694861685179055609c825280832084845290915281208054909316835560018301819055600290920191909155612a19613ae4565b6001600160a01b03167f586a7960ce4f3631680ea77efd69fa758b24388a9a5183f452209aa9f1c74bfd898760000151609f60009054906101000a90046001600160a01b03166001600160a01b031663abc8c7af6040518163ffffffff1660e01b815260040160206040518083038186803b158015612a9757600080fd5b505afa158015612aab573d6000803e3d6000fd5b505050506040513d6020811015612ac157600080fd5b50518951604080516341976e0960e01b81526001600160a01b039283166004820152905191909216916341976e09916024808301926020929190829003018186803b158015612b0f57600080fd5b505afa158015612b23573d6000803e3d6000fd5b505050506040513d6020811015612b3957600080fd5b505160208a810151604080516001600160a01b03861681850152908101849052606081018290526080808252865190820152855191929091829160a08301919088019080838360005b83811015612b9a578181015183820152602001612b82565b50505050905090810190601f168015612bc75780820380516001836020036101000a031916815260200191505b509550505050505060405180910390a3856001600160a01b03167f7d7a082d5e9005cb920fdc04023f730c7776927c8a728347783ac7a8d2b31e7c886040518080602001828103825283818151815260200191508051906020019080838360005b83811015612c40578181015183820152602001612c28565b50505050905090810190601f168015612c6d5780820380516001836020036101000a031916815260200191505b509250505060405180910390a2505060016065555050505050565b6033546001600160a01b031690565b60026065541415612cdd576040805162461bcd60e51b815260206004820152601f6024820152600080516020615960833981519152604482015290519081900360640190fd5b60026065556000612ced82613b69565b9050600060976000612cfd613ae4565b6001600160a01b03166001600160a01b0316815260200190815260200160002060008381526020019081526020016000206004015411612d71576040805162461bcd60e51b815260206004820152600a6024820152691b9bdd081b1a5cdd195960b21b604482015290519081900360640190fd5b612d82612d7c613ae4565b83613f20565b50506001606555565b60026065541415612dd1576040805162461bcd60e51b815260206004820152601f6024820152600080516020615960833981519152604482015290519081900360640190fd5b60026065556000612de183613b69565b6000818152609860205260409020549091506001600160a01b031680612e3b576040805162461bcd60e51b815260206004820152600a6024820152691a5b9d985b1a59081a5960b21b604482015290519081900360640190fd5b612e4361582f565b6001600160a01b03821660009081526097602090815260408083208684528252918290208251815460e09381028201840190945260c081018481529093919284928491840182828015612ebf57602002820191906000526020600020905b81546001600160a01b03168152600190910190602001808311612ea1575b5050505050815260200160018201805480602002602001604051908101604052809291908181526020018280548015612f1757602002820191906000526020600020905b815481526020019060010190808311612f03575b5050505050815260200160028201805480602002602001604051908101604052809291908181526020018280548015612f6f57602002820191906000526020600020905b815481526020019060010190808311612f5b575b505050918352505060038201546001600160a01b03908116602083015260048301546040830152600590920154606091820152820151919250858116911614612ff3576040805162461bcd60e51b815260206004820152601160248201527034b73b30b634b2103830bc903a37b5b2b760791b604482015290519081900360640190fd5b612ffd85856142d9565b50506001606555505050565b609c6020908152600092835260408084209091529082529020805460018201546002909201546001600160a01b03909116919083565b613047613ae4565b6001600160a01b0316613058612c88565b6001600160a01b0316146130a1576040805162461bcd60e51b81526020600482018190526024820152600080516020615a69833981519152604482015290519081900360640190fd5b609d8190556040805182815290517f2644fd26359c107ff7991b6dfc36ce902b334ce4e3891bbecacc5922aa620efa9181900360200190a150565b60976020908152600092835260408084209091529082529020600381015460048201546005909201546001600160a01b03909116919083565b6002606554141561315b576040805162461bcd60e51b815260206004820152601f6024820152600080516020615960833981519152604482015290519081900360640190fd5b6002606555600061316b84613b69565b905060006097600061317b613ae4565b6001600160a01b03166001600160a01b031681526020019081526020016000206000838152602001908152602001600020905060008160040154116131f4576040805162461bcd60e51b815260206004820152600a6024820152691b9bdd081b1a5cdd195960b21b604482015290519081900360640190fd5b609f5460408051639d23c4c760e01b815290516000926001600160a01b031691639d23c4c7916004808301926020929190829003018186803b15801561323957600080fd5b505afa15801561324d573d6000803e3d6000fd5b505050506040513d602081101561326357600080fd5b505190506001600160a01b038516158061330757506001600160a01b038116158015906133075750806001600160a01b03166398afdfe3866040518263ffffffff1660e01b815260040180826001600160a01b03168152602001915050602060405180830381600087803b1580156132da57600080fd5b505af11580156132ee573d6000803e3d6000fd5b505050506040513d602081101561330457600080fd5b50515b61334c576040805162461bcd60e51b815260206004820152601160248201527034b73b30b634b2103830bc903a37b5b2b760791b604482015290519081900360640190fd5b6003820180546001600160a01b0319166001600160a01b03871617905560048201849055613378613ae4565b6001600160a01b03167fbf004834f59fa5d831659d6ca458fe7e8675daefebc459ac53a3cab2b6816bf4878460000185600101866002018a8a6040518080602001806020018060200180602001876001600160a01b0316815260200186815260200185810385528b818151815260200191508051906020019080838360005b8381101561340f5781810151838201526020016133f7565b50505050905090810190601f16801561343c5780820380516001836020036101000a031916815260200191505b5085810384528a818154815260200191508054801561348457602002820191906000526020600020905b81546001600160a01b03168152600190910190602001808311613466575b505085810383528981815481526020019150805480156134c357602002820191906000526020600020905b8154815260200190600101908083116134af575b5050858103825288818154815260200191508054801561350257602002820191906000526020600020905b8154815260200190600101908083116134ee575b50509a505050505050505050505060405180910390a25050600160655550505050565b600054610100900460ff168061353e575061353e614f24565b8061354c575060005460ff16155b6135875760405162461bcd60e51b815260040180806020018281038252602e8152602001806159f2602e913960400191505060405180910390fd5b600054610100900460ff161580156135b2576000805460ff1961ff0019909116610100171660011790555b609d829055609e80546001600160a01b0319166001600160a01b0385161790556135da614f35565b6135e2614fe7565b80156135f4576000805461ff00191690555b505050565b600061360485613b69565b6000818152609860205260409020549091506001600160a01b031661365d576040805162461bcd60e51b815260206004820152600a6024820152691a5b9d985b1a59081a5960b21b604482015290519081900360640190fd5b613665613be0565b82116136ad576040805162461bcd60e51b815260206004820152601260248201527134b73b30b634b21032bc3834b930ba34b7b760711b604482015290519081900360640190fd5b600083116136f2576040805162461bcd60e51b815260206004820152600d60248201526c696e76616c696420707269636560981b604482015290519081900360640190fd5b6136fa615787565b6000828152609c6020526040812090613711613ae4565b6001600160a01b039081168252602080830193909352604091820160002082516060810184528154909216825260018101549382019390935260029092015490820152905061375e613be0565b816040015111156137a5576040805162461bcd60e51b815260206004820152600c60248201526b6f666665722065786973747360a01b604482015290519081900360640190fd5b6040518060600160405280866001600160a01b0316815260200185815260200184815250609c600084815260200190815260200160002060006137e6613ae4565b6001600160a01b0390811682526020808301939093526040918201600020845181546001600160a01b03191692169190911781559183015160018301559190910151600290910155613836613ae4565b6001600160a01b03167f6c59d59bc0c5e094ffd184dd57ea02b8f8e2e2299fd34ffebdd4888864b547b9878787876040518080602001856001600160a01b03168152602001848152602001838152602001828103825286818151815260200191508051906020019080838360005b838110156138bc5781810151838201526020016138a4565b50505050905090810190601f1680156138e95780820380516001836020036101000a031916815260200191505b509550505050505060405180910390a2505050505050565b613909613ae4565b6001600160a01b031661391a612c88565b6001600160a01b031614613963576040805162461bcd60e51b81526020600482018190526024820152600080516020615a69833981519152604482015290519081900360640190fd5b6001600160a01b0381166139a85760405162461bcd60e51b81526004018080602001828103825260268152602001806159806026913960400191505060405180910390fd5b6033546040516001600160a01b038084169216907f8be0079c531659141344cd1fd0a4f28419497f9722a3daafe3b4186f6b6457e090600090a3603380546001600160a01b0319166001600160a01b0392909216919091179055565b609f546001600160a01b031681565b613a1b613ae4565b6001600160a01b0316613a2c612c88565b6001600160a01b031614613a75576040805162461bcd60e51b81526020600482018190526024820152600080516020615a69833981519152604482015290519081900360640190fd5b609e80546001600160a01b0383166001600160a01b0319909116811790915560408051918252517fe57e7c1f36cc83fade34e32351e6eee7eb9da532662b1b5da10c631e8222aca79181900360200190a150565b6098602052600090815260409020546001600160a01b031681565b3390565b6000613af38261507c565b92915050565b6000613b058383615080565b9392505050565b600082821115613b63576040805162461bcd60e51b815260206004820152601e60248201527f536166654d6174683a207375627472616374696f6e206f766572666c6f770000604482015290519081900360640190fd5b50900390565b6000816040516020018082805190602001908083835b60208310613b9e5780518252601f199092019160209182019101613b7f565b6001836020036101000a038019825116818451168082178552505050505050905001915050604051602081830303815290604052805190602001209050919050565b4290565b6000826001600160a01b03166301ffc9a7836040518263ffffffff1660e01b815260040180826001600160e01b031916815260200191505060206040518083038186803b158015613c3457600080fd5b505afa158015613c48573d6000803e3d6000fd5b505050506040513d6020811015613c5e57600080fd5b50519392505050565b806001600160a01b0316836001600160a01b0316636352211e846040518263ffffffff1660e01b81526004018082815260200191505060206040518083038186803b158015613cb557600080fd5b505afa158015613cc9573d6000803e3d6000fd5b505050506040513d6020811015613cdf57600080fd5b50516001600160a01b0316146135f4576040805162461bcd60e51b815260206004820152600f60248201526e6e6f74206f776e696e67206974656d60881b604482015290519081900360640190fd5b81846001600160a01b031662fdd58e83866040518363ffffffff1660e01b815260040180836001600160a01b031681526020018281526020019250505060206040518083038186803b158015613d8357600080fd5b505afa158015613d97573d6000803e3d6000fd5b505050506040513d6020811015613dad57600080fd5b50511015613df4576040805162461bcd60e51b815260206004820152600f60248201526e6e6f74206f776e696e67206974656d60881b604482015290519081900360640190fd5b50505050565b6000613b0583836150e4565b600082613e1557506000613af3565b82820282848281613e2257fe5b0414613b055760405162461bcd60e51b8152600401808060200182810382526021815260200180615a486021913960400191505060405180910390fd5b6000808211613eb5576040805162461bcd60e51b815260206004820152601a60248201527f536166654d6174683a206469766973696f6e206279207a65726f000000000000604482015290519081900360640190fd5b818381613ebe57fe5b049392505050565b604080516001600160a01b0380861660248301528416604482015260648082018490528251808303909101815260849091019091526020810180516001600160e01b03166323b872dd60e01b179052613df490859061512e565b6000613f2b82613b69565b9050613f3561582f565b6001600160a01b03841660009081526097602090815260408083208584528252918290208251815460e09381028201840190945260c081018481529093919284928491840182828015613fb157602002820191906000526020600020905b81546001600160a01b03168152600190910190602001808311613f93575b505050505081526020016001820180548060200260200160405190810160405280929190818152602001828054801561400957602002820191906000526020600020905b815481526020019060010190808311613ff5575b505050505081526020016002820180548060200260200160405190810160405280929190818152602001828054801561406157602002820191906000526020600020905b81548152602001906001019080831161404d575b505050918352505060038201546001600160a01b0316602082015260048201546040820152600590910154606090910152905060005b815151811015614198576141178360996000856000015185815181106140b957fe5b60200260200101516001600160a01b03166001600160a01b031681526020019081526020016000206000856020015185815181106140f357fe5b602002602001015181526020019081526020016000206151df90919063ffffffff16565b506000838152609a60205260408120835180519192918490811061413757fe5b60200260200101516001600160a01b03166001600160a01b0316815260200190815260200160002060008360200151838151811061417157fe5b60200260200101518152602001908152602001600020600090558080600101915050614097565b506001600160a01b03841660009081526097602090815260408083208584529091528120906141c78282615725565b6141d5600183016000615725565b6141e3600283016000615725565b506003810180546001600160a01b031990811690915560006004830181905560059092018290558382526098602090815260408084208054909316909255609b9052812061423091615743565b836001600160a01b03167f71a0e856c3470e868cc72d9c038e190004e167ea6490f2063682cd37679a302a846040518080602001828103825283818151815260200191508051906020019080838360005b83811015614299578181015183820152602001614281565b50505050905090810190601f1680156142c65780820380516001836020036101000a031916815260200191505b509250505060405180910390a250505050565b60006142e483613b69565b6000818152609860205260409020549091506001600160a01b031661430761582f565b6001600160a01b03821660009081526097602090815260408083208684528252918290208251815460e09381028201840190945260c08101848152909391928492849184018282801561438357602002820191906000526020600020905b81546001600160a01b03168152600190910190602001808311614365575b50505050508152602001600182018054806020026020016040519081016040528092919081815260200182805480156143db57602002820191906000526020600020905b8154815260200190600101908083116143c7575b505050505081526020016002820180548060200260200160405190810160405280929190818152602001828054801561443357602002820191906000526020600020905b81548152602001906001019080831161441f575b505050918352505060038201546001600160a01b031660208201526004820154604082015260059091015460609091015260808101519091506144aa576040805162461bcd60e51b815260206004820152600a6024820152691b9bdd081b1a5cdd195960b21b604482015290519081900360640190fd5b60005b815151811015614593576144ca8260000151828151811061253857fe5b1561450d57614508826000015182815181106144e257fe5b6020026020010151836020015183815181106144fa57fe5b602002602001015185613c67565b61458b565b6145358260000151828151811061452057fe5b602002602001015163d9b67a2660e01b613be4565b1561458b5761458b8260000151828151811061454d57fe5b60200260200101518360200151838151811061456557fe5b60200260200101518460400151848151811061457d57fe5b602002602001015186613d2e565b6001016144ad565b508060a001516145a1613be0565b10156145e2576040805162461bcd60e51b815260206004820152600b60248201526a6e6f742062757961626c6560a81b604482015290519081900360640190fd5b6080810151609d54600090614600906103e890612352908590613e06565b90506001600160a01b03861661474057609e546040516000916001600160a01b03169083908381818185875af1925050503d806000811461465d576040519150601f19603f3d011682016040523d82523d6000602084013e614662565b606091505b50509050806146a25760405162461bcd60e51b81526004018080602001828103825260268152602001806159a66026913960400191505060405180910390fd5b60006001600160a01b0386166146b88585613b0c565b604051600081818185875af1925050503d80600081146146f4576040519150601f19603f3d011682016040523d82523d6000602084013e6146f9565b606091505b50509050806147395760405162461bcd60e51b8152600401808060200182810382526028815260200180615a206028913960400191505060405180910390fd5b505061478a565b61476261474b613ae4565b609e546001600160a01b0389811692911684613ec6565b61478a61476d613ae4565b856147788585613b0c565b6001600160a01b038a16929190613ec6565b60005b835151811015614b01576147aa8460000151828151811061253857fe5b156148675783518051829081106147bd57fe5b60200260200101516001600160a01b03166342842e0e866147dc613ae4565b876020015185815181106147ec57fe5b60200260200101516040518463ffffffff1660e01b815260040180846001600160a01b03168152602001836001600160a01b031681526020018281526020019350505050600060405180830381600087803b15801561484a57600080fd5b505af115801561485e573d6000803e3d6000fd5b505050506149b3565b835180518290811061487557fe5b60200260200101516001600160a01b031663f242432a86614894613ae4565b876020015185815181106148a457fe5b6020026020010151886040015186815181106148bc57fe5b6020026020010151604051806020016040528060008152506040518663ffffffff1660e01b815260040180866001600160a01b03168152602001856001600160a01b0316815260200184815260200183815260200180602001828103825283818151815260200191508051906020019080838360005b8381101561494a578181015183820152602001614932565b50505050905090810190601f1680156149775780820380516001836020036101000a031916815260200191505b509650505050505050600060405180830381600087803b15801561499a57600080fd5b505af11580156149ae573d6000803e3d6000fd5b505050505b609f60009054906101000a90046001600160a01b03166001600160a01b031663abc8c7af6040518163ffffffff1660e01b815260040160206040518083038186803b158015614a0157600080fd5b505afa158015614a15573d6000803e3d6000fd5b505050506040513d6020811015614a2b57600080fd5b5051845180516001600160a01b039092169163e940ebeb919084908110614a4e57fe5b602002602001015186602001518481518110614a6657fe5b602002602001015188614a77613ae4565b6040518563ffffffff1660e01b815260040180856001600160a01b03168152602001848152602001836001600160a01b03168152602001826001600160a01b03168152602001945050505050600060405180830381600087803b158015614add57600080fd5b505af1158015614af1573d6000803e3d6000fd5b50506001909201915061478d9050565b506001600160a01b0384166000908152609760209081526040808320888452909152812090614b308282615725565b614b3e600183016000615725565b614b4c600283016000615725565b506003810180546001600160a01b03191690556000600482018190556005909101819055608084018190528390609790614b84613ae4565b6001600160a01b0316815260208082019290925260409081016000908120898252835220825180519192614bbd9284929091019061586e565b506020828101518051614bd692600185019201906158cf565b5060408201518051614bf29160028401916020909101906158cf565b5060608201516003820180546001600160a01b0319166001600160a01b039092169190911790556080820151600482015560a090910151600590910155614c37613ae4565b600086815260986020908152604080832080546001600160a01b0319166001600160a01b039590951694909417909355609c905290812090614c77613ae4565b6001600160a01b031681526020810191909152604001600090812080546001600160a01b03191681556001810182905560020155614cb3613ae4565b6001600160a01b0316846001600160a01b03167f586a7960ce4f3631680ea77efd69fa758b24388a9a5183f452209aa9f1c74bfd8989609f60009054906101000a90046001600160a01b03166001600160a01b031663abc8c7af6040518163ffffffff1660e01b815260040160206040518083038186803b158015614d3757600080fd5b505afa158015614d4b573d6000803e3d6000fd5b505050506040513d6020811015614d6157600080fd5b5051604080516341976e0960e01b81526001600160a01b038e81166004830152915191909216916341976e09916024808301926020929190829003018186803b158015614dad57600080fd5b505afa158015614dc1573d6000803e3d6000fd5b505050506040513d6020811015614dd757600080fd5b5051604080516001600160a01b038416602082810191909152918101839052606081018a9052608080825285519082015284518a92829160a083019188019080838360005b83811015614e34578181015183820152602001614e1c565b50505050905090810190601f168015614e615780820380516001836020036101000a031916815260200191505b509550505050505060405180910390a3614e79613ae4565b6001600160a01b03167f7d7a082d5e9005cb920fdc04023f730c7776927c8a728347783ac7a8d2b31e7c886040518080602001828103825283818151815260200191508051906020019080838360005b83811015614ee1578181015183820152602001614ec9565b50505050905090810190601f168015614f0e5780820380516001836020036101000a031916815260200191505b509250505060405180910390a250505050505050565b6000614f2f306151eb565b15905090565b600054610100900460ff1680614f4e5750614f4e614f24565b80614f5c575060005460ff16155b614f975760405162461bcd60e51b815260040180806020018281038252602e8152602001806159f2602e913960400191505060405180910390fd5b600054610100900460ff16158015614fc2576000805460ff1961ff0019909116610100171660011790555b614fca6151f1565b614fd2615291565b8015614fe4576000805461ff00191690555b50565b600054610100900460ff16806150005750615000614f24565b8061500e575060005460ff16155b6150495760405162461bcd60e51b815260040180806020018281038252602e8152602001806159f2602e913960400191505060405180910390fd5b600054610100900460ff16158015615074576000805460ff1961ff0019909116610100171660011790555b614fd261538a565b5490565b815460009082106150c25760405162461bcd60e51b815260040180806020018281038252602281526020018061593e6022913960400191505060405180910390fd5b8260000182815481106150d157fe5b9060005260206000200154905092915050565b60006150f08383615430565b61512657508154600181810184556000848152602080822090930184905584548482528286019093526040902091909155613af3565b506000613af3565b6060615183826040518060400160405280602081526020017f5361666545524332303a206c6f772d6c6576656c2063616c6c206661696c6564815250856001600160a01b03166154489092919063ffffffff16565b8051909150156135f4578080602001905160208110156151a257600080fd5b50516135f45760405162461bcd60e51b815260040180806020018281038252602a815260200180615a89602a913960400191505060405180910390fd5b6000613b05838361545f565b3b151590565b600054610100900460ff168061520a575061520a614f24565b80615218575060005460ff16155b6152535760405162461bcd60e51b815260040180806020018281038252602e8152602001806159f2602e913960400191505060405180910390fd5b600054610100900460ff16158015614fd2576000805460ff1961ff0019909116610100171660011790558015614fe4576000805461ff001916905550565b600054610100900460ff16806152aa57506152aa614f24565b806152b8575060005460ff16155b6152f35760405162461bcd60e51b815260040180806020018281038252602e8152602001806159f2602e913960400191505060405180910390fd5b600054610100900460ff1615801561531e576000805460ff1961ff0019909116610100171660011790555b6000615328613ae4565b603380546001600160a01b0319166001600160a01b038316908117909155604051919250906000907f8be0079c531659141344cd1fd0a4f28419497f9722a3daafe3b4186f6b6457e0908290a3508015614fe4576000805461ff001916905550565b600054610100900460ff16806153a357506153a3614f24565b806153b1575060005460ff16155b6153ec5760405162461bcd60e51b815260040180806020018281038252602e8152602001806159f2602e913960400191505060405180910390fd5b600054610100900460ff16158015615417576000805460ff1961ff0019909116610100171660011790555b60016065558015614fe4576000805461ff001916905550565b60009081526001919091016020526040902054151590565b60606154578484600085615525565b949350505050565b6000818152600183016020526040812054801561551b578354600019808301919081019060009087908390811061549257fe5b90600052602060002001549050808760000184815481106154af57fe5b6000918252602080832090910192909255828152600189810190925260409020908401905586548790806154df57fe5b60019003818190600052602060002001600090559055866001016000878152602001908152602001600020600090556001945050505050613af3565b6000915050613af3565b6060824710156155665760405162461bcd60e51b81526004018080602001828103825260268152602001806159cc6026913960400191505060405180910390fd5b61556f856151eb565b6155c0576040805162461bcd60e51b815260206004820152601d60248201527f416464726573733a2063616c6c20746f206e6f6e2d636f6e7472616374000000604482015290519081900360640190fd5b60006060866001600160a01b031685876040518082805190602001908083835b602083106155ff5780518252601f1990920191602091820191016155e0565b6001836020036101000a03801982511681845116808217855250505050505090500191505060006040518083038185875af1925050503d8060008114615661576040519150601f19603f3d011682016040523d82523d6000602084013e615666565b606091505b5091509150615676828286615681565b979650505050505050565b60608315615690575081613b05565b8251156156a05782518084602001fd5b8160405162461bcd60e51b81526004018080602001828103825283818151815260200191508051906020019080838360005b838110156156ea5781810151838201526020016156d2565b50505050905090810190601f1680156157175780820380516001836020036101000a031916815260200191505b509250505060405180910390fd5b5080546000825590600052602060002090810190614fe49190615909565b50805460018160011615610100020316600290046000825580601f106157695750614fe4565b601f016020900490600052602060002090810190614fe49190615909565b604051806060016040528060006001600160a01b0316815260200160008152602001600081525090565b828054600181600116156101000203166002900490600052602060002090601f016020900481019282601f106157f257805160ff191683800117855561581f565b8280016001018555821561581f579182015b8281111561581f578251825591602001919060010190615804565b5061582b929150615909565b5090565b6040518060c0016040528060608152602001606081526020016060815260200160006001600160a01b0316815260200160008152602001600081525090565b8280548282559060005260206000209081019282156158c3579160200282015b828111156158c357825182546001600160a01b0319166001600160a01b0390911617825560209092019160019091019061588e565b5061582b92915061591e565b82805482825590600052602060002090810192821561581f579160200282018281111561581f578251825591602001919060010190615804565b5b8082111561582b576000815560010161590a565b5b8082111561582b5780546001600160a01b031916815560010161591f56fe456e756d657261626c655365743a20696e646578206f7574206f6620626f756e64735265656e7472616e637947756172643a207265656e7472616e742063616c6c004f776e61626c653a206e6577206f776e657220697320746865207a65726f206164647265737354656e6172744d61726b6574706c6163653a20466565207472616e73666572206661696c6564416464726573733a20696e73756666696369656e742062616c616e636520666f722063616c6c496e697469616c697a61626c653a20636f6e747261637420697320616c726561647920696e697469616c697a656454656e6172744d61726b6574706c6163653a204f776e6572207472616e73666572206661696c6564536166654d6174683a206d756c7469706c69636174696f6e206f766572666c6f774f776e61626c653a2063616c6c6572206973206e6f7420746865206f776e65725361666545524332303a204552433230206f7065726174696f6e20646964206e6f74207375636365656473656e646572206d7573742062652061756374696f6e206f72206d61726b6574706c616365a26469706673582212209ca581b6be215b4c200dff5b61a03c2ed6e3869f5cedf2f1d81b89d2e595853c64736f6c634300060c0033",
  "linkReferences": {},
  "deployedLinkReferences": {}
}